{
  "contractName": "Models",
  "abi": [
    {
      "inputs": [],
      "stateMutability": "nonpayable",
      "type": "constructor"
    },
    {
      "anonymous": false,
      "inputs": [
        {
          "indexed": true,
          "internalType": "address",
          "name": "owner",
          "type": "address"
        },
        {
          "indexed": true,
          "internalType": "address",
          "name": "approved",
          "type": "address"
        },
        {
          "indexed": true,
          "internalType": "uint256",
          "name": "tokenId",
          "type": "uint256"
        }
      ],
      "name": "Approval",
      "type": "event"
    },
    {
      "anonymous": false,
      "inputs": [
        {
          "indexed": true,
          "internalType": "address",
          "name": "owner",
          "type": "address"
        },
        {
          "indexed": true,
          "internalType": "address",
          "name": "operator",
          "type": "address"
        },
        {
          "indexed": false,
          "internalType": "bool",
          "name": "approved",
          "type": "bool"
        }
      ],
      "name": "ApprovalForAll",
      "type": "event"
    },
    {
      "anonymous": false,
      "inputs": [
        {
          "indexed": false,
          "internalType": "string",
          "name": "_hash",
          "type": "string"
        }
      ],
      "name": "DataStoredInTheLog",
      "type": "event"
    },
    {
      "anonymous": false,
      "inputs": [
        {
          "indexed": true,
          "internalType": "address",
          "name": "previousOwner",
          "type": "address"
        },
        {
          "indexed": true,
          "internalType": "address",
          "name": "newOwner",
          "type": "address"
        }
      ],
      "name": "OwnershipTransferred",
      "type": "event"
    },
    {
      "anonymous": false,
      "inputs": [
        {
          "indexed": true,
          "internalType": "address",
          "name": "from",
          "type": "address"
        },
        {
          "indexed": true,
          "internalType": "address",
          "name": "to",
          "type": "address"
        },
        {
          "indexed": true,
          "internalType": "uint256",
          "name": "tokenId",
          "type": "uint256"
        }
      ],
      "name": "Transfer",
      "type": "event"
    },
    {
      "anonymous": false,
      "inputs": [
        {
          "indexed": false,
          "internalType": "uint256",
          "name": "AssetID",
          "type": "uint256"
        }
      ],
      "name": "returnAID",
      "type": "event"
    },
    {
      "anonymous": false,
      "inputs": [
        {
          "indexed": false,
          "internalType": "uint256",
          "name": "CertificateID",
          "type": "uint256"
        }
      ],
      "name": "returnCID",
      "type": "event"
    },
    {
      "anonymous": false,
      "inputs": [
        {
          "indexed": false,
          "internalType": "uint256",
          "name": "LicenseID",
          "type": "uint256"
        }
      ],
      "name": "returnLID",
      "type": "event"
    },
    {
      "inputs": [
        {
          "internalType": "uint256",
          "name": "",
          "type": "uint256"
        }
      ],
      "name": "AssetIDS",
      "outputs": [
        {
          "internalType": "uint256",
          "name": "",
          "type": "uint256"
        }
      ],
      "stateMutability": "view",
      "type": "function",
      "constant": true
    },
    {
      "inputs": [
        {
          "internalType": "uint256",
          "name": "",
          "type": "uint256"
        }
      ],
      "name": "CertificateIDS",
      "outputs": [
        {
          "internalType": "uint256",
          "name": "",
          "type": "uint256"
        }
      ],
      "stateMutability": "view",
      "type": "function",
      "constant": true
    },
    {
      "inputs": [
        {
          "internalType": "uint256",
          "name": "",
          "type": "uint256"
        }
      ],
      "name": "LIDToCID",
      "outputs": [
        {
          "internalType": "uint256",
          "name": "",
          "type": "uint256"
        }
      ],
      "stateMutability": "view",
      "type": "function",
      "constant": true
    },
    {
      "inputs": [
        {
          "internalType": "uint256",
          "name": "",
          "type": "uint256"
        }
      ],
      "name": "LicenseIDS",
      "outputs": [
        {
          "internalType": "uint256",
          "name": "",
          "type": "uint256"
        }
      ],
      "stateMutability": "view",
      "type": "function",
      "constant": true
    },
    {
      "inputs": [
        {
          "internalType": "address",
          "name": "to",
          "type": "address"
        },
        {
          "internalType": "uint256",
          "name": "tokenId",
          "type": "uint256"
        }
      ],
      "name": "approve",
      "outputs": [],
      "stateMutability": "nonpayable",
      "type": "function"
    },
    {
      "inputs": [
        {
          "internalType": "address",
          "name": "owner",
          "type": "address"
        }
      ],
      "name": "balanceOf",
      "outputs": [
        {
          "internalType": "uint256",
          "name": "",
          "type": "uint256"
        }
      ],
      "stateMutability": "view",
      "type": "function",
      "constant": true
    },
    {
      "inputs": [],
      "name": "baseURI",
      "outputs": [
        {
          "internalType": "string",
          "name": "",
          "type": "string"
        }
      ],
      "stateMutability": "view",
      "type": "function",
      "constant": true
    },
    {
      "inputs": [
        {
          "internalType": "uint256",
          "name": "tokenId",
          "type": "uint256"
        }
      ],
      "name": "getApproved",
      "outputs": [
        {
          "internalType": "address",
          "name": "",
          "type": "address"
        }
      ],
      "stateMutability": "view",
      "type": "function",
      "constant": true
    },
    {
      "inputs": [
        {
          "internalType": "address",
          "name": "owner",
          "type": "address"
        },
        {
          "internalType": "address",
          "name": "operator",
          "type": "address"
        }
      ],
      "name": "isApprovedForAll",
      "outputs": [
        {
          "internalType": "bool",
          "name": "",
          "type": "bool"
        }
      ],
      "stateMutability": "view",
      "type": "function",
      "constant": true
    },
    {
      "inputs": [],
      "name": "name",
      "outputs": [
        {
          "internalType": "string",
          "name": "",
          "type": "string"
        }
      ],
      "stateMutability": "view",
      "type": "function",
      "constant": true
    },
    {
      "inputs": [],
      "name": "owner",
      "outputs": [
        {
          "internalType": "address",
          "name": "",
          "type": "address"
        }
      ],
      "stateMutability": "view",
      "type": "function",
      "constant": true
    },
    {
      "inputs": [
        {
          "internalType": "uint256",
          "name": "tokenId",
          "type": "uint256"
        }
      ],
      "name": "ownerOf",
      "outputs": [
        {
          "internalType": "address",
          "name": "",
          "type": "address"
        }
      ],
      "stateMutability": "view",
      "type": "function",
      "constant": true
    },
    {
      "inputs": [],
      "name": "renounceOwnership",
      "outputs": [],
      "stateMutability": "nonpayable",
      "type": "function"
    },
    {
      "inputs": [
        {
          "internalType": "address",
          "name": "from",
          "type": "address"
        },
        {
          "internalType": "address",
          "name": "to",
          "type": "address"
        },
        {
          "internalType": "uint256",
          "name": "tokenId",
          "type": "uint256"
        }
      ],
      "name": "safeTransferFrom",
      "outputs": [],
      "stateMutability": "nonpayable",
      "type": "function"
    },
    {
      "inputs": [
        {
          "internalType": "address",
          "name": "from",
          "type": "address"
        },
        {
          "internalType": "address",
          "name": "to",
          "type": "address"
        },
        {
          "internalType": "uint256",
          "name": "tokenId",
          "type": "uint256"
        },
        {
          "internalType": "bytes",
          "name": "_data",
          "type": "bytes"
        }
      ],
      "name": "safeTransferFrom",
      "outputs": [],
      "stateMutability": "nonpayable",
      "type": "function"
    },
    {
      "inputs": [
        {
          "internalType": "address",
          "name": "operator",
          "type": "address"
        },
        {
          "internalType": "bool",
          "name": "approved",
          "type": "bool"
        }
      ],
      "name": "setApprovalForAll",
      "outputs": [],
      "stateMutability": "nonpayable",
      "type": "function"
    },
    {
      "inputs": [
        {
          "internalType": "string",
          "name": "_hash",
          "type": "string"
        }
      ],
      "name": "storeDataAsLog",
      "outputs": [],
      "stateMutability": "nonpayable",
      "type": "function"
    },
    {
      "inputs": [
        {
          "internalType": "string",
          "name": "_hash",
          "type": "string"
        }
      ],
      "name": "storeDataAsString",
      "outputs": [],
      "stateMutability": "nonpayable",
      "type": "function"
    },
    {
      "inputs": [
        {
          "internalType": "bytes32",
          "name": "multiHash",
          "type": "bytes32"
        },
        {
          "internalType": "bytes4",
          "name": "multiHash_Function",
          "type": "bytes4"
        }
      ],
      "name": "storeDataAsStruct",
      "outputs": [
        {
          "components": [
            {
              "internalType": "bytes32",
              "name": "multiHash",
              "type": "bytes32"
            },
            {
              "internalType": "bytes4",
              "name": "multiHash_Function",
              "type": "bytes4"
            }
          ],
          "internalType": "struct IPFSEngine.IpfsHash",
          "name": "IpfsHashMemory",
          "type": "tuple"
        }
      ],
      "stateMutability": "pure",
      "type": "function",
      "constant": true
    },
    {
      "inputs": [
        {
          "internalType": "bytes4",
          "name": "interfaceId",
          "type": "bytes4"
        }
      ],
      "name": "supportsInterface",
      "outputs": [
        {
          "internalType": "bool",
          "name": "",
          "type": "bool"
        }
      ],
      "stateMutability": "view",
      "type": "function",
      "constant": true
    },
    {
      "inputs": [],
      "name": "symbol",
      "outputs": [
        {
          "internalType": "string",
          "name": "",
          "type": "string"
        }
      ],
      "stateMutability": "view",
      "type": "function",
      "constant": true
    },
    {
      "inputs": [
        {
          "internalType": "uint256",
          "name": "index",
          "type": "uint256"
        }
      ],
      "name": "tokenByIndex",
      "outputs": [
        {
          "internalType": "uint256",
          "name": "",
          "type": "uint256"
        }
      ],
      "stateMutability": "view",
      "type": "function",
      "constant": true
    },
    {
      "inputs": [
        {
          "internalType": "address",
          "name": "owner",
          "type": "address"
        },
        {
          "internalType": "uint256",
          "name": "index",
          "type": "uint256"
        }
      ],
      "name": "tokenOfOwnerByIndex",
      "outputs": [
        {
          "internalType": "uint256",
          "name": "",
          "type": "uint256"
        }
      ],
      "stateMutability": "view",
      "type": "function",
      "constant": true
    },
    {
      "inputs": [
        {
          "internalType": "uint256",
          "name": "tokenId",
          "type": "uint256"
        }
      ],
      "name": "tokenURI",
      "outputs": [
        {
          "internalType": "string",
          "name": "",
          "type": "string"
        }
      ],
      "stateMutability": "view",
      "type": "function",
      "constant": true
    },
    {
      "inputs": [],
      "name": "totalSupply",
      "outputs": [
        {
          "internalType": "uint256",
          "name": "",
          "type": "uint256"
        }
      ],
      "stateMutability": "view",
      "type": "function",
      "constant": true
    },
    {
      "inputs": [
        {
          "internalType": "address",
          "name": "from",
          "type": "address"
        },
        {
          "internalType": "address",
          "name": "to",
          "type": "address"
        },
        {
          "internalType": "uint256",
          "name": "tokenId",
          "type": "uint256"
        }
      ],
      "name": "transferFrom",
      "outputs": [],
      "stateMutability": "nonpayable",
      "type": "function"
    },
    {
      "inputs": [
        {
          "internalType": "address",
          "name": "newOwner",
          "type": "address"
        }
      ],
      "name": "transferOwnership",
      "outputs": [],
      "stateMutability": "nonpayable",
      "type": "function"
    }
  ],
  "bytecode": "0x60806040526020600f556d04ee2d6d415b85acef810000000060108190556011556d09dc5ada82b70b59df02000000006012556d0eca8847c4129106ce83000000006013553480156200005157600080fd5b50604080518082018252601d81527f4469676974616c204d6564696120436f7079726967687420546f6b656e00000060208083019190915282518084019093526004835263111350d560e21b9083015290620000bd6301ffc9a760e01b6001600160e01b03620001a616565b8151620000d290600690602085019062000206565b508051620000e890600790602084019062000206565b50620001046380ac58cd60e01b6001600160e01b03620001a616565b6200011f635b5e139f60e01b6001600160e01b03620001a616565b6200013a63780e9d6360e01b6001600160e01b03620001a616565b5060009050620001526001600160e01b036200020116565b600a80546001600160a01b0319166001600160a01b038316908117909155604051919250906000907f8be0079c531659141344cd1fd0a4f28419497f9722a3daafe3b4186f6b6457e0908290a350620002df565b6001600160e01b03198082161415620001dc5760405162461bcd60e51b8152600401620001d390620002a8565b60405180910390fd5b6001600160e01b0319166000908152602081905260409020805460ff19166001179055565b335b90565b828054600181600116156101000203166002900490600052602060002090601f016020900481019282601f106200024957805160ff191683800117855562000279565b8280016001018555821562000279579182015b82811115620002795782518255916020019190600101906200025c565b50620002879291506200028b565b5090565b6200020391905b8082111562000287576000815560010162000292565b6020808252601c908201527f4552433136353a20696e76616c696420696e7465726661636520696400000000604082015260600190565b611d3580620002ef6000396000f3fe608060405234801561001057600080fd5b50600436106101a95760003560e01c80636c0360eb116100f9578063b88d4fde11610097578063d168614011610071578063d16861401461036d578063e985e9c514610380578063f2fde38b14610393578063fd7d4c0e146103a6576101a9565b8063b88d4fde14610334578063c87b56dd14610347578063cfd56b191461035a576101a9565b80638da5cb5b116100d35780638da5cb5b146102f157806395d89b41146102f9578063a22cb46514610301578063a52361d014610314576101a9565b80636c0360eb146102ce57806370a08231146102d6578063715018a6146102e9576101a9565b80632f745c59116101665780634e325ed3116101405780634e325ed3146102825780634f6ccce7146102955780635d3ea9c9146102a85780636352211e146102bb576101a9565b80632f745c591461024957806333242a191461025c57806342842e0e1461026f576101a9565b806301ffc9a7146101ae57806306fdde03146101d7578063081812fc146101ec578063095ea7b31461020c57806318160ddd1461022157806323b872dd14610236575b600080fd5b6101c16101bc366004611662565b6103b9565b6040516101ce91906117ff565b60405180910390f35b6101df6103dc565b6040516101ce919061180a565b6101ff6101fa3660046116cd565b610473565b6040516101ce91906117ae565b61021f61021a366004611614565b6104bf565b005b610229610557565b6040516101ce9190611c73565b61021f610244366004611531565b610568565b610229610257366004611614565b6105a0565b61021f61026a36600461169a565b6105d1565b61021f61027d366004611531565b61060b565b6102296102903660046116cd565b610626565b6102296102a33660046116cd565b610644565b6102296102b63660046116cd565b610660565b6101ff6102c93660046116cd565b610672565b6101df6106a0565b6102296102e43660046114e2565b610701565b61021f61074a565b6101ff6107c9565b6101df6107d8565b61021f61030f3660046115d9565b610839565b61032761032236600461163e565b610907565b6040516101ce9190611c52565b61021f610342366004611571565b610924565b6101df6103553660046116cd565b610963565b61021f61036836600461169a565b610aad565b61022961037b3660046116cd565b610ac4565b6101c161038e3660046114fd565b610ad1565b61021f6103a13660046114e2565b610aff565b6102296103b43660046116cd565b610bb6565b6001600160e01b0319811660009081526020819052604090205460ff165b919050565b60068054604080516020601f60026000196101006001881615020190951694909404938401819004810282018101909252828152606093909290918301828280156104685780601f1061043d57610100808354040283529160200191610468565b820191906000526020600020905b81548152906001019060200180831161044b57829003601f168201915b505050505090505b90565b600061047e82610bc3565b6104a35760405162461bcd60e51b815260040161049a90611aa7565b60405180910390fd5b506000908152600460205260409020546001600160a01b031690565b60006104ca82610672565b9050806001600160a01b0316836001600160a01b031614156104fe5760405162461bcd60e51b815260040161049a90611bc0565b806001600160a01b0316610510610bd6565b6001600160a01b0316148061052c575061052c8161038e610bd6565b6105485760405162461bcd60e51b815260040161049a906119be565b6105528383610bda565b505050565b60006105636002610c48565b905090565b610579610573610bd6565b82610c53565b6105955760405162461bcd60e51b815260040161049a90611c01565b610552838383610cd8565b6001600160a01b03821660009081526001602052604081206105c8908363ffffffff610df816565b90505b92915050565b7fdb08a06eba245dbd34ffbd08b80e14e9acdd66a8ca6f8f1f035348ced6ef7dc781604051610600919061180a565b60405180910390a150565b61055283838360405180602001604052806000815250610924565b600d818154811061063357fe5b600091825260209091200154905081565b60008061065860028463ffffffff610e0416565b509392505050565b60176020526000908152604090205481565b60006105cb82604051806060016040528060298152602001611cd7602991396002919063ffffffff610e2016565b60098054604080516020601f60026000196101006001881615020190951694909404938401819004810282018101909252828152606093909290918301828280156104685780601f1061043d57610100808354040283529160200191610468565b60006001600160a01b0382166107295760405162461bcd60e51b815260040161049a90611a1b565b6001600160a01b03821660009081526001602052604090206105cb90610c48565b610752610bd6565b600a546001600160a01b0390811691161461077f5760405162461bcd60e51b815260040161049a90611af3565b600a546040516000916001600160a01b0316907f8be0079c531659141344cd1fd0a4f28419497f9722a3daafe3b4186f6b6457e0908390a3600a80546001600160a01b0319169055565b600a546001600160a01b031690565b60078054604080516020601f60026000196101006001881615020190951694909404938401819004810282018101909252828152606093909290918301828280156104685780601f1061043d57610100808354040283529160200191610468565b610841610bd6565b6001600160a01b0316826001600160a01b031614156108725760405162461bcd60e51b815260040161049a9061193b565b806005600061087f610bd6565b6001600160a01b03908116825260208083019390935260409182016000908120918716808252919093529120805460ff1916921515929092179091556108c3610bd6565b6001600160a01b03167f17307eab39ab6107e8899845ad3d59bd9653f200f220920489ca2b5937696c31836040516108fb91906117ff565b60405180910390a35050565b61090f61139e565b9182526001600160e01b031916602082015290565b61093561092f610bd6565b83610c53565b6109515760405162461bcd60e51b815260040161049a90611c01565b61095d84848484610e37565b50505050565b606061096e82610bc3565b61098a5760405162461bcd60e51b815260040161049a90611b71565b60008281526008602090815260409182902080548351601f6002600019610100600186161502019093169290920491820184900484028101840190945280845260609392830182828015610a1f5780601f106109f457610100808354040283529160200191610a1f565b820191906000526020600020905b815481529060010190602001808311610a0257829003601f168201915b505060095493945050505060026000196101006001841615020190911604610a485790506103d7565b805115610a7a57600981604051602001610a6392919061172d565b6040516020818303038152906040529150506103d7565b6009610a8584610e6a565b604051602001610a9692919061172d565b604051602081830303815290604052915050919050565b8051610ac090600b9060208401906113b5565b5050565b600e818154811061063357fe5b6001600160a01b03918216600090815260056020908152604080832093909416825291909152205460ff1690565b610b07610bd6565b600a546001600160a01b03908116911614610b345760405162461bcd60e51b815260040161049a90611af3565b6001600160a01b038116610b5a5760405162461bcd60e51b815260040161049a906118b1565b600a546040516001600160a01b038084169216907f8be0079c531659141344cd1fd0a4f28419497f9722a3daafe3b4186f6b6457e090600090a3600a80546001600160a01b0319166001600160a01b0392909216919091179055565b600c818154811061063357fe5b60006105cb60028363ffffffff610f2e16565b3390565b600081815260046020526040902080546001600160a01b0319166001600160a01b0384169081179091558190610c0f82610672565b6001600160a01b03167f8c5be1e5ebec7d5bd14f71427d1e84f3dd0314c0f7b2291e5b200ac8c7c3b92560405160405180910390a45050565b60006105cb82610f3a565b6000610c5e82610bc3565b610c7a5760405162461bcd60e51b815260040161049a90611972565b6000610c8583610672565b9050806001600160a01b0316846001600160a01b03161480610cc05750836001600160a01b0316610cb584610473565b6001600160a01b0316145b80610cd05750610cd08185610ad1565b949350505050565b826001600160a01b0316610ceb82610672565b6001600160a01b031614610d115760405162461bcd60e51b815260040161049a90611b28565b6001600160a01b038216610d375760405162461bcd60e51b815260040161049a906118f7565b610d42838383610552565b610d4d600082610bda565b6001600160a01b0383166000908152600160205260409020610d75908263ffffffff610f3e16565b506001600160a01b0382166000908152600160205260409020610d9e908263ffffffff610f4a16565b50610db16002828463ffffffff610f5616565b5080826001600160a01b0316846001600160a01b03167fddf252ad1be2c89b69c2b068fc378daa952ba7f163c4a11628f55a4df523b3ef60405160405180910390a4505050565b60006105c88383610f6c565b6000808080610e138686610fb1565b9097909650945050505050565b6000610e2d84848461100d565b90505b9392505050565b610e42848484610cd8565b610e4e8484848461106c565b61095d5760405162461bcd60e51b815260040161049a9061185f565b606081610e8f57506040805180820190915260018152600360fc1b60208201526103d7565b8160005b8115610ea757600101600a82049150610e93565b6060816040519080825280601f01601f191660200182016040528015610ed4576020820181803883390190505b50859350905060001982015b8315610f2557600a840660300160f81b82828060019003935081518110610f0357fe5b60200101906001600160f81b031916908160001a905350600a84049350610ee0565b50949350505050565b60006105c883836111a6565b5490565b60006105c883836111be565b60006105c88383611284565b6000610e2d84846001600160a01b0385166112ce565b81546000908210610f8f5760405162461bcd60e51b815260040161049a9061181d565b826000018281548110610f9e57fe5b9060005260206000200154905092915050565b815460009081908310610fd65760405162461bcd60e51b815260040161049a90611a65565b6000846000018481548110610fe757fe5b906000526020600020906002020190508060000154816001015492509250509250929050565b6000828152600184016020526040812054828161103d5760405162461bcd60e51b815260040161049a919061180a565b5084600001600182038154811061105057fe5b9060005260206000209060020201600101549150509392505050565b6000611080846001600160a01b0316611365565b61108c57506001610cd0565b600060606001600160a01b038616630a85bd0160e11b6110aa610bd6565b8988886040516024016110c094939291906117c2565b60408051601f198184030181529181526020820180516001600160e01b03166001600160e01b03199094169390931790925290516110fe9190611711565b6000604051808303816000865af19150503d806000811461113b576040519150601f19603f3d011682016040523d82523d6000602084013e611140565b606091505b5091509150816111725780511561115a5780518082602001fd5b60405162461bcd60e51b815260040161049a9061185f565b600081806020019051611188919081019061167e565b6001600160e01b031916630a85bd0160e11b149350610cd092505050565b60009081526001919091016020526040902054151590565b6000818152600183016020526040812054801561127a57835460001980830191908101906000908790839081106111f157fe5b906000526020600020015490508087600001848154811061120e57fe5b60009182526020808320909101929092558281526001898101909252604090209084019055865487908061123e57fe5b600190038181906000526020600020016000905590558660010160008781526020019081526020016000206000905560019450505050506105cb565b60009150506105cb565b600061129083836111a6565b6112c6575081546001818101845560008481526020808220909301849055845484825282860190935260409020919091556105cb565b5060006105cb565b600082815260018401602052604081205480611333575050604080518082018252838152602080820184815286546001818101895560008981528481209551600290930290950191825591519082015586548684528188019092529290912055610e30565b8285600001600183038154811061134657fe5b9060005260206000209060020201600101819055506000915050610e30565b6000813f7fc5d2460186f7233c927e7db2dcc703c0e500b653ca82273b7bfad8045d85a470818114801590610cd0575050151592915050565b604080518082019091526000808252602082015290565b828054600181600116156101000203166002900490600052602060002090601f016020900481019282601f106113f657805160ff1916838001178555611423565b82800160010185558215611423579182015b82811115611423578251825591602001919060010190611408565b5061142f929150611433565b5090565b61047091905b8082111561142f5760008155600101611439565b80356001600160a01b03811681146105cb57600080fd5b600082601f830112611474578081fd5b813567ffffffffffffffff8082111561148b578283fd5b604051601f8301601f1916810160200182811182821017156114ab578485fd5b6040528281529250828483016020018610156114c657600080fd5b8260208601602083013760006020848301015250505092915050565b6000602082840312156114f3578081fd5b6105c8838361144d565b6000806040838503121561150f578081fd5b611519848461144d565b9150611528846020850161144d565b90509250929050565b600080600060608486031215611545578081fd5b833561155081611ca8565b9250602084013561156081611ca8565b929592945050506040919091013590565b60008060008060808587031215611586578081fd5b611590868661144d565b935061159f866020870161144d565b925060408501359150606085013567ffffffffffffffff8111156115c1578182fd5b6115cd87828801611464565b91505092959194509250565b600080604083850312156115eb578182fd5b6115f5848461144d565b915060208301358015158114611609578182fd5b809150509250929050565b60008060408385031215611626578182fd5b611630848461144d565b946020939093013593505050565b60008060408385031215611650578182fd5b82359150602083013561160981611cc0565b600060208284031215611673578081fd5b8135610e3081611cc0565b60006020828403121561168f578081fd5b8151610e3081611cc0565b6000602082840312156116ab578081fd5b813567ffffffffffffffff8111156116c1578182fd5b610cd084828501611464565b6000602082840312156116de578081fd5b5035919050565b600081518084526116fd816020860160208601611c7c565b601f01601f19169290920160200192915050565b60008251611723818460208701611c7c565b9190910192915050565b600080845460018082166000811461174c576001811461176357611792565b60ff198316865260028304607f1686019350611792565b600283048886526020808720875b8381101561178a5781548a820152908501908201611771565b505050860193505b50505083516117a5818360208801611c7c565b01949350505050565b6001600160a01b0391909116815260200190565b6001600160a01b03858116825284166020820152604081018390526080606082018190526000906117f5908301846116e5565b9695505050505050565b901515815260200190565b6000602082526105c860208301846116e5565b60208082526022908201527f456e756d657261626c655365743a20696e646578206f7574206f6620626f756e604082015261647360f01b606082015260800190565b60208082526032908201527f4552433732313a207472616e7366657220746f206e6f6e20455243373231526560408201527131b2b4bb32b91034b6b83632b6b2b73a32b960711b606082015260800190565b60208082526026908201527f4f776e61626c653a206e6577206f776e657220697320746865207a65726f206160408201526564647265737360d01b606082015260800190565b60208082526024908201527f4552433732313a207472616e7366657220746f20746865207a65726f206164646040820152637265737360e01b606082015260800190565b60208082526019908201527f4552433732313a20617070726f766520746f2063616c6c657200000000000000604082015260600190565b6020808252602c908201527f4552433732313a206f70657261746f7220717565727920666f72206e6f6e657860408201526b34b9ba32b73a103a37b5b2b760a11b606082015260800190565b60208082526038908201527f4552433732313a20617070726f76652063616c6c6572206973206e6f74206f7760408201527f6e6572206e6f7220617070726f76656420666f7220616c6c0000000000000000606082015260800190565b6020808252602a908201527f4552433732313a2062616c616e636520717565727920666f7220746865207a65604082015269726f206164647265737360b01b606082015260800190565b60208082526022908201527f456e756d657261626c654d61703a20696e646578206f7574206f6620626f756e604082015261647360f01b606082015260800190565b6020808252602c908201527f4552433732313a20617070726f76656420717565727920666f72206e6f6e657860408201526b34b9ba32b73a103a37b5b2b760a11b606082015260800190565b6020808252818101527f4f776e61626c653a2063616c6c6572206973206e6f7420746865206f776e6572604082015260600190565b60208082526029908201527f4552433732313a207472616e73666572206f6620746f6b656e2074686174206960408201526839903737ba1037bbb760b91b606082015260800190565b6020808252602f908201527f4552433732314d657461646174613a2055524920717565727920666f72206e6f60408201526e3732bc34b9ba32b73a103a37b5b2b760891b606082015260800190565b60208082526021908201527f4552433732313a20617070726f76616c20746f2063757272656e74206f776e656040820152603960f91b606082015260800190565b60208082526031908201527f4552433732313a207472616e736665722063616c6c6572206973206e6f74206f6040820152701ddb995c881b9bdc88185c1c1c9bdd9959607a1b606082015260800190565b815181526020918201516001600160e01b0319169181019190915260400190565b90815260200190565b60005b83811015611c97578181015183820152602001611c7f565b8381111561095d5750506000910152565b6001600160a01b0381168114611cbd57600080fd5b50565b6001600160e01b031981168114611cbd57600080fdfe4552433732313a206f776e657220717565727920666f72206e6f6e6578697374656e7420746f6b656ea2646970667358221220bbe12b3c7d68e6ce0a0918bb767e64b01fa9e5f94bb2a1a591511f393716922764736f6c63430006020033",
  "source": "pragma solidity ^0.6.0;\npragma experimental ABIEncoderV2;\n\nimport \"../node_modules/@openzeppelin/contracts/access/Ownable.sol\";\nimport \"../node_modules/@openzeppelin/contracts/math/SafeMath.sol\";\nimport \"../node_modules/@openzeppelin/contracts/token/ERC721/ERC721.sol\";\nimport \"./IPFSEngine.sol\";\n\ncontract Models is ERC721, Ownable, IPFSEngine {\n    using SafeMath for uint256;\n    constructor() public ERC721(\"Digital Media Copyright Token\", \"DMCT\") {}\n\n    //Events\n    event returnAID(uint256 AssetID);\n    event returnCID(uint256 CertificateID);\n    event returnLID(uint256 LicenseID);\n\n    //Global Variables\n    uint256[] public CertificateIDS;\n    uint256[] public LicenseIDS;\n    uint256[] public AssetIDS;\n\n    struct User {\n        address userAddress;\n        string userName;\n        uint256[] portfolio;\n    }\n    struct Asset {\n        uint256 index;\n        uint256 assetID;\n        bytes8 assetHash;\n        IpfsHash assetUrl;\n    }\n    struct License {\n        uint256 index;\n        uint256 licenseID;\n        address licenseOwner;\n        IpfsHash url;\n        bool status;\n    }\n    struct Certificate {\n        uint256 index;\n        uint256 certificateID; //CID\n        uint256 assetID; //AID\n        uint256[] licenses;\n        IpfsHash url;\n        string title;\n        address certificateCreator;\n        address certificateOwner;\n        address[] ownershipHistory;\n        bool status;\n    }\n\n    //Local Variables Declarations\n    uint256 internal _IDSIZE = 32;\n    uint256 internal _IDMODULUS = 10**_IDSIZE;\n    uint256 internal AI = 10**(_IDSIZE);\n    uint256 internal CI = 2 * (10**(_IDSIZE));\n    uint256 internal LI = 3 * (10**(_IDSIZE));\n\n    //Mappings\n    mapping(uint256 => Asset) AIDToAsset;\n    mapping(uint256 => Certificate) CIDToCertificate;\n    mapping(uint256 => License) LIDToLicense;\n    mapping(uint256 => uint256) public LIDToCID;\n    mapping(uint256 => uint256) AIDToCID;\n    mapping(uint256 => uint256) CIDToAIDIndex;\n    mapping(address => User) addressToUser;\n\n    //Security Access Modifiers\n    modifier onlyCreator(uint256 ID) {\n        if (ID < LI) {\n            require(\n                msg.sender == CIDToCertificate[ID].certificateCreator,\n                \"You are not the creator of this certificate\"\n            );\n        } else if (ID > LI) {\n            uint256 CID = LIDToCID[ID];\n            require(\n                msg.sender == CIDToCertificate[CID].certificateCreator,\n                \"You are not the creator of this license\"\n            );\n        }\n        _;\n    }\n\n    modifier onlyCertificateOwner(uint256 CID) {\n        require(CID < LI, \"CID is larger than the LI\");\n        require(\n            ownerOfToken(CID) == msg.sender,\n            \"Msg.sender is not the owner of the token\"\n        );\n        require(\n            msg.sender == CIDToCertificate[CID].certificateOwner,\n            \"You are not the owner of this certificate\"\n        );\n        _;\n    }\n\n    modifier onlyLicenseOwner(uint256 LID) {\n        require(LID > LI, \"LID is less than LI\");\n        require(\n            msg.sender == LIDToLicense[LID].licenseOwner,\n            \"Msg.sender is not the license owner\"\n        );\n        require(\n            ownerOfToken(LID) == msg.sender,\n            \"Msg.sender is not the owner of the token\"\n        );\n        _;\n    }\n\n    //SHA Encoding Functions\n    function generateAssetID(bytes8 assetHash, IpfsHash memory ipfsUrl)\n        internal\n        view\n        returns (uint256 assetID)\n    {\n        assetID = SafeMath.add(AI, (uint256(sha256(abi.encodePacked(assetHash, ipfsUrl.multiHash))) % _IDMODULUS));\n    }\n\n    function generateLicenseID(\n        uint256 certificateID,\n        address licenseCreator,\n        address licenseOwner\n    ) internal view returns (uint256 licenseID) {\n        licenseID = SafeMath.add(LI, (uint256(sha256(abi.encodePacked(certificateID,licenseCreator,licenseOwner))) % _IDMODULUS));\n    }\n\n    function generateCertificateID(uint256 assetID, address creator)\n        internal\n        view\n        returns (uint256 certificateID)\n    {\n        certificateID = SafeMath.add(CI, (uint256(sha256(abi.encodePacked(assetID, creator))) % _IDMODULUS));\n    }\n\n    //ERC721 Functions\n    function mint(address owner, uint256 ID) internal {\n        super._mint(owner, ID);\n    }\n\n    function burn(address owner, uint256 tokenID) internal {\n        require(isApprovedOrOwner(owner, tokenID) == true, 'You are not authorized to burn this token');\n        super._burn(tokenID);\n    }\n\n    function transferToken(\n        address from,\n        address to,\n        uint256 tokenID\n    ) internal {\n        super.safeTransferFrom(from, to, tokenID);\n    }\n\n    function isApprovedOrOwner(address _owner, uint256 _tokenID)\n        internal\n        view\n        returns (bool status)\n    {\n        status = super._isApprovedOrOwner(_owner, _tokenID);\n    }\n\n    function balance(address owner) internal view returns (uint256 _balance) {\n        _balance = super.balanceOf(owner);\n    }\n\n    function exists(uint256 _tokenID) internal view returns (bool status) {\n        status = super._exists(_tokenID);\n    }\n\n    function ownerOfToken(uint256 tokenID)\n        internal\n        view\n        returns (address owner)\n    {\n        owner = super.ownerOf(tokenID);\n    }\n\n    //Ownable Functions\n\n    //Safemath Functions\n}\n",
  "sourcePath": "C:\\MyData\\Projects\\Portfolio\\dmct\\contracts\\Models.sol",
  "compiler": {
    "name": "solc",
    "version": "0.6.2+commit.bacdbe57.Emscripten.clang"
  },
  "schemaVersion": "3.2.0",
  "updatedAt": "2020-11-14T17:27:55.977Z",
  "networkType": "ethereum",
  "devdoc": {
    "methods": {
      "approve(address,uint256)": {
        "details": "Approves another address to transfer the given token ID The zero address indicates there is no approved address. There can only be one approved address per token at a given time. Can only be called by the token owner or an approved operator.",
        "params": {
          "to": "address to be approved for the given token ID",
          "tokenId": "uint256 ID of the token to be approved"
        }
      },
      "balanceOf(address)": {
        "details": "Gets the balance of the specified address.",
        "params": {
          "owner": "address to query the balance of"
        },
        "returns": {
          "_0": "uint256 representing the amount owned by the passed address"
        }
      },
      "baseURI()": {
        "details": "Returns the base URI set via {_setBaseURI}. This will be automatically added as a prefix in {tokenURI} to each token's URI, or to the token ID if no specific URI is set for that token ID."
      },
      "getApproved(uint256)": {
        "details": "Gets the approved address for a token ID, or zero if no address set Reverts if the token ID does not exist.",
        "params": {
          "tokenId": "uint256 ID of the token to query the approval of"
        },
        "returns": {
          "_0": "address currently approved for the given token ID"
        }
      },
      "isApprovedForAll(address,address)": {
        "details": "Tells whether an operator is approved by a given owner.",
        "params": {
          "operator": "operator address which you want to query the approval of",
          "owner": "owner address which you want to query the approval of"
        },
        "returns": {
          "_0": "bool whether the given operator is approved by the given owner"
        }
      },
      "name()": {
        "details": "Gets the token name.",
        "returns": {
          "_0": "string representing the token name"
        }
      },
      "owner()": {
        "details": "Returns the address of the current owner."
      },
      "ownerOf(uint256)": {
        "details": "Gets the owner of the specified token ID.",
        "params": {
          "tokenId": "uint256 ID of the token to query the owner of"
        },
        "returns": {
          "_0": "address currently marked as the owner of the given token ID"
        }
      },
      "renounceOwnership()": {
        "details": "Leaves the contract without owner. It will not be possible to call `onlyOwner` functions anymore. Can only be called by the current owner.     * NOTE: Renouncing ownership will leave the contract without an owner, thereby removing any functionality that is only available to the owner."
      },
      "safeTransferFrom(address,address,uint256)": {
        "details": "Safely transfers the ownership of a given token ID to another address If the target address is a contract, it must implement {IERC721Receiver-onERC721Received}, which is called upon a safe transfer, and return the magic value `bytes4(keccak256(\"onERC721Received(address,address,uint256,bytes)\"))`; otherwise, the transfer is reverted. Requires the msg.sender to be the owner, approved, or operator",
        "params": {
          "from": "current owner of the token",
          "to": "address to receive the ownership of the given token ID",
          "tokenId": "uint256 ID of the token to be transferred"
        }
      },
      "safeTransferFrom(address,address,uint256,bytes)": {
        "details": "Safely transfers the ownership of a given token ID to another address If the target address is a contract, it must implement {IERC721Receiver-onERC721Received}, which is called upon a safe transfer, and return the magic value `bytes4(keccak256(\"onERC721Received(address,address,uint256,bytes)\"))`; otherwise, the transfer is reverted. Requires the _msgSender() to be the owner, approved, or operator",
        "params": {
          "_data": "bytes data to send along with a safe transfer check",
          "from": "current owner of the token",
          "to": "address to receive the ownership of the given token ID",
          "tokenId": "uint256 ID of the token to be transferred"
        }
      },
      "setApprovalForAll(address,bool)": {
        "details": "Sets or unsets the approval of a given operator An operator is allowed to transfer all tokens of the sender on their behalf.",
        "params": {
          "approved": "representing the status of the approval to be set",
          "operator": "operator address to set the approval"
        }
      },
      "supportsInterface(bytes4)": {
        "details": "See {IERC165-supportsInterface}.     * Time complexity O(1), guaranteed to always use less than 30 000 gas."
      },
      "symbol()": {
        "details": "Gets the token symbol.",
        "returns": {
          "_0": "string representing the token symbol"
        }
      },
      "tokenByIndex(uint256)": {
        "details": "Gets the token ID at a given index of all the tokens in this contract Reverts if the index is greater or equal to the total number of tokens.",
        "params": {
          "index": "uint256 representing the index to be accessed of the tokens list"
        },
        "returns": {
          "_0": "uint256 token ID at the given index of the tokens list"
        }
      },
      "tokenOfOwnerByIndex(address,uint256)": {
        "details": "Gets the token ID at a given index of the tokens list of the requested owner.",
        "params": {
          "index": "uint256 representing the index to be accessed of the requested tokens list",
          "owner": "address owning the tokens list to be accessed"
        },
        "returns": {
          "_0": "uint256 token ID at the given index of the tokens list owned by the requested address"
        }
      },
      "tokenURI(uint256)": {
        "details": "Returns the URI for a given token ID. May return an empty string.     * If a base URI is set (via {_setBaseURI}), it is added as a prefix to the token's own URI (via {_setTokenURI}).     * If there is a base URI but no token URI, the token's ID will be used as its URI when appending it to the base URI. This pattern for autogenerated token URIs can lead to large gas savings.     * .Examples |=== |`_setBaseURI()` |`_setTokenURI()` |`tokenURI()` | \"\" | \"\" | \"\" | \"\" | \"token.uri/123\" | \"token.uri/123\" | \"token.uri/\" | \"123\" | \"token.uri/123\" | \"token.uri/\" | \"\" | \"token.uri/<tokenId>\" |===     * Requirements:     * - `tokenId` must exist."
      },
      "totalSupply()": {
        "details": "Gets the total amount of tokens stored by the contract.",
        "returns": {
          "_0": "uint256 representing the total amount of tokens"
        }
      },
      "transferFrom(address,address,uint256)": {
        "details": "Transfers the ownership of a given token ID to another address. Usage of this method is discouraged, use {safeTransferFrom} whenever possible. Requires the msg.sender to be the owner, approved, or operator.",
        "params": {
          "from": "current owner of the token",
          "to": "address to receive the ownership of the given token ID",
          "tokenId": "uint256 ID of the token to be transferred"
        }
      },
      "transferOwnership(address)": {
        "details": "Transfers ownership of the contract to a new account (`newOwner`). Can only be called by the current owner."
      }
    }
  },
  "userdoc": {
    "methods": {}
  }
}