{
  "contractName": "DMCT",
  "abi": [
    {
      "constant": true,
      "inputs": [
        {
          "name": "interfaceId",
          "type": "bytes4"
        }
      ],
      "name": "supportsInterface",
      "outputs": [
        {
          "name": "",
          "type": "bool"
        }
      ],
      "payable": false,
      "stateMutability": "view",
      "type": "function",
      "signature": "0x01ffc9a7"
    },
    {
      "constant": false,
      "inputs": [],
      "name": "deleteUser",
      "outputs": [],
      "payable": false,
      "stateMutability": "nonpayable",
      "type": "function",
      "signature": "0x026ff05e"
    },
    {
      "constant": true,
      "inputs": [
        {
          "name": "tokenId",
          "type": "uint256"
        }
      ],
      "name": "getApproved",
      "outputs": [
        {
          "name": "",
          "type": "address"
        }
      ],
      "payable": false,
      "stateMutability": "view",
      "type": "function",
      "signature": "0x081812fc"
    },
    {
      "constant": false,
      "inputs": [
        {
          "name": "to",
          "type": "address"
        },
        {
          "name": "tokenId",
          "type": "uint256"
        }
      ],
      "name": "approve",
      "outputs": [],
      "payable": false,
      "stateMutability": "nonpayable",
      "type": "function",
      "signature": "0x095ea7b3"
    },
    {
      "constant": false,
      "inputs": [
        {
          "name": "userName",
          "type": "string"
        }
      ],
      "name": "updateUser",
      "outputs": [],
      "payable": false,
      "stateMutability": "nonpayable",
      "type": "function",
      "signature": "0x0b4f12f6"
    },
    {
      "constant": false,
      "inputs": [
        {
          "name": "from",
          "type": "address"
        },
        {
          "name": "to",
          "type": "address"
        },
        {
          "name": "tokenId",
          "type": "uint256"
        }
      ],
      "name": "transferFrom",
      "outputs": [],
      "payable": false,
      "stateMutability": "nonpayable",
      "type": "function",
      "signature": "0x23b872dd"
    },
    {
      "constant": false,
      "inputs": [
        {
          "name": "from",
          "type": "address"
        },
        {
          "name": "to",
          "type": "address"
        },
        {
          "name": "tokenId",
          "type": "uint256"
        }
      ],
      "name": "safeTransferFrom",
      "outputs": [],
      "payable": false,
      "stateMutability": "nonpayable",
      "type": "function",
      "signature": "0x42842e0e"
    },
    {
      "constant": true,
      "inputs": [
        {
          "name": "",
          "type": "uint256"
        }
      ],
      "name": "LicenseIDS",
      "outputs": [
        {
          "name": "",
          "type": "uint256"
        }
      ],
      "payable": false,
      "stateMutability": "view",
      "type": "function",
      "signature": "0x4e325ed3"
    },
    {
      "constant": false,
      "inputs": [
        {
          "name": "userName",
          "type": "string"
        }
      ],
      "name": "createUser",
      "outputs": [],
      "payable": false,
      "stateMutability": "nonpayable",
      "type": "function",
      "signature": "0x507ffba5"
    },
    {
      "constant": true,
      "inputs": [
        {
          "name": "",
          "type": "uint256"
        }
      ],
      "name": "LIDToCID",
      "outputs": [
        {
          "name": "",
          "type": "uint256"
        }
      ],
      "payable": false,
      "stateMutability": "view",
      "type": "function",
      "signature": "0x5d3ea9c9"
    },
    {
      "constant": true,
      "inputs": [
        {
          "name": "tokenId",
          "type": "uint256"
        }
      ],
      "name": "ownerOf",
      "outputs": [
        {
          "name": "",
          "type": "address"
        }
      ],
      "payable": false,
      "stateMutability": "view",
      "type": "function",
      "signature": "0x6352211e"
    },
    {
      "constant": true,
      "inputs": [
        {
          "name": "owner",
          "type": "address"
        }
      ],
      "name": "balanceOf",
      "outputs": [
        {
          "name": "",
          "type": "uint256"
        }
      ],
      "payable": false,
      "stateMutability": "view",
      "type": "function",
      "signature": "0x70a08231"
    },
    {
      "constant": false,
      "inputs": [],
      "name": "renounceOwnership",
      "outputs": [],
      "payable": false,
      "stateMutability": "nonpayable",
      "type": "function",
      "signature": "0x715018a6"
    },
    {
      "constant": true,
      "inputs": [],
      "name": "owner",
      "outputs": [
        {
          "name": "",
          "type": "address"
        }
      ],
      "payable": false,
      "stateMutability": "view",
      "type": "function",
      "signature": "0x8da5cb5b"
    },
    {
      "constant": true,
      "inputs": [],
      "name": "isOwner",
      "outputs": [
        {
          "name": "",
          "type": "bool"
        }
      ],
      "payable": false,
      "stateMutability": "view",
      "type": "function",
      "signature": "0x8f32d59b"
    },
    {
      "constant": false,
      "inputs": [
        {
          "name": "to",
          "type": "address"
        },
        {
          "name": "approved",
          "type": "bool"
        }
      ],
      "name": "setApprovalForAll",
      "outputs": [],
      "payable": false,
      "stateMutability": "nonpayable",
      "type": "function",
      "signature": "0xa22cb465"
    },
    {
      "constant": false,
      "inputs": [
        {
          "name": "from",
          "type": "address"
        },
        {
          "name": "to",
          "type": "address"
        },
        {
          "name": "tokenId",
          "type": "uint256"
        },
        {
          "name": "_data",
          "type": "bytes"
        }
      ],
      "name": "safeTransferFrom",
      "outputs": [],
      "payable": false,
      "stateMutability": "nonpayable",
      "type": "function",
      "signature": "0xb88d4fde"
    },
    {
      "constant": true,
      "inputs": [
        {
          "name": "",
          "type": "uint256"
        }
      ],
      "name": "AssetIDS",
      "outputs": [
        {
          "name": "",
          "type": "uint256"
        }
      ],
      "payable": false,
      "stateMutability": "view",
      "type": "function",
      "signature": "0xd1686140"
    },
    {
      "constant": true,
      "inputs": [
        {
          "name": "owner",
          "type": "address"
        },
        {
          "name": "operator",
          "type": "address"
        }
      ],
      "name": "isApprovedForAll",
      "outputs": [
        {
          "name": "",
          "type": "bool"
        }
      ],
      "payable": false,
      "stateMutability": "view",
      "type": "function",
      "signature": "0xe985e9c5"
    },
    {
      "constant": false,
      "inputs": [
        {
          "name": "newOwner",
          "type": "address"
        }
      ],
      "name": "transferOwnership",
      "outputs": [],
      "payable": false,
      "stateMutability": "nonpayable",
      "type": "function",
      "signature": "0xf2fde38b"
    },
    {
      "constant": true,
      "inputs": [
        {
          "name": "",
          "type": "uint256"
        }
      ],
      "name": "CertificateIDS",
      "outputs": [
        {
          "name": "",
          "type": "uint256"
        }
      ],
      "payable": false,
      "stateMutability": "view",
      "type": "function",
      "signature": "0xfd7d4c0e"
    },
    {
      "payable": true,
      "stateMutability": "payable",
      "type": "fallback"
    },
    {
      "anonymous": false,
      "inputs": [
        {
          "indexed": false,
          "name": "index",
          "type": "uint256"
        },
        {
          "indexed": false,
          "name": "CID",
          "type": "uint256"
        },
        {
          "indexed": false,
          "name": "msgsender",
          "type": "address"
        },
        {
          "indexed": false,
          "name": "onwershipHistory",
          "type": "address[]"
        },
        {
          "indexed": false,
          "name": "licenses",
          "type": "uint256[]"
        }
      ],
      "name": "ReturnCreateCertificate",
      "type": "event",
      "signature": "0x96172826f9ea866fc62df98936ebb5601ef36641adf5c4a7dd7b9953412b1a95"
    },
    {
      "anonymous": false,
      "inputs": [
        {
          "indexed": false,
          "name": "Licenses",
          "type": "uint256[]"
        }
      ],
      "name": "ReturnCertificateLicenses",
      "type": "event",
      "signature": "0xd49a4d28bb10172ee9a78709bdbfc91750333ca9c9012b22136a0471efb975f7"
    },
    {
      "anonymous": false,
      "inputs": [
        {
          "indexed": false,
          "name": "tokenStatus",
          "type": "bool"
        }
      ],
      "name": "ReturnDestroyToken",
      "type": "event",
      "signature": "0x486ba50ba1b2ac0157dc7c2b5bb2953cc5b90e298b682f197a4019d303de8366"
    },
    {
      "anonymous": false,
      "inputs": [
        {
          "indexed": false,
          "name": "creator",
          "type": "address"
        },
        {
          "indexed": false,
          "name": "owner",
          "type": "address"
        },
        {
          "indexed": false,
          "name": "ownershipHistory",
          "type": "address[]"
        },
        {
          "indexed": false,
          "name": "licenses",
          "type": "uint256[]"
        }
      ],
      "name": "ReturnTransferCertificate",
      "type": "event",
      "signature": "0x118156733240272377b9f5489d38ded92256543bb9d43c8295ec716f0ece5039"
    },
    {
      "anonymous": false,
      "inputs": [
        {
          "indexed": false,
          "name": "Number",
          "type": "uint256"
        },
        {
          "indexed": false,
          "name": "String",
          "type": "string"
        },
        {
          "indexed": false,
          "name": "Address",
          "type": "address"
        }
      ],
      "name": "ReturnTestData",
      "type": "event",
      "signature": "0x22b9c755030da0a8df2943f4e8a7957fe52af38f8a3ca8f4e2deac88d3620152"
    },
    {
      "anonymous": false,
      "inputs": [
        {
          "indexed": false,
          "name": "Boolean",
          "type": "bool"
        }
      ],
      "name": "ReturnTestBoolData",
      "type": "event",
      "signature": "0x97b7c9cb7bb176c0fb96877e03418b52ea0d7ba99071201ca2f3140b97451ccd"
    },
    {
      "anonymous": false,
      "inputs": [
        {
          "indexed": false,
          "name": "Number",
          "type": "uint256[]"
        }
      ],
      "name": "ReturnTestArrayData",
      "type": "event",
      "signature": "0xb980824ca9615efc2a4931640c07380d9e1ddabe014fee98672600f1e84db69e"
    },
    {
      "anonymous": false,
      "inputs": [
        {
          "indexed": false,
          "name": "userAddress",
          "type": "address"
        },
        {
          "indexed": false,
          "name": "userName",
          "type": "string"
        },
        {
          "indexed": false,
          "name": "portfolio",
          "type": "uint256[]"
        }
      ],
      "name": "ReturnCreateUser",
      "type": "event",
      "signature": "0x1762e6485dad7c291ae8191119acded92bd07cda85e738e1e570a5949d5a264b"
    },
    {
      "anonymous": false,
      "inputs": [
        {
          "indexed": false,
          "name": "AssetID",
          "type": "uint256"
        }
      ],
      "name": "returnAID",
      "type": "event",
      "signature": "0x4893c8577e724f997ce2a66eaa3376f5921e8c449711fa299dadf3dc2b688a98"
    },
    {
      "anonymous": false,
      "inputs": [
        {
          "indexed": false,
          "name": "CertificateID",
          "type": "uint256"
        }
      ],
      "name": "returnCID",
      "type": "event",
      "signature": "0x7bb34176ea5c54ad2400ab070d5ea84ffa3016a701e16082f71d4ff48d004f34"
    },
    {
      "anonymous": false,
      "inputs": [
        {
          "indexed": false,
          "name": "LicenseID",
          "type": "uint256"
        }
      ],
      "name": "returnLID",
      "type": "event",
      "signature": "0xa323dbc7f3cc04e17c7c12b5263e160308382919b308390323d16caf0c3d5304"
    },
    {
      "anonymous": false,
      "inputs": [
        {
          "indexed": true,
          "name": "previousOwner",
          "type": "address"
        },
        {
          "indexed": true,
          "name": "newOwner",
          "type": "address"
        }
      ],
      "name": "OwnershipTransferred",
      "type": "event",
      "signature": "0x8be0079c531659141344cd1fd0a4f28419497f9722a3daafe3b4186f6b6457e0"
    },
    {
      "anonymous": false,
      "inputs": [
        {
          "indexed": true,
          "name": "from",
          "type": "address"
        },
        {
          "indexed": true,
          "name": "to",
          "type": "address"
        },
        {
          "indexed": true,
          "name": "tokenId",
          "type": "uint256"
        }
      ],
      "name": "Transfer",
      "type": "event",
      "signature": "0xddf252ad1be2c89b69c2b068fc378daa952ba7f163c4a11628f55a4df523b3ef"
    },
    {
      "anonymous": false,
      "inputs": [
        {
          "indexed": true,
          "name": "owner",
          "type": "address"
        },
        {
          "indexed": true,
          "name": "approved",
          "type": "address"
        },
        {
          "indexed": true,
          "name": "tokenId",
          "type": "uint256"
        }
      ],
      "name": "Approval",
      "type": "event",
      "signature": "0x8c5be1e5ebec7d5bd14f71427d1e84f3dd0314c0f7b2291e5b200ac8c7c3b925"
    },
    {
      "anonymous": false,
      "inputs": [
        {
          "indexed": true,
          "name": "owner",
          "type": "address"
        },
        {
          "indexed": true,
          "name": "operator",
          "type": "address"
        },
        {
          "indexed": false,
          "name": "approved",
          "type": "bool"
        }
      ],
      "name": "ApprovalForAll",
      "type": "event",
      "signature": "0x17307eab39ab6107e8899845ad3d59bd9653f200f220920489ca2b5937696c31"
    },
    {
      "constant": false,
      "inputs": [
        {
          "name": "certificateID",
          "type": "uint256"
        },
        {
          "name": "licenseOwner",
          "type": "address"
        }
      ],
      "name": "createLicense",
      "outputs": [
        {
          "name": "licenseID",
          "type": "uint256"
        }
      ],
      "payable": false,
      "stateMutability": "nonpayable",
      "type": "function",
      "signature": "0x58be6f8e"
    },
    {
      "constant": false,
      "inputs": [
        {
          "name": "title",
          "type": "string"
        },
        {
          "name": "data",
          "type": "string"
        },
        {
          "name": "url",
          "type": "string"
        }
      ],
      "name": "createCertificate",
      "outputs": [
        {
          "name": "certificateID",
          "type": "uint256"
        },
        {
          "name": "assetID",
          "type": "uint256"
        }
      ],
      "payable": false,
      "stateMutability": "nonpayable",
      "type": "function",
      "signature": "0xac778b8f"
    },
    {
      "constant": false,
      "inputs": [
        {
          "name": "tokenID",
          "type": "uint256"
        }
      ],
      "name": "destroyToken",
      "outputs": [],
      "payable": false,
      "stateMutability": "nonpayable",
      "type": "function",
      "signature": "0x8a7d124b"
    },
    {
      "constant": false,
      "inputs": [
        {
          "name": "to",
          "type": "address"
        },
        {
          "name": "certificateID",
          "type": "uint256"
        }
      ],
      "name": "transferCertificte",
      "outputs": [],
      "payable": false,
      "stateMutability": "nonpayable",
      "type": "function",
      "signature": "0x2e8d9740"
    }
  ],
  "bytecode": "0x60806040526020600955600954600a0a600a55600954600a0a600b55600954600a0a600202600c55600954600a0a600302600d556000601455620000756301ffc9a77c01000000000000000000000000000000000000000000000000000000000262000176640100000000026401000000009004565b620000b26380ac58cd7c01000000000000000000000000000000000000000000000000000000000262000176640100000000026401000000009004565b33600560006101000a81548173ffffffffffffffffffffffffffffffffffffffff021916908373ffffffffffffffffffffffffffffffffffffffff160217905550600560009054906101000a900473ffffffffffffffffffffffffffffffffffffffff1673ffffffffffffffffffffffffffffffffffffffff16600073ffffffffffffffffffffffffffffffffffffffff167f8be0079c531659141344cd1fd0a4f28419497f9722a3daafe3b4186f6b6457e060405160405180910390a362000234565b63ffffffff7c010000000000000000000000000000000000000000000000000000000002817bffffffffffffffffffffffffffffffffffffffffffffffffffffffff191614151515620001c857600080fd5b6001600080837bffffffffffffffffffffffffffffffffffffffffffffffffffffffff19167bffffffffffffffffffffffffffffffffffffffffffffffffffffffff1916815260200190815260200160002060006101000a81548160ff02191690831515021790555050565b6143fc80620002446000396000f3fe608060405260043610610183576000357c0100000000000000000000000000000000000000000000000000000000900480636352211e116100ee578063a22cb465116100a7578063d168614011610081578063d168614014610c0a578063e985e9c514610c59578063f2fde38b14610ce2578063fd7d4c0e14610d3357610183565b8063a22cb4651461088a578063ac778b8f146108e7578063b88d4fde14610af857610183565b80636352211e146106d257806370a082311461074d578063715018a6146107b25780638a7d124b146107c95780638da5cb5b146108045780638f32d59b1461085b57610183565b80632e8d9740116101405780632e8d97401461042757806342842e0e146104825780634e325ed3146104fd578063507ffba51461054c57806358be6f8e146106145780635d3ea9c91461068357610183565b806301ffc9a714610185578063026ff05e146101f7578063081812fc1461020e578063095ea7b3146102895780630b4f12f6146102e457806323b872dd146103ac575b005b34801561019157600080fd5b506101dd600480360360208110156101a857600080fd5b8101908080357bffffffffffffffffffffffffffffffffffffffffffffffffffffffff19169060200190929190505050610d82565b604051808215151515815260200191505060405180910390f35b34801561020357600080fd5b5061020c610de9565b005b34801561021a57600080fd5b506102476004803603602081101561023157600080fd5b8101908080359060200190929190505050610f39565b604051808273ffffffffffffffffffffffffffffffffffffffff1673ffffffffffffffffffffffffffffffffffffffff16815260200191505060405180910390f35b34801561029557600080fd5b506102e2600480360360408110156102ac57600080fd5b81019080803573ffffffffffffffffffffffffffffffffffffffff16906020019092919080359060200190929190505050610f8a565b005b3480156102f057600080fd5b506103aa6004803603602081101561030757600080fd5b810190808035906020019064010000000081111561032457600080fd5b82018360208201111561033657600080fd5b8035906020019184600183028401116401000000008311171561035857600080fd5b91908080601f016020809104026020016040519081016040528093929190818152602001838380828437600081840152601f19601f8201169050808301925050505050505091929192905050506110cf565b005b3480156103b857600080fd5b50610425600480360360608110156103cf57600080fd5b81019080803573ffffffffffffffffffffffffffffffffffffffff169060200190929190803573ffffffffffffffffffffffffffffffffffffffff16906020019092919080359060200190929190505050611230565b005b34801561043357600080fd5b506104806004803603604081101561044a57600080fd5b81019080803573ffffffffffffffffffffffffffffffffffffffff16906020019092919080359060200190929190505050611255565b005b34801561048e57600080fd5b506104fb600480360360608110156104a557600080fd5b81019080803573ffffffffffffffffffffffffffffffffffffffff169060200190929190803573ffffffffffffffffffffffffffffffffffffffff169060200190929190803590602001909291905050506117fb565b005b34801561050957600080fd5b506105366004803603602081101561052057600080fd5b810190808035906020019092919050505061181c565b6040518082815260200191505060405180910390f35b34801561055857600080fd5b506106126004803603602081101561056f57600080fd5b810190808035906020019064010000000081111561058c57600080fd5b82018360208201111561059e57600080fd5b803590602001918460018302840111640100000000831117156105c057600080fd5b91908080601f016020809104026020016040519081016040528093929190818152602001838380828437600081840152601f19601f82011690508083019250505050505050919291929050505061183f565b005b34801561062057600080fd5b5061066d6004803603604081101561063757600080fd5b8101908080359060200190929190803573ffffffffffffffffffffffffffffffffffffffff169060200190929190505050611c84565b6040518082815260200191505060405180910390f35b34801561068f57600080fd5b506106bc600480360360208110156106a657600080fd5b81019080803590602001909291905050506121fc565b6040518082815260200191505060405180910390f35b3480156106de57600080fd5b5061070b600480360360208110156106f557600080fd5b8101908080359060200190929190505050612214565b604051808273ffffffffffffffffffffffffffffffffffffffff1673ffffffffffffffffffffffffffffffffffffffff16815260200191505060405180910390f35b34801561075957600080fd5b5061079c6004803603602081101561077057600080fd5b81019080803573ffffffffffffffffffffffffffffffffffffffff169060200190929190505050612292565b6040518082815260200191505060405180910390f35b3480156107be57600080fd5b506107c7612316565b005b3480156107d557600080fd5b50610802600480360360208110156107ec57600080fd5b81019080803590602001909291905050506123ea565b005b34801561081057600080fd5b506108196127e2565b604051808273ffffffffffffffffffffffffffffffffffffffff1673ffffffffffffffffffffffffffffffffffffffff16815260200191505060405180910390f35b34801561086757600080fd5b5061087061280c565b604051808215151515815260200191505060405180910390f35b34801561089657600080fd5b506108e5600480360360408110156108ad57600080fd5b81019080803573ffffffffffffffffffffffffffffffffffffffff169060200190929190803515159060200190929190505050612864565b005b3480156108f357600080fd5b50610adb6004803603606081101561090a57600080fd5b810190808035906020019064010000000081111561092757600080fd5b82018360208201111561093957600080fd5b8035906020019184600183028401116401000000008311171561095b57600080fd5b91908080601f016020809104026020016040519081016040528093929190818152602001838380828437600081840152601f19601f820116905080830192505050505050509192919290803590602001906401000000008111156109be57600080fd5b8201836020820111156109d057600080fd5b803590602001918460018302840111640100000000831117156109f257600080fd5b91908080601f016020809104026020016040519081016040528093929190818152602001838380828437600081840152601f19601f82011690508083019250505050505050919291929080359060200190640100000000811115610a5557600080fd5b820183602082011115610a6757600080fd5b80359060200191846001830284011164010000000083111715610a8957600080fd5b91908080601f016020809104026020016040519081016040528093929190818152602001838380828437600081840152601f19601f8201169050808301925050505050505091929192905050506129a0565b604051808381526020018281526020019250505060405180910390f35b348015610b0457600080fd5b50610c0860048036036080811015610b1b57600080fd5b81019080803573ffffffffffffffffffffffffffffffffffffffff169060200190929190803573ffffffffffffffffffffffffffffffffffffffff1690602001909291908035906020019092919080359060200190640100000000811115610b8257600080fd5b820183602082011115610b9457600080fd5b80359060200191846001830284011164010000000083111715610bb657600080fd5b91908080601f016020809104026020016040519081016040528093929190818152602001838380828437600081840152601f19601f820116905080830192505050505050509192919290505050612f9b565b005b348015610c1657600080fd5b50610c4360048036036020811015610c2d57600080fd5b8101908080359060200190929190505050612fc3565b6040518082815260200191505060405180910390f35b348015610c6557600080fd5b50610cc860048036036040811015610c7c57600080fd5b81019080803573ffffffffffffffffffffffffffffffffffffffff169060200190929190803573ffffffffffffffffffffffffffffffffffffffff169060200190929190505050612fe6565b604051808215151515815260200191505060405180910390f35b348015610cee57600080fd5b50610d3160048036036020811015610d0557600080fd5b81019080803573ffffffffffffffffffffffffffffffffffffffff16906020019092919050505061307a565b005b348015610d3f57600080fd5b50610d6c60048036036020811015610d5657600080fd5b8101908080359060200190929190505050613099565b6040518082815260200191505060405180910390f35b6000806000837bffffffffffffffffffffffffffffffffffffffffffffffffffffffff19167bffffffffffffffffffffffffffffffffffffffffffffffffffffffff1916815260200190815260200160002060009054906101000a900460ff169050919050565b6000601360003373ffffffffffffffffffffffffffffffffffffffff1673ffffffffffffffffffffffffffffffffffffffff16815260200190815260200160002060000160006101000a81548173ffffffffffffffffffffffffffffffffffffffff021916908373ffffffffffffffffffffffffffffffffffffffff1602179055506020604051908101604052806000815250601360003373ffffffffffffffffffffffffffffffffffffffff1673ffffffffffffffffffffffffffffffffffffffff1681526020019081526020016000206001019080519060200190610ed1929190613f9e565b50602060405190810160405280600060ff16815250601360003373ffffffffffffffffffffffffffffffffffffffff1673ffffffffffffffffffffffffffffffffffffffff168152602001908152602001600020600201906001610f3692919061401e565b50565b6000610f44826130bc565b1515610f4f57600080fd5b6002600083815260200190815260200160002060009054906101000a900473ffffffffffffffffffffffffffffffffffffffff169050919050565b6000610f9582612214565b90508073ffffffffffffffffffffffffffffffffffffffff168373ffffffffffffffffffffffffffffffffffffffff1614151515610fd257600080fd5b8073ffffffffffffffffffffffffffffffffffffffff163373ffffffffffffffffffffffffffffffffffffffff16148061101257506110118133612fe6565b5b151561101d57600080fd5b826002600084815260200190815260200160002060006101000a81548173ffffffffffffffffffffffffffffffffffffffff021916908373ffffffffffffffffffffffffffffffffffffffff160217905550818373ffffffffffffffffffffffffffffffffffffffff168273ffffffffffffffffffffffffffffffffffffffff167f8c5be1e5ebec7d5bd14f71427d1e84f3dd0314c0f7b2291e5b200ac8c7c3b92560405160405180910390a4505050565b600073ffffffffffffffffffffffffffffffffffffffff16601360003373ffffffffffffffffffffffffffffffffffffffff1673ffffffffffffffffffffffffffffffffffffffff16815260200190815260200160002060000160009054906101000a900473ffffffffffffffffffffffffffffffffffffffff1673ffffffffffffffffffffffffffffffffffffffff16141515156111d6576040517f08c379a00000000000000000000000000000000000000000000000000000000081526004018080602001828103825260138152602001807f5573657220646f6573206e6f742065786973740000000000000000000000000081525060200191505060405180910390fd5b80601360003373ffffffffffffffffffffffffffffffffffffffff1673ffffffffffffffffffffffffffffffffffffffff168152602001908152602001600020600101908051906020019061122c929190613f9e565b5050565b61123a338261312e565b151561124557600080fd5b6112508383836131c3565b505050565b600115156112633383613428565b15151415156112bd576040517f08c379a00000000000000000000000000000000000000000000000000000000081526004018080602001828103825260338152602001806143756033913960400191505060405180910390fd5b600d5481101515611336576040517f08c379a000000000000000000000000000000000000000000000000000000000815260040180806020018281038252601c8152602001807f596f752063616e6e6f74207472616e73666572204c6963656e7365730000000081525060200191505060405180910390fd5b8173ffffffffffffffffffffffffffffffffffffffff16600e600083815260200190815260200160002060070160009054906101000a900473ffffffffffffffffffffffffffffffffffffffff1673ffffffffffffffffffffffffffffffffffffffff16141515156113f3576040517f08c379a000000000000000000000000000000000000000000000000000000000815260040180806020018281038252602781526020018061434e6027913960400191505060405180910390fd5b60011515600e600083815260200190815260200160002060090160009054906101000a900460ff161515141515611492576040517f08c379a000000000000000000000000000000000000000000000000000000000815260040180806020018281038252601a8152602001807f5468697320636572746966696361746520697320636c6f73656400000000000081525060200191505060405180910390fd5b61149d33838361343c565b81600e600083815260200190815260200160002060070160006101000a81548173ffffffffffffffffffffffffffffffffffffffff021916908373ffffffffffffffffffffffffffffffffffffffff160217905550600e60008281526020019081526020016000206008018290806001815401808255809150509060018203906000526020600020016000909192909190916101000a81548173ffffffffffffffffffffffffffffffffffffffff021916908373ffffffffffffffffffffffffffffffffffffffff160217905550506000600e6000838152602001908152602001600020600301805490501115611608575b6001600e60008381526020019081526020016000206003018054905003601454111515611607576115f03383600e60008581526020019081526020016000206003016014548154811015156115e057fe5b906000526020600020015461343c565b60146000815480929190600101919050555061158f565b5b7f118156733240272377b9f5489d38ded92256543bb9d43c8295ec716f0ece5039600e600083815260200190815260200160002060060160009054906101000a900473ffffffffffffffffffffffffffffffffffffffff16600e600084815260200190815260200160002060070160009054906101000a900473ffffffffffffffffffffffffffffffffffffffff16600e6000858152602001908152602001600020600801600e6000868152602001908152602001600020600301604051808573ffffffffffffffffffffffffffffffffffffffff1673ffffffffffffffffffffffffffffffffffffffff1681526020018473ffffffffffffffffffffffffffffffffffffffff1673ffffffffffffffffffffffffffffffffffffffff168152602001806020018060200183810383528581815481526020019150805480156117a657602002820191906000526020600020905b8160009054906101000a900473ffffffffffffffffffffffffffffffffffffffff1673ffffffffffffffffffffffffffffffffffffffff168152602001906001019080831161175c575b505083810382528481815481526020019150805480156117e557602002820191906000526020600020905b8154815260200190600101908083116117d1575b5050965050505050505060405180910390a15050565b6118178383836020604051908101604052806000815250612f9b565b505050565b60078181548110151561182b57fe5b906000526020600020016000915090505481565b600073ffffffffffffffffffffffffffffffffffffffff16601360003373ffffffffffffffffffffffffffffffffffffffff1673ffffffffffffffffffffffffffffffffffffffff16815260200190815260200160002060000160009054906101000a900473ffffffffffffffffffffffffffffffffffffffff1673ffffffffffffffffffffffffffffffffffffffff16141515611945576040517f08c379a00000000000000000000000000000000000000000000000000000000081526004018080602001828103825260188152602001807f54686973205573657220616c726561647920657869737473000000000000000081525060200191505060405180910390fd5b6060604051908101604052803373ffffffffffffffffffffffffffffffffffffffff16815260200182815260200160006040519080825280602002602001820160405280156119a35781602001602082028038833980820191505090505b50815250601360003373ffffffffffffffffffffffffffffffffffffffff1673ffffffffffffffffffffffffffffffffffffffff16815260200190815260200160002060008201518160000160006101000a81548173ffffffffffffffffffffffffffffffffffffffff021916908373ffffffffffffffffffffffffffffffffffffffff1602179055506020820151816001019080519060200190611a49929190614070565b506040820151816002019080519060200190611a669291906140f0565b509050507f1762e6485dad7c291ae8191119acded92bd07cda85e738e1e570a5949d5a264b601360003373ffffffffffffffffffffffffffffffffffffffff1673ffffffffffffffffffffffffffffffffffffffff16815260200190815260200160002060000160009054906101000a900473ffffffffffffffffffffffffffffffffffffffff16601360003373ffffffffffffffffffffffffffffffffffffffff1673ffffffffffffffffffffffffffffffffffffffff168152602001908152602001600020600101601360003373ffffffffffffffffffffffffffffffffffffffff1673ffffffffffffffffffffffffffffffffffffffff168152602001908152602001600020600201604051808473ffffffffffffffffffffffffffffffffffffffff1673ffffffffffffffffffffffffffffffffffffffff1681526020018060200180602001838103835285818154600181600116156101000203166002900481526020019150805460018160011615610100020316600290048015611c315780601f10611c0657610100808354040283529160200191611c31565b820191906000526020600020905b815481529060010190602001808311611c1457829003601f168201915b50508381038252848181548152602001915080548015611c7057602002820191906000526020600020905b815481526020019060010190808311611c5c575b50509550505050505060405180910390a150565b600082600d5481101515611d00576040517f08c379a00000000000000000000000000000000000000000000000000000000081526004018080602001828103825260198152602001807f434944206973206c6172676572207468616e20746865204c490000000000000081525060200191505060405180910390fd5b3373ffffffffffffffffffffffffffffffffffffffff16611d208261344c565b73ffffffffffffffffffffffffffffffffffffffff16141515611d8e576040517f08c379a00000000000000000000000000000000000000000000000000000000081526004018080602001828103825260288152602001806143266028913960400191505060405180910390fd5b600e600082815260200190815260200160002060070160009054906101000a900473ffffffffffffffffffffffffffffffffffffffff1673ffffffffffffffffffffffffffffffffffffffff163373ffffffffffffffffffffffffffffffffffffffff16141515611e4a576040517f08c379a00000000000000000000000000000000000000000000000000000000081526004018080602001828103825260298152602001806143a86029913960400191505060405180910390fd5b611e8b84600e600087815260200190815260200160002060070160009054906101000a900473ffffffffffffffffffffffffffffffffffffffff168561345e565b9150611e9561413d565b60a06040519081016040528060078054905081526020018481526020018573ffffffffffffffffffffffffffffffffffffffff168152602001600e60008881526020019081526020016000206004018054600181600116156101000203166002900480601f016020809104026020016040519081016040528092919081815260200182805460018160011615610100020316600290048015611f785780601f10611f4d57610100808354040283529160200191611f78565b820191906000526020600020905b815481529060010190602001808311611f5b57829003601f168201915b505050505081526020016001151581525090506007839080600181540180825580915050906001820390600052602060002001600090919290919091505550611ff7600e600087815260200190815260200160002060070160009054906101000a900473ffffffffffffffffffffffffffffffffffffffff16846135c3565b600e600086815260200190815260200160002060030183908060018154018082558091505090600182039060005260206000200160009091929091909150555080600f6000858152602001908152602001600020600082015181600001556020820151816001015560408201518160020160006101000a81548173ffffffffffffffffffffffffffffffffffffffff021916908373ffffffffffffffffffffffffffffffffffffffff16021790555060608201518160030190805190602001906120c2929190614070565b5060808201518160040160006101000a81548160ff021916908315150217905550905050601360003373ffffffffffffffffffffffffffffffffffffffff1673ffffffffffffffffffffffffffffffffffffffff1681526020019081526020016000206002018390806001815401808255809150509060018203906000526020600020016000909192909190915055508460106000858152602001908152602001600020819055507fd49a4d28bb10172ee9a78709bdbfc91750333ca9c9012b22136a0471efb975f7600e6000878152602001908152602001600020600301604051808060200182810382528381815481526020019150805480156121e657602002820191906000526020600020905b8154815260200190600101908083116121d2575b50509250505060405180910390a1505092915050565b60106020528060005260406000206000915090505481565b6000806001600084815260200190815260200160002060009054906101000a900473ffffffffffffffffffffffffffffffffffffffff169050600073ffffffffffffffffffffffffffffffffffffffff168173ffffffffffffffffffffffffffffffffffffffff161415151561228957600080fd5b80915050919050565b60008073ffffffffffffffffffffffffffffffffffffffff168273ffffffffffffffffffffffffffffffffffffffff16141515156122cf57600080fd5b600360008373ffffffffffffffffffffffffffffffffffffffff1673ffffffffffffffffffffffffffffffffffffffff168152602001908152602001600020549050919050565b61231e61280c565b151561232957600080fd5b600073ffffffffffffffffffffffffffffffffffffffff16600560009054906101000a900473ffffffffffffffffffffffffffffffffffffffff1673ffffffffffffffffffffffffffffffffffffffff167f8be0079c531659141344cd1fd0a4f28419497f9722a3daafe3b4186f6b6457e060405160405180910390a36000600560006101000a81548173ffffffffffffffffffffffffffffffffffffffff021916908373ffffffffffffffffffffffffffffffffffffffff160217905550565b600d548110151561267d575b6001600e60006010600085815260200190815260200160002054815260200190815260200160002060030180549050036014541115156125fc5780600e60006010600085815260200190815260200160002054815260200190815260200160002060030160145481548110151561246957fe5b906000526020600020015414156125e557600e6000601060008481526020019081526020016000205481526020019081526020016000206003016001600e60006010600086815260200190815260200160002054815260200190815260200160002060030180549050038154811015156124df57fe5b9060005260206000200154600e60006010600085815260200190815260200160002054815260200190815260200160002060030160145481548110151561252257fe5b9060005260206000200181905550600e6000601060008481526020019081526020016000205481526020019081526020016000206003016001600e600060106000868152602001908152602001600020548152602001908152602001600020600301805490500381548110151561259557fe5b9060005260206000200160009055600e6000601060008481526020019081526020016000205481526020019081526020016000206003018054809190600190036125df9190614185565b506125fc565b6014600081548092919060010191905055506123f6565b6000600f600083815260200190815260200160002060040160006101000a81548160ff02191690831515021790555061263533826135d1565b7f486ba50ba1b2ac0157dc7c2b5bb2953cc5b90e298b682f197a4019d303de836661265f826135df565b604051808215151515815260200191505060405180910390a16127df565b60006012600083815260200190815260200160002054905060006011600060086001600880549050038154811015156126b257fe5b9060005260206000200154815260200190815260200160002054905060086001600880549050038154811015156126e557fe5b90600052602060002001546008838154811015156126ff57fe5b9060005260206000200181905550816012600083815260200190815260200160002081905550600860016008805490500381548110151561273c57fe5b9060005260206000200160009055600880548091906001900361275f9190614185565b506000600e600085815260200190815260200160002060090160006101000a81548160ff02191690831515021790555061279933846135d1565b7f486ba50ba1b2ac0157dc7c2b5bb2953cc5b90e298b682f197a4019d303de83666127c3846135df565b604051808215151515815260200191505060405180910390a150505b50565b6000600560009054906101000a900473ffffffffffffffffffffffffffffffffffffffff16905090565b6000600560009054906101000a900473ffffffffffffffffffffffffffffffffffffffff1673ffffffffffffffffffffffffffffffffffffffff163373ffffffffffffffffffffffffffffffffffffffff1614905090565b3373ffffffffffffffffffffffffffffffffffffffff168273ffffffffffffffffffffffffffffffffffffffff161415151561289f57600080fd5b80600460003373ffffffffffffffffffffffffffffffffffffffff1673ffffffffffffffffffffffffffffffffffffffff16815260200190815260200160002060008473ffffffffffffffffffffffffffffffffffffffff1673ffffffffffffffffffffffffffffffffffffffff16815260200190815260200160002060006101000a81548160ff0219169083151502179055508173ffffffffffffffffffffffffffffffffffffffff163373ffffffffffffffffffffffffffffffffffffffff167f17307eab39ab6107e8899845ad3d59bd9653f200f220920489ca2b5937696c3183604051808215151515815260200191505060405180910390a35050565b6000806129ac846135f1565b90505b6008805490506014541015612a68578060086014548154811015156129d057fe5b906000526020600020015414151515612a51576040517f08c379a00000000000000000000000000000000000000000000000000000000081526004018080602001828103825260148152602001807f417373657420616c72656164792065786973747300000000000000000000000081525060200191505060405180910390fd5b6014600081548092919060010191905055506129af565b612a72813361371b565b9150816011600083815260200190815260200160002081905550600160088290806001815401808255809150509060018203906000526020600020016000909192909190915055036012600084815260200190815260200160002081905550612ad96141b1565b6101406040519081016040528060068054905081526020018481526020018381526020016000604051908082528060200260200182016040528015612b2d5781602001602082028038833980820191505090505b5081526020018581526020018781526020013373ffffffffffffffffffffffffffffffffffffffff1681526020013373ffffffffffffffffffffffffffffffffffffffff1681526020016000604051908082528060200260200182016040528015612ba75781602001602082028038833980820191505090505b508152602001600115158152509050600683908060018154018082558091505090600182039060005260206000200160009091929091909150555080600e60008581526020019081526020016000206000820151816000015560208201518160010155604082015181600201556060820151816003019080519060200190612c309291906140f0565b506080820151816004019080519060200190612c4d929190614070565b5060a0820151816005019080519060200190612c6a929190614070565b5060c08201518160060160006101000a81548173ffffffffffffffffffffffffffffffffffffffff021916908373ffffffffffffffffffffffffffffffffffffffff16021790555060e08201518160070160006101000a81548173ffffffffffffffffffffffffffffffffffffffff021916908373ffffffffffffffffffffffffffffffffffffffff160217905550610100820151816008019080519060200190612d16929190614233565b506101208201518160090160006101000a81548160ff021916908315150217905550905050600e60008481526020019081526020016000206008013390806001815401808255809150509060018203906000526020600020016000909192909190916101000a81548173ffffffffffffffffffffffffffffffffffffffff021916908373ffffffffffffffffffffffffffffffffffffffff16021790555050601360003373ffffffffffffffffffffffffffffffffffffffff1673ffffffffffffffffffffffffffffffffffffffff168152602001908152602001600020600201839080600181540180825580915050906001820390600052602060002001600090919290919091505550612e2b33846135c3565b7f96172826f9ea866fc62df98936ebb5601ef36641adf5c4a7dd7b9953412b1a958160000151826020015133600e6000888152602001908152602001600020600801600e6000898152602001908152602001600020600301604051808681526020018581526020018473ffffffffffffffffffffffffffffffffffffffff1673ffffffffffffffffffffffffffffffffffffffff16815260200180602001806020018381038352858181548152602001915080548015612f4057602002820191906000526020600020905b8160009054906101000a900473ffffffffffffffffffffffffffffffffffffffff1673ffffffffffffffffffffffffffffffffffffffff1681526020019060010190808311612ef6575b50508381038252848181548152602001915080548015612f7f57602002820191906000526020600020905b815481526020019060010190808311612f6b575b505097505050505050505060405180910390a150935093915050565b612fa6848484611230565b612fb28484848461383c565b1515612fbd57600080fd5b50505050565b600881815481101515612fd257fe5b906000526020600020016000915090505481565b6000600460008473ffffffffffffffffffffffffffffffffffffffff1673ffffffffffffffffffffffffffffffffffffffff16815260200190815260200160002060008373ffffffffffffffffffffffffffffffffffffffff1673ffffffffffffffffffffffffffffffffffffffff16815260200190815260200160002060009054906101000a900460ff16905092915050565b61308261280c565b151561308d57600080fd5b61309681613a5f565b50565b6006818154811015156130a857fe5b906000526020600020016000915090505481565b6000806001600084815260200190815260200160002060009054906101000a900473ffffffffffffffffffffffffffffffffffffffff169050600073ffffffffffffffffffffffffffffffffffffffff168173ffffffffffffffffffffffffffffffffffffffff161415915050919050565b60008061313a83612214565b90508073ffffffffffffffffffffffffffffffffffffffff168473ffffffffffffffffffffffffffffffffffffffff1614806131a957508373ffffffffffffffffffffffffffffffffffffffff1661319184610f39565b73ffffffffffffffffffffffffffffffffffffffff16145b806131ba57506131b98185612fe6565b5b91505092915050565b8273ffffffffffffffffffffffffffffffffffffffff166131e382612214565b73ffffffffffffffffffffffffffffffffffffffff1614151561320557600080fd5b600073ffffffffffffffffffffffffffffffffffffffff168273ffffffffffffffffffffffffffffffffffffffff161415151561324157600080fd5b61324a81613b5b565b61329d6001600360008673ffffffffffffffffffffffffffffffffffffffff1673ffffffffffffffffffffffffffffffffffffffff16815260200190815260200160002054613c1b90919063ffffffff16565b600360008573ffffffffffffffffffffffffffffffffffffffff1673ffffffffffffffffffffffffffffffffffffffff168152602001908152602001600020819055506133336001600360008573ffffffffffffffffffffffffffffffffffffffff1673ffffffffffffffffffffffffffffffffffffffff16815260200190815260200160002054613c3d90919063ffffffff16565b600360008473ffffffffffffffffffffffffffffffffffffffff1673ffffffffffffffffffffffffffffffffffffffff16815260200190815260200160002081905550816001600083815260200190815260200160002060006101000a81548173ffffffffffffffffffffffffffffffffffffffff021916908373ffffffffffffffffffffffffffffffffffffffff160217905550808273ffffffffffffffffffffffffffffffffffffffff168473ffffffffffffffffffffffffffffffffffffffff167fddf252ad1be2c89b69c2b068fc378daa952ba7f163c4a11628f55a4df523b3ef60405160405180910390a4505050565b6000613434838361312e565b905092915050565b6134478383836117fb565b505050565b600061345782612214565b9050919050565b6000600a546002858585604051602001808481526020018373ffffffffffffffffffffffffffffffffffffffff1673ffffffffffffffffffffffffffffffffffffffff166c010000000000000000000000000281526014018273ffffffffffffffffffffffffffffffffffffffff1673ffffffffffffffffffffffffffffffffffffffff166c0100000000000000000000000002815260140193505050506040516020818303038152906040526040518082805190602001908083835b602083101515613540578051825260208201915060208101905060208303925061351b565b6001836020036101000a038019825116818451168082178552505050505050905001915050602060405180830381855afa158015613582573d6000803e3d6000fd5b5050506040513d602081101561359757600080fd5b8101908080519060200190929190505050600190048115156135b557fe5b06600d540190509392505050565b6135cd8282613c5e565b5050565b6135db8282613df7565b5050565b60006135ea826130bc565b9050919050565b6000600a546002836040516020018082805190602001908083835b602083101515613631578051825260208201915060208101905060208303925061360c565b6001836020036101000a0380198251168184511680821785525050505050509050019150506040516020818303038152906040526040518082805190602001908083835b60208310151561369a5780518252602082019150602081019050602083039250613675565b6001836020036101000a038019825116818451168082178552505050505050905001915050602060405180830381855afa1580156136dc573d6000803e3d6000fd5b5050506040513d60208110156136f157600080fd5b81019080805190602001909291905050506001900481151561370f57fe5b06600b54019050919050565b6000600a5460028484604051602001808381526020018273ffffffffffffffffffffffffffffffffffffffff1673ffffffffffffffffffffffffffffffffffffffff166c01000000000000000000000000028152601401925050506040516020818303038152906040526040518082805190602001908083835b6020831015156137ba5780518252602082019150602081019050602083039250613795565b6001836020036101000a038019825116818451168082178552505050505050905001915050602060405180830381855afa1580156137fc573d6000803e3d6000fd5b5050506040513d602081101561381157600080fd5b81019080805190602001909291905050506001900481151561382f57fe5b06600c5401905092915050565b600061385d8473ffffffffffffffffffffffffffffffffffffffff16613f8b565b151561386c5760019050613a57565b60008473ffffffffffffffffffffffffffffffffffffffff1663150b7a02338887876040518563ffffffff167c0100000000000000000000000000000000000000000000000000000000028152600401808573ffffffffffffffffffffffffffffffffffffffff1673ffffffffffffffffffffffffffffffffffffffff1681526020018473ffffffffffffffffffffffffffffffffffffffff1673ffffffffffffffffffffffffffffffffffffffff16815260200183815260200180602001828103825283818151815260200191508051906020019080838360005b83811015613963578082015181840152602081019050613948565b50505050905090810190601f1680156139905780820380516001836020036101000a031916815260200191505b5095505050505050602060405180830381600087803b1580156139b257600080fd5b505af11580156139c6573d6000803e3d6000fd5b505050506040513d60208110156139dc57600080fd5b8101908080519060200190929190505050905063150b7a027c0100000000000000000000000000000000000000000000000000000000027bffffffffffffffffffffffffffffffffffffffffffffffffffffffff1916817bffffffffffffffffffffffffffffffffffffffffffffffffffffffff1916149150505b949350505050565b600073ffffffffffffffffffffffffffffffffffffffff168173ffffffffffffffffffffffffffffffffffffffff1614151515613a9b57600080fd5b8073ffffffffffffffffffffffffffffffffffffffff16600560009054906101000a900473ffffffffffffffffffffffffffffffffffffffff1673ffffffffffffffffffffffffffffffffffffffff167f8be0079c531659141344cd1fd0a4f28419497f9722a3daafe3b4186f6b6457e060405160405180910390a380600560006101000a81548173ffffffffffffffffffffffffffffffffffffffff021916908373ffffffffffffffffffffffffffffffffffffffff16021790555050565b600073ffffffffffffffffffffffffffffffffffffffff166002600083815260200190815260200160002060009054906101000a900473ffffffffffffffffffffffffffffffffffffffff1673ffffffffffffffffffffffffffffffffffffffff16141515613c185760006002600083815260200190815260200160002060006101000a81548173ffffffffffffffffffffffffffffffffffffffff021916908373ffffffffffffffffffffffffffffffffffffffff1602179055505b50565b6000828211151515613c2c57600080fd5b600082840390508091505092915050565b6000808284019050838110151515613c5457600080fd5b8091505092915050565b600073ffffffffffffffffffffffffffffffffffffffff168273ffffffffffffffffffffffffffffffffffffffff1614151515613c9a57600080fd5b613ca3816130bc565b151515613caf57600080fd5b816001600083815260200190815260200160002060006101000a81548173ffffffffffffffffffffffffffffffffffffffff021916908373ffffffffffffffffffffffffffffffffffffffff160217905550613d546001600360008573ffffffffffffffffffffffffffffffffffffffff1673ffffffffffffffffffffffffffffffffffffffff16815260200190815260200160002054613c3d90919063ffffffff16565b600360008473ffffffffffffffffffffffffffffffffffffffff1673ffffffffffffffffffffffffffffffffffffffff16815260200190815260200160002081905550808273ffffffffffffffffffffffffffffffffffffffff16600073ffffffffffffffffffffffffffffffffffffffff167fddf252ad1be2c89b69c2b068fc378daa952ba7f163c4a11628f55a4df523b3ef60405160405180910390a45050565b8173ffffffffffffffffffffffffffffffffffffffff16613e1782612214565b73ffffffffffffffffffffffffffffffffffffffff16141515613e3957600080fd5b613e4281613b5b565b613e956001600360008573ffffffffffffffffffffffffffffffffffffffff1673ffffffffffffffffffffffffffffffffffffffff16815260200190815260200160002054613c1b90919063ffffffff16565b600360008473ffffffffffffffffffffffffffffffffffffffff1673ffffffffffffffffffffffffffffffffffffffff1681526020019081526020016000208190555060006001600083815260200190815260200160002060006101000a81548173ffffffffffffffffffffffffffffffffffffffff021916908373ffffffffffffffffffffffffffffffffffffffff16021790555080600073ffffffffffffffffffffffffffffffffffffffff168373ffffffffffffffffffffffffffffffffffffffff167fddf252ad1be2c89b69c2b068fc378daa952ba7f163c4a11628f55a4df523b3ef60405160405180910390a45050565b600080823b905060008111915050919050565b828054600181600116156101000203166002900490600052602060002090601f016020900481019282601f10613fdf57805160ff191683800117855561400d565b8280016001018555821561400d579182015b8281111561400c578251825591602001919060010190613ff1565b5b50905061401a91906142bd565b5090565b82805482825590600052602060002090810192821561405f579160200282015b8281111561405e578251829060ff1690559160200191906001019061403e565b5b50905061406c91906142bd565b5090565b828054600181600116156101000203166002900490600052602060002090601f016020900481019282601f106140b157805160ff19168380011785556140df565b828001600101855582156140df579182015b828111156140de5782518255916020019190600101906140c3565b5b5090506140ec91906142bd565b5090565b82805482825590600052602060002090810192821561412c579160200282015b8281111561412b578251825591602001919060010190614110565b5b50905061413991906142bd565b5090565b60a0604051908101604052806000815260200160008152602001600073ffffffffffffffffffffffffffffffffffffffff168152602001606081526020016000151581525090565b8154818355818111156141ac578183600052602060002091820191016141ab91906142bd565b5b505050565b61014060405190810160405280600081526020016000815260200160008152602001606081526020016060815260200160608152602001600073ffffffffffffffffffffffffffffffffffffffff168152602001600073ffffffffffffffffffffffffffffffffffffffff168152602001606081526020016000151581525090565b8280548282559060005260206000209081019282156142ac579160200282015b828111156142ab5782518260006101000a81548173ffffffffffffffffffffffffffffffffffffffff021916908373ffffffffffffffffffffffffffffffffffffffff16021790555091602001919060010190614253565b5b5090506142b991906142e2565b5090565b6142df91905b808211156142db5760008160009055506001016142c3565b5090565b90565b61432291905b8082111561431e57600081816101000a81549073ffffffffffffffffffffffffffffffffffffffff0219169055506001016142e8565b5090565b9056fe4d73672e73656e646572206973206e6f7420746865206f776e6572206f662074686520746f6b656e54686973207573657220616c7265616479206f776e732074686973206365727469666963617465596f7520617265206e6f7420616e20616c6c6f77656420746f207472616e736665722074686973206365727469666963617465596f7520617265206e6f7420746865206f776e6572206f662074686973206365727469666963617465a165627a7a72305820f5dd885c660516d4c290b8d6fceaed57d4cf55641cab41d30995361f5e70fa660029",
  "source": "pragma solidity ^0.5.3;\n\nimport \"contracts/Models.sol\";\nimport \"contracts/Artisan.sol\";\n\ncontract DMCT is Models, Artisan {\n\n    //Events\n    event ReturnCreateCertificate(uint index, uint CID, address msgsender, address[] onwershipHistory, uint[] licenses);\n    event ReturnCertificateLicenses(uint[] Licenses);\n    event ReturnDestroyToken(bool tokenStatus);\n    event ReturnTransferCertificate(address creator, address owner, address[] ownershipHistory, uint[] licenses);\n    event ReturnTestData(uint Number, string String, address Address);\n    event ReturnTestBoolData(bool Boolean);\n    event ReturnTestArrayData(uint[] Number);\n    \n    uint i = 0; //loop counter\n\n    function () external payable {\n        \n    }\n\n    //Create Functions\n    function createLicense(uint certificateID, address licenseOwner) public onlyCertificateOwner(certificateID) returns (uint licenseID) {\n        licenseID = generateLicenseID(certificateID, CIDToCertificate[certificateID].certificateOwner, licenseOwner);\n        License memory license = License(LicenseIDS.length, licenseID, licenseOwner, CIDToCertificate[certificateID].url, true);\n        LicenseIDS.push(licenseID);\n        Models.mint(CIDToCertificate[certificateID].certificateOwner, licenseID);\n        CIDToCertificate[certificateID].licenses.push(licenseID);\n        LIDToLicense[licenseID] = license;\n        addressToUser[msg.sender].portfolio.push(licenseID);\n        LIDToCID[licenseID] = certificateID;\n        emit ReturnCertificateLicenses(CIDToCertificate[certificateID].licenses);\n    }\n\n    function createCertificate(string memory title, string memory data, string memory url) public returns (uint certificateID, uint assetID) { \n        assetID = generateAssetID(data);\n        while(i < AssetIDS.length) {\n            require(AssetIDS[i] != assetID, \"Asset already exists\");\n            i++;\n        }\n        certificateID = generateCertificateID(assetID, msg.sender);\n        AIDToCID[assetID] = certificateID;\n        CIDToAIDIndex[certificateID] = AssetIDS.push(assetID)-1;\n        Certificate memory certificate = Certificate(CertificateIDS.length, certificateID, assetID, new uint[](0), url, title, msg.sender, msg.sender, new address[](0), true);\n        CertificateIDS.push(certificateID);\n        CIDToCertificate[certificateID] = certificate;\n        CIDToCertificate[certificateID].ownershipHistory.push(msg.sender);\n        addressToUser[msg.sender].portfolio.push(certificateID);\n        //ERC721 Mint\n        Models.mint(msg.sender, certificateID);\n        emit ReturnCreateCertificate(certificate.index, certificate.certificateID, msg.sender, CIDToCertificate[certificateID].ownershipHistory, CIDToCertificate[certificateID].licenses);\n    }\n\n    function destroyToken(uint tokenID) public {\n        if(tokenID >= LI) {\n            while(i <= CIDToCertificate[LIDToCID[tokenID]].licenses.length-1) {\n                if(CIDToCertificate[LIDToCID[tokenID]].licenses[i] == tokenID) {\n                    CIDToCertificate[LIDToCID[tokenID]].licenses[i] = CIDToCertificate[LIDToCID[tokenID]].licenses[CIDToCertificate[LIDToCID[tokenID]].licenses.length-1];\n                    delete CIDToCertificate[LIDToCID[tokenID]].licenses[CIDToCertificate[LIDToCID[tokenID]].licenses.length-1];\n                    CIDToCertificate[LIDToCID[tokenID]].licenses.length--;\n                    break;\n                }\n                i++;\n            }\n            LIDToLicense[tokenID].status = false;\n            Models.burn(msg.sender, tokenID);\n            emit ReturnDestroyToken(Models.exists(tokenID));\n        }\n\n        else {\n            uint index = CIDToAIDIndex[tokenID];\n            uint CID = AIDToCID[AssetIDS[AssetIDS.length-1]];\n            AssetIDS[index] = AssetIDS[AssetIDS.length-1];\n            CIDToAIDIndex[CID] = index;\n            delete AssetIDS[AssetIDS.length-1];\n            AssetIDS.length--;\n            CIDToCertificate[tokenID].status = false; \n            Models.burn(msg.sender, tokenID);\n            emit ReturnDestroyToken(Models.exists(tokenID));\n        }\n    }\n\n    function transferCertificte(address to, uint certificateID) public {\n        require(isApprovedOrOwner(msg.sender, certificateID) == true, \"You are not an allowed to transfer this certificate\");\n        require(certificateID < LI, \"You cannot transfer Licenses\");\n        require(CIDToCertificate[certificateID].certificateOwner != to, \"This user already owns this certificate\");\n        require(CIDToCertificate[certificateID].status == true, \"This certificate is closed\");\n        transferToken(msg.sender, to, certificateID);\n        CIDToCertificate[certificateID].certificateOwner = to;\n        CIDToCertificate[certificateID].ownershipHistory.push(to);\n        if(CIDToCertificate[certificateID].licenses.length > 0) {\n            while(i <= CIDToCertificate[certificateID].licenses.length-1) {\n                transferToken(msg.sender, to, CIDToCertificate[certificateID].licenses[i]);\n                i++;\n            }\n        }\n        emit ReturnTransferCertificate(CIDToCertificate[certificateID].certificateCreator, CIDToCertificate[certificateID].certificateOwner, CIDToCertificate[certificateID].ownershipHistory, CIDToCertificate[certificateID].licenses);\n    }\n}",
  "sourcePath": "C:\\Users\\Purple\\Documents\\Life\\Work\\Passion\\Blockchain\\Blockchain Development\\EthereumdApp\\Portfolio(OG)\\contracts\\DMCT\\DMCT.sol",
  "compiler": {
    "name": "solc",
    "version": "0.5.3+commit.10d17f24.Emscripten.clang"
  },
  "schemaVersion": "3.0.5",
  "updatedAt": "2019-03-21T21:56:06.041Z",
  "devdoc": {
    "methods": {
      "approve(address,uint256)": {
        "details": "Approves another address to transfer the given token ID The zero address indicates there is no approved address. There can only be one approved address per token at a given time. Can only be called by the token owner or an approved operator.",
        "params": {
          "to": "address to be approved for the given token ID",
          "tokenId": "uint256 ID of the token to be approved"
        }
      },
      "balanceOf(address)": {
        "details": "Gets the balance of the specified address",
        "params": {
          "owner": "address to query the balance of"
        },
        "return": "uint256 representing the amount owned by the passed address"
      },
      "getApproved(uint256)": {
        "details": "Gets the approved address for a token ID, or zero if no address set Reverts if the token ID does not exist.",
        "params": {
          "tokenId": "uint256 ID of the token to query the approval of"
        },
        "return": "address currently approved for the given token ID"
      },
      "isApprovedForAll(address,address)": {
        "details": "Tells whether an operator is approved by a given owner",
        "params": {
          "operator": "operator address which you want to query the approval of",
          "owner": "owner address which you want to query the approval of"
        },
        "return": "bool whether the given operator is approved by the given owner"
      },
      "isOwner()": {
        "return": "true if `msg.sender` is the owner of the contract."
      },
      "owner()": {
        "return": "the address of the owner."
      },
      "ownerOf(uint256)": {
        "details": "Gets the owner of the specified token ID",
        "params": {
          "tokenId": "uint256 ID of the token to query the owner of"
        },
        "return": "owner address currently marked as the owner of the given token ID"
      },
      "renounceOwnership()": {
        "details": "Allows the current owner to relinquish control of the contract."
      },
      "safeTransferFrom(address,address,uint256)": {
        "details": "Safely transfers the ownership of a given token ID to another address If the target address is a contract, it must implement `onERC721Received`, which is called upon a safe transfer, and return the magic value `bytes4(keccak256(\"onERC721Received(address,address,uint256,bytes)\"))`; otherwise, the transfer is reverted.     * Requires the msg sender to be the owner, approved, or operator",
        "params": {
          "from": "current owner of the token",
          "to": "address to receive the ownership of the given token ID",
          "tokenId": "uint256 ID of the token to be transferred"
        }
      },
      "safeTransferFrom(address,address,uint256,bytes)": {
        "details": "Safely transfers the ownership of a given token ID to another address If the target address is a contract, it must implement `onERC721Received`, which is called upon a safe transfer, and return the magic value `bytes4(keccak256(\"onERC721Received(address,address,uint256,bytes)\"))`; otherwise, the transfer is reverted. Requires the msg sender to be the owner, approved, or operator",
        "params": {
          "_data": "bytes data to send along with a safe transfer check",
          "from": "current owner of the token",
          "to": "address to receive the ownership of the given token ID",
          "tokenId": "uint256 ID of the token to be transferred"
        }
      },
      "setApprovalForAll(address,bool)": {
        "details": "Sets or unsets the approval of a given operator An operator is allowed to transfer all tokens of the sender on their behalf",
        "params": {
          "approved": "representing the status of the approval to be set",
          "to": "operator address to set the approval"
        }
      },
      "supportsInterface(bytes4)": {
        "details": "implement supportsInterface(bytes4) using a lookup table"
      },
      "transferFrom(address,address,uint256)": {
        "details": "Transfers the ownership of a given token ID to another address Usage of this method is discouraged, use `safeTransferFrom` whenever possible Requires the msg sender to be the owner, approved, or operator",
        "params": {
          "from": "current owner of the token",
          "to": "address to receive the ownership of the given token ID",
          "tokenId": "uint256 ID of the token to be transferred"
        }
      },
      "transferOwnership(address)": {
        "details": "Allows the current owner to transfer control of the contract to a newOwner.",
        "params": {
          "newOwner": "The address to transfer ownership to."
        }
      }
    }
  },
  "userdoc": {
    "methods": {
      "renounceOwnership()": {
        "notice": "Renouncing to ownership will leave the contract without an owner. It will not be possible to call the functions with the `onlyOwner` modifier anymore."
      }
    }
  }
}