{
  "contractName": "Models",
  "abi": [
    {
      "constant": true,
      "inputs": [
        {
          "name": "interfaceId",
          "type": "bytes4"
        }
      ],
      "name": "supportsInterface",
      "outputs": [
        {
          "name": "",
          "type": "bool"
        }
      ],
      "payable": false,
      "stateMutability": "view",
      "type": "function",
      "signature": "0x01ffc9a7"
    },
    {
      "constant": true,
      "inputs": [
        {
          "name": "tokenId",
          "type": "uint256"
        }
      ],
      "name": "getApproved",
      "outputs": [
        {
          "name": "",
          "type": "address"
        }
      ],
      "payable": false,
      "stateMutability": "view",
      "type": "function",
      "signature": "0x081812fc"
    },
    {
      "constant": false,
      "inputs": [
        {
          "name": "to",
          "type": "address"
        },
        {
          "name": "tokenId",
          "type": "uint256"
        }
      ],
      "name": "approve",
      "outputs": [],
      "payable": false,
      "stateMutability": "nonpayable",
      "type": "function",
      "signature": "0x095ea7b3"
    },
    {
      "constant": false,
      "inputs": [
        {
          "name": "from",
          "type": "address"
        },
        {
          "name": "to",
          "type": "address"
        },
        {
          "name": "tokenId",
          "type": "uint256"
        }
      ],
      "name": "transferFrom",
      "outputs": [],
      "payable": false,
      "stateMutability": "nonpayable",
      "type": "function",
      "signature": "0x23b872dd"
    },
    {
      "constant": false,
      "inputs": [
        {
          "name": "from",
          "type": "address"
        },
        {
          "name": "to",
          "type": "address"
        },
        {
          "name": "tokenId",
          "type": "uint256"
        }
      ],
      "name": "safeTransferFrom",
      "outputs": [],
      "payable": false,
      "stateMutability": "nonpayable",
      "type": "function",
      "signature": "0x42842e0e"
    },
    {
      "constant": true,
      "inputs": [
        {
          "name": "",
          "type": "uint256"
        }
      ],
      "name": "LicenseIDS",
      "outputs": [
        {
          "name": "",
          "type": "uint256"
        }
      ],
      "payable": false,
      "stateMutability": "view",
      "type": "function",
      "signature": "0x4e325ed3"
    },
    {
      "constant": true,
      "inputs": [
        {
          "name": "",
          "type": "uint256"
        }
      ],
      "name": "LIDToCID",
      "outputs": [
        {
          "name": "",
          "type": "uint256"
        }
      ],
      "payable": false,
      "stateMutability": "view",
      "type": "function",
      "signature": "0x5d3ea9c9"
    },
    {
      "constant": true,
      "inputs": [
        {
          "name": "tokenId",
          "type": "uint256"
        }
      ],
      "name": "ownerOf",
      "outputs": [
        {
          "name": "",
          "type": "address"
        }
      ],
      "payable": false,
      "stateMutability": "view",
      "type": "function",
      "signature": "0x6352211e"
    },
    {
      "constant": true,
      "inputs": [
        {
          "name": "owner",
          "type": "address"
        }
      ],
      "name": "balanceOf",
      "outputs": [
        {
          "name": "",
          "type": "uint256"
        }
      ],
      "payable": false,
      "stateMutability": "view",
      "type": "function",
      "signature": "0x70a08231"
    },
    {
      "constant": false,
      "inputs": [],
      "name": "renounceOwnership",
      "outputs": [],
      "payable": false,
      "stateMutability": "nonpayable",
      "type": "function",
      "signature": "0x715018a6"
    },
    {
      "constant": true,
      "inputs": [],
      "name": "owner",
      "outputs": [
        {
          "name": "",
          "type": "address"
        }
      ],
      "payable": false,
      "stateMutability": "view",
      "type": "function",
      "signature": "0x8da5cb5b"
    },
    {
      "constant": true,
      "inputs": [],
      "name": "isOwner",
      "outputs": [
        {
          "name": "",
          "type": "bool"
        }
      ],
      "payable": false,
      "stateMutability": "view",
      "type": "function",
      "signature": "0x8f32d59b"
    },
    {
      "constant": false,
      "inputs": [
        {
          "name": "to",
          "type": "address"
        },
        {
          "name": "approved",
          "type": "bool"
        }
      ],
      "name": "setApprovalForAll",
      "outputs": [],
      "payable": false,
      "stateMutability": "nonpayable",
      "type": "function",
      "signature": "0xa22cb465"
    },
    {
      "constant": false,
      "inputs": [
        {
          "name": "from",
          "type": "address"
        },
        {
          "name": "to",
          "type": "address"
        },
        {
          "name": "tokenId",
          "type": "uint256"
        },
        {
          "name": "_data",
          "type": "bytes"
        }
      ],
      "name": "safeTransferFrom",
      "outputs": [],
      "payable": false,
      "stateMutability": "nonpayable",
      "type": "function",
      "signature": "0xb88d4fde"
    },
    {
      "constant": true,
      "inputs": [
        {
          "name": "",
          "type": "uint256"
        }
      ],
      "name": "AssetIDS",
      "outputs": [
        {
          "name": "",
          "type": "uint256"
        }
      ],
      "payable": false,
      "stateMutability": "view",
      "type": "function",
      "signature": "0xd1686140"
    },
    {
      "constant": true,
      "inputs": [
        {
          "name": "owner",
          "type": "address"
        },
        {
          "name": "operator",
          "type": "address"
        }
      ],
      "name": "isApprovedForAll",
      "outputs": [
        {
          "name": "",
          "type": "bool"
        }
      ],
      "payable": false,
      "stateMutability": "view",
      "type": "function",
      "signature": "0xe985e9c5"
    },
    {
      "constant": false,
      "inputs": [
        {
          "name": "newOwner",
          "type": "address"
        }
      ],
      "name": "transferOwnership",
      "outputs": [],
      "payable": false,
      "stateMutability": "nonpayable",
      "type": "function",
      "signature": "0xf2fde38b"
    },
    {
      "constant": true,
      "inputs": [
        {
          "name": "",
          "type": "uint256"
        }
      ],
      "name": "CertificateIDS",
      "outputs": [
        {
          "name": "",
          "type": "uint256"
        }
      ],
      "payable": false,
      "stateMutability": "view",
      "type": "function",
      "signature": "0xfd7d4c0e"
    },
    {
      "payable": true,
      "stateMutability": "payable",
      "type": "fallback"
    },
    {
      "anonymous": false,
      "inputs": [
        {
          "indexed": false,
          "name": "AssetID",
          "type": "uint256"
        }
      ],
      "name": "returnAID",
      "type": "event",
      "signature": "0x4893c8577e724f997ce2a66eaa3376f5921e8c449711fa299dadf3dc2b688a98"
    },
    {
      "anonymous": false,
      "inputs": [
        {
          "indexed": false,
          "name": "CertificateID",
          "type": "uint256"
        }
      ],
      "name": "returnCID",
      "type": "event",
      "signature": "0x7bb34176ea5c54ad2400ab070d5ea84ffa3016a701e16082f71d4ff48d004f34"
    },
    {
      "anonymous": false,
      "inputs": [
        {
          "indexed": false,
          "name": "LicenseID",
          "type": "uint256"
        }
      ],
      "name": "returnLID",
      "type": "event",
      "signature": "0xa323dbc7f3cc04e17c7c12b5263e160308382919b308390323d16caf0c3d5304"
    },
    {
      "anonymous": false,
      "inputs": [
        {
          "indexed": true,
          "name": "previousOwner",
          "type": "address"
        },
        {
          "indexed": true,
          "name": "newOwner",
          "type": "address"
        }
      ],
      "name": "OwnershipTransferred",
      "type": "event",
      "signature": "0x8be0079c531659141344cd1fd0a4f28419497f9722a3daafe3b4186f6b6457e0"
    },
    {
      "anonymous": false,
      "inputs": [
        {
          "indexed": true,
          "name": "from",
          "type": "address"
        },
        {
          "indexed": true,
          "name": "to",
          "type": "address"
        },
        {
          "indexed": true,
          "name": "tokenId",
          "type": "uint256"
        }
      ],
      "name": "Transfer",
      "type": "event",
      "signature": "0xddf252ad1be2c89b69c2b068fc378daa952ba7f163c4a11628f55a4df523b3ef"
    },
    {
      "anonymous": false,
      "inputs": [
        {
          "indexed": true,
          "name": "owner",
          "type": "address"
        },
        {
          "indexed": true,
          "name": "approved",
          "type": "address"
        },
        {
          "indexed": true,
          "name": "tokenId",
          "type": "uint256"
        }
      ],
      "name": "Approval",
      "type": "event",
      "signature": "0x8c5be1e5ebec7d5bd14f71427d1e84f3dd0314c0f7b2291e5b200ac8c7c3b925"
    },
    {
      "anonymous": false,
      "inputs": [
        {
          "indexed": true,
          "name": "owner",
          "type": "address"
        },
        {
          "indexed": true,
          "name": "operator",
          "type": "address"
        },
        {
          "indexed": false,
          "name": "approved",
          "type": "bool"
        }
      ],
      "name": "ApprovalForAll",
      "type": "event",
      "signature": "0x17307eab39ab6107e8899845ad3d59bd9653f200f220920489ca2b5937696c31"
    }
  ],
  "bytecode": "0x60806040526020600955600954600a0a600a55600954600a0a600b55600954600a0a600202600c55600954600a0a600302600d5561006e6301ffc9a77c01000000000000000000000000000000000000000000000000000000000261016c640100000000026401000000009004565b6100a96380ac58cd7c01000000000000000000000000000000000000000000000000000000000261016c640100000000026401000000009004565b33600560006101000a81548173ffffffffffffffffffffffffffffffffffffffff021916908373ffffffffffffffffffffffffffffffffffffffff160217905550600560009054906101000a900473ffffffffffffffffffffffffffffffffffffffff1673ffffffffffffffffffffffffffffffffffffffff16600073ffffffffffffffffffffffffffffffffffffffff167f8be0079c531659141344cd1fd0a4f28419497f9722a3daafe3b4186f6b6457e060405160405180910390a3610229565b63ffffffff7c010000000000000000000000000000000000000000000000000000000002817bffffffffffffffffffffffffffffffffffffffffffffffffffffffff1916141515156101bd57600080fd5b6001600080837bffffffffffffffffffffffffffffffffffffffffffffffffffffffff19167bffffffffffffffffffffffffffffffffffffffffffffffffffffffff1916815260200190815260200160002060006101000a81548160ff02191690831515021790555050565b611768806102386000396000f3fe608060405260043610610126576000357c010000000000000000000000000000000000000000000000000000000090048063715018a6116100b2578063b88d4fde11610081578063b88d4fde146105de578063d1686140146106f0578063e985e9c51461073f578063f2fde38b146107c8578063fd7d4c0e1461081957610126565b8063715018a6146104e45780638da5cb5b146104fb5780638f32d59b14610552578063a22cb4651461058157610126565b806342842e0e116100f957806342842e0e146102eb5780634e325ed3146103665780635d3ea9c9146103b55780636352211e1461040457806370a082311461047f57610126565b806301ffc9a714610128578063081812fc1461019a578063095ea7b31461021557806323b872dd14610270575b005b34801561013457600080fd5b506101806004803603602081101561014b57600080fd5b8101908080357bffffffffffffffffffffffffffffffffffffffffffffffffffffffff19169060200190929190505050610868565b604051808215151515815260200191505060405180910390f35b3480156101a657600080fd5b506101d3600480360360208110156101bd57600080fd5b81019080803590602001909291905050506108cf565b604051808273ffffffffffffffffffffffffffffffffffffffff1673ffffffffffffffffffffffffffffffffffffffff16815260200191505060405180910390f35b34801561022157600080fd5b5061026e6004803603604081101561023857600080fd5b81019080803573ffffffffffffffffffffffffffffffffffffffff16906020019092919080359060200190929190505050610920565b005b34801561027c57600080fd5b506102e96004803603606081101561029357600080fd5b81019080803573ffffffffffffffffffffffffffffffffffffffff169060200190929190803573ffffffffffffffffffffffffffffffffffffffff16906020019092919080359060200190929190505050610a65565b005b3480156102f757600080fd5b506103646004803603606081101561030e57600080fd5b81019080803573ffffffffffffffffffffffffffffffffffffffff169060200190929190803573ffffffffffffffffffffffffffffffffffffffff16906020019092919080359060200190929190505050610a8a565b005b34801561037257600080fd5b5061039f6004803603602081101561038957600080fd5b8101908080359060200190929190505050610aab565b6040518082815260200191505060405180910390f35b3480156103c157600080fd5b506103ee600480360360208110156103d857600080fd5b8101908080359060200190929190505050610ace565b6040518082815260200191505060405180910390f35b34801561041057600080fd5b5061043d6004803603602081101561042757600080fd5b8101908080359060200190929190505050610ae6565b604051808273ffffffffffffffffffffffffffffffffffffffff1673ffffffffffffffffffffffffffffffffffffffff16815260200191505060405180910390f35b34801561048b57600080fd5b506104ce600480360360208110156104a257600080fd5b81019080803573ffffffffffffffffffffffffffffffffffffffff169060200190929190505050610b64565b6040518082815260200191505060405180910390f35b3480156104f057600080fd5b506104f9610be8565b005b34801561050757600080fd5b50610510610cbc565b604051808273ffffffffffffffffffffffffffffffffffffffff1673ffffffffffffffffffffffffffffffffffffffff16815260200191505060405180910390f35b34801561055e57600080fd5b50610567610ce6565b604051808215151515815260200191505060405180910390f35b34801561058d57600080fd5b506105dc600480360360408110156105a457600080fd5b81019080803573ffffffffffffffffffffffffffffffffffffffff169060200190929190803515159060200190929190505050610d3e565b005b3480156105ea57600080fd5b506106ee6004803603608081101561060157600080fd5b81019080803573ffffffffffffffffffffffffffffffffffffffff169060200190929190803573ffffffffffffffffffffffffffffffffffffffff169060200190929190803590602001909291908035906020019064010000000081111561066857600080fd5b82018360208201111561067a57600080fd5b8035906020019184600183028401116401000000008311171561069c57600080fd5b91908080601f016020809104026020016040519081016040528093929190818152602001838380828437600081840152601f19601f820116905080830192505050505050509192919290505050610e7a565b005b3480156106fc57600080fd5b506107296004803603602081101561071357600080fd5b8101908080359060200190929190505050610ea2565b6040518082815260200191505060405180910390f35b34801561074b57600080fd5b506107ae6004803603604081101561076257600080fd5b81019080803573ffffffffffffffffffffffffffffffffffffffff169060200190929190803573ffffffffffffffffffffffffffffffffffffffff169060200190929190505050610ec5565b604051808215151515815260200191505060405180910390f35b3480156107d457600080fd5b50610817600480360360208110156107eb57600080fd5b81019080803573ffffffffffffffffffffffffffffffffffffffff169060200190929190505050610f59565b005b34801561082557600080fd5b506108526004803603602081101561083c57600080fd5b8101908080359060200190929190505050610f78565b6040518082815260200191505060405180910390f35b6000806000837bffffffffffffffffffffffffffffffffffffffffffffffffffffffff19167bffffffffffffffffffffffffffffffffffffffffffffffffffffffff1916815260200190815260200160002060009054906101000a900460ff169050919050565b60006108da82610f9b565b15156108e557600080fd5b6002600083815260200190815260200160002060009054906101000a900473ffffffffffffffffffffffffffffffffffffffff169050919050565b600061092b82610ae6565b90508073ffffffffffffffffffffffffffffffffffffffff168373ffffffffffffffffffffffffffffffffffffffff161415151561096857600080fd5b8073ffffffffffffffffffffffffffffffffffffffff163373ffffffffffffffffffffffffffffffffffffffff1614806109a857506109a78133610ec5565b5b15156109b357600080fd5b826002600084815260200190815260200160002060006101000a81548173ffffffffffffffffffffffffffffffffffffffff021916908373ffffffffffffffffffffffffffffffffffffffff160217905550818373ffffffffffffffffffffffffffffffffffffffff168273ffffffffffffffffffffffffffffffffffffffff167f8c5be1e5ebec7d5bd14f71427d1e84f3dd0314c0f7b2291e5b200ac8c7c3b92560405160405180910390a4505050565b610a6f338261100d565b1515610a7a57600080fd5b610a858383836110a2565b505050565b610aa68383836020604051908101604052806000815250610e7a565b505050565b600781815481101515610aba57fe5b906000526020600020016000915090505481565b60106020528060005260406000206000915090505481565b6000806001600084815260200190815260200160002060009054906101000a900473ffffffffffffffffffffffffffffffffffffffff169050600073ffffffffffffffffffffffffffffffffffffffff168173ffffffffffffffffffffffffffffffffffffffff1614151515610b5b57600080fd5b80915050919050565b60008073ffffffffffffffffffffffffffffffffffffffff168273ffffffffffffffffffffffffffffffffffffffff1614151515610ba157600080fd5b600360008373ffffffffffffffffffffffffffffffffffffffff1673ffffffffffffffffffffffffffffffffffffffff168152602001908152602001600020549050919050565b610bf0610ce6565b1515610bfb57600080fd5b600073ffffffffffffffffffffffffffffffffffffffff16600560009054906101000a900473ffffffffffffffffffffffffffffffffffffffff1673ffffffffffffffffffffffffffffffffffffffff167f8be0079c531659141344cd1fd0a4f28419497f9722a3daafe3b4186f6b6457e060405160405180910390a36000600560006101000a81548173ffffffffffffffffffffffffffffffffffffffff021916908373ffffffffffffffffffffffffffffffffffffffff160217905550565b6000600560009054906101000a900473ffffffffffffffffffffffffffffffffffffffff16905090565b6000600560009054906101000a900473ffffffffffffffffffffffffffffffffffffffff1673ffffffffffffffffffffffffffffffffffffffff163373ffffffffffffffffffffffffffffffffffffffff1614905090565b3373ffffffffffffffffffffffffffffffffffffffff168273ffffffffffffffffffffffffffffffffffffffff1614151515610d7957600080fd5b80600460003373ffffffffffffffffffffffffffffffffffffffff1673ffffffffffffffffffffffffffffffffffffffff16815260200190815260200160002060008473ffffffffffffffffffffffffffffffffffffffff1673ffffffffffffffffffffffffffffffffffffffff16815260200190815260200160002060006101000a81548160ff0219169083151502179055508173ffffffffffffffffffffffffffffffffffffffff163373ffffffffffffffffffffffffffffffffffffffff167f17307eab39ab6107e8899845ad3d59bd9653f200f220920489ca2b5937696c3183604051808215151515815260200191505060405180910390a35050565b610e85848484610a65565b610e9184848484611307565b1515610e9c57600080fd5b50505050565b600881815481101515610eb157fe5b906000526020600020016000915090505481565b6000600460008473ffffffffffffffffffffffffffffffffffffffff1673ffffffffffffffffffffffffffffffffffffffff16815260200190815260200160002060008373ffffffffffffffffffffffffffffffffffffffff1673ffffffffffffffffffffffffffffffffffffffff16815260200190815260200160002060009054906101000a900460ff16905092915050565b610f61610ce6565b1515610f6c57600080fd5b610f758161152a565b50565b600681815481101515610f8757fe5b906000526020600020016000915090505481565b6000806001600084815260200190815260200160002060009054906101000a900473ffffffffffffffffffffffffffffffffffffffff169050600073ffffffffffffffffffffffffffffffffffffffff168173ffffffffffffffffffffffffffffffffffffffff161415915050919050565b60008061101983610ae6565b90508073ffffffffffffffffffffffffffffffffffffffff168473ffffffffffffffffffffffffffffffffffffffff16148061108857508373ffffffffffffffffffffffffffffffffffffffff16611070846108cf565b73ffffffffffffffffffffffffffffffffffffffff16145b8061109957506110988185610ec5565b5b91505092915050565b8273ffffffffffffffffffffffffffffffffffffffff166110c282610ae6565b73ffffffffffffffffffffffffffffffffffffffff161415156110e457600080fd5b600073ffffffffffffffffffffffffffffffffffffffff168273ffffffffffffffffffffffffffffffffffffffff161415151561112057600080fd5b61112981611626565b61117c6001600360008673ffffffffffffffffffffffffffffffffffffffff1673ffffffffffffffffffffffffffffffffffffffff168152602001908152602001600020546116e690919063ffffffff16565b600360008573ffffffffffffffffffffffffffffffffffffffff1673ffffffffffffffffffffffffffffffffffffffff168152602001908152602001600020819055506112126001600360008573ffffffffffffffffffffffffffffffffffffffff1673ffffffffffffffffffffffffffffffffffffffff1681526020019081526020016000205461170890919063ffffffff16565b600360008473ffffffffffffffffffffffffffffffffffffffff1673ffffffffffffffffffffffffffffffffffffffff16815260200190815260200160002081905550816001600083815260200190815260200160002060006101000a81548173ffffffffffffffffffffffffffffffffffffffff021916908373ffffffffffffffffffffffffffffffffffffffff160217905550808273ffffffffffffffffffffffffffffffffffffffff168473ffffffffffffffffffffffffffffffffffffffff167fddf252ad1be2c89b69c2b068fc378daa952ba7f163c4a11628f55a4df523b3ef60405160405180910390a4505050565b60006113288473ffffffffffffffffffffffffffffffffffffffff16611729565b15156113375760019050611522565b60008473ffffffffffffffffffffffffffffffffffffffff1663150b7a02338887876040518563ffffffff167c0100000000000000000000000000000000000000000000000000000000028152600401808573ffffffffffffffffffffffffffffffffffffffff1673ffffffffffffffffffffffffffffffffffffffff1681526020018473ffffffffffffffffffffffffffffffffffffffff1673ffffffffffffffffffffffffffffffffffffffff16815260200183815260200180602001828103825283818151815260200191508051906020019080838360005b8381101561142e578082015181840152602081019050611413565b50505050905090810190601f16801561145b5780820380516001836020036101000a031916815260200191505b5095505050505050602060405180830381600087803b15801561147d57600080fd5b505af1158015611491573d6000803e3d6000fd5b505050506040513d60208110156114a757600080fd5b8101908080519060200190929190505050905063150b7a027c0100000000000000000000000000000000000000000000000000000000027bffffffffffffffffffffffffffffffffffffffffffffffffffffffff1916817bffffffffffffffffffffffffffffffffffffffffffffffffffffffff1916149150505b949350505050565b600073ffffffffffffffffffffffffffffffffffffffff168173ffffffffffffffffffffffffffffffffffffffff161415151561156657600080fd5b8073ffffffffffffffffffffffffffffffffffffffff16600560009054906101000a900473ffffffffffffffffffffffffffffffffffffffff1673ffffffffffffffffffffffffffffffffffffffff167f8be0079c531659141344cd1fd0a4f28419497f9722a3daafe3b4186f6b6457e060405160405180910390a380600560006101000a81548173ffffffffffffffffffffffffffffffffffffffff021916908373ffffffffffffffffffffffffffffffffffffffff16021790555050565b600073ffffffffffffffffffffffffffffffffffffffff166002600083815260200190815260200160002060009054906101000a900473ffffffffffffffffffffffffffffffffffffffff1673ffffffffffffffffffffffffffffffffffffffff161415156116e35760006002600083815260200190815260200160002060006101000a81548173ffffffffffffffffffffffffffffffffffffffff021916908373ffffffffffffffffffffffffffffffffffffffff1602179055505b50565b60008282111515156116f757600080fd5b600082840390508091505092915050565b600080828401905083811015151561171f57600080fd5b8091505092915050565b600080823b90506000811191505091905056fea165627a7a723058206d021ab1a9187a85279be08f4cad5c03355e54ebc4cd50e2483462b061fd46d10029",
  "source": "pragma solidity ^0.5.3;\n\nimport \"node_modules/openzeppelin-solidity/contracts/ownership/Ownable.sol\";\nimport \"node_modules/openzeppelin-solidity/contracts/math/SafeMath.sol\";\nimport \"node_modules/openzeppelin-solidity/contracts/token/ERC721/ERC721.sol\";\n\ncontract Models is ERC721, Ownable {\n\n    //Events\n    event returnAID(uint AssetID);\n    event returnCID(uint CertificateID);\n    event returnLID(uint LicenseID);\n    \n    //Global Variabless\n    uint[] public CertificateIDS; \n    uint[] public LicenseIDS;\n    uint[] public AssetIDS;\n\n    struct User {\n        address userAddress;\n        string userName;\n        uint[] portfolio;\n    }\n    \n    struct License {\n        uint index;\n        uint licenseID; \n        address licenseOwner;\n        string url;\n        bool status;\n    }    \n    struct Certificate {\n        uint index;\n        uint certificateID; //CID\n        uint assetID; //AID\n        uint[] licenses;\n        string url;\n        string title;\n        address certificateCreator;\n        address certificateOwner;\n        address[] ownershipHistory;\n        bool status;\n    }\n\n    //Local Variables Declarations\n    uint internal _IDSIZE = 32;\n    uint internal _IDMODULUS = 10 ** _IDSIZE;\n    uint internal AI = 10**(_IDSIZE);\n    uint internal CI = 2*(10**(_IDSIZE));\n    uint internal LI = 3*(10**(_IDSIZE));\n\n    //Mapping\n    mapping(uint => Certificate) CIDToCertificate;\n    mapping(uint => License) LIDToLicense;\n    mapping(uint => uint) public LIDToCID;\n    mapping(uint => uint)  AIDToCID;\n    mapping(uint => uint) CIDToAIDIndex;\n    mapping(address => User) addressToUser;\n\n    function () external payable {\n        \n    }\n\n    //Security Access Modifiers \n    modifier onlyCreator(uint ID) {\n        if(ID < LI) {\n            require(msg.sender == CIDToCertificate[ID].certificateCreator, \"You are not the creator of this certificate\");\n        }\n        else if (ID > LI) {\n            uint CID = LIDToCID[ID];\n            require(msg.sender == CIDToCertificate[CID].certificateCreator, \"You are not the creator of this license\");\n        }\n        _;\n    }\n\n    modifier onlyCertificateOwner(uint CID) {\n        require(CID < LI, \"CID is larger than the LI\");\n        require(ownerOfToken(CID) == msg.sender, \"Msg.sender is not the owner of the token\");\n        require(msg.sender == CIDToCertificate[CID].certificateOwner,  \"You are not the owner of this certificate\");\n        _;\n    }\n\n    modifier onlyLicenseOwner(uint LID) {\n        require(LID > LI, \"LID is less than LI\");\n        require(msg.sender == LIDToLicense[LID].licenseOwner, \"Msg.sender is not the license owner\");\n        require(ownerOfToken(LID) == msg.sender, \"Msg.sender is not the owner of the token\");\n        _;\n    }\n\n    //SHA Encoding Functions\n    function generateAssetID(string memory data) internal view returns (uint assetID) {\n        assetID = AI + (uint(sha256(abi.encodePacked(data))) % _IDMODULUS);\n    }\n\n    function generateLicenseID(uint certificateID, address licenseCreator, address licenseOwner) internal view returns (uint licenseID) {\n        licenseID = LI + (uint(sha256(abi.encodePacked(certificateID, licenseCreator, licenseOwner))) % _IDMODULUS);\n    }\n    \n    function generateCertificateID(uint assetID, address creator) internal view returns (uint certificateID) {\n        certificateID = CI + (uint(sha256(abi.encodePacked(assetID, creator))) % _IDMODULUS);\n    }\n\n    //ERC721 Functions\n    function mint(address owner, uint256 ID) internal {\n        super._mint(owner, ID);\n    }\n\n    function burn(address owner, uint tokenID) internal {\n        super._burn(owner, tokenID);\n    }\n\n    function transferToken(address from, address to, uint tokenID) internal {\n        super.safeTransferFrom(from, to, tokenID);\n    }\n\n    function isApprovedOrOwner(address _owner, uint _tokenID) internal view returns(bool status) {\n        status = super._isApprovedOrOwner(_owner, _tokenID);\n    }\n\n    function balance(address owner) internal view returns (uint _balance){\n        _balance = super.balanceOf(owner);\n    }\n\n    function exists(uint _tokenID) internal view returns(bool status){\n        status = super._exists(_tokenID);\n    }\n\n    function ownerOfToken(uint tokenID) internal view returns(address owner) {\n        owner = super.ownerOf(tokenID);\n    }\n\n    //Ownable Functions\n\n    //Safemath Functions\n}\n",
  "sourcePath": "C:/Users/Purple/Documents/Life/Work/Passion/Blockchain/Blockchain Development/EthereumdApp/Portfolio(OG)/contracts/Models.sol",
  "compiler": {
    "name": "solc",
    "version": "0.5.3+commit.10d17f24.Emscripten.clang"
  },
  "schemaVersion": "3.0.5",
  "updatedAt": "2019-03-21T21:56:06.015Z",
  "devdoc": {
    "methods": {
      "approve(address,uint256)": {
        "details": "Approves another address to transfer the given token ID The zero address indicates there is no approved address. There can only be one approved address per token at a given time. Can only be called by the token owner or an approved operator.",
        "params": {
          "to": "address to be approved for the given token ID",
          "tokenId": "uint256 ID of the token to be approved"
        }
      },
      "balanceOf(address)": {
        "details": "Gets the balance of the specified address",
        "params": {
          "owner": "address to query the balance of"
        },
        "return": "uint256 representing the amount owned by the passed address"
      },
      "getApproved(uint256)": {
        "details": "Gets the approved address for a token ID, or zero if no address set Reverts if the token ID does not exist.",
        "params": {
          "tokenId": "uint256 ID of the token to query the approval of"
        },
        "return": "address currently approved for the given token ID"
      },
      "isApprovedForAll(address,address)": {
        "details": "Tells whether an operator is approved by a given owner",
        "params": {
          "operator": "operator address which you want to query the approval of",
          "owner": "owner address which you want to query the approval of"
        },
        "return": "bool whether the given operator is approved by the given owner"
      },
      "isOwner()": {
        "return": "true if `msg.sender` is the owner of the contract."
      },
      "owner()": {
        "return": "the address of the owner."
      },
      "ownerOf(uint256)": {
        "details": "Gets the owner of the specified token ID",
        "params": {
          "tokenId": "uint256 ID of the token to query the owner of"
        },
        "return": "owner address currently marked as the owner of the given token ID"
      },
      "renounceOwnership()": {
        "details": "Allows the current owner to relinquish control of the contract."
      },
      "safeTransferFrom(address,address,uint256)": {
        "details": "Safely transfers the ownership of a given token ID to another address If the target address is a contract, it must implement `onERC721Received`, which is called upon a safe transfer, and return the magic value `bytes4(keccak256(\"onERC721Received(address,address,uint256,bytes)\"))`; otherwise, the transfer is reverted.     * Requires the msg sender to be the owner, approved, or operator",
        "params": {
          "from": "current owner of the token",
          "to": "address to receive the ownership of the given token ID",
          "tokenId": "uint256 ID of the token to be transferred"
        }
      },
      "safeTransferFrom(address,address,uint256,bytes)": {
        "details": "Safely transfers the ownership of a given token ID to another address If the target address is a contract, it must implement `onERC721Received`, which is called upon a safe transfer, and return the magic value `bytes4(keccak256(\"onERC721Received(address,address,uint256,bytes)\"))`; otherwise, the transfer is reverted. Requires the msg sender to be the owner, approved, or operator",
        "params": {
          "_data": "bytes data to send along with a safe transfer check",
          "from": "current owner of the token",
          "to": "address to receive the ownership of the given token ID",
          "tokenId": "uint256 ID of the token to be transferred"
        }
      },
      "setApprovalForAll(address,bool)": {
        "details": "Sets or unsets the approval of a given operator An operator is allowed to transfer all tokens of the sender on their behalf",
        "params": {
          "approved": "representing the status of the approval to be set",
          "to": "operator address to set the approval"
        }
      },
      "supportsInterface(bytes4)": {
        "details": "implement supportsInterface(bytes4) using a lookup table"
      },
      "transferFrom(address,address,uint256)": {
        "details": "Transfers the ownership of a given token ID to another address Usage of this method is discouraged, use `safeTransferFrom` whenever possible Requires the msg sender to be the owner, approved, or operator",
        "params": {
          "from": "current owner of the token",
          "to": "address to receive the ownership of the given token ID",
          "tokenId": "uint256 ID of the token to be transferred"
        }
      },
      "transferOwnership(address)": {
        "details": "Allows the current owner to transfer control of the contract to a newOwner.",
        "params": {
          "newOwner": "The address to transfer ownership to."
        }
      }
    }
  },
  "userdoc": {
    "methods": {
      "renounceOwnership()": {
        "notice": "Renouncing to ownership will leave the contract without an owner. It will not be possible to call the functions with the `onlyOwner` modifier anymore."
      }
    }
  }
}