{
  "contractName": "Artisan",
  "abi": [
    {
      "anonymous": false,
      "inputs": [
        {
          "indexed": true,
          "internalType": "address",
          "name": "owner",
          "type": "address"
        },
        {
          "indexed": true,
          "internalType": "address",
          "name": "approved",
          "type": "address"
        },
        {
          "indexed": true,
          "internalType": "uint256",
          "name": "tokenId",
          "type": "uint256"
        }
      ],
      "name": "Approval",
      "type": "event"
    },
    {
      "anonymous": false,
      "inputs": [
        {
          "indexed": true,
          "internalType": "address",
          "name": "owner",
          "type": "address"
        },
        {
          "indexed": true,
          "internalType": "address",
          "name": "operator",
          "type": "address"
        },
        {
          "indexed": false,
          "internalType": "bool",
          "name": "approved",
          "type": "bool"
        }
      ],
      "name": "ApprovalForAll",
      "type": "event"
    },
    {
      "anonymous": false,
      "inputs": [
        {
          "indexed": false,
          "internalType": "string",
          "name": "_hash",
          "type": "string"
        }
      ],
      "name": "DataStoredInTheLog",
      "type": "event"
    },
    {
      "anonymous": false,
      "inputs": [
        {
          "indexed": true,
          "internalType": "address",
          "name": "previousOwner",
          "type": "address"
        },
        {
          "indexed": true,
          "internalType": "address",
          "name": "newOwner",
          "type": "address"
        }
      ],
      "name": "OwnershipTransferred",
      "type": "event"
    },
    {
      "anonymous": false,
      "inputs": [
        {
          "indexed": false,
          "internalType": "address",
          "name": "userAddress",
          "type": "address"
        },
        {
          "indexed": false,
          "internalType": "string",
          "name": "userName",
          "type": "string"
        },
        {
          "indexed": false,
          "internalType": "uint256[]",
          "name": "portfolio",
          "type": "uint256[]"
        }
      ],
      "name": "ReturnCreateUser",
      "type": "event"
    },
    {
      "anonymous": false,
      "inputs": [
        {
          "indexed": true,
          "internalType": "address",
          "name": "from",
          "type": "address"
        },
        {
          "indexed": true,
          "internalType": "address",
          "name": "to",
          "type": "address"
        },
        {
          "indexed": true,
          "internalType": "uint256",
          "name": "tokenId",
          "type": "uint256"
        }
      ],
      "name": "Transfer",
      "type": "event"
    },
    {
      "anonymous": false,
      "inputs": [
        {
          "indexed": false,
          "internalType": "uint256",
          "name": "AssetID",
          "type": "uint256"
        }
      ],
      "name": "returnAID",
      "type": "event"
    },
    {
      "anonymous": false,
      "inputs": [
        {
          "indexed": false,
          "internalType": "uint256",
          "name": "CertificateID",
          "type": "uint256"
        }
      ],
      "name": "returnCID",
      "type": "event"
    },
    {
      "anonymous": false,
      "inputs": [
        {
          "indexed": false,
          "internalType": "uint256",
          "name": "LicenseID",
          "type": "uint256"
        }
      ],
      "name": "returnLID",
      "type": "event"
    },
    {
      "inputs": [
        {
          "internalType": "uint256",
          "name": "",
          "type": "uint256"
        }
      ],
      "name": "AssetIDS",
      "outputs": [
        {
          "internalType": "uint256",
          "name": "",
          "type": "uint256"
        }
      ],
      "stateMutability": "view",
      "type": "function"
    },
    {
      "inputs": [
        {
          "internalType": "uint256",
          "name": "",
          "type": "uint256"
        }
      ],
      "name": "CertificateIDS",
      "outputs": [
        {
          "internalType": "uint256",
          "name": "",
          "type": "uint256"
        }
      ],
      "stateMutability": "view",
      "type": "function"
    },
    {
      "inputs": [
        {
          "internalType": "uint256",
          "name": "",
          "type": "uint256"
        }
      ],
      "name": "LIDToCID",
      "outputs": [
        {
          "internalType": "uint256",
          "name": "",
          "type": "uint256"
        }
      ],
      "stateMutability": "view",
      "type": "function"
    },
    {
      "inputs": [
        {
          "internalType": "uint256",
          "name": "",
          "type": "uint256"
        }
      ],
      "name": "LicenseIDS",
      "outputs": [
        {
          "internalType": "uint256",
          "name": "",
          "type": "uint256"
        }
      ],
      "stateMutability": "view",
      "type": "function"
    },
    {
      "inputs": [
        {
          "internalType": "address",
          "name": "to",
          "type": "address"
        },
        {
          "internalType": "uint256",
          "name": "tokenId",
          "type": "uint256"
        }
      ],
      "name": "approve",
      "outputs": [],
      "stateMutability": "nonpayable",
      "type": "function"
    },
    {
      "inputs": [
        {
          "internalType": "address",
          "name": "owner",
          "type": "address"
        }
      ],
      "name": "balanceOf",
      "outputs": [
        {
          "internalType": "uint256",
          "name": "",
          "type": "uint256"
        }
      ],
      "stateMutability": "view",
      "type": "function"
    },
    {
      "inputs": [],
      "name": "baseURI",
      "outputs": [
        {
          "internalType": "string",
          "name": "",
          "type": "string"
        }
      ],
      "stateMutability": "view",
      "type": "function"
    },
    {
      "inputs": [
        {
          "internalType": "uint256",
          "name": "tokenId",
          "type": "uint256"
        }
      ],
      "name": "getApproved",
      "outputs": [
        {
          "internalType": "address",
          "name": "",
          "type": "address"
        }
      ],
      "stateMutability": "view",
      "type": "function"
    },
    {
      "inputs": [
        {
          "internalType": "address",
          "name": "owner",
          "type": "address"
        },
        {
          "internalType": "address",
          "name": "operator",
          "type": "address"
        }
      ],
      "name": "isApprovedForAll",
      "outputs": [
        {
          "internalType": "bool",
          "name": "",
          "type": "bool"
        }
      ],
      "stateMutability": "view",
      "type": "function"
    },
    {
      "inputs": [],
      "name": "name",
      "outputs": [
        {
          "internalType": "string",
          "name": "",
          "type": "string"
        }
      ],
      "stateMutability": "view",
      "type": "function"
    },
    {
      "inputs": [],
      "name": "owner",
      "outputs": [
        {
          "internalType": "address",
          "name": "",
          "type": "address"
        }
      ],
      "stateMutability": "view",
      "type": "function"
    },
    {
      "inputs": [
        {
          "internalType": "uint256",
          "name": "tokenId",
          "type": "uint256"
        }
      ],
      "name": "ownerOf",
      "outputs": [
        {
          "internalType": "address",
          "name": "",
          "type": "address"
        }
      ],
      "stateMutability": "view",
      "type": "function"
    },
    {
      "inputs": [],
      "name": "renounceOwnership",
      "outputs": [],
      "stateMutability": "nonpayable",
      "type": "function"
    },
    {
      "inputs": [
        {
          "internalType": "address",
          "name": "from",
          "type": "address"
        },
        {
          "internalType": "address",
          "name": "to",
          "type": "address"
        },
        {
          "internalType": "uint256",
          "name": "tokenId",
          "type": "uint256"
        }
      ],
      "name": "safeTransferFrom",
      "outputs": [],
      "stateMutability": "nonpayable",
      "type": "function"
    },
    {
      "inputs": [
        {
          "internalType": "address",
          "name": "from",
          "type": "address"
        },
        {
          "internalType": "address",
          "name": "to",
          "type": "address"
        },
        {
          "internalType": "uint256",
          "name": "tokenId",
          "type": "uint256"
        },
        {
          "internalType": "bytes",
          "name": "_data",
          "type": "bytes"
        }
      ],
      "name": "safeTransferFrom",
      "outputs": [],
      "stateMutability": "nonpayable",
      "type": "function"
    },
    {
      "inputs": [
        {
          "internalType": "address",
          "name": "operator",
          "type": "address"
        },
        {
          "internalType": "bool",
          "name": "approved",
          "type": "bool"
        }
      ],
      "name": "setApprovalForAll",
      "outputs": [],
      "stateMutability": "nonpayable",
      "type": "function"
    },
    {
      "inputs": [
        {
          "internalType": "string",
          "name": "_hash",
          "type": "string"
        }
      ],
      "name": "storeDataAsLog",
      "outputs": [],
      "stateMutability": "nonpayable",
      "type": "function"
    },
    {
      "inputs": [
        {
          "internalType": "string",
          "name": "_hash",
          "type": "string"
        }
      ],
      "name": "storeDataAsString",
      "outputs": [],
      "stateMutability": "nonpayable",
      "type": "function"
    },
    {
      "inputs": [
        {
          "internalType": "bytes32",
          "name": "multiHash",
          "type": "bytes32"
        },
        {
          "internalType": "bytes4",
          "name": "multiHash_Function",
          "type": "bytes4"
        }
      ],
      "name": "storeDataAsStruct",
      "outputs": [
        {
          "components": [
            {
              "internalType": "bytes32",
              "name": "multiHash",
              "type": "bytes32"
            },
            {
              "internalType": "bytes4",
              "name": "multiHash_Function",
              "type": "bytes4"
            }
          ],
          "internalType": "struct IPFSEngine.IpfsHash",
          "name": "IpfsHashMemory",
          "type": "tuple"
        }
      ],
      "stateMutability": "pure",
      "type": "function"
    },
    {
      "inputs": [
        {
          "internalType": "bytes4",
          "name": "interfaceId",
          "type": "bytes4"
        }
      ],
      "name": "supportsInterface",
      "outputs": [
        {
          "internalType": "bool",
          "name": "",
          "type": "bool"
        }
      ],
      "stateMutability": "view",
      "type": "function"
    },
    {
      "inputs": [],
      "name": "symbol",
      "outputs": [
        {
          "internalType": "string",
          "name": "",
          "type": "string"
        }
      ],
      "stateMutability": "view",
      "type": "function"
    },
    {
      "inputs": [
        {
          "internalType": "uint256",
          "name": "index",
          "type": "uint256"
        }
      ],
      "name": "tokenByIndex",
      "outputs": [
        {
          "internalType": "uint256",
          "name": "",
          "type": "uint256"
        }
      ],
      "stateMutability": "view",
      "type": "function"
    },
    {
      "inputs": [
        {
          "internalType": "address",
          "name": "owner",
          "type": "address"
        },
        {
          "internalType": "uint256",
          "name": "index",
          "type": "uint256"
        }
      ],
      "name": "tokenOfOwnerByIndex",
      "outputs": [
        {
          "internalType": "uint256",
          "name": "",
          "type": "uint256"
        }
      ],
      "stateMutability": "view",
      "type": "function"
    },
    {
      "inputs": [
        {
          "internalType": "uint256",
          "name": "tokenId",
          "type": "uint256"
        }
      ],
      "name": "tokenURI",
      "outputs": [
        {
          "internalType": "string",
          "name": "",
          "type": "string"
        }
      ],
      "stateMutability": "view",
      "type": "function"
    },
    {
      "inputs": [],
      "name": "totalSupply",
      "outputs": [
        {
          "internalType": "uint256",
          "name": "",
          "type": "uint256"
        }
      ],
      "stateMutability": "view",
      "type": "function"
    },
    {
      "inputs": [
        {
          "internalType": "address",
          "name": "from",
          "type": "address"
        },
        {
          "internalType": "address",
          "name": "to",
          "type": "address"
        },
        {
          "internalType": "uint256",
          "name": "tokenId",
          "type": "uint256"
        }
      ],
      "name": "transferFrom",
      "outputs": [],
      "stateMutability": "nonpayable",
      "type": "function"
    },
    {
      "inputs": [
        {
          "internalType": "address",
          "name": "newOwner",
          "type": "address"
        }
      ],
      "name": "transferOwnership",
      "outputs": [],
      "stateMutability": "nonpayable",
      "type": "function"
    },
    {
      "inputs": [
        {
          "internalType": "string",
          "name": "userName",
          "type": "string"
        }
      ],
      "name": "createUser",
      "outputs": [],
      "stateMutability": "nonpayable",
      "type": "function"
    },
    {
      "inputs": [
        {
          "internalType": "string",
          "name": "userName",
          "type": "string"
        }
      ],
      "name": "updateUser",
      "outputs": [],
      "stateMutability": "nonpayable",
      "type": "function"
    },
    {
      "inputs": [],
      "name": "deleteUser",
      "outputs": [],
      "stateMutability": "nonpayable",
      "type": "function"
    }
  ],
  "bytecode": "0x6020600f556d04ee2d6d415b85acef810000000060108190556011556d09dc5ada82b70b59df02000000006012556d0eca8847c4129106ce8300000000601355601d60809081527f4469676974616c204d6564696120436f7079726967687420546f6b656e00000060a052610100604052600460c090815263111350d560e21b60e0526200009d6301ffc9a760e01b6001600160e01b036200018616565b8151620000b2906006906020850190620001e6565b508051620000c8906007906020840190620001e6565b50620000e46380ac58cd60e01b6001600160e01b036200018616565b620000ff635b5e139f60e01b6001600160e01b036200018616565b6200011a63780e9d6360e01b6001600160e01b036200018616565b5060009050620001326001600160e01b03620001e116565b600a80546001600160a01b0319166001600160a01b038316908117909155604051919250906000907f8be0079c531659141344cd1fd0a4f28419497f9722a3daafe3b4186f6b6457e0908290a350620002bf565b6001600160e01b03198082161415620001bc5760405162461bcd60e51b8152600401620001b39062000288565b60405180910390fd5b6001600160e01b0319166000908152602081905260409020805460ff19166001179055565b335b90565b828054600181600116156101000203166002900490600052602060002090601f016020900481019282601f106200022957805160ff191683800117855562000259565b8280016001018555821562000259579182015b82811115620002595782518255916020019190600101906200023c565b50620002679291506200026b565b5090565b620001e391905b8082111562000267576000815560010162000272565b6020808252601c908201527f4552433136353a20696e76616c696420696e7465726661636520696400000000604082015260600190565b61221080620002cf6000396000f3fe608060405234801561001057600080fd5b50600436106101da5760003560e01c80636352211e11610104578063a52361d0116100a2578063d168614011610071578063d1686140146103cc578063e985e9c5146103df578063f2fde38b146103f2578063fd7d4c0e14610405576101da565b8063a52361d014610373578063b88d4fde14610393578063c87b56dd146103a6578063cfd56b19146103b9576101da565b8063715018a6116100de578063715018a6146103485780638da5cb5b1461035057806395d89b4114610358578063a22cb46514610360576101da565b80636352211e1461031a5780636c0360eb1461032d57806370a0823114610335576101da565b806323b872dd1161017c5780634e325ed31161014b5780634e325ed3146102ce5780634f6ccce7146102e1578063507ffba5146102f45780635d3ea9c914610307576101da565b806323b872dd146102825780632f745c591461029557806333242a19146102a857806342842e0e146102bb576101da565b8063081812fc116101b8578063081812fc14610227578063095ea7b3146102475780630b4f12f61461025a57806318160ddd1461026d576101da565b806301ffc9a7146101df578063026ff05e1461020857806306fdde0314610212575b600080fd5b6101f26101ed366004611978565b610418565b6040516101ff9190611c04565b60405180910390f35b61021061043b565b005b61021a6104b1565b6040516101ff9190611c0f565b61023a6102353660046119e3565b610548565b6040516101ff9190611b01565b61021061025536600461192a565b610594565b6102106102683660046119b0565b61062c565b61027561068b565b6040516101ff9190612113565b610210610290366004611847565b61069c565b6102756102a336600461192a565b6106d4565b6102106102b63660046119b0565b610705565b6102106102c9366004611847565b61073f565b6102756102dc3660046119e3565b61075a565b6102756102ef3660046119e3565b610778565b6102106103023660046119b0565b610794565b6102756103153660046119e3565b6108a5565b61023a6103283660046119e3565b6108b7565b61021a6108e5565b6102756103433660046117f8565b610946565b61021061098f565b61023a610a0e565b61021a610a1d565b61021061036e3660046118ef565b610a7e565b610386610381366004611954565b610b4c565b6040516101ff91906120f2565b6102106103a1366004611887565b610b69565b61021a6103b43660046119e3565b610ba8565b6102106103c73660046119b0565b610cf2565b6102756103da3660046119e3565b610d05565b6101f26103ed366004611813565b610d12565b6102106104003660046117f8565b610d40565b6102756104133660046119e3565b610df7565b6001600160e01b0319811660009081526020819052604090205460ff165b919050565b336000818152601a6020818152604080842080546001600160a01b0319168155815180840192839052858152959094529190529151610480926001909201919061163a565b5060408051602080820183526000808352338152601a909152919091206104ae9160029091019060016116b8565b50565b60068054604080516020601f600260001961010060018816150201909516949094049384018190048102820181019092528281526060939092909183018282801561053d5780601f106105125761010080835404028352916020019161053d565b820191906000526020600020905b81548152906001019060200180831161052057829003601f168201915b505050505090505b90565b600061055382610e04565b6105785760405162461bcd60e51b815260040161056f90611ee3565b60405180910390fd5b506000908152600460205260409020546001600160a01b031690565b600061059f826108b7565b9050806001600160a01b0316836001600160a01b031614156105d35760405162461bcd60e51b815260040161056f90611ffc565b806001600160a01b03166105e5610e17565b6001600160a01b031614806106015750610601816103ed610e17565b61061d5760405162461bcd60e51b815260040161056f90611dfa565b6106278383610e1b565b505050565b336000908152601a60205260409020546001600160a01b03166106615760405162461bcd60e51b815260040161056f9061203d565b336000908152601a6020908152604090912082516106879260019092019184019061163a565b5050565b60006106976002610e89565b905090565b6106ad6106a7610e17565b82610e94565b6106c95760405162461bcd60e51b815260040161056f9061206a565b610627838383610f19565b6001600160a01b03821660009081526001602052604081206106fc908363ffffffff61103916565b90505b92915050565b7fdb08a06eba245dbd34ffbd08b80e14e9acdd66a8ca6f8f1f035348ced6ef7dc7816040516107349190611c0f565b60405180910390a150565b61062783838360405180602001604052806000815250610b69565b600d818154811061076757fe5b600091825260209091200154905081565b60008061078c60028463ffffffff61104516565b509392505050565b336000908152601a60205260409020546001600160a01b0316156107ca5760405162461bcd60e51b815260040161056f90611dc3565b6040805160608101825233808252602080830185815284516000808252818401875285870191909152928352601a825293909120825181546001600160a01b0319166001600160a01b0390911617815592518051929392610831926001850192019061163a565b506040820151805161084d9160028401916020909101906116f8565b5050336000908152601a602052604090819020805491517f1762e6485dad7c291ae8191119acded92bd07cda85e738e1e570a5949d5a264b9350610734926001600160a01b0316916001810191600290910190611b52565b60176020526000908152604090205481565b60006106ff826040518060600160405280602981526020016121b2602991396002919063ffffffff61106116565b60098054604080516020601f600260001961010060018816150201909516949094049384018190048102820181019092528281526060939092909183018282801561053d5780601f106105125761010080835404028352916020019161053d565b60006001600160a01b03821661096e5760405162461bcd60e51b815260040161056f90611e57565b6001600160a01b03821660009081526001602052604090206106ff90610e89565b610997610e17565b600a546001600160a01b039081169116146109c45760405162461bcd60e51b815260040161056f90611f2f565b600a546040516000916001600160a01b0316907f8be0079c531659141344cd1fd0a4f28419497f9722a3daafe3b4186f6b6457e0908390a3600a80546001600160a01b0319169055565b600a546001600160a01b031690565b60078054604080516020601f600260001961010060018816150201909516949094049384018190048102820181019092528281526060939092909183018282801561053d5780601f106105125761010080835404028352916020019161053d565b610a86610e17565b6001600160a01b0316826001600160a01b03161415610ab75760405162461bcd60e51b815260040161056f90611d40565b8060056000610ac4610e17565b6001600160a01b03908116825260208083019390935260409182016000908120918716808252919093529120805460ff191692151592909217909155610b08610e17565b6001600160a01b03167f17307eab39ab6107e8899845ad3d59bd9653f200f220920489ca2b5937696c3183604051610b409190611c04565b60405180910390a35050565b610b54611732565b9182526001600160e01b031916602082015290565b610b7a610b74610e17565b83610e94565b610b965760405162461bcd60e51b815260040161056f9061206a565b610ba284848484611078565b50505050565b6060610bb382610e04565b610bcf5760405162461bcd60e51b815260040161056f90611fad565b60008281526008602090815260409182902080548351601f6002600019610100600186161502019093169290920491820184900484028101840190945280845260609392830182828015610c645780601f10610c3957610100808354040283529160200191610c64565b820191906000526020600020905b815481529060010190602001808311610c4757829003601f168201915b505060095493945050505060026000196101006001841615020190911604610c8d579050610436565b805115610cbf57600981604051602001610ca8929190611a80565b604051602081830303815290604052915050610436565b6009610cca846110ab565b604051602001610cdb929190611a80565b604051602081830303815290604052915050919050565b805161068790600b90602084019061163a565b600e818154811061076757fe5b6001600160a01b03918216600090815260056020908152604080832093909416825291909152205460ff1690565b610d48610e17565b600a546001600160a01b03908116911614610d755760405162461bcd60e51b815260040161056f90611f2f565b6001600160a01b038116610d9b5760405162461bcd60e51b815260040161056f90611cb6565b600a546040516001600160a01b038084169216907f8be0079c531659141344cd1fd0a4f28419497f9722a3daafe3b4186f6b6457e090600090a3600a80546001600160a01b0319166001600160a01b0392909216919091179055565b600c818154811061076757fe5b60006106ff60028363ffffffff61116f16565b3390565b600081815260046020526040902080546001600160a01b0319166001600160a01b0384169081179091558190610e50826108b7565b6001600160a01b03167f8c5be1e5ebec7d5bd14f71427d1e84f3dd0314c0f7b2291e5b200ac8c7c3b92560405160405180910390a45050565b60006106ff8261117b565b6000610e9f82610e04565b610ebb5760405162461bcd60e51b815260040161056f90611d77565b6000610ec6836108b7565b9050806001600160a01b0316846001600160a01b03161480610f015750836001600160a01b0316610ef684610548565b6001600160a01b0316145b80610f115750610f118185610d12565b949350505050565b826001600160a01b0316610f2c826108b7565b6001600160a01b031614610f525760405162461bcd60e51b815260040161056f90611f64565b6001600160a01b038216610f785760405162461bcd60e51b815260040161056f90611cfc565b610f83838383610627565b610f8e600082610e1b565b6001600160a01b0383166000908152600160205260409020610fb6908263ffffffff61117f16565b506001600160a01b0382166000908152600160205260409020610fdf908263ffffffff61118b16565b50610ff26002828463ffffffff61119716565b5080826001600160a01b0316846001600160a01b03167fddf252ad1be2c89b69c2b068fc378daa952ba7f163c4a11628f55a4df523b3ef60405160405180910390a4505050565b60006106fc83836111ad565b600080808061105486866111f2565b9097909650945050505050565b600061106e84848461124e565b90505b9392505050565b611083848484610f19565b61108f848484846112ad565b610ba25760405162461bcd60e51b815260040161056f90611c64565b6060816110d057506040805180820190915260018152600360fc1b6020820152610436565b8160005b81156110e857600101600a820491506110d4565b6060816040519080825280601f01601f191660200182016040528015611115576020820181803883390190505b50859350905060001982015b831561116657600a840660300160f81b8282806001900393508151811061114457fe5b60200101906001600160f81b031916908160001a905350600a84049350611121565b50949350505050565b60006106fc8383611392565b5490565b60006106fc83836113aa565b60006106fc8383611470565b600061106e84846001600160a01b0385166114ba565b815460009082106111d05760405162461bcd60e51b815260040161056f90611c22565b8260000182815481106111df57fe5b9060005260206000200154905092915050565b8154600090819083106112175760405162461bcd60e51b815260040161056f90611ea1565b600084600001848154811061122857fe5b906000526020600020906002020190508060000154816001015492509250509250929050565b6000828152600184016020526040812054828161127e5760405162461bcd60e51b815260040161056f9190611c0f565b5084600001600182038154811061129157fe5b9060005260206000209060020201600101549150509392505050565b60006112c1846001600160a01b0316611551565b6112cd57506001610f11565b606061135b630a85bd0160e11b6112e2610e17565b8887876040516024016112f89493929190611b15565b604051602081830303815290604052906001600160e01b0319166020820180516001600160e01b038381831617835250505050604051806060016040528060328152602001612180603291396001600160a01b038816919063ffffffff61155716565b90506000818060200190516113739190810190611994565b6001600160e01b031916630a85bd0160e11b1492505050949350505050565b60009081526001919091016020526040902054151590565b6000818152600183016020526040812054801561146657835460001980830191908101906000908790839081106113dd57fe5b90600052602060002001549050808760000184815481106113fa57fe5b60009182526020808320909101929092558281526001898101909252604090209084019055865487908061142a57fe5b600190038181906000526020600020016000905590558660010160008781526020019081526020016000206000905560019450505050506106ff565b60009150506106ff565b600061147c8383611392565b6114b2575081546001818101845560008481526020808220909301849055845484825282860190935260409020919091556106ff565b5060006106ff565b60008281526001840160205260408120548061151f575050604080518082018252838152602080820184815286546001818101895560008981528481209551600290930290950191825591519082015586548684528188019092529290912055611071565b8285600001600183038154811061153257fe5b9060005260206000209060020201600101819055506000915050611071565b3b151590565b606061106e84846000858561156b85611551565b6115875760405162461bcd60e51b815260040161056f906120bb565b60006060866001600160a01b031685876040516115a49190611a64565b60006040518083038185875af1925050503d80600081146115e1576040519150601f19603f3d011682016040523d82523d6000602084013e6115e6565b606091505b50915091506115f6828286611601565b979650505050505050565b60608315611610575081611071565b8251156116205782518084602001fd5b8160405162461bcd60e51b815260040161056f9190611c0f565b828054600181600116156101000203166002900490600052602060002090601f016020900481019282601f1061167b57805160ff19168380011785556116a8565b828001600101855582156116a8579182015b828111156116a857825182559160200191906001019061168d565b506116b4929150611749565b5090565b8280548282559060005260206000209081019282156116a8579160200282015b828111156116a8578251829060ff169055916020019190600101906116d8565b8280548282559060005260206000209081019282156116a857916020028201828111156116a857825182559160200191906001019061168d565b604080518082019091526000808252602082015290565b61054591905b808211156116b4576000815560010161174f565b80356001600160a01b03811681146106ff57600080fd5b600082601f83011261178a578081fd5b813567ffffffffffffffff808211156117a1578283fd5b604051601f8301601f1916810160200182811182821017156117c1578485fd5b6040528281529250828483016020018610156117dc57600080fd5b8260208601602083013760006020848301015250505092915050565b600060208284031215611809578081fd5b6106fc8383611763565b60008060408385031215611825578081fd5b61182f8484611763565b915061183e8460208501611763565b90509250929050565b60008060006060848603121561185b578081fd5b833561186681612154565b9250602084013561187681612154565b929592945050506040919091013590565b6000806000806080858703121561189c578081fd5b6118a68686611763565b93506118b58660208701611763565b925060408501359150606085013567ffffffffffffffff8111156118d7578182fd5b6118e38782880161177a565b91505092959194509250565b60008060408385031215611901578182fd5b61190b8484611763565b91506020830135801515811461191f578182fd5b809150509250929050565b6000806040838503121561193c578182fd5b6119468484611763565b946020939093013593505050565b60008060408385031215611966578182fd5b82359150602083013561191f81612169565b600060208284031215611989578081fd5b813561107181612169565b6000602082840312156119a5578081fd5b815161107181612169565b6000602082840312156119c1578081fd5b813567ffffffffffffffff8111156119d7578182fd5b610f118482850161177a565b6000602082840312156119f4578081fd5b5035919050565b6000815480845260208085019450838352808320835b83811015611a2d57815487529582019560019182019101611a11565b509495945050505050565b60008151808452611a50816020860160208601612128565b601f01601f19169290920160200192915050565b60008251611a76818460208701612128565b9190910192915050565b6000808454600180821660008114611a9f5760018114611ab657611ae5565b60ff198316865260028304607f1686019350611ae5565b600283048886526020808720875b83811015611add5781548a820152908501908201611ac4565b505050860193505b5050508351611af8818360208801612128565b01949350505050565b6001600160a01b0391909116815260200190565b6001600160a01b0385811682528416602082015260408101839052608060608201819052600090611b4890830184611a38565b9695505050505050565b60006060820160018060a01b03861683526020606081850152828654600180821660008114611b885760018114611ba857611be3565b611b98607f600285041687612113565b60ff198416815285019350611be3565b60028304611bb68188612113565b611bbf8c61211c565b895b83811015611bda57815483820152908501908801611bc1565b91909101955050505b5050508481036040860152611bf881876119fb565b98975050505050505050565b901515815260200190565b6000602082526106fc6020830184611a38565b60208082526022908201527f456e756d657261626c655365743a20696e646578206f7574206f6620626f756e604082015261647360f01b606082015260800190565b60208082526032908201527f4552433732313a207472616e7366657220746f206e6f6e20455243373231526560408201527131b2b4bb32b91034b6b83632b6b2b73a32b960711b606082015260800190565b60208082526026908201527f4f776e61626c653a206e6577206f776e657220697320746865207a65726f206160408201526564647265737360d01b606082015260800190565b60208082526024908201527f4552433732313a207472616e7366657220746f20746865207a65726f206164646040820152637265737360e01b606082015260800190565b60208082526019908201527f4552433732313a20617070726f766520746f2063616c6c657200000000000000604082015260600190565b6020808252602c908201527f4552433732313a206f70657261746f7220717565727920666f72206e6f6e657860408201526b34b9ba32b73a103a37b5b2b760a11b606082015260800190565b60208082526017908201527f54686973205573657220616c7265616479206578697374000000000000000000604082015260600190565b60208082526038908201527f4552433732313a20617070726f76652063616c6c6572206973206e6f74206f7760408201527f6e6572206e6f7220617070726f76656420666f7220616c6c0000000000000000606082015260800190565b6020808252602a908201527f4552433732313a2062616c616e636520717565727920666f7220746865207a65604082015269726f206164647265737360b01b606082015260800190565b60208082526022908201527f456e756d657261626c654d61703a20696e646578206f7574206f6620626f756e604082015261647360f01b606082015260800190565b6020808252602c908201527f4552433732313a20617070726f76656420717565727920666f72206e6f6e657860408201526b34b9ba32b73a103a37b5b2b760a11b606082015260800190565b6020808252818101527f4f776e61626c653a2063616c6c6572206973206e6f7420746865206f776e6572604082015260600190565b60208082526029908201527f4552433732313a207472616e73666572206f6620746f6b656e2074686174206960408201526839903737ba1037bbb760b91b606082015260800190565b6020808252602f908201527f4552433732314d657461646174613a2055524920717565727920666f72206e6f60408201526e3732bc34b9ba32b73a103a37b5b2b760891b606082015260800190565b60208082526021908201527f4552433732313a20617070726f76616c20746f2063757272656e74206f776e656040820152603960f91b606082015260800190565b602080825260139082015272155cd95c88191bd95cc81b9bdd08195e1a5cdd606a1b604082015260600190565b60208082526031908201527f4552433732313a207472616e736665722063616c6c6572206973206e6f74206f6040820152701ddb995c881b9bdc88185c1c1c9bdd9959607a1b606082015260800190565b6020808252601d908201527f416464726573733a2063616c6c20746f206e6f6e2d636f6e7472616374000000604082015260600190565b815181526020918201516001600160e01b0319169181019190915260400190565b90815260200190565b60009081526020902090565b60005b8381101561214357818101518382015260200161212b565b83811115610ba25750506000910152565b6001600160a01b03811681146104ae57600080fd5b6001600160e01b0319811681146104ae57600080fdfe4552433732313a207472616e7366657220746f206e6f6e20455243373231526563656976657220696d706c656d656e7465724552433732313a206f776e657220717565727920666f72206e6f6e6578697374656e7420746f6b656ea264697066735822122085d77313fe15f6ac919eefa26ca027f801a9dd2f1e5d34e81ba516d4300a041d64736f6c63430006020033",
  "source": "pragma solidity ^0.6.0;\npragma experimental ABIEncoderV2;\n\nimport \"./Models.sol\";\n\ncontract Artisan is Models {\n    event ReturnCreateUser(\n        address userAddress,\n        string userName,\n        uint256[] portfolio\n    );\n\n    function createUser(string memory userName) public {\n        require(\n            addressToUser[msg.sender].userAddress ==\n                0x0000000000000000000000000000000000000000,\n            \"This User already exist\"\n        );\n        addressToUser[msg.sender] = User(\n            msg.sender,\n            userName,\n            new uint256[](0)\n        );\n        emit ReturnCreateUser(\n            addressToUser[msg.sender].userAddress,\n            addressToUser[msg.sender].userName,\n            addressToUser[msg.sender].portfolio\n        );\n    }\n\n    function updateUser(string memory userName) public {\n        require(\n            addressToUser[msg.sender].userAddress !=\n                0x0000000000000000000000000000000000000000,\n            \"User does not exist\"\n        );\n        addressToUser[msg.sender].userName = userName;\n    }\n\n    function deleteUser() public {\n        addressToUser[msg.sender]\n            .userAddress = 0x0000000000000000000000000000000000000000;\n        addressToUser[msg.sender].userName = \"\";\n        addressToUser[msg.sender].portfolio = [0];\n    }\n}\n",
  "sourcePath": "C:\\MyData\\Projects\\Portfolio\\dmct\\contracts\\Artisan.sol",
  "compiler": {
    "name": "solc",
    "version": "0.6.2+commit.bacdbe57.Emscripten.clang"
  },
  "schemaVersion": "3.2.0",
  "updatedAt": "2021-01-14T21:52:55.724Z",
  "devdoc": {
    "methods": {
      "approve(address,uint256)": {
        "details": "See {IERC721-approve}."
      },
      "balanceOf(address)": {
        "details": "See {IERC721-balanceOf}."
      },
      "baseURI()": {
        "details": "Returns the base URI set via {_setBaseURI}. This will be automatically added as a prefix in {tokenURI} to each token's URI, or to the token ID if no specific URI is set for that token ID."
      },
      "getApproved(uint256)": {
        "details": "See {IERC721-getApproved}."
      },
      "isApprovedForAll(address,address)": {
        "details": "See {IERC721-isApprovedForAll}."
      },
      "name()": {
        "details": "See {IERC721Metadata-name}."
      },
      "owner()": {
        "details": "Returns the address of the current owner."
      },
      "ownerOf(uint256)": {
        "details": "See {IERC721-ownerOf}."
      },
      "renounceOwnership()": {
        "details": "Leaves the contract without owner. It will not be possible to call `onlyOwner` functions anymore. Can only be called by the current owner.     * NOTE: Renouncing ownership will leave the contract without an owner, thereby removing any functionality that is only available to the owner."
      },
      "safeTransferFrom(address,address,uint256)": {
        "details": "See {IERC721-safeTransferFrom}."
      },
      "safeTransferFrom(address,address,uint256,bytes)": {
        "details": "See {IERC721-safeTransferFrom}."
      },
      "setApprovalForAll(address,bool)": {
        "details": "See {IERC721-setApprovalForAll}."
      },
      "supportsInterface(bytes4)": {
        "details": "See {IERC165-supportsInterface}.     * Time complexity O(1), guaranteed to always use less than 30 000 gas."
      },
      "symbol()": {
        "details": "See {IERC721Metadata-symbol}."
      },
      "tokenByIndex(uint256)": {
        "details": "See {IERC721Enumerable-tokenByIndex}."
      },
      "tokenOfOwnerByIndex(address,uint256)": {
        "details": "See {IERC721Enumerable-tokenOfOwnerByIndex}."
      },
      "tokenURI(uint256)": {
        "details": "See {IERC721Metadata-tokenURI}."
      },
      "totalSupply()": {
        "details": "See {IERC721Enumerable-totalSupply}."
      },
      "transferFrom(address,address,uint256)": {
        "details": "See {IERC721-transferFrom}."
      },
      "transferOwnership(address)": {
        "details": "Transfers ownership of the contract to a new account (`newOwner`). Can only be called by the current owner."
      }
    }
  },
  "userdoc": {
    "methods": {}
  }
}