{
  "contractName": "DMCTServices",
  "abi": [
    {
      "anonymous": false,
      "inputs": [
        {
          "indexed": true,
          "internalType": "address",
          "name": "owner",
          "type": "address"
        },
        {
          "indexed": true,
          "internalType": "address",
          "name": "approved",
          "type": "address"
        },
        {
          "indexed": true,
          "internalType": "uint256",
          "name": "tokenId",
          "type": "uint256"
        }
      ],
      "name": "Approval",
      "type": "event"
    },
    {
      "anonymous": false,
      "inputs": [
        {
          "indexed": true,
          "internalType": "address",
          "name": "owner",
          "type": "address"
        },
        {
          "indexed": true,
          "internalType": "address",
          "name": "operator",
          "type": "address"
        },
        {
          "indexed": false,
          "internalType": "bool",
          "name": "approved",
          "type": "bool"
        }
      ],
      "name": "ApprovalForAll",
      "type": "event"
    },
    {
      "anonymous": false,
      "inputs": [
        {
          "indexed": false,
          "internalType": "string",
          "name": "_hash",
          "type": "string"
        }
      ],
      "name": "DataStoredInTheLog",
      "type": "event"
    },
    {
      "anonymous": false,
      "inputs": [
        {
          "indexed": true,
          "internalType": "address",
          "name": "previousOwner",
          "type": "address"
        },
        {
          "indexed": true,
          "internalType": "address",
          "name": "newOwner",
          "type": "address"
        }
      ],
      "name": "OwnershipTransferred",
      "type": "event"
    },
    {
      "anonymous": false,
      "inputs": [
        {
          "indexed": false,
          "internalType": "uint256[]",
          "name": "Licenses",
          "type": "uint256[]"
        }
      ],
      "name": "ReturnCertificateLicenses",
      "type": "event"
    },
    {
      "anonymous": false,
      "inputs": [
        {
          "indexed": false,
          "internalType": "uint256",
          "name": "index",
          "type": "uint256"
        },
        {
          "indexed": false,
          "internalType": "uint256",
          "name": "CID",
          "type": "uint256"
        },
        {
          "indexed": false,
          "internalType": "uint256",
          "name": "AID",
          "type": "uint256"
        },
        {
          "components": [
            {
              "internalType": "bytes32",
              "name": "multiHash",
              "type": "bytes32"
            },
            {
              "internalType": "bytes4",
              "name": "multiHash_Function",
              "type": "bytes4"
            }
          ],
          "indexed": false,
          "internalType": "struct IPFSEngine.IpfsHash",
          "name": "url",
          "type": "tuple"
        },
        {
          "indexed": false,
          "internalType": "address",
          "name": "msgsender",
          "type": "address"
        },
        {
          "indexed": false,
          "internalType": "address[]",
          "name": "onwershipHistory",
          "type": "address[]"
        },
        {
          "indexed": false,
          "internalType": "uint256[]",
          "name": "licenses",
          "type": "uint256[]"
        }
      ],
      "name": "ReturnCreateCertificate",
      "type": "event"
    },
    {
      "anonymous": false,
      "inputs": [
        {
          "indexed": false,
          "internalType": "address",
          "name": "userAddress",
          "type": "address"
        },
        {
          "indexed": false,
          "internalType": "string",
          "name": "userName",
          "type": "string"
        },
        {
          "indexed": false,
          "internalType": "uint256[]",
          "name": "portfolio",
          "type": "uint256[]"
        }
      ],
      "name": "ReturnCreateUser",
      "type": "event"
    },
    {
      "anonymous": false,
      "inputs": [
        {
          "indexed": false,
          "internalType": "bool",
          "name": "tokenStatus",
          "type": "bool"
        }
      ],
      "name": "ReturnDestroyToken",
      "type": "event"
    },
    {
      "anonymous": false,
      "inputs": [
        {
          "indexed": false,
          "internalType": "string",
          "name": "message",
          "type": "string"
        }
      ],
      "name": "ReturnMessage",
      "type": "event"
    },
    {
      "anonymous": false,
      "inputs": [
        {
          "indexed": false,
          "internalType": "uint256[]",
          "name": "Number",
          "type": "uint256[]"
        }
      ],
      "name": "ReturnTestArrayData",
      "type": "event"
    },
    {
      "anonymous": false,
      "inputs": [
        {
          "indexed": false,
          "internalType": "bool",
          "name": "Boolean",
          "type": "bool"
        }
      ],
      "name": "ReturnTestBoolData",
      "type": "event"
    },
    {
      "anonymous": false,
      "inputs": [
        {
          "indexed": false,
          "internalType": "uint256",
          "name": "Number",
          "type": "uint256"
        },
        {
          "indexed": false,
          "internalType": "string",
          "name": "String",
          "type": "string"
        },
        {
          "indexed": false,
          "internalType": "address",
          "name": "Address",
          "type": "address"
        }
      ],
      "name": "ReturnTestData",
      "type": "event"
    },
    {
      "anonymous": false,
      "inputs": [
        {
          "indexed": false,
          "internalType": "address",
          "name": "creator",
          "type": "address"
        },
        {
          "indexed": false,
          "internalType": "address",
          "name": "owner",
          "type": "address"
        },
        {
          "indexed": false,
          "internalType": "address[]",
          "name": "ownershipHistory",
          "type": "address[]"
        },
        {
          "indexed": false,
          "internalType": "uint256[]",
          "name": "licenses",
          "type": "uint256[]"
        }
      ],
      "name": "ReturnTransferCertificate",
      "type": "event"
    },
    {
      "anonymous": false,
      "inputs": [
        {
          "indexed": true,
          "internalType": "address",
          "name": "from",
          "type": "address"
        },
        {
          "indexed": true,
          "internalType": "address",
          "name": "to",
          "type": "address"
        },
        {
          "indexed": true,
          "internalType": "uint256",
          "name": "tokenId",
          "type": "uint256"
        }
      ],
      "name": "Transfer",
      "type": "event"
    },
    {
      "anonymous": false,
      "inputs": [
        {
          "indexed": false,
          "internalType": "uint256",
          "name": "AssetID",
          "type": "uint256"
        }
      ],
      "name": "returnAID",
      "type": "event"
    },
    {
      "anonymous": false,
      "inputs": [
        {
          "indexed": false,
          "internalType": "uint256",
          "name": "CertificateID",
          "type": "uint256"
        }
      ],
      "name": "returnCID",
      "type": "event"
    },
    {
      "anonymous": false,
      "inputs": [
        {
          "indexed": false,
          "internalType": "uint256",
          "name": "LicenseID",
          "type": "uint256"
        }
      ],
      "name": "returnLID",
      "type": "event"
    },
    {
      "inputs": [
        {
          "internalType": "uint256",
          "name": "",
          "type": "uint256"
        }
      ],
      "name": "AssetIDS",
      "outputs": [
        {
          "internalType": "uint256",
          "name": "",
          "type": "uint256"
        }
      ],
      "stateMutability": "view",
      "type": "function",
      "constant": true
    },
    {
      "inputs": [
        {
          "internalType": "uint256",
          "name": "",
          "type": "uint256"
        }
      ],
      "name": "CertificateIDS",
      "outputs": [
        {
          "internalType": "uint256",
          "name": "",
          "type": "uint256"
        }
      ],
      "stateMutability": "view",
      "type": "function",
      "constant": true
    },
    {
      "inputs": [
        {
          "internalType": "uint256",
          "name": "",
          "type": "uint256"
        }
      ],
      "name": "LIDToCID",
      "outputs": [
        {
          "internalType": "uint256",
          "name": "",
          "type": "uint256"
        }
      ],
      "stateMutability": "view",
      "type": "function",
      "constant": true
    },
    {
      "inputs": [
        {
          "internalType": "uint256",
          "name": "",
          "type": "uint256"
        }
      ],
      "name": "LicenseIDS",
      "outputs": [
        {
          "internalType": "uint256",
          "name": "",
          "type": "uint256"
        }
      ],
      "stateMutability": "view",
      "type": "function",
      "constant": true
    },
    {
      "inputs": [
        {
          "internalType": "address",
          "name": "to",
          "type": "address"
        },
        {
          "internalType": "uint256",
          "name": "tokenId",
          "type": "uint256"
        }
      ],
      "name": "approve",
      "outputs": [],
      "stateMutability": "nonpayable",
      "type": "function"
    },
    {
      "inputs": [
        {
          "internalType": "address",
          "name": "owner",
          "type": "address"
        }
      ],
      "name": "balanceOf",
      "outputs": [
        {
          "internalType": "uint256",
          "name": "",
          "type": "uint256"
        }
      ],
      "stateMutability": "view",
      "type": "function",
      "constant": true
    },
    {
      "inputs": [],
      "name": "baseURI",
      "outputs": [
        {
          "internalType": "string",
          "name": "",
          "type": "string"
        }
      ],
      "stateMutability": "view",
      "type": "function",
      "constant": true
    },
    {
      "inputs": [
        {
          "internalType": "string",
          "name": "title",
          "type": "string"
        },
        {
          "internalType": "bytes8",
          "name": "assetHash",
          "type": "bytes8"
        },
        {
          "internalType": "bytes32",
          "name": "urlHash",
          "type": "bytes32"
        },
        {
          "internalType": "bytes4",
          "name": "urlHash_Function",
          "type": "bytes4"
        }
      ],
      "name": "createCertificate",
      "outputs": [
        {
          "internalType": "uint256",
          "name": "certificateID",
          "type": "uint256"
        },
        {
          "internalType": "uint256",
          "name": "assetID",
          "type": "uint256"
        }
      ],
      "stateMutability": "nonpayable",
      "type": "function"
    },
    {
      "inputs": [
        {
          "internalType": "uint256",
          "name": "certificateID",
          "type": "uint256"
        },
        {
          "internalType": "address",
          "name": "licenseOwner",
          "type": "address"
        },
        {
          "internalType": "bytes32",
          "name": "urlHash",
          "type": "bytes32"
        },
        {
          "internalType": "bytes4",
          "name": "urlHash_Function",
          "type": "bytes4"
        }
      ],
      "name": "createLicense",
      "outputs": [
        {
          "internalType": "uint256",
          "name": "licenseID",
          "type": "uint256"
        }
      ],
      "stateMutability": "nonpayable",
      "type": "function"
    },
    {
      "inputs": [
        {
          "internalType": "string",
          "name": "userName",
          "type": "string"
        }
      ],
      "name": "createUser",
      "outputs": [],
      "stateMutability": "nonpayable",
      "type": "function"
    },
    {
      "inputs": [],
      "name": "deleteUser",
      "outputs": [],
      "stateMutability": "nonpayable",
      "type": "function"
    },
    {
      "inputs": [
        {
          "internalType": "uint256",
          "name": "tokenID",
          "type": "uint256"
        }
      ],
      "name": "destroyToken",
      "outputs": [],
      "stateMutability": "nonpayable",
      "type": "function"
    },
    {
      "inputs": [
        {
          "internalType": "uint256",
          "name": "tokenId",
          "type": "uint256"
        }
      ],
      "name": "getApproved",
      "outputs": [
        {
          "internalType": "address",
          "name": "",
          "type": "address"
        }
      ],
      "stateMutability": "view",
      "type": "function",
      "constant": true
    },
    {
      "inputs": [
        {
          "internalType": "address",
          "name": "owner",
          "type": "address"
        },
        {
          "internalType": "address",
          "name": "operator",
          "type": "address"
        }
      ],
      "name": "isApprovedForAll",
      "outputs": [
        {
          "internalType": "bool",
          "name": "",
          "type": "bool"
        }
      ],
      "stateMutability": "view",
      "type": "function",
      "constant": true
    },
    {
      "inputs": [],
      "name": "name",
      "outputs": [
        {
          "internalType": "string",
          "name": "",
          "type": "string"
        }
      ],
      "stateMutability": "view",
      "type": "function",
      "constant": true
    },
    {
      "inputs": [],
      "name": "owner",
      "outputs": [
        {
          "internalType": "address",
          "name": "",
          "type": "address"
        }
      ],
      "stateMutability": "view",
      "type": "function",
      "constant": true
    },
    {
      "inputs": [
        {
          "internalType": "uint256",
          "name": "tokenId",
          "type": "uint256"
        }
      ],
      "name": "ownerOf",
      "outputs": [
        {
          "internalType": "address",
          "name": "",
          "type": "address"
        }
      ],
      "stateMutability": "view",
      "type": "function",
      "constant": true
    },
    {
      "inputs": [],
      "name": "renounceOwnership",
      "outputs": [],
      "stateMutability": "nonpayable",
      "type": "function"
    },
    {
      "inputs": [
        {
          "internalType": "address",
          "name": "from",
          "type": "address"
        },
        {
          "internalType": "address",
          "name": "to",
          "type": "address"
        },
        {
          "internalType": "uint256",
          "name": "tokenId",
          "type": "uint256"
        }
      ],
      "name": "safeTransferFrom",
      "outputs": [],
      "stateMutability": "nonpayable",
      "type": "function"
    },
    {
      "inputs": [
        {
          "internalType": "address",
          "name": "from",
          "type": "address"
        },
        {
          "internalType": "address",
          "name": "to",
          "type": "address"
        },
        {
          "internalType": "uint256",
          "name": "tokenId",
          "type": "uint256"
        },
        {
          "internalType": "bytes",
          "name": "_data",
          "type": "bytes"
        }
      ],
      "name": "safeTransferFrom",
      "outputs": [],
      "stateMutability": "nonpayable",
      "type": "function"
    },
    {
      "inputs": [
        {
          "internalType": "address",
          "name": "operator",
          "type": "address"
        },
        {
          "internalType": "bool",
          "name": "approved",
          "type": "bool"
        }
      ],
      "name": "setApprovalForAll",
      "outputs": [],
      "stateMutability": "nonpayable",
      "type": "function"
    },
    {
      "inputs": [
        {
          "internalType": "string",
          "name": "_hash",
          "type": "string"
        }
      ],
      "name": "storeDataAsLog",
      "outputs": [],
      "stateMutability": "nonpayable",
      "type": "function"
    },
    {
      "inputs": [
        {
          "internalType": "string",
          "name": "_hash",
          "type": "string"
        }
      ],
      "name": "storeDataAsString",
      "outputs": [],
      "stateMutability": "nonpayable",
      "type": "function"
    },
    {
      "inputs": [
        {
          "internalType": "bytes32",
          "name": "multiHash",
          "type": "bytes32"
        },
        {
          "internalType": "bytes4",
          "name": "multiHash_Function",
          "type": "bytes4"
        }
      ],
      "name": "storeDataAsStruct",
      "outputs": [
        {
          "components": [
            {
              "internalType": "bytes32",
              "name": "multiHash",
              "type": "bytes32"
            },
            {
              "internalType": "bytes4",
              "name": "multiHash_Function",
              "type": "bytes4"
            }
          ],
          "internalType": "struct IPFSEngine.IpfsHash",
          "name": "IpfsHashMemory",
          "type": "tuple"
        }
      ],
      "stateMutability": "pure",
      "type": "function",
      "constant": true
    },
    {
      "inputs": [
        {
          "internalType": "bytes4",
          "name": "interfaceId",
          "type": "bytes4"
        }
      ],
      "name": "supportsInterface",
      "outputs": [
        {
          "internalType": "bool",
          "name": "",
          "type": "bool"
        }
      ],
      "stateMutability": "view",
      "type": "function",
      "constant": true
    },
    {
      "inputs": [],
      "name": "symbol",
      "outputs": [
        {
          "internalType": "string",
          "name": "",
          "type": "string"
        }
      ],
      "stateMutability": "view",
      "type": "function",
      "constant": true
    },
    {
      "inputs": [
        {
          "internalType": "uint256",
          "name": "index",
          "type": "uint256"
        }
      ],
      "name": "tokenByIndex",
      "outputs": [
        {
          "internalType": "uint256",
          "name": "",
          "type": "uint256"
        }
      ],
      "stateMutability": "view",
      "type": "function",
      "constant": true
    },
    {
      "inputs": [
        {
          "internalType": "address",
          "name": "owner",
          "type": "address"
        },
        {
          "internalType": "uint256",
          "name": "index",
          "type": "uint256"
        }
      ],
      "name": "tokenOfOwnerByIndex",
      "outputs": [
        {
          "internalType": "uint256",
          "name": "",
          "type": "uint256"
        }
      ],
      "stateMutability": "view",
      "type": "function",
      "constant": true
    },
    {
      "inputs": [
        {
          "internalType": "uint256",
          "name": "tokenId",
          "type": "uint256"
        }
      ],
      "name": "tokenURI",
      "outputs": [
        {
          "internalType": "string",
          "name": "",
          "type": "string"
        }
      ],
      "stateMutability": "view",
      "type": "function",
      "constant": true
    },
    {
      "inputs": [],
      "name": "totalSupply",
      "outputs": [
        {
          "internalType": "uint256",
          "name": "",
          "type": "uint256"
        }
      ],
      "stateMutability": "view",
      "type": "function",
      "constant": true
    },
    {
      "inputs": [
        {
          "internalType": "address",
          "name": "to",
          "type": "address"
        },
        {
          "internalType": "uint256",
          "name": "certificateID",
          "type": "uint256"
        }
      ],
      "name": "transferCertificte",
      "outputs": [],
      "stateMutability": "nonpayable",
      "type": "function"
    },
    {
      "inputs": [
        {
          "internalType": "address",
          "name": "from",
          "type": "address"
        },
        {
          "internalType": "address",
          "name": "to",
          "type": "address"
        },
        {
          "internalType": "uint256",
          "name": "tokenId",
          "type": "uint256"
        }
      ],
      "name": "transferFrom",
      "outputs": [],
      "stateMutability": "nonpayable",
      "type": "function"
    },
    {
      "inputs": [
        {
          "internalType": "address",
          "name": "newOwner",
          "type": "address"
        }
      ],
      "name": "transferOwnership",
      "outputs": [],
      "stateMutability": "nonpayable",
      "type": "function"
    },
    {
      "inputs": [
        {
          "internalType": "string",
          "name": "userName",
          "type": "string"
        }
      ],
      "name": "updateUser",
      "outputs": [],
      "stateMutability": "nonpayable",
      "type": "function"
    },
    {
      "inputs": [],
      "name": "returnAssetIDS",
      "outputs": [
        {
          "internalType": "uint256[]",
          "name": "assetIDS",
          "type": "uint256[]"
        }
      ],
      "stateMutability": "view",
      "type": "function",
      "constant": true
    },
    {
      "inputs": [
        {
          "internalType": "address",
          "name": "userAddress",
          "type": "address"
        }
      ],
      "name": "returnUserByAddress",
      "outputs": [
        {
          "internalType": "string",
          "name": "userName",
          "type": "string"
        },
        {
          "internalType": "uint256[]",
          "name": "portfolio",
          "type": "uint256[]"
        }
      ],
      "stateMutability": "view",
      "type": "function",
      "constant": true
    },
    {
      "inputs": [
        {
          "internalType": "address",
          "name": "owner",
          "type": "address"
        }
      ],
      "name": "checkBalance",
      "outputs": [
        {
          "internalType": "uint256",
          "name": "balance",
          "type": "uint256"
        }
      ],
      "stateMutability": "view",
      "type": "function",
      "constant": true
    },
    {
      "inputs": [
        {
          "internalType": "uint256",
          "name": "tokenID",
          "type": "uint256"
        }
      ],
      "name": "checkOwnerOfToken",
      "outputs": [
        {
          "internalType": "address",
          "name": "owner",
          "type": "address"
        }
      ],
      "stateMutability": "view",
      "type": "function",
      "constant": true
    },
    {
      "inputs": [
        {
          "internalType": "uint256",
          "name": "tokenID",
          "type": "uint256"
        }
      ],
      "name": "checkTokenStatus",
      "outputs": [
        {
          "internalType": "bool",
          "name": "status",
          "type": "bool"
        }
      ],
      "stateMutability": "view",
      "type": "function",
      "constant": true
    },
    {
      "inputs": [
        {
          "internalType": "address",
          "name": "owner",
          "type": "address"
        },
        {
          "internalType": "uint256",
          "name": "tokenID",
          "type": "uint256"
        }
      ],
      "name": "checkOwnerStatus",
      "outputs": [
        {
          "internalType": "bool",
          "name": "status",
          "type": "bool"
        }
      ],
      "stateMutability": "view",
      "type": "function",
      "constant": true
    },
    {
      "inputs": [
        {
          "internalType": "uint256",
          "name": "licenseID",
          "type": "uint256"
        }
      ],
      "name": "checkLicenseStatus",
      "outputs": [
        {
          "internalType": "bool",
          "name": "tokenStatus",
          "type": "bool"
        },
        {
          "internalType": "bool",
          "name": "licenseStatus",
          "type": "bool"
        }
      ],
      "stateMutability": "view",
      "type": "function",
      "constant": true
    },
    {
      "inputs": [
        {
          "internalType": "uint256",
          "name": "certificateID",
          "type": "uint256"
        }
      ],
      "name": "returnCertificateURL",
      "outputs": [
        {
          "components": [
            {
              "internalType": "bytes32",
              "name": "multiHash",
              "type": "bytes32"
            },
            {
              "internalType": "bytes4",
              "name": "multiHash_Function",
              "type": "bytes4"
            }
          ],
          "internalType": "struct IPFSEngine.IpfsHash",
          "name": "URL",
          "type": "tuple"
        },
        {
          "internalType": "uint256",
          "name": "assetID",
          "type": "uint256"
        }
      ],
      "stateMutability": "view",
      "type": "function",
      "constant": true
    },
    {
      "inputs": [
        {
          "internalType": "uint256",
          "name": "certificateID",
          "type": "uint256"
        }
      ],
      "name": "returnCertificate",
      "outputs": [
        {
          "internalType": "uint256",
          "name": "index",
          "type": "uint256"
        },
        {
          "internalType": "uint256",
          "name": "assetID",
          "type": "uint256"
        },
        {
          "internalType": "uint256[]",
          "name": "licenses",
          "type": "uint256[]"
        },
        {
          "components": [
            {
              "internalType": "bytes32",
              "name": "multiHash",
              "type": "bytes32"
            },
            {
              "internalType": "bytes4",
              "name": "multiHash_Function",
              "type": "bytes4"
            }
          ],
          "internalType": "struct IPFSEngine.IpfsHash",
          "name": "url",
          "type": "tuple"
        },
        {
          "internalType": "string",
          "name": "title",
          "type": "string"
        },
        {
          "internalType": "address",
          "name": "creator",
          "type": "address"
        },
        {
          "internalType": "address",
          "name": "owner",
          "type": "address"
        },
        {
          "internalType": "address[]",
          "name": "ownershipHistory",
          "type": "address[]"
        },
        {
          "internalType": "bool",
          "name": "status",
          "type": "bool"
        }
      ],
      "stateMutability": "view",
      "type": "function",
      "constant": true
    },
    {
      "inputs": [
        {
          "internalType": "uint256",
          "name": "licenseID",
          "type": "uint256"
        }
      ],
      "name": "returnLicense",
      "outputs": [
        {
          "internalType": "uint256",
          "name": "index",
          "type": "uint256"
        },
        {
          "internalType": "address",
          "name": "licenseOwner",
          "type": "address"
        },
        {
          "components": [
            {
              "internalType": "bytes32",
              "name": "multiHash",
              "type": "bytes32"
            },
            {
              "internalType": "bytes4",
              "name": "multiHash_Function",
              "type": "bytes4"
            }
          ],
          "internalType": "struct IPFSEngine.IpfsHash",
          "name": "url",
          "type": "tuple"
        },
        {
          "internalType": "bool",
          "name": "status",
          "type": "bool"
        }
      ],
      "stateMutability": "view",
      "type": "function",
      "constant": true
    },
    {
      "inputs": [
        {
          "internalType": "uint256",
          "name": "certificateID",
          "type": "uint256"
        }
      ],
      "name": "returnLicenseOwnerArray",
      "outputs": [
        {
          "internalType": "address[]",
          "name": "ownersArray",
          "type": "address[]"
        }
      ],
      "stateMutability": "view",
      "type": "function",
      "constant": true
    }
  ],
  "bytecode": "0x6020600f556d04ee2d6d415b85acef810000000060108190556011556d09dc5ada82b70b59df02000000006012556d0eca8847c4129106ce83000000006013556000601b55601d60809081527f4469676974616c204d6564696120436f7079726967687420546f6b656e00000060a052610100604052600460c090815263111350d560e21b60e052620000a26301ffc9a760e01b6001600160e01b036200018b16565b8151620000b7906006906020850190620001eb565b508051620000cd906007906020840190620001eb565b50620000e96380ac58cd60e01b6001600160e01b036200018b16565b62000104635b5e139f60e01b6001600160e01b036200018b16565b6200011f63780e9d6360e01b6001600160e01b036200018b16565b5060009050620001376001600160e01b03620001e616565b600a80546001600160a01b0319166001600160a01b038316908117909155604051919250906000907f8be0079c531659141344cd1fd0a4f28419497f9722a3daafe3b4186f6b6457e0908290a350620002c4565b6001600160e01b03198082161415620001c15760405162461bcd60e51b8152600401620001b8906200028d565b60405180910390fd5b6001600160e01b0319166000908152602081905260409020805460ff19166001179055565b335b90565b828054600181600116156101000203166002900490600052602060002090601f016020900481019282601f106200022e57805160ff19168380011785556200025e565b828001600101855582156200025e579182015b828111156200025e57825182559160200191906001019062000241565b506200026c92915062000270565b5090565b620001e891905b808211156200026c576000815560010162000277565b6020808252601c908201527f4552433136353a20696e76616c696420696e7465726661636520696400000000604082015260600190565b6143b780620002d46000396000f3fe608060405234801561001057600080fd5b506004361061027f5760003560e01c80636352211e1161015c578063a11e2375116100ce578063cfd56b1911610087578063cfd56b19146105d2578063d1686140146105e5578063e985e9c5146105f8578063f2fde38b1461060b578063fd7d4c0e1461061e578063fef9fe5c146106315761027f565b8063a11e237514610538578063a22cb46514610559578063a52361d01461056c578063a6e370db1461058c578063b88d4fde146105ac578063c87b56dd146105bf5761027f565b8063715018a611610120578063715018a6146104e75780638a7d124b146104ef5780638da5cb5b14610502578063947c1bb41461050a57806395d89b411461051d578063987c389b146105255761027f565b80636352211e14610477578063642db4641461048a57806367c76a53146104ab5780636c0360eb146104cc57806370a08231146104d45761027f565b80632f745c59116101f55780634e325ed3116101b95780634e325ed3146103f75780634f6ccce71461040a578063507ffba51461041d5780635d3ea9c9146104305780635f515226146104435780636151d0fb146104565761027f565b80632f745c5914610388578063305011801461039b57806333242a19146103ae57806337c14a79146103c157806342842e0e146103e45761027f565b8063095ea7b311610247578063095ea7b31461030c5780630b4f12f61461031f5780631668d7691461033257806318160ddd1461035a57806323b872dd146103625780632e8d9740146103755761027f565b806301ffc9a714610284578063026ff05e146102ad57806306fdde03146102b757806307040f17146102cc578063081812fc146102ec575b600080fd5b61029761029236600461342a565b610646565b6040516102a491906138f5565b60405180910390f35b6102b5610669565b005b6102bf6106df565b6040516102a49190613912565b6102df6102da366004613523565b610776565b6040516102a491906141bf565b6102ff6102fa36600461350b565b610a05565b6040516102a49190613770565b6102b561031a3660046133c4565b610a48565b6102b561032d366004613462565b610ae0565b61034561034036600461350b565b610b3f565b6040516102a49998979695949392919061420a565b6102df610d82565b6102b56103703660046132e1565b610d93565b6102b56103833660046133c4565b610dcb565b6102df6103963660046133c4565b611050565b6102ff6103a936600461350b565b611081565b6102b56103bc366004613462565b6110b7565b6103d46103cf36600461350b565b6110f1565b6040516102a494939291906141c8565b6102b56103f23660046132e1565b611160565b6102df61040536600461350b565b61117b565b6102df61041836600461350b565b611199565b6102b561042b366004613462565b6111b5565b6102df61043e36600461350b565b6112c6565b6102df610451366004613292565b6112d8565b61046961046436600461350b565b6112e3565b6040516102a4929190613900565b6102ff61048536600461350b565b61130f565b61049d610498366004613292565b61133d565b6040516102a4929190613925565b6104be6104b9366004613495565b611465565b6040516102a49291906141fc565b6102bf61194a565b6102df6104e2366004613292565b6119ab565b6102b56119f4565b6102b56104fd36600461350b565b611a73565b6102ff611ddb565b6102976105183660046133c4565b611dea565b6102bf611df6565b61029761053336600461350b565b611e57565b61054b61054636600461350b565b611e62565b6040516102a49291906141a4565b6102b5610567366004613389565b611eb0565b61057f61057a366004613406565b611f7e565b6040516102a49190614196565b61059f61059a36600461350b565b611f9b565b6040516102a491906138bc565b6102b56105ba366004613321565b61206f565b6102bf6105cd36600461350b565b6120ae565b6102b56105e0366004613462565b6121f8565b6102df6105f336600461350b565b61220b565b6102976106063660046132ad565b612218565b6102b5610619366004613292565b612246565b6102df61062c36600461350b565b6122fd565b61063961230a565b6040516102a491906138cf565b6001600160e01b0319811660009081526020819052604090205460ff165b919050565b336000818152601a6020818152604080842080546001600160a01b03191681558151808401928390528581529590945291905291516106ae9260019092019190612f2d565b5060408051602080820183526000808352338152601a909152919091206106dc916002909101906001612fab565b50565b60068054604080516020601f600260001961010060018816150201909516949094049384018190048102820181019092528281526060939092909183018282801561076b5780601f106107405761010080835404028352916020019161076b565b820191906000526020600020905b81548152906001019060200180831161074e57829003601f168201915b505050505090505b90565b60008460135481106107a35760405162461bcd60e51b815260040161079a906139dd565b60405180910390fd5b336107ad82612361565b6001600160a01b0316146107d35760405162461bcd60e51b815260040161079a90613953565b6000818152601560205260409020600801546001600160a01b0316331461080c5760405162461bcd60e51b815260040161079a906140e6565b6000868152601560205260409020600801546108339087906001600160a01b03168761236c565b915061083d612feb565b50604080518082019091528481526001600160e01b031984166020820152610863613002565b506040805160a081018252600d805480835260208084018890526001600160a01b03808c16858701526060850187905260016080860181905283019093557fd7b6990105719101dabeb77144f2a3385c8033acd3af97e9423a695e81ad1eb590910187905560008b81526015909152929092206008015490916108e79116856123fd565b600088815260156020818152604080842060039081018054600180820183558288528588209091018b90558a87526016855283872088518155888601518183015588850151600280830180546001600160a01b0319166001600160a01b039093169290921790915560608a01518051958301959095559386015160048201805463ffffffff191660e09290921c91909117905560808901516005909101805460ff1916911515919091179055338752601a8552838720909201805492830181558652838620909101899055888552601783528185208d9055938c9052919052517fd49a4d28bb10172ee9a78709bdbfc91750333ca9c9012b22136a0471efb975f7916109f2916138e2565b60405180910390a1505050949350505050565b6000610a1082612407565b610a2c5760405162461bcd60e51b815260040161079a90613e3b565b506000908152600460205260409020546001600160a01b031690565b6000610a538261130f565b9050806001600160a01b0316836001600160a01b03161415610a875760405162461bcd60e51b815260040161079a90613fde565b806001600160a01b0316610a9961241a565b6001600160a01b03161480610ab55750610ab58161060661241a565b610ad15760405162461bcd60e51b815260040161079a90613cd6565b610adb838361241e565b505050565b336000908152601a60205260409020546001600160a01b0316610b155760405162461bcd60e51b815260040161079a9061401f565b336000908152601a602090815260409091208251610b3b92600190920191840190612f2d565b5050565b6000806060610b4c612feb565b60008581526015602090815260408083208054600282015460039092018054845181870281018701909552808552919950919750606094938493869385939192909190830182828015610bbe57602002820191906000526020600020905b815481526020019060010190808311610baa575b50505050509650601560008b8152602001908152602001600020600401604051806040016040529081600082015481526020016001820160009054906101000a900460e01b6001600160e01b0319166001600160e01b031916815250509550601560008b81526020019081526020016000206006018054600181600116156101000203166002900480601f016020809104026020016040519081016040528092919081815260200182805460018160011615610100020316600290048015610cc75780601f10610c9c57610100808354040283529160200191610cc7565b820191906000526020600020905b815481529060010190602001808311610caa57829003601f168201915b50505060008d8152601560209081526040918290206007810154600882015460099092018054855181860281018601909652808652979c506001600160a01b039182169b50911698509194919350909150830182828015610d5157602002820191906000526020600020905b81546001600160a01b03168152600190910190602001808311610d33575b50505060009c8d52505060156020526040909a20600a0154989a97999698959794969395929460ff90931692915050565b6000610d8e600261248c565b905090565b610da4610d9e61241a565b82612497565b610dc05760405162461bcd60e51b815260040161079a9061404c565b610adb838383612514565b806013548110610ded5760405162461bcd60e51b815260040161079a906139dd565b33610df782612361565b6001600160a01b031614610e1d5760405162461bcd60e51b815260040161079a90613953565b6000818152601560205260409020600801546001600160a01b03163314610e565760405162461bcd60e51b815260040161079a906140e6565b610e603383612634565b1515600114610e815760405162461bcd60e51b815260040161079a90613ebc565b6013548210610ea25760405162461bcd60e51b815260040161079a9061412f565b6000828152601560205260409020600801546001600160a01b0384811691161415610edf5760405162461bcd60e51b815260040161079a90613d7d565b6000828152601560205260409020600a015460ff161515600114610f155760405162461bcd60e51b815260040161079a90613f58565b610f20338484612640565b600082815260156020908152604082206008810180546001600160a01b0388166001600160a01b03199182168117909255600983018054600181018255908652938520909301805490931617909155908390526003015415610fe3575b600082815260156020526040902060030154601b5460001990910110610fe357610fd5338460156000868152602001908152602001600020600301601b5481548110610fc557fe5b9060005260206000200154612640565b601b80546001019055610f7d565b600082815260156020526040908190206007810154600882015492517f118156733240272377b9f5489d38ded92256543bb9d43c8295ec716f0ece503993611043936001600160a01b0393841693909116916009820191600301906137c1565b60405180910390a1505050565b6001600160a01b0382166000908152600160205260408120611078908363ffffffff61264b16565b90505b92915050565b60006013548211156110ae57506000818152601660205260409020600201546001600160a01b0316610664565b61107b82612361565b7fdb08a06eba245dbd34ffbd08b80e14e9acdd66a8ca6f8f1f035348ced6ef7dc7816040516110e69190613912565b60405180910390a150565b6000806110fc612feb565b505050600081815260166020818152604080842080546002820154835180850190945260038301548452600483015460e01b6001600160e01b03191684860152969095529290915260059091015491936001600160a01b0390931692909160ff1690565b610adb8383836040518060200160405280600081525061206f565b600d818154811061118857fe5b600091825260209091200154905081565b6000806111ad60028463ffffffff61265716565b509392505050565b336000908152601a60205260409020546001600160a01b0316156111eb5760405162461bcd60e51b815260040161079a90613c68565b6040805160608101825233808252602080830185815284516000808252818401875285870191909152928352601a825293909120825181546001600160a01b0319166001600160a01b03909116178155925180519293926112529260018501920190612f2d565b506040820151805161126e916002840191602090910190613040565b5050336000908152601a602052604090819020805491517f1762e6485dad7c291ae8191119acded92bd07cda85e738e1e570a5949d5a264b93506110e6926001600160a01b031691600181019160029091019061380a565b60176020526000908152604090205481565b600061107b82612673565b6000806112ef8361267e565b60009384526016602052604090932060050154929360ff90931692915050565b600061107b82604051806060016040528060298152602001614359602991396002919063ffffffff61268916565b6001600160a01b0381166000908152601a6020908152604091829020600190810180548451600293821615610100026000190190911692909204601f810184900484028301840190945283825260609384938301828280156113e05780601f106113b5576101008083540402835291602001916113e0565b820191906000526020600020905b8154815290600101906020018083116113c357829003601f168201915b50505050509150601a6000846001600160a01b03166001600160a01b0316815260200190815260200160002060020180548060200260200160405190810160405280929190818152602001828054801561145957602002820191906000526020600020905b815481526020019060010190808311611445575b50505050509050915091565b600080611470612feb565b8481526001600160e01b03198416602082015261148d86826126a0565b91505b600e54601b5410156115dc576114a461307a565b60146000600e601b54815481106114b757fe5b60009182526020808320919091015483528281019390935260409182019020815160808101835281548152600182015481850152600282015460c01b6001600160c01b0319168184015282518084019093526003820154835260049091015460e01b6001600160e01b031916928201929092526060820152601b54600e80549293508592909190811061154657fe5b9060005260206000200154141561156f5760405162461bcd60e51b815260040161079a90614166565b866001600160c01b03191681604001516001600160c01b03191614156115a75760405162461bcd60e51b815260040161079a90613be5565b815160608201515114156115cd5760405162461bcd60e51b815260040161079a90613c9f565b50601b80546001019055611490565b6115e682336126c4565b6000838152601860205260408120829055600e8054600181018255918190527fbb7b4a454dc3493923482f07822329ed19e8244eff582cc204f8554c3620c3fd909101849055549093506000190161163c61307a565b506040805160808101825282815260208082018681526001600160c01b03198b16838501908152606084018781526000898152601485528681208651815593516001850155915160028401805467ffffffffffffffff191660c09290921c91909117905551805160038401558301516004909201805463ffffffff191660e09390931c929092179091558781526019909152919091208290556116dd6130b1565b6040805161014081018252600c54815260208082018990528183018890528251600080825291810190935290916060830191508152602080820187905260408083018e9052336060840181905260808401528051600080825292810190915260a0909201919050815260016020918201819052600c80548083019091557fdf6966c971051c3d54ec59162606531493a51404a002842f56009d7e5cf4a8c701899055600089815260158352604090819020845181558484015192810192909255830151600282015560608301518051939450849391926117c592600385019290910190613040565b5060808201518051600483015560209081015160058301805463ffffffff191660e09290921c91909117905560a083015180516118089260068501920190612f2d565b5060c08201516007820180546001600160a01b039283166001600160a01b03199182161790915560e0840151600884018054919093169116179055610100820151805161185f91600984019160209091019061311e565b506101209190910151600a909101805460ff19169115159190911790556000868152601560209081526040808320600901805460018181018355918552838520018054336001600160a01b03199091168117909155808552601a845291842060020180549182018155845291909220018790556118dc90876123fd565b80516020808301516000898152601590925260409182902091517fd0269f6fd5d6d7503bdcb2ba2498d12e35613b699b28aef8f930c268b627afa793611935939092918a918a9133916009810191600390910190614291565b60405180910390a15050505094509492505050565b60098054604080516020601f600260001961010060018816150201909516949094049384018190048102820181019092528281526060939092909183018282801561076b5780601f106107405761010080835404028352916020019161076b565b60006001600160a01b0382166119d35760405162461bcd60e51b815260040161079a90613d33565b6001600160a01b038216600090815260016020526040902061107b9061248c565b6119fc61241a565b600a546001600160a01b03908116911614611a295760405162461bcd60e51b815260040161079a90613e87565b600a546040516000916001600160a01b0316907f8be0079c531659141344cd1fd0a4f28419497f9722a3daafe3b4186f6b6457e0908390a3600a80546001600160a01b0319169055565b6013548110611c56575b60008181526017602090815260408083205483526015909152902060030154601b5460001990910110611bef57600081815260176020908152604080832054835260159091529020601b54600390910180548392908110611ada57fe5b90600052602060002001541415611be15760008181526017602090815260408083205483526015909152902060030180546000198101908110611b1957fe5b90600052602060002001546015600060176000858152602001908152602001600020548152602001908152602001600020600301601b5481548110611b5a57fe5b60009182526020808320919091019290925582815260178252604080822054825260159092522060030180546000198101908110611b9457fe5b6000918252602080832090910182905582825260178152604080832054835260159091529020600301805480611bc657fe5b60019003818190600052602060002001600090559055611bef565b601b80546001019055611a7d565b6000818152601660205260409020600501805460ff19169055611c1233826126e4565b7f486ba50ba1b2ac0157dc7c2b5bb2953cc5b90e298b682f197a4019d303de8366611c3c8261267e565b604051611c4991906138f5565b60405180910390a16106dc565b600081815260196020526040812054600e805491929160189183916000198101908110611c7f57fe5b9060005260206000200154815260200190815260200160002054905080600c6001600c805490500381548110611cb157fe5b906000526020600020015414611cf7577fad70efb6faf0745f98f66743197c2e122372a10573177c92191a9e85eb8a24db604051611cee90613b1a565b60405180910390a15b600e80546000198101908110611d0957fe5b9060005260206000200154600e8381548110611d2157fe5b6000918252602080832090910192909255828152601990915260409020829055600e80546000198101908110611d5357fe5b6000918252602082200155600e805480611d6957fe5b6000828152602080822083016000199081018390559092019092558482526015905260409020600a01805460ff19169055611da433846126e4565b7f486ba50ba1b2ac0157dc7c2b5bb2953cc5b90e298b682f197a4019d303de8366611dce8461267e565b60405161104391906138f5565b600a546001600160a01b031690565b60006110788383612634565b60078054604080516020601f600260001961010060018816150201909516949094049384018190048102820181019092528281526060939092909183018282801561076b5780601f106107405761010080835404028352916020019161076b565b600061107b8261267e565b611e6a612feb565b506000818152601560208181526040808420815180830190925260048101548252600581015460e01b6001600160e01b0319168284015294909352526002909101549091565b611eb861241a565b6001600160a01b0316826001600160a01b03161415611ee95760405162461bcd60e51b815260040161079a90613bae565b8060056000611ef661241a565b6001600160a01b03908116825260208083019390935260409182016000908120918716808252919093529120805460ff191692151592909217909155611f3a61241a565b6001600160a01b03167f17307eab39ab6107e8899845ad3d59bd9653f200f220920489ca2b5937696c3183604051611f7291906138f5565b60405180910390a35050565b611f86612feb565b9182526001600160e01b031916602082015290565b600081815260156020908152604091829020600301548251818152818302810190920190925260609190818015611fdc578160200160208202803883390190505b50915060005b81811015612068576000848152601560205260408120600301805460169291908490811061200c57fe5b9060005260206000200154815260200190815260200160002060020160009054906101000a90046001600160a01b031683828151811061204857fe5b6001600160a01b0390921660209283029190910190910152600101611fe2565b5050919050565b61208061207a61241a565b83612497565b61209c5760405162461bcd60e51b815260040161079a9061404c565b6120a884848484612718565b50505050565b60606120b982612407565b6120d55760405162461bcd60e51b815260040161079a90613f8f565b60008281526008602090815260409182902080548351601f600260001961010060018616150201909316929092049182018490048402810184019094528084526060939283018282801561216a5780601f1061213f5761010080835404028352916020019161216a565b820191906000526020600020905b81548152906001019060200180831161214d57829003601f168201915b505060095493945050505060026000196101006001841615020190911604612193579050610664565b8051156121c5576009816040516020016121ae9291906136a4565b604051602081830303815290604052915050610664565b60096121d08461274b565b6040516020016121e19291906136a4565b604051602081830303815290604052915050919050565b8051610b3b90600b906020840190612f2d565b600e818154811061118857fe5b6001600160a01b03918216600090815260056020908152604080832093909416825291909152205460ff1690565b61224e61241a565b600a546001600160a01b0390811691161461227b5760405162461bcd60e51b815260040161079a90613e87565b6001600160a01b0381166122a15760405162461bcd60e51b815260040161079a90613a66565b600a546040516001600160a01b038084169216907f8be0079c531659141344cd1fd0a4f28419497f9722a3daafe3b4186f6b6457e090600090a3600a80546001600160a01b0319166001600160a01b0392909216919091179055565b600c818154811061118857fe5b6060600e80548060200260200160405190810160405280929190818152602001828054801561076b57602002820191906000526020600020905b815481526020019060010190808311612344575050505050905090565b600061107b8261130f565b60006123f5601354601054600287878760405160200161238e93929190613745565b60408051601f19818403018152908290526123a891613688565b602060405180830381855afa1580156123c5573d6000803e3d6000fd5b5050506040513d601f19601f820116820180604052506123e891908101906133ee565b816123ef57fe5b0661280f565b949350505050565b610b3b8282612834565b600061107b60028363ffffffff61290416565b3390565b600081815260046020526040902080546001600160a01b0319166001600160a01b03841690811790915581906124538261130f565b6001600160a01b03167f8c5be1e5ebec7d5bd14f71427d1e84f3dd0314c0f7b2291e5b200ac8c7c3b92560405160405180910390a45050565b600061107b82612910565b60006124a282612407565b6124be5760405162461bcd60e51b815260040161079a90613c1c565b60006124c98361130f565b9050806001600160a01b0316846001600160a01b031614806125045750836001600160a01b03166124f984610a05565b6001600160a01b0316145b806123f557506123f58185612218565b826001600160a01b03166125278261130f565b6001600160a01b03161461254d5760405162461bcd60e51b815260040161079a90613f0f565b6001600160a01b0382166125735760405162461bcd60e51b815260040161079a90613b6a565b61257e838383610adb565b61258960008261241e565b6001600160a01b03831660009081526001602052604090206125b1908263ffffffff61291416565b506001600160a01b03821660009081526001602052604090206125da908263ffffffff61292016565b506125ed6002828463ffffffff61292c16565b5080826001600160a01b0316846001600160a01b03167fddf252ad1be2c89b69c2b068fc378daa952ba7f163c4a11628f55a4df523b3ef60405160405180910390a4505050565b60006110788383612497565b610adb838383611160565b60006110788383612942565b60008080806126668686612987565b9097909650945050505050565b600061107b826119ab565b600061107b82612407565b60006126968484846129e3565b90505b9392505050565b6000611078601154601054600286866000015160405160200161238e92919061366e565b60006110786012546010546002868660405160200161238e929190613725565b6126ee8282612634565b151560011461270f5760405162461bcd60e51b815260040161079a9061409d565b610b3b81612a42565b612723848484612514565b61272f84848484612b1b565b6120a85760405162461bcd60e51b815260040161079a90613a14565b60608161277057506040805180820190915260018152600360fc1b6020820152610664565b8160005b811561278857600101600a82049150612774565b6060816040519080825280601f01601f1916602001820160405280156127b5576020820181803883390190505b50859350905060001982015b831561280657600a840660300160f81b828280600190039350815181106127e457fe5b60200101906001600160f81b031916908160001a905350600a840493506127c1565b50949350505050565b6000828201838110156110785760405162461bcd60e51b815260040161079a90613ae3565b6001600160a01b03821661285a5760405162461bcd60e51b815260040161079a90613e06565b61286381612407565b156128805760405162461bcd60e51b815260040161079a90613aac565b61288c60008383610adb565b6001600160a01b03821660009081526001602052604090206128b4908263ffffffff61292016565b506128c76002828463ffffffff61292c16565b5060405181906001600160a01b038416906000907fddf252ad1be2c89b69c2b068fc378daa952ba7f163c4a11628f55a4df523b3ef908290a45050565b60006110788383612c55565b5490565b60006110788383612c6d565b60006110788383612d33565b60006123f584846001600160a01b038516612d7d565b815460009082106129655760405162461bcd60e51b815260040161079a9061399b565b82600001828154811061297457fe5b9060005260206000200154905092915050565b8154600090819083106129ac5760405162461bcd60e51b815260040161079a90613dc4565b60008460000184815481106129bd57fe5b906000526020600020906002020190508060000154816001015492509250509250929050565b60008281526001840160205260408120548281612a135760405162461bcd60e51b815260040161079a9190613912565b50846000016001820381548110612a2657fe5b9060005260206000209060020201600101549150509392505050565b6000612a4d8261130f565b9050612a5b81600084610adb565b612a6660008361241e565b6000828152600860205260409020546002600019610100600184161502019091160415612aa4576000828152600860205260408120612aa49161317f565b6001600160a01b0381166000908152600160205260409020612acc908363ffffffff61291416565b50612ade60028363ffffffff612e1416565b5060405182906000906001600160a01b038416907fddf252ad1be2c89b69c2b068fc378daa952ba7f163c4a11628f55a4df523b3ef908390a45050565b6000612b2f846001600160a01b0316612e20565b612b3b575060016123f5565b600060606001600160a01b038616630a85bd0160e11b612b5961241a565b898888604051602401612b6f9493929190613784565b60408051601f198184030181529181526020820180516001600160e01b03166001600160e01b0319909416939093179092529051612bad9190613688565b6000604051808303816000865af19150503d8060008114612bea576040519150601f19603f3d011682016040523d82523d6000602084013e612bef565b606091505b509150915081612c2157805115612c095780518082602001fd5b60405162461bcd60e51b815260040161079a90613a14565b600081806020019051612c379190810190613446565b6001600160e01b031916630a85bd0160e11b1493506123f592505050565b60009081526001919091016020526040902054151590565b60008181526001830160205260408120548015612d295783546000198083019190810190600090879083908110612ca057fe5b9060005260206000200154905080876000018481548110612cbd57fe5b600091825260208083209091019290925582815260018981019092526040902090840190558654879080612ced57fe5b6001900381819060005260206000200160009055905586600101600087815260200190815260200160002060009055600194505050505061107b565b600091505061107b565b6000612d3f8383612c55565b612d755750815460018181018455600084815260208082209093018490558454848252828601909352604090209190915561107b565b50600061107b565b600082815260018401602052604081205480612de2575050604080518082018252838152602080820184815286546001818101895560008981528481209551600290930290950191825591519082015586548684528188019092529290912055612699565b82856000016001830381548110612df557fe5b9060005260206000209060020201600101819055506000915050612699565b60006110788383612e59565b6000813f7fc5d2460186f7233c927e7db2dcc703c0e500b653ca82273b7bfad8045d85a4708181148015906123f5575050151592915050565b60008181526001830160205260408120548015612d295783546000198083019190810190600090879083908110612e8c57fe5b9060005260206000209060020201905080876000018481548110612eac57fe5b600091825260208083208454600290930201918255600193840154918401919091558354825289830190526040902090840190558654879080612eeb57fe5b600082815260208082206002600019909401938402018281556001908101839055929093558881528982019092526040822091909155945061107b9350505050565b828054600181600116156101000203166002900490600052602060002090601f016020900481019282601f10612f6e57805160ff1916838001178555612f9b565b82800160010185558215612f9b579182015b82811115612f9b578251825591602001919060010190612f80565b50612fa79291506131bf565b5090565b828054828255906000526020600020908101928215612f9b579160200282015b82811115612f9b578251829060ff16905591602001919060010190612fcb565b604080518082019091526000808252602082015290565b6040518060a00160405280600081526020016000815260200160006001600160a01b03168152602001613033612feb565b8152600060209091015290565b828054828255906000526020600020908101928215612f9b5791602002820182811115612f9b578251825591602001919060010190612f80565b6040518060800160405280600081526020016000815260200160006001600160c01b03191681526020016130ac612feb565b905290565b604051806101400160405280600081526020016000815260200160008152602001606081526020016130e1612feb565b81526020016060815260200160006001600160a01b0316815260200160006001600160a01b03168152602001606081526020016000151581525090565b828054828255906000526020600020908101928215613173579160200282015b8281111561317357825182546001600160a01b0319166001600160a01b0390911617825560209092019160019091019061313e565b50612fa79291506131d9565b50805460018160011615610100020316600290046000825580601f106131a557506106dc565b601f0160209004906000526020600020908101906106dc91905b61077391905b80821115612fa757600081556001016131c5565b61077391905b80821115612fa75780546001600160a01b03191681556001016131df565b80356001600160a01b038116811461107b57600080fd5b600082601f830112613224578081fd5b813567ffffffffffffffff8082111561323b578283fd5b604051601f8301601f19168101602001828111828210171561325b578485fd5b60405282815292508284830160200186101561327657600080fd5b8260208601602083013760006020848301015250505092915050565b6000602082840312156132a3578081fd5b61107883836131fd565b600080604083850312156132bf578081fd5b6132c984846131fd565b91506132d884602085016131fd565b90509250929050565b6000806000606084860312156132f5578081fd5b83356133008161432d565b925060208401356133108161432d565b929592945050506040919091013590565b60008060008060808587031215613336578081fd5b61334086866131fd565b935061334f86602087016131fd565b925060408501359150606085013567ffffffffffffffff811115613371578182fd5b61337d87828801613214565b91505092959194509250565b6000806040838503121561339b578182fd5b6133a584846131fd565b9150602083013580151581146133b9578182fd5b809150509250929050565b600080604083850312156133d6578182fd5b6133e084846131fd565b946020939093013593505050565b6000602082840312156133ff578081fd5b5051919050565b60008060408385031215613418578182fd5b8235915060208301356133b981614342565b60006020828403121561343b578081fd5b813561107881614342565b600060208284031215613457578081fd5b815161107881614342565b600060208284031215613473578081fd5b813567ffffffffffffffff811115613489578182fd5b6123f584828501613214565b600080600080608085870312156134aa578384fd5b843567ffffffffffffffff8111156134c0578485fd5b6134cc87828801613214565b94505060208501356001600160c01b0319811681146134e9578384fd5b925060408501359150606085013561350081614342565b939692955090935050565b60006020828403121561351c578081fd5b5035919050565b60008060008060808587031215613538578182fd5b8435935060208501356134e98161432d565b6000815180845260208085019450808401835b838110156135825781516001600160a01b03168752958201959082019060010161355d565b509495945050505050565b6000815480845260208085019450838352808320835b838110156135825781546001600160a01b0316875295820195600191820191016135a3565b6000815180845260208085019450808401835b83811015613582578151875295820195908201906001016135db565b6000815480845260208085019450838352808320835b838110156135825781548752958201956001918201910161360d565b60008151808452613641816020860160208601614301565b601f01601f19169290920160200192915050565b805182526020908101516001600160e01b031916910152565b6001600160c01b0319929092168252600882015260280190565b6000825161369a818460208701614301565b9190910192915050565b60008084546001808216600081146136c357600181146136da57613709565b60ff198316865260028304607f1686019350613709565b600283048886526020808720875b838110156137015781548a8201529085019082016136e8565b505050860193505b505050835161371c818360208801614301565b01949350505050565b91825260601b6bffffffffffffffffffffffff1916602082015260340190565b9283526bffffffffffffffffffffffff19606092831b81166020850152911b16603482015260480190565b6001600160a01b0391909116815260200190565b6001600160a01b03858116825284166020820152604081018390526080606082018190526000906137b790830184613629565b9695505050505050565b6001600160a01b038581168252841660208201526080604082018190526000906137ed9083018561358d565b82810360608401526137ff81856135f7565b979650505050505050565b60006060820160018060a01b0386168352602060608185015282865460018082166000811461384057600181146138605761389b565b613850607f6002850416876141bf565b60ff19841681528501935061389b565b6002830461386e81886141bf565b6138778c6142f5565b895b8381101561389257815483820152908501908801613879565b91909101955050505b50505084810360408601526138b081876135f7565b98975050505050505050565b600060208252611078602083018461354a565b60006020825261107860208301846135c8565b60006020825261107860208301846135f7565b901515815260200190565b91151582521515602082015260400190565b6000602082526110786020830184613629565b6000604082526139386040830185613629565b828103602084015261394a81856135c8565b95945050505050565b60208082526028908201527f4d73672e73656e646572206973206e6f7420746865206f776e6572206f6620746040820152673432903a37b5b2b760c11b606082015260800190565b60208082526022908201527f456e756d657261626c655365743a20696e646578206f7574206f6620626f756e604082015261647360f01b606082015260800190565b60208082526019908201527f434944206973206c6172676572207468616e20746865204c4900000000000000604082015260600190565b60208082526032908201527f4552433732313a207472616e7366657220746f206e6f6e20455243373231526560408201527131b2b4bb32b91034b6b83632b6b2b73a32b960711b606082015260800190565b60208082526026908201527f4f776e61626c653a206e6577206f776e657220697320746865207a65726f206160408201526564647265737360d01b606082015260800190565b6020808252601c908201527f4552433732313a20746f6b656e20616c7265616479206d696e74656400000000604082015260600190565b6020808252601b908201527f536166654d6174683a206164646974696f6e206f766572666c6f770000000000604082015260600190565b60208082526030908201527f4365727449445320616e6420417373657449445320617265206e6f7420696e6460408201526f6578656420696e2073657175656e636560801b606082015260800190565b60208082526024908201527f4552433732313a207472616e7366657220746f20746865207a65726f206164646040820152637265737360e01b606082015260800190565b60208082526019908201527f4552433732313a20617070726f766520746f2063616c6c657200000000000000604082015260600190565b60208082526018908201527f41737365744861736820616c7265616479206578697374730000000000000000604082015260600190565b6020808252602c908201527f4552433732313a206f70657261746f7220717565727920666f72206e6f6e657860408201526b34b9ba32b73a103a37b5b2b760a11b606082015260800190565b60208082526017908201527f54686973205573657220616c7265616479206578697374000000000000000000604082015260600190565b60208082526017908201527f417373657443494420616c726561647920657869737473000000000000000000604082015260600190565b60208082526038908201527f4552433732313a20617070726f76652063616c6c6572206973206e6f74206f7760408201527f6e6572206e6f7220617070726f76656420666f7220616c6c0000000000000000606082015260800190565b6020808252602a908201527f4552433732313a2062616c616e636520717565727920666f7220746865207a65604082015269726f206164647265737360b01b606082015260800190565b60208082526027908201527f54686973207573657220616c7265616479206f776e73207468697320636572746040820152666966696361746560c81b606082015260800190565b60208082526022908201527f456e756d657261626c654d61703a20696e646578206f7574206f6620626f756e604082015261647360f01b606082015260800190565b6020808252818101527f4552433732313a206d696e7420746f20746865207a65726f2061646472657373604082015260600190565b6020808252602c908201527f4552433732313a20617070726f76656420717565727920666f72206e6f6e657860408201526b34b9ba32b73a103a37b5b2b760a11b606082015260800190565b6020808252818101527f4f776e61626c653a2063616c6c6572206973206e6f7420746865206f776e6572604082015260600190565b60208082526033908201527f596f7520617265206e6f7420616e20616c6c6f77656420746f207472616e73666040820152726572207468697320636572746966696361746560681b606082015260800190565b60208082526029908201527f4552433732313a207472616e73666572206f6620746f6b656e2074686174206960408201526839903737ba1037bbb760b91b606082015260800190565b6020808252601a908201527f5468697320636572746966696361746520697320636c6f736564000000000000604082015260600190565b6020808252602f908201527f4552433732314d657461646174613a2055524920717565727920666f72206e6f60408201526e3732bc34b9ba32b73a103a37b5b2b760891b606082015260800190565b60208082526021908201527f4552433732313a20617070726f76616c20746f2063757272656e74206f776e656040820152603960f91b606082015260800190565b602080825260139082015272155cd95c88191bd95cc81b9bdd08195e1a5cdd606a1b604082015260600190565b60208082526031908201527f4552433732313a207472616e736665722063616c6c6572206973206e6f74206f6040820152701ddb995c881b9bdc88185c1c1c9bdd9959607a1b606082015260800190565b60208082526029908201527f596f7520617265206e6f7420617574686f72697a656420746f206275726e20746040820152683434b9903a37b5b2b760b91b606082015260800190565b60208082526029908201527f596f7520617265206e6f7420746865206f776e6572206f66207468697320636560408201526872746966696361746560b81b606082015260800190565b6020808252601c908201527f596f752063616e6e6f74207472616e73666572204c6963656e73657300000000604082015260600190565b6020808252601690820152754173736574494420616c72656164792065786973747360501b604082015260600190565b6040810161107b8284613655565b606081016141b28285613655565b8260408301529392505050565b90815260200190565b8481526001600160a01b038416602082015260a081016141eb6040830185613655565b821515608083015295945050505050565b918252602082015260400190565b60006101408b83528a602084015280604084015261422a8184018b6135c8565b614237606085018b613655565b83810360a0850152614249818a613629565b6001600160a01b0389811660c0870152881660e086015284810361010086015291506142779050818661354a565b9150508215156101208301529a9950505050505050505050565b60006101008983528860208401528760408401526142b26060840188613655565b6001600160a01b03861660a084015260c083018190526142d48184018661358d565b83810360e08501526142e681866135f7565b9b9a5050505050505050505050565b60009081526020902090565b60005b8381101561431c578181015183820152602001614304565b838111156120a85750506000910152565b6001600160a01b03811681146106dc57600080fd5b6001600160e01b0319811681146106dc57600080fdfe4552433732313a206f776e657220717565727920666f72206e6f6e6578697374656e7420746f6b656ea2646970667358221220920a1b5af42452a53d516939e2191c4b69632a377a7b47ab3675a25fed6a5b5764736f6c63430006020033",
  "source": "pragma solidity ^0.6.0;\npragma experimental ABIEncoderV2;\n\nimport \"./DMCT.sol\";\n\ncontract DMCTServices is DMCT {\n    function returnAssetIDS() public view returns (uint256[] memory assetIDS) {\n        assetIDS = AssetIDS;\n    }\n\n    function returnUserByAddress(address userAddress)\n        public\n        view\n        returns (string memory userName, uint256[] memory portfolio)\n    {\n        userName = addressToUser[userAddress].userName;\n        portfolio = addressToUser[userAddress].portfolio;\n    }\n\n    function checkBalance(address owner) public view returns (uint256 balance) {\n        balance = Models.balance(owner);\n    }\n\n    function checkOwnerOfToken(uint256 tokenID)\n        public\n        view\n        returns (address owner)\n    {\n        if (tokenID > LI) {\n            owner = LIDToLicense[tokenID].licenseOwner;\n        } else {\n            owner = ownerOfToken(tokenID);\n        }\n    }\n\n    function checkTokenStatus(uint256 tokenID)\n        public\n        view\n        returns (bool status)\n    {\n        status = Models.exists(tokenID);\n    }\n\n    function checkOwnerStatus(address owner, uint256 tokenID)\n        public\n        view\n        returns (bool status)\n    {\n        status = Models.isApprovedOrOwner(owner, tokenID);\n    }\n\n    function checkLicenseStatus(uint256 licenseID)\n        public\n        view\n        returns (bool tokenStatus, bool licenseStatus)\n    {\n        tokenStatus = Models.exists(licenseID);\n        licenseStatus = LIDToLicense[licenseID].status;\n    }\n\n    function returnCertificateURL(uint256 certificateID)\n        public\n        view\n        returns (IpfsHash memory URL, uint256 assetID)\n    {\n        URL = CIDToCertificate[certificateID].url;\n        assetID = CIDToCertificate[certificateID].assetID;\n    }\n\n    function returnCertificate(uint256 certificateID)\n        public\n        view\n        returns (\n            uint256 index,\n            uint256 assetID, //AID\n            uint256[] memory licenses,\n            IpfsHash memory url,\n            string memory title,\n            address creator,\n            address owner,\n            address[] memory ownershipHistory,\n            bool status\n        )\n    {\n        index = CIDToCertificate[certificateID].index;\n        assetID = CIDToCertificate[certificateID].assetID;\n        licenses = CIDToCertificate[certificateID].licenses;\n        url = CIDToCertificate[certificateID].url;\n        title = CIDToCertificate[certificateID].title;\n        creator = CIDToCertificate[certificateID].certificateCreator;\n        owner = CIDToCertificate[certificateID].certificateOwner;\n        ownershipHistory = CIDToCertificate[certificateID].ownershipHistory;\n        status = CIDToCertificate[certificateID].status;\n    }\n\n    function returnLicense(uint256 licenseID)\n        public\n        view\n        returns (\n            uint256 index,\n            address licenseOwner,\n            IpfsHash memory url,\n            bool status\n        )\n    {\n        index = LIDToLicense[licenseID].index;\n        licenseOwner = LIDToLicense[licenseID].licenseOwner;\n        url = LIDToLicense[licenseID].url;\n        status = LIDToLicense[licenseID].status;\n    }\n\n    function returnLicenseOwnerArray(uint256 certificateID)\n        public\n        view\n        returns (address[] memory ownersArray)\n    {\n        uint256 licenseCount = CIDToCertificate[certificateID].licenses.length;\n        ownersArray = new address[](licenseCount);\n        for (uint256 i = 0; i < licenseCount; i++) {\n            ownersArray[i] = LIDToLicense[CIDToCertificate[certificateID]\n                .licenses[i]]\n                .licenseOwner;\n        }\n    }\n}\n",
  "sourcePath": "C:\\MyData\\Projects\\Portfolio\\dmct\\contracts\\DMCT\\DMCTServices.sol",
  "compiler": {
    "name": "solc",
    "version": "0.6.2+commit.bacdbe57.Emscripten.clang"
  },
  "schemaVersion": "3.2.0",
  "updatedAt": "2020-12-08T03:05:34.476Z",
  "networkType": "ethereum",
  "devdoc": {
    "methods": {
      "approve(address,uint256)": {
        "details": "Approves another address to transfer the given token ID The zero address indicates there is no approved address. There can only be one approved address per token at a given time. Can only be called by the token owner or an approved operator.",
        "params": {
          "to": "address to be approved for the given token ID",
          "tokenId": "uint256 ID of the token to be approved"
        }
      },
      "balanceOf(address)": {
        "details": "Gets the balance of the specified address.",
        "params": {
          "owner": "address to query the balance of"
        },
        "returns": {
          "_0": "uint256 representing the amount owned by the passed address"
        }
      },
      "baseURI()": {
        "details": "Returns the base URI set via {_setBaseURI}. This will be automatically added as a prefix in {tokenURI} to each token's URI, or to the token ID if no specific URI is set for that token ID."
      },
      "getApproved(uint256)": {
        "details": "Gets the approved address for a token ID, or zero if no address set Reverts if the token ID does not exist.",
        "params": {
          "tokenId": "uint256 ID of the token to query the approval of"
        },
        "returns": {
          "_0": "address currently approved for the given token ID"
        }
      },
      "isApprovedForAll(address,address)": {
        "details": "Tells whether an operator is approved by a given owner.",
        "params": {
          "operator": "operator address which you want to query the approval of",
          "owner": "owner address which you want to query the approval of"
        },
        "returns": {
          "_0": "bool whether the given operator is approved by the given owner"
        }
      },
      "name()": {
        "details": "Gets the token name.",
        "returns": {
          "_0": "string representing the token name"
        }
      },
      "owner()": {
        "details": "Returns the address of the current owner."
      },
      "ownerOf(uint256)": {
        "details": "Gets the owner of the specified token ID.",
        "params": {
          "tokenId": "uint256 ID of the token to query the owner of"
        },
        "returns": {
          "_0": "address currently marked as the owner of the given token ID"
        }
      },
      "renounceOwnership()": {
        "details": "Leaves the contract without owner. It will not be possible to call `onlyOwner` functions anymore. Can only be called by the current owner.     * NOTE: Renouncing ownership will leave the contract without an owner, thereby removing any functionality that is only available to the owner."
      },
      "safeTransferFrom(address,address,uint256)": {
        "details": "Safely transfers the ownership of a given token ID to another address If the target address is a contract, it must implement {IERC721Receiver-onERC721Received}, which is called upon a safe transfer, and return the magic value `bytes4(keccak256(\"onERC721Received(address,address,uint256,bytes)\"))`; otherwise, the transfer is reverted. Requires the msg.sender to be the owner, approved, or operator",
        "params": {
          "from": "current owner of the token",
          "to": "address to receive the ownership of the given token ID",
          "tokenId": "uint256 ID of the token to be transferred"
        }
      },
      "safeTransferFrom(address,address,uint256,bytes)": {
        "details": "Safely transfers the ownership of a given token ID to another address If the target address is a contract, it must implement {IERC721Receiver-onERC721Received}, which is called upon a safe transfer, and return the magic value `bytes4(keccak256(\"onERC721Received(address,address,uint256,bytes)\"))`; otherwise, the transfer is reverted. Requires the _msgSender() to be the owner, approved, or operator",
        "params": {
          "_data": "bytes data to send along with a safe transfer check",
          "from": "current owner of the token",
          "to": "address to receive the ownership of the given token ID",
          "tokenId": "uint256 ID of the token to be transferred"
        }
      },
      "setApprovalForAll(address,bool)": {
        "details": "Sets or unsets the approval of a given operator An operator is allowed to transfer all tokens of the sender on their behalf.",
        "params": {
          "approved": "representing the status of the approval to be set",
          "operator": "operator address to set the approval"
        }
      },
      "supportsInterface(bytes4)": {
        "details": "See {IERC165-supportsInterface}.     * Time complexity O(1), guaranteed to always use less than 30 000 gas."
      },
      "symbol()": {
        "details": "Gets the token symbol.",
        "returns": {
          "_0": "string representing the token symbol"
        }
      },
      "tokenByIndex(uint256)": {
        "details": "Gets the token ID at a given index of all the tokens in this contract Reverts if the index is greater or equal to the total number of tokens.",
        "params": {
          "index": "uint256 representing the index to be accessed of the tokens list"
        },
        "returns": {
          "_0": "uint256 token ID at the given index of the tokens list"
        }
      },
      "tokenOfOwnerByIndex(address,uint256)": {
        "details": "Gets the token ID at a given index of the tokens list of the requested owner.",
        "params": {
          "index": "uint256 representing the index to be accessed of the requested tokens list",
          "owner": "address owning the tokens list to be accessed"
        },
        "returns": {
          "_0": "uint256 token ID at the given index of the tokens list owned by the requested address"
        }
      },
      "tokenURI(uint256)": {
        "details": "Returns the URI for a given token ID. May return an empty string.     * If a base URI is set (via {_setBaseURI}), it is added as a prefix to the token's own URI (via {_setTokenURI}).     * If there is a base URI but no token URI, the token's ID will be used as its URI when appending it to the base URI. This pattern for autogenerated token URIs can lead to large gas savings.     * .Examples |=== |`_setBaseURI()` |`_setTokenURI()` |`tokenURI()` | \"\" | \"\" | \"\" | \"\" | \"token.uri/123\" | \"token.uri/123\" | \"token.uri/\" | \"123\" | \"token.uri/123\" | \"token.uri/\" | \"\" | \"token.uri/<tokenId>\" |===     * Requirements:     * - `tokenId` must exist."
      },
      "totalSupply()": {
        "details": "Gets the total amount of tokens stored by the contract.",
        "returns": {
          "_0": "uint256 representing the total amount of tokens"
        }
      },
      "transferFrom(address,address,uint256)": {
        "details": "Transfers the ownership of a given token ID to another address. Usage of this method is discouraged, use {safeTransferFrom} whenever possible. Requires the msg.sender to be the owner, approved, or operator.",
        "params": {
          "from": "current owner of the token",
          "to": "address to receive the ownership of the given token ID",
          "tokenId": "uint256 ID of the token to be transferred"
        }
      },
      "transferOwnership(address)": {
        "details": "Transfers ownership of the contract to a new account (`newOwner`). Can only be called by the current owner."
      }
    }
  },
  "userdoc": {
    "methods": {}
  }
}