{
  "contractName": "Artisan",
  "abi": [
    {
      "anonymous": false,
      "inputs": [
        {
          "indexed": true,
          "internalType": "address",
          "name": "owner",
          "type": "address"
        },
        {
          "indexed": true,
          "internalType": "address",
          "name": "approved",
          "type": "address"
        },
        {
          "indexed": true,
          "internalType": "uint256",
          "name": "tokenId",
          "type": "uint256"
        }
      ],
      "name": "Approval",
      "type": "event"
    },
    {
      "anonymous": false,
      "inputs": [
        {
          "indexed": true,
          "internalType": "address",
          "name": "owner",
          "type": "address"
        },
        {
          "indexed": true,
          "internalType": "address",
          "name": "operator",
          "type": "address"
        },
        {
          "indexed": false,
          "internalType": "bool",
          "name": "approved",
          "type": "bool"
        }
      ],
      "name": "ApprovalForAll",
      "type": "event"
    },
    {
      "anonymous": false,
      "inputs": [
        {
          "indexed": false,
          "internalType": "string",
          "name": "_hash",
          "type": "string"
        }
      ],
      "name": "DataStoredInTheLog",
      "type": "event"
    },
    {
      "anonymous": false,
      "inputs": [
        {
          "indexed": true,
          "internalType": "address",
          "name": "previousOwner",
          "type": "address"
        },
        {
          "indexed": true,
          "internalType": "address",
          "name": "newOwner",
          "type": "address"
        }
      ],
      "name": "OwnershipTransferred",
      "type": "event"
    },
    {
      "anonymous": false,
      "inputs": [
        {
          "indexed": false,
          "internalType": "address",
          "name": "userAddress",
          "type": "address"
        },
        {
          "indexed": false,
          "internalType": "string",
          "name": "userName",
          "type": "string"
        },
        {
          "indexed": false,
          "internalType": "uint256[]",
          "name": "portfolio",
          "type": "uint256[]"
        }
      ],
      "name": "ReturnCreateUser",
      "type": "event"
    },
    {
      "anonymous": false,
      "inputs": [
        {
          "indexed": true,
          "internalType": "address",
          "name": "from",
          "type": "address"
        },
        {
          "indexed": true,
          "internalType": "address",
          "name": "to",
          "type": "address"
        },
        {
          "indexed": true,
          "internalType": "uint256",
          "name": "tokenId",
          "type": "uint256"
        }
      ],
      "name": "Transfer",
      "type": "event"
    },
    {
      "anonymous": false,
      "inputs": [
        {
          "indexed": false,
          "internalType": "uint256",
          "name": "AssetID",
          "type": "uint256"
        }
      ],
      "name": "returnAID",
      "type": "event"
    },
    {
      "anonymous": false,
      "inputs": [
        {
          "indexed": false,
          "internalType": "uint256",
          "name": "CertificateID",
          "type": "uint256"
        }
      ],
      "name": "returnCID",
      "type": "event"
    },
    {
      "anonymous": false,
      "inputs": [
        {
          "indexed": false,
          "internalType": "uint256",
          "name": "LicenseID",
          "type": "uint256"
        }
      ],
      "name": "returnLID",
      "type": "event"
    },
    {
      "inputs": [
        {
          "internalType": "uint256",
          "name": "",
          "type": "uint256"
        }
      ],
      "name": "AssetIDS",
      "outputs": [
        {
          "internalType": "uint256",
          "name": "",
          "type": "uint256"
        }
      ],
      "stateMutability": "view",
      "type": "function"
    },
    {
      "inputs": [
        {
          "internalType": "uint256",
          "name": "",
          "type": "uint256"
        }
      ],
      "name": "CertificateIDS",
      "outputs": [
        {
          "internalType": "uint256",
          "name": "",
          "type": "uint256"
        }
      ],
      "stateMutability": "view",
      "type": "function"
    },
    {
      "inputs": [
        {
          "internalType": "uint256",
          "name": "",
          "type": "uint256"
        }
      ],
      "name": "LIDToCID",
      "outputs": [
        {
          "internalType": "uint256",
          "name": "",
          "type": "uint256"
        }
      ],
      "stateMutability": "view",
      "type": "function"
    },
    {
      "inputs": [
        {
          "internalType": "uint256",
          "name": "",
          "type": "uint256"
        }
      ],
      "name": "LicenseIDS",
      "outputs": [
        {
          "internalType": "uint256",
          "name": "",
          "type": "uint256"
        }
      ],
      "stateMutability": "view",
      "type": "function"
    },
    {
      "inputs": [
        {
          "internalType": "address",
          "name": "to",
          "type": "address"
        },
        {
          "internalType": "uint256",
          "name": "tokenId",
          "type": "uint256"
        }
      ],
      "name": "approve",
      "outputs": [],
      "stateMutability": "nonpayable",
      "type": "function"
    },
    {
      "inputs": [
        {
          "internalType": "address",
          "name": "owner",
          "type": "address"
        }
      ],
      "name": "balanceOf",
      "outputs": [
        {
          "internalType": "uint256",
          "name": "",
          "type": "uint256"
        }
      ],
      "stateMutability": "view",
      "type": "function"
    },
    {
      "inputs": [],
      "name": "baseURI",
      "outputs": [
        {
          "internalType": "string",
          "name": "",
          "type": "string"
        }
      ],
      "stateMutability": "view",
      "type": "function"
    },
    {
      "inputs": [
        {
          "internalType": "uint256",
          "name": "tokenId",
          "type": "uint256"
        }
      ],
      "name": "getApproved",
      "outputs": [
        {
          "internalType": "address",
          "name": "",
          "type": "address"
        }
      ],
      "stateMutability": "view",
      "type": "function"
    },
    {
      "inputs": [
        {
          "internalType": "address",
          "name": "owner",
          "type": "address"
        },
        {
          "internalType": "address",
          "name": "operator",
          "type": "address"
        }
      ],
      "name": "isApprovedForAll",
      "outputs": [
        {
          "internalType": "bool",
          "name": "",
          "type": "bool"
        }
      ],
      "stateMutability": "view",
      "type": "function"
    },
    {
      "inputs": [],
      "name": "name",
      "outputs": [
        {
          "internalType": "string",
          "name": "",
          "type": "string"
        }
      ],
      "stateMutability": "view",
      "type": "function"
    },
    {
      "inputs": [],
      "name": "owner",
      "outputs": [
        {
          "internalType": "address",
          "name": "",
          "type": "address"
        }
      ],
      "stateMutability": "view",
      "type": "function"
    },
    {
      "inputs": [
        {
          "internalType": "uint256",
          "name": "tokenId",
          "type": "uint256"
        }
      ],
      "name": "ownerOf",
      "outputs": [
        {
          "internalType": "address",
          "name": "",
          "type": "address"
        }
      ],
      "stateMutability": "view",
      "type": "function"
    },
    {
      "inputs": [],
      "name": "renounceOwnership",
      "outputs": [],
      "stateMutability": "nonpayable",
      "type": "function"
    },
    {
      "inputs": [
        {
          "internalType": "address",
          "name": "from",
          "type": "address"
        },
        {
          "internalType": "address",
          "name": "to",
          "type": "address"
        },
        {
          "internalType": "uint256",
          "name": "tokenId",
          "type": "uint256"
        }
      ],
      "name": "safeTransferFrom",
      "outputs": [],
      "stateMutability": "nonpayable",
      "type": "function"
    },
    {
      "inputs": [
        {
          "internalType": "address",
          "name": "from",
          "type": "address"
        },
        {
          "internalType": "address",
          "name": "to",
          "type": "address"
        },
        {
          "internalType": "uint256",
          "name": "tokenId",
          "type": "uint256"
        },
        {
          "internalType": "bytes",
          "name": "_data",
          "type": "bytes"
        }
      ],
      "name": "safeTransferFrom",
      "outputs": [],
      "stateMutability": "nonpayable",
      "type": "function"
    },
    {
      "inputs": [
        {
          "internalType": "address",
          "name": "operator",
          "type": "address"
        },
        {
          "internalType": "bool",
          "name": "approved",
          "type": "bool"
        }
      ],
      "name": "setApprovalForAll",
      "outputs": [],
      "stateMutability": "nonpayable",
      "type": "function"
    },
    {
      "inputs": [
        {
          "internalType": "string",
          "name": "_hash",
          "type": "string"
        }
      ],
      "name": "storeDataAsLog",
      "outputs": [],
      "stateMutability": "nonpayable",
      "type": "function"
    },
    {
      "inputs": [
        {
          "internalType": "string",
          "name": "_hash",
          "type": "string"
        }
      ],
      "name": "storeDataAsString",
      "outputs": [],
      "stateMutability": "nonpayable",
      "type": "function"
    },
    {
      "inputs": [
        {
          "internalType": "bytes32",
          "name": "multiHash",
          "type": "bytes32"
        },
        {
          "internalType": "bytes4",
          "name": "multiHash_Function",
          "type": "bytes4"
        }
      ],
      "name": "storeDataAsStruct",
      "outputs": [
        {
          "components": [
            {
              "internalType": "bytes32",
              "name": "multiHash",
              "type": "bytes32"
            },
            {
              "internalType": "bytes4",
              "name": "multiHash_Function",
              "type": "bytes4"
            }
          ],
          "internalType": "struct IPFSEngine.IpfsHash",
          "name": "IpfsHashMemory",
          "type": "tuple"
        }
      ],
      "stateMutability": "pure",
      "type": "function"
    },
    {
      "inputs": [
        {
          "internalType": "bytes4",
          "name": "interfaceId",
          "type": "bytes4"
        }
      ],
      "name": "supportsInterface",
      "outputs": [
        {
          "internalType": "bool",
          "name": "",
          "type": "bool"
        }
      ],
      "stateMutability": "view",
      "type": "function"
    },
    {
      "inputs": [],
      "name": "symbol",
      "outputs": [
        {
          "internalType": "string",
          "name": "",
          "type": "string"
        }
      ],
      "stateMutability": "view",
      "type": "function"
    },
    {
      "inputs": [
        {
          "internalType": "uint256",
          "name": "index",
          "type": "uint256"
        }
      ],
      "name": "tokenByIndex",
      "outputs": [
        {
          "internalType": "uint256",
          "name": "",
          "type": "uint256"
        }
      ],
      "stateMutability": "view",
      "type": "function"
    },
    {
      "inputs": [
        {
          "internalType": "address",
          "name": "owner",
          "type": "address"
        },
        {
          "internalType": "uint256",
          "name": "index",
          "type": "uint256"
        }
      ],
      "name": "tokenOfOwnerByIndex",
      "outputs": [
        {
          "internalType": "uint256",
          "name": "",
          "type": "uint256"
        }
      ],
      "stateMutability": "view",
      "type": "function"
    },
    {
      "inputs": [
        {
          "internalType": "uint256",
          "name": "tokenId",
          "type": "uint256"
        }
      ],
      "name": "tokenURI",
      "outputs": [
        {
          "internalType": "string",
          "name": "",
          "type": "string"
        }
      ],
      "stateMutability": "view",
      "type": "function"
    },
    {
      "inputs": [],
      "name": "totalSupply",
      "outputs": [
        {
          "internalType": "uint256",
          "name": "",
          "type": "uint256"
        }
      ],
      "stateMutability": "view",
      "type": "function"
    },
    {
      "inputs": [
        {
          "internalType": "address",
          "name": "from",
          "type": "address"
        },
        {
          "internalType": "address",
          "name": "to",
          "type": "address"
        },
        {
          "internalType": "uint256",
          "name": "tokenId",
          "type": "uint256"
        }
      ],
      "name": "transferFrom",
      "outputs": [],
      "stateMutability": "nonpayable",
      "type": "function"
    },
    {
      "inputs": [
        {
          "internalType": "address",
          "name": "newOwner",
          "type": "address"
        }
      ],
      "name": "transferOwnership",
      "outputs": [],
      "stateMutability": "nonpayable",
      "type": "function"
    },
    {
      "inputs": [
        {
          "internalType": "string",
          "name": "userName",
          "type": "string"
        }
      ],
      "name": "createUser",
      "outputs": [],
      "stateMutability": "nonpayable",
      "type": "function"
    },
    {
      "inputs": [
        {
          "internalType": "string",
          "name": "userName",
          "type": "string"
        }
      ],
      "name": "updateUser",
      "outputs": [],
      "stateMutability": "nonpayable",
      "type": "function"
    },
    {
      "inputs": [],
      "name": "deleteUser",
      "outputs": [],
      "stateMutability": "nonpayable",
      "type": "function"
    }
  ],
  "bytecode": "0x6020600f556d04ee2d6d415b85acef810000000060108190556011556d09dc5ada82b70b59df02000000006012556d0eca8847c4129106ce8300000000601355601d60809081527f4469676974616c204d6564696120436f7079726967687420546f6b656e00000060a052610100604052600460c090815263111350d560e21b60e0526200009d6301ffc9a760e01b6001600160e01b036200018616565b8151620000b2906006906020850190620001e6565b508051620000c8906007906020840190620001e6565b50620000e46380ac58cd60e01b6001600160e01b036200018616565b620000ff635b5e139f60e01b6001600160e01b036200018616565b6200011a63780e9d6360e01b6001600160e01b036200018616565b5060009050620001326001600160e01b03620001e116565b600a80546001600160a01b0319166001600160a01b038316908117909155604051919250906000907f8be0079c531659141344cd1fd0a4f28419497f9722a3daafe3b4186f6b6457e0908290a350620002bf565b6001600160e01b03198082161415620001bc5760405162461bcd60e51b8152600401620001b39062000288565b60405180910390fd5b6001600160e01b0319166000908152602081905260409020805460ff19166001179055565b335b90565b828054600181600116156101000203166002900490600052602060002090601f016020900481019282601f106200022957805160ff191683800117855562000259565b8280016001018555821562000259579182015b82811115620002595782518255916020019190600101906200023c565b50620002679291506200026b565b5090565b620001e391905b8082111562000267576000815560010162000272565b6020808252601c908201527f4552433136353a20696e76616c696420696e7465726661636520696400000000604082015260600190565b61214c80620002cf6000396000f3fe608060405234801561001057600080fd5b50600436106101da5760003560e01c80636352211e11610104578063a52361d0116100a2578063d168614011610071578063d1686140146103cc578063e985e9c5146103df578063f2fde38b146103f2578063fd7d4c0e14610405576101da565b8063a52361d014610373578063b88d4fde14610393578063c87b56dd146103a6578063cfd56b19146103b9576101da565b8063715018a6116100de578063715018a6146103485780638da5cb5b1461035057806395d89b4114610358578063a22cb46514610360576101da565b80636352211e1461031a5780636c0360eb1461032d57806370a0823114610335576101da565b806323b872dd1161017c5780634e325ed31161014b5780634e325ed3146102ce5780634f6ccce7146102e1578063507ffba5146102f45780635d3ea9c914610307576101da565b806323b872dd146102825780632f745c591461029557806333242a19146102a857806342842e0e146102bb576101da565b8063081812fc116101b8578063081812fc14610227578063095ea7b3146102475780630b4f12f61461025a57806318160ddd1461026d576101da565b806301ffc9a7146101df578063026ff05e1461020857806306fdde0314610212575b600080fd5b6101f26101ed36600461191d565b610418565b6040516101ff9190611ba9565b60405180910390f35b61021061043b565b005b61021a6104b1565b6040516101ff9190611bb4565b61023a610235366004611988565b610548565b6040516101ff9190611aa6565b6102106102553660046118cf565b610594565b610210610268366004611955565b61062c565b61027561068b565b6040516101ff9190612081565b6102106102903660046117ec565b61069c565b6102756102a33660046118cf565b6106d4565b6102106102b6366004611955565b610705565b6102106102c93660046117ec565b61073f565b6102756102dc366004611988565b61075a565b6102756102ef366004611988565b610778565b610210610302366004611955565b610794565b610275610315366004611988565b6108a5565b61023a610328366004611988565b6108b7565b61021a6108e5565b61027561034336600461179d565b610946565b61021061098f565b61023a610a0e565b61021a610a1d565b61021061036e366004611894565b610a7e565b6103866103813660046118f9565b610b4c565b6040516101ff9190612060565b6102106103a136600461182c565b610b69565b61021a6103b4366004611988565b610ba8565b6102106103c7366004611955565b610cf2565b6102756103da366004611988565b610d05565b6101f26103ed3660046117b8565b610d12565b61021061040036600461179d565b610d40565b610275610413366004611988565b610df7565b6001600160e01b0319811660009081526020819052604090205460ff165b919050565b336000818152601a6020818152604080842080546001600160a01b031916815581518084019283905285815295909452919052915161048092600190920191906115df565b5060408051602080820183526000808352338152601a909152919091206104ae91600290910190600161165d565b50565b60068054604080516020601f600260001961010060018816150201909516949094049384018190048102820181019092528281526060939092909183018282801561053d5780601f106105125761010080835404028352916020019161053d565b820191906000526020600020905b81548152906001019060200180831161052057829003601f168201915b505050505090505b90565b600061055382610e04565b6105785760405162461bcd60e51b815260040161056f90611e51565b60405180910390fd5b506000908152600460205260409020546001600160a01b031690565b600061059f826108b7565b9050806001600160a01b0316836001600160a01b031614156105d35760405162461bcd60e51b815260040161056f90611f6a565b806001600160a01b03166105e5610e17565b6001600160a01b031614806106015750610601816103ed610e17565b61061d5760405162461bcd60e51b815260040161056f90611d68565b6106278383610e1b565b505050565b336000908152601a60205260409020546001600160a01b03166106615760405162461bcd60e51b815260040161056f90611fab565b336000908152601a602090815260409091208251610687926001909201918401906115df565b5050565b60006106976002610e89565b905090565b6106ad6106a7610e17565b82610e94565b6106c95760405162461bcd60e51b815260040161056f90611fd8565b610627838383610f19565b6001600160a01b03821660009081526001602052604081206106fc908363ffffffff61103916565b90505b92915050565b7fdb08a06eba245dbd34ffbd08b80e14e9acdd66a8ca6f8f1f035348ced6ef7dc7816040516107349190611bb4565b60405180910390a150565b61062783838360405180602001604052806000815250610b69565b600d818154811061076757fe5b600091825260209091200154905081565b60008061078c60028463ffffffff61104516565b509392505050565b336000908152601a60205260409020546001600160a01b0316156107ca5760405162461bcd60e51b815260040161056f90612029565b6040805160608101825233808252602080830185815284516000808252818401875285870191909152928352601a825293909120825181546001600160a01b0319166001600160a01b039091161781559251805192939261083192600185019201906115df565b506040820151805161084d91600284019160209091019061169d565b5050336000908152601a602052604090819020805491517f1762e6485dad7c291ae8191119acded92bd07cda85e738e1e570a5949d5a264b9350610734926001600160a01b0316916001810191600290910190611af7565b60176020526000908152604090205481565b60006106ff826040518060600160405280602981526020016120ee602991396002919063ffffffff61106116565b60098054604080516020601f600260001961010060018816150201909516949094049384018190048102820181019092528281526060939092909183018282801561053d5780601f106105125761010080835404028352916020019161053d565b60006001600160a01b03821661096e5760405162461bcd60e51b815260040161056f90611dc5565b6001600160a01b03821660009081526001602052604090206106ff90610e89565b610997610e17565b600a546001600160a01b039081169116146109c45760405162461bcd60e51b815260040161056f90611e9d565b600a546040516000916001600160a01b0316907f8be0079c531659141344cd1fd0a4f28419497f9722a3daafe3b4186f6b6457e0908390a3600a80546001600160a01b0319169055565b600a546001600160a01b031690565b60078054604080516020601f600260001961010060018816150201909516949094049384018190048102820181019092528281526060939092909183018282801561053d5780601f106105125761010080835404028352916020019161053d565b610a86610e17565b6001600160a01b0316826001600160a01b03161415610ab75760405162461bcd60e51b815260040161056f90611ce5565b8060056000610ac4610e17565b6001600160a01b03908116825260208083019390935260409182016000908120918716808252919093529120805460ff191692151592909217909155610b08610e17565b6001600160a01b03167f17307eab39ab6107e8899845ad3d59bd9653f200f220920489ca2b5937696c3183604051610b409190611ba9565b60405180910390a35050565b610b546116d7565b9182526001600160e01b031916602082015290565b610b7a610b74610e17565b83610e94565b610b965760405162461bcd60e51b815260040161056f90611fd8565b610ba284848484611078565b50505050565b6060610bb382610e04565b610bcf5760405162461bcd60e51b815260040161056f90611f1b565b60008281526008602090815260409182902080548351601f6002600019610100600186161502019093169290920491820184900484028101840190945280845260609392830182828015610c645780601f10610c3957610100808354040283529160200191610c64565b820191906000526020600020905b815481529060010190602001808311610c4757829003601f168201915b505060095493945050505060026000196101006001841615020190911604610c8d579050610436565b805115610cbf57600981604051602001610ca8929190611a25565b604051602081830303815290604052915050610436565b6009610cca846110ab565b604051602001610cdb929190611a25565b604051602081830303815290604052915050919050565b805161068790600b9060208401906115df565b600e818154811061076757fe5b6001600160a01b03918216600090815260056020908152604080832093909416825291909152205460ff1690565b610d48610e17565b600a546001600160a01b03908116911614610d755760405162461bcd60e51b815260040161056f90611e9d565b6001600160a01b038116610d9b5760405162461bcd60e51b815260040161056f90611c5b565b600a546040516001600160a01b038084169216907f8be0079c531659141344cd1fd0a4f28419497f9722a3daafe3b4186f6b6457e090600090a3600a80546001600160a01b0319166001600160a01b0392909216919091179055565b600c818154811061076757fe5b60006106ff60028363ffffffff61116f16565b3390565b600081815260046020526040902080546001600160a01b0319166001600160a01b0384169081179091558190610e50826108b7565b6001600160a01b03167f8c5be1e5ebec7d5bd14f71427d1e84f3dd0314c0f7b2291e5b200ac8c7c3b92560405160405180910390a45050565b60006106ff8261117b565b6000610e9f82610e04565b610ebb5760405162461bcd60e51b815260040161056f90611d1c565b6000610ec6836108b7565b9050806001600160a01b0316846001600160a01b03161480610f015750836001600160a01b0316610ef684610548565b6001600160a01b0316145b80610f115750610f118185610d12565b949350505050565b826001600160a01b0316610f2c826108b7565b6001600160a01b031614610f525760405162461bcd60e51b815260040161056f90611ed2565b6001600160a01b038216610f785760405162461bcd60e51b815260040161056f90611ca1565b610f83838383610627565b610f8e600082610e1b565b6001600160a01b0383166000908152600160205260409020610fb6908263ffffffff61117f16565b506001600160a01b0382166000908152600160205260409020610fdf908263ffffffff61118b16565b50610ff26002828463ffffffff61119716565b5080826001600160a01b0316846001600160a01b03167fddf252ad1be2c89b69c2b068fc378daa952ba7f163c4a11628f55a4df523b3ef60405160405180910390a4505050565b60006106fc83836111ad565b600080808061105486866111f2565b9097909650945050505050565b600061106e84848461124e565b90505b9392505050565b611083848484610f19565b61108f848484846112ad565b610ba25760405162461bcd60e51b815260040161056f90611c09565b6060816110d057506040805180820190915260018152600360fc1b6020820152610436565b8160005b81156110e857600101600a820491506110d4565b6060816040519080825280601f01601f191660200182016040528015611115576020820181803883390190505b50859350905060001982015b831561116657600a840660300160f81b8282806001900393508151811061114457fe5b60200101906001600160f81b031916908160001a905350600a84049350611121565b50949350505050565b60006106fc83836113e7565b5490565b60006106fc83836113ff565b60006106fc83836114c5565b600061106e84846001600160a01b03851661150f565b815460009082106111d05760405162461bcd60e51b815260040161056f90611bc7565b8260000182815481106111df57fe5b9060005260206000200154905092915050565b8154600090819083106112175760405162461bcd60e51b815260040161056f90611e0f565b600084600001848154811061122857fe5b906000526020600020906002020190508060000154816001015492509250509250929050565b6000828152600184016020526040812054828161127e5760405162461bcd60e51b815260040161056f9190611bb4565b5084600001600182038154811061129157fe5b9060005260206000209060020201600101549150509392505050565b60006112c1846001600160a01b03166115a6565b6112cd57506001610f11565b600060606001600160a01b038616630a85bd0160e11b6112eb610e17565b8988886040516024016113019493929190611aba565b60408051601f198184030181529181526020820180516001600160e01b03166001600160e01b031990941693909317909252905161133f9190611a09565b6000604051808303816000865af19150503d806000811461137c576040519150601f19603f3d011682016040523d82523d6000602084013e611381565b606091505b5091509150816113b35780511561139b5780518082602001fd5b60405162461bcd60e51b815260040161056f90611c09565b6000818060200190516113c99190810190611939565b6001600160e01b031916630a85bd0160e11b149350610f1192505050565b60009081526001919091016020526040902054151590565b600081815260018301602052604081205480156114bb578354600019808301919081019060009087908390811061143257fe5b906000526020600020015490508087600001848154811061144f57fe5b60009182526020808320909101929092558281526001898101909252604090209084019055865487908061147f57fe5b600190038181906000526020600020016000905590558660010160008781526020019081526020016000206000905560019450505050506106ff565b60009150506106ff565b60006114d183836113e7565b611507575081546001818101845560008481526020808220909301849055845484825282860190935260409020919091556106ff565b5060006106ff565b600082815260018401602052604081205480611574575050604080518082018252838152602080820184815286546001818101895560008981528481209551600290930290950191825591519082015586548684528188019092529290912055611071565b8285600001600183038154811061158757fe5b9060005260206000209060020201600101819055506000915050611071565b6000813f7fc5d2460186f7233c927e7db2dcc703c0e500b653ca82273b7bfad8045d85a470818114801590610f11575050151592915050565b828054600181600116156101000203166002900490600052602060002090601f016020900481019282601f1061162057805160ff191683800117855561164d565b8280016001018555821561164d579182015b8281111561164d578251825591602001919060010190611632565b506116599291506116ee565b5090565b82805482825590600052602060002090810192821561164d579160200282015b8281111561164d578251829060ff1690559160200191906001019061167d565b82805482825590600052602060002090810192821561164d579160200282018281111561164d578251825591602001919060010190611632565b604080518082019091526000808252602082015290565b61054591905b8082111561165957600081556001016116f4565b80356001600160a01b03811681146106ff57600080fd5b600082601f83011261172f578081fd5b813567ffffffffffffffff80821115611746578283fd5b604051601f8301601f191681016020018281118282101715611766578485fd5b60405282815292508284830160200186101561178157600080fd5b8260208601602083013760006020848301015250505092915050565b6000602082840312156117ae578081fd5b6106fc8383611708565b600080604083850312156117ca578081fd5b6117d48484611708565b91506117e38460208501611708565b90509250929050565b600080600060608486031215611800578081fd5b833561180b816120c2565b9250602084013561181b816120c2565b929592945050506040919091013590565b60008060008060808587031215611841578081fd5b61184b8686611708565b935061185a8660208701611708565b925060408501359150606085013567ffffffffffffffff81111561187c578182fd5b6118888782880161171f565b91505092959194509250565b600080604083850312156118a6578182fd5b6118b08484611708565b9150602083013580151581146118c4578182fd5b809150509250929050565b600080604083850312156118e1578182fd5b6118eb8484611708565b946020939093013593505050565b6000806040838503121561190b578182fd5b8235915060208301356118c4816120d7565b60006020828403121561192e578081fd5b8135611071816120d7565b60006020828403121561194a578081fd5b8151611071816120d7565b600060208284031215611966578081fd5b813567ffffffffffffffff81111561197c578182fd5b610f118482850161171f565b600060208284031215611999578081fd5b5035919050565b6000815480845260208085019450838352808320835b838110156119d2578154875295820195600191820191016119b6565b509495945050505050565b600081518084526119f5816020860160208601612096565b601f01601f19169290920160200192915050565b60008251611a1b818460208701612096565b9190910192915050565b6000808454600180821660008114611a445760018114611a5b57611a8a565b60ff198316865260028304607f1686019350611a8a565b600283048886526020808720875b83811015611a825781548a820152908501908201611a69565b505050860193505b5050508351611a9d818360208801612096565b01949350505050565b6001600160a01b0391909116815260200190565b6001600160a01b0385811682528416602082015260408101839052608060608201819052600090611aed908301846119dd565b9695505050505050565b60006060820160018060a01b03861683526020606081850152828654600180821660008114611b2d5760018114611b4d57611b88565b611b3d607f600285041687612081565b60ff198416815285019350611b88565b60028304611b5b8188612081565b611b648c61208a565b895b83811015611b7f57815483820152908501908801611b66565b91909101955050505b5050508481036040860152611b9d81876119a0565b98975050505050505050565b901515815260200190565b6000602082526106fc60208301846119dd565b60208082526022908201527f456e756d657261626c655365743a20696e646578206f7574206f6620626f756e604082015261647360f01b606082015260800190565b60208082526032908201527f4552433732313a207472616e7366657220746f206e6f6e20455243373231526560408201527131b2b4bb32b91034b6b83632b6b2b73a32b960711b606082015260800190565b60208082526026908201527f4f776e61626c653a206e6577206f776e657220697320746865207a65726f206160408201526564647265737360d01b606082015260800190565b60208082526024908201527f4552433732313a207472616e7366657220746f20746865207a65726f206164646040820152637265737360e01b606082015260800190565b60208082526019908201527f4552433732313a20617070726f766520746f2063616c6c657200000000000000604082015260600190565b6020808252602c908201527f4552433732313a206f70657261746f7220717565727920666f72206e6f6e657860408201526b34b9ba32b73a103a37b5b2b760a11b606082015260800190565b60208082526038908201527f4552433732313a20617070726f76652063616c6c6572206973206e6f74206f7760408201527f6e6572206e6f7220617070726f76656420666f7220616c6c0000000000000000606082015260800190565b6020808252602a908201527f4552433732313a2062616c616e636520717565727920666f7220746865207a65604082015269726f206164647265737360b01b606082015260800190565b60208082526022908201527f456e756d657261626c654d61703a20696e646578206f7574206f6620626f756e604082015261647360f01b606082015260800190565b6020808252602c908201527f4552433732313a20617070726f76656420717565727920666f72206e6f6e657860408201526b34b9ba32b73a103a37b5b2b760a11b606082015260800190565b6020808252818101527f4f776e61626c653a2063616c6c6572206973206e6f7420746865206f776e6572604082015260600190565b60208082526029908201527f4552433732313a207472616e73666572206f6620746f6b656e2074686174206960408201526839903737ba1037bbb760b91b606082015260800190565b6020808252602f908201527f4552433732314d657461646174613a2055524920717565727920666f72206e6f60408201526e3732bc34b9ba32b73a103a37b5b2b760891b606082015260800190565b60208082526021908201527f4552433732313a20617070726f76616c20746f2063757272656e74206f776e656040820152603960f91b606082015260800190565b602080825260139082015272155cd95c88191bd95cc81b9bdd08195e1a5cdd606a1b604082015260600190565b60208082526031908201527f4552433732313a207472616e736665722063616c6c6572206973206e6f74206f6040820152701ddb995c881b9bdc88185c1c1c9bdd9959607a1b606082015260800190565b60208082526018908201527f54686973205573657220616c7265616479206578697374730000000000000000604082015260600190565b815181526020918201516001600160e01b0319169181019190915260400190565b90815260200190565b60009081526020902090565b60005b838110156120b1578181015183820152602001612099565b83811115610ba25750506000910152565b6001600160a01b03811681146104ae57600080fd5b6001600160e01b0319811681146104ae57600080fdfe4552433732313a206f776e657220717565727920666f72206e6f6e6578697374656e7420746f6b656ea2646970667358221220f73ca8b0559fa155a9778c70229817f3b715a3e2854e41e7d5465eae733df6bd64736f6c63430006020033",
  "source": "pragma solidity ^0.6.0;\npragma experimental ABIEncoderV2;\n\nimport \"./Models.sol\";\n\ncontract Artisan is Models {\n    event ReturnCreateUser(\n        address userAddress,\n        string userName,\n        uint256[] portfolio\n    );\n\n    function createUser(string memory userName) public {\n        require(\n            addressToUser[msg.sender].userAddress ==\n                0x0000000000000000000000000000000000000000,\n            \"This User already exists\"\n        );\n        addressToUser[msg.sender] = User(\n            msg.sender,\n            userName,\n            new uint256[](0)\n        );\n        emit ReturnCreateUser(\n            addressToUser[msg.sender].userAddress,\n            addressToUser[msg.sender].userName,\n            addressToUser[msg.sender].portfolio\n        );\n    }\n\n    function updateUser(string memory userName) public {\n        require(\n            addressToUser[msg.sender].userAddress !=\n                0x0000000000000000000000000000000000000000,\n            \"User does not exist\"\n        );\n        addressToUser[msg.sender].userName = userName;\n    }\n\n    function deleteUser() public {\n        addressToUser[msg.sender]\n            .userAddress = 0x0000000000000000000000000000000000000000;\n        addressToUser[msg.sender].userName = \"\";\n        addressToUser[msg.sender].portfolio = [0];\n    }\n}\n",
  "sourcePath": "C:\\MyData\\Projects\\Portfolio\\contracts\\Artisan.sol",
  "compiler": {
    "name": "solc",
    "version": "0.6.2+commit.bacdbe57.Emscripten.clang"
  },
  "schemaVersion": "3.2.0",
  "updatedAt": "2020-06-29T21:00:32.023Z",
  "devdoc": {
    "methods": {
      "approve(address,uint256)": {
        "details": "Approves another address to transfer the given token ID The zero address indicates there is no approved address. There can only be one approved address per token at a given time. Can only be called by the token owner or an approved operator.",
        "params": {
          "to": "address to be approved for the given token ID",
          "tokenId": "uint256 ID of the token to be approved"
        }
      },
      "balanceOf(address)": {
        "details": "Gets the balance of the specified address.",
        "params": {
          "owner": "address to query the balance of"
        },
        "returns": {
          "_0": "uint256 representing the amount owned by the passed address"
        }
      },
      "baseURI()": {
        "details": "Returns the base URI set via {_setBaseURI}. This will be automatically added as a prefix in {tokenURI} to each token's URI, or to the token ID if no specific URI is set for that token ID."
      },
      "getApproved(uint256)": {
        "details": "Gets the approved address for a token ID, or zero if no address set Reverts if the token ID does not exist.",
        "params": {
          "tokenId": "uint256 ID of the token to query the approval of"
        },
        "returns": {
          "_0": "address currently approved for the given token ID"
        }
      },
      "isApprovedForAll(address,address)": {
        "details": "Tells whether an operator is approved by a given owner.",
        "params": {
          "operator": "operator address which you want to query the approval of",
          "owner": "owner address which you want to query the approval of"
        },
        "returns": {
          "_0": "bool whether the given operator is approved by the given owner"
        }
      },
      "name()": {
        "details": "Gets the token name.",
        "returns": {
          "_0": "string representing the token name"
        }
      },
      "owner()": {
        "details": "Returns the address of the current owner."
      },
      "ownerOf(uint256)": {
        "details": "Gets the owner of the specified token ID.",
        "params": {
          "tokenId": "uint256 ID of the token to query the owner of"
        },
        "returns": {
          "_0": "address currently marked as the owner of the given token ID"
        }
      },
      "renounceOwnership()": {
        "details": "Leaves the contract without owner. It will not be possible to call `onlyOwner` functions anymore. Can only be called by the current owner.     * NOTE: Renouncing ownership will leave the contract without an owner, thereby removing any functionality that is only available to the owner."
      },
      "safeTransferFrom(address,address,uint256)": {
        "details": "Safely transfers the ownership of a given token ID to another address If the target address is a contract, it must implement {IERC721Receiver-onERC721Received}, which is called upon a safe transfer, and return the magic value `bytes4(keccak256(\"onERC721Received(address,address,uint256,bytes)\"))`; otherwise, the transfer is reverted. Requires the msg.sender to be the owner, approved, or operator",
        "params": {
          "from": "current owner of the token",
          "to": "address to receive the ownership of the given token ID",
          "tokenId": "uint256 ID of the token to be transferred"
        }
      },
      "safeTransferFrom(address,address,uint256,bytes)": {
        "details": "Safely transfers the ownership of a given token ID to another address If the target address is a contract, it must implement {IERC721Receiver-onERC721Received}, which is called upon a safe transfer, and return the magic value `bytes4(keccak256(\"onERC721Received(address,address,uint256,bytes)\"))`; otherwise, the transfer is reverted. Requires the _msgSender() to be the owner, approved, or operator",
        "params": {
          "_data": "bytes data to send along with a safe transfer check",
          "from": "current owner of the token",
          "to": "address to receive the ownership of the given token ID",
          "tokenId": "uint256 ID of the token to be transferred"
        }
      },
      "setApprovalForAll(address,bool)": {
        "details": "Sets or unsets the approval of a given operator An operator is allowed to transfer all tokens of the sender on their behalf.",
        "params": {
          "approved": "representing the status of the approval to be set",
          "operator": "operator address to set the approval"
        }
      },
      "supportsInterface(bytes4)": {
        "details": "See {IERC165-supportsInterface}.     * Time complexity O(1), guaranteed to always use less than 30 000 gas."
      },
      "symbol()": {
        "details": "Gets the token symbol.",
        "returns": {
          "_0": "string representing the token symbol"
        }
      },
      "tokenByIndex(uint256)": {
        "details": "Gets the token ID at a given index of all the tokens in this contract Reverts if the index is greater or equal to the total number of tokens.",
        "params": {
          "index": "uint256 representing the index to be accessed of the tokens list"
        },
        "returns": {
          "_0": "uint256 token ID at the given index of the tokens list"
        }
      },
      "tokenOfOwnerByIndex(address,uint256)": {
        "details": "Gets the token ID at a given index of the tokens list of the requested owner.",
        "params": {
          "index": "uint256 representing the index to be accessed of the requested tokens list",
          "owner": "address owning the tokens list to be accessed"
        },
        "returns": {
          "_0": "uint256 token ID at the given index of the tokens list owned by the requested address"
        }
      },
      "tokenURI(uint256)": {
        "details": "Returns the URI for a given token ID. May return an empty string.     * If a base URI is set (via {_setBaseURI}), it is added as a prefix to the token's own URI (via {_setTokenURI}).     * If there is a base URI but no token URI, the token's ID will be used as its URI when appending it to the base URI. This pattern for autogenerated token URIs can lead to large gas savings.     * .Examples |=== |`_setBaseURI()` |`_setTokenURI()` |`tokenURI()` | \"\" | \"\" | \"\" | \"\" | \"token.uri/123\" | \"token.uri/123\" | \"token.uri/\" | \"123\" | \"token.uri/123\" | \"token.uri/\" | \"\" | \"token.uri/<tokenId>\" |===     * Requirements:     * - `tokenId` must exist."
      },
      "totalSupply()": {
        "details": "Gets the total amount of tokens stored by the contract.",
        "returns": {
          "_0": "uint256 representing the total amount of tokens"
        }
      },
      "transferFrom(address,address,uint256)": {
        "details": "Transfers the ownership of a given token ID to another address. Usage of this method is discouraged, use {safeTransferFrom} whenever possible. Requires the msg.sender to be the owner, approved, or operator.",
        "params": {
          "from": "current owner of the token",
          "to": "address to receive the ownership of the given token ID",
          "tokenId": "uint256 ID of the token to be transferred"
        }
      },
      "transferOwnership(address)": {
        "details": "Transfers ownership of the contract to a new account (`newOwner`). Can only be called by the current owner."
      }
    }
  },
  "userdoc": {
    "methods": {}
  }
}