{
  "contractName": "DMCT_Services",
  "abi": [
    {
      "constant": true,
      "inputs": [
        {
          "name": "interfaceId",
          "type": "bytes4"
        }
      ],
      "name": "supportsInterface",
      "outputs": [
        {
          "name": "",
          "type": "bool"
        }
      ],
      "payable": false,
      "stateMutability": "view",
      "type": "function",
      "signature": "0x01ffc9a7"
    },
    {
      "constant": false,
      "inputs": [],
      "name": "deleteUser",
      "outputs": [],
      "payable": false,
      "stateMutability": "nonpayable",
      "type": "function",
      "signature": "0x026ff05e"
    },
    {
      "constant": true,
      "inputs": [
        {
          "name": "tokenId",
          "type": "uint256"
        }
      ],
      "name": "getApproved",
      "outputs": [
        {
          "name": "",
          "type": "address"
        }
      ],
      "payable": false,
      "stateMutability": "view",
      "type": "function",
      "signature": "0x081812fc"
    },
    {
      "constant": false,
      "inputs": [
        {
          "name": "to",
          "type": "address"
        },
        {
          "name": "tokenId",
          "type": "uint256"
        }
      ],
      "name": "approve",
      "outputs": [],
      "payable": false,
      "stateMutability": "nonpayable",
      "type": "function",
      "signature": "0x095ea7b3"
    },
    {
      "constant": false,
      "inputs": [
        {
          "name": "userName",
          "type": "string"
        }
      ],
      "name": "updateUser",
      "outputs": [],
      "payable": false,
      "stateMutability": "nonpayable",
      "type": "function",
      "signature": "0x0b4f12f6"
    },
    {
      "constant": false,
      "inputs": [
        {
          "name": "from",
          "type": "address"
        },
        {
          "name": "to",
          "type": "address"
        },
        {
          "name": "tokenId",
          "type": "uint256"
        }
      ],
      "name": "transferFrom",
      "outputs": [],
      "payable": false,
      "stateMutability": "nonpayable",
      "type": "function",
      "signature": "0x23b872dd"
    },
    {
      "constant": false,
      "inputs": [
        {
          "name": "to",
          "type": "address"
        },
        {
          "name": "certificateID",
          "type": "uint256"
        }
      ],
      "name": "transferCertificte",
      "outputs": [],
      "payable": false,
      "stateMutability": "nonpayable",
      "type": "function",
      "signature": "0x2e8d9740"
    },
    {
      "constant": false,
      "inputs": [
        {
          "name": "from",
          "type": "address"
        },
        {
          "name": "to",
          "type": "address"
        },
        {
          "name": "tokenId",
          "type": "uint256"
        }
      ],
      "name": "safeTransferFrom",
      "outputs": [],
      "payable": false,
      "stateMutability": "nonpayable",
      "type": "function",
      "signature": "0x42842e0e"
    },
    {
      "constant": true,
      "inputs": [
        {
          "name": "",
          "type": "uint256"
        }
      ],
      "name": "LicenseIDS",
      "outputs": [
        {
          "name": "",
          "type": "uint256"
        }
      ],
      "payable": false,
      "stateMutability": "view",
      "type": "function",
      "signature": "0x4e325ed3"
    },
    {
      "constant": false,
      "inputs": [
        {
          "name": "userName",
          "type": "string"
        }
      ],
      "name": "createUser",
      "outputs": [],
      "payable": false,
      "stateMutability": "nonpayable",
      "type": "function",
      "signature": "0x507ffba5"
    },
    {
      "constant": false,
      "inputs": [
        {
          "name": "certificateID",
          "type": "uint256"
        },
        {
          "name": "licenseOwner",
          "type": "address"
        }
      ],
      "name": "createLicense",
      "outputs": [
        {
          "name": "licenseID",
          "type": "uint256"
        }
      ],
      "payable": false,
      "stateMutability": "nonpayable",
      "type": "function",
      "signature": "0x58be6f8e"
    },
    {
      "constant": true,
      "inputs": [
        {
          "name": "",
          "type": "uint256"
        }
      ],
      "name": "LIDToCID",
      "outputs": [
        {
          "name": "",
          "type": "uint256"
        }
      ],
      "payable": false,
      "stateMutability": "view",
      "type": "function",
      "signature": "0x5d3ea9c9"
    },
    {
      "constant": true,
      "inputs": [
        {
          "name": "tokenId",
          "type": "uint256"
        }
      ],
      "name": "ownerOf",
      "outputs": [
        {
          "name": "",
          "type": "address"
        }
      ],
      "payable": false,
      "stateMutability": "view",
      "type": "function",
      "signature": "0x6352211e"
    },
    {
      "constant": true,
      "inputs": [
        {
          "name": "owner",
          "type": "address"
        }
      ],
      "name": "balanceOf",
      "outputs": [
        {
          "name": "",
          "type": "uint256"
        }
      ],
      "payable": false,
      "stateMutability": "view",
      "type": "function",
      "signature": "0x70a08231"
    },
    {
      "constant": false,
      "inputs": [],
      "name": "renounceOwnership",
      "outputs": [],
      "payable": false,
      "stateMutability": "nonpayable",
      "type": "function",
      "signature": "0x715018a6"
    },
    {
      "constant": false,
      "inputs": [
        {
          "name": "tokenID",
          "type": "uint256"
        }
      ],
      "name": "destroyToken",
      "outputs": [],
      "payable": false,
      "stateMutability": "nonpayable",
      "type": "function",
      "signature": "0x8a7d124b"
    },
    {
      "constant": true,
      "inputs": [],
      "name": "owner",
      "outputs": [
        {
          "name": "",
          "type": "address"
        }
      ],
      "payable": false,
      "stateMutability": "view",
      "type": "function",
      "signature": "0x8da5cb5b"
    },
    {
      "constant": true,
      "inputs": [],
      "name": "isOwner",
      "outputs": [
        {
          "name": "",
          "type": "bool"
        }
      ],
      "payable": false,
      "stateMutability": "view",
      "type": "function",
      "signature": "0x8f32d59b"
    },
    {
      "constant": false,
      "inputs": [
        {
          "name": "to",
          "type": "address"
        },
        {
          "name": "approved",
          "type": "bool"
        }
      ],
      "name": "setApprovalForAll",
      "outputs": [],
      "payable": false,
      "stateMutability": "nonpayable",
      "type": "function",
      "signature": "0xa22cb465"
    },
    {
      "constant": false,
      "inputs": [
        {
          "name": "title",
          "type": "string"
        },
        {
          "name": "data",
          "type": "string"
        },
        {
          "name": "url",
          "type": "string"
        }
      ],
      "name": "createCertificate",
      "outputs": [
        {
          "name": "certificateID",
          "type": "uint256"
        },
        {
          "name": "assetID",
          "type": "uint256"
        }
      ],
      "payable": false,
      "stateMutability": "nonpayable",
      "type": "function",
      "signature": "0xac778b8f"
    },
    {
      "constant": false,
      "inputs": [
        {
          "name": "from",
          "type": "address"
        },
        {
          "name": "to",
          "type": "address"
        },
        {
          "name": "tokenId",
          "type": "uint256"
        },
        {
          "name": "_data",
          "type": "bytes"
        }
      ],
      "name": "safeTransferFrom",
      "outputs": [],
      "payable": false,
      "stateMutability": "nonpayable",
      "type": "function",
      "signature": "0xb88d4fde"
    },
    {
      "constant": true,
      "inputs": [
        {
          "name": "",
          "type": "uint256"
        }
      ],
      "name": "AssetIDS",
      "outputs": [
        {
          "name": "",
          "type": "uint256"
        }
      ],
      "payable": false,
      "stateMutability": "view",
      "type": "function",
      "signature": "0xd1686140"
    },
    {
      "constant": true,
      "inputs": [
        {
          "name": "owner",
          "type": "address"
        },
        {
          "name": "operator",
          "type": "address"
        }
      ],
      "name": "isApprovedForAll",
      "outputs": [
        {
          "name": "",
          "type": "bool"
        }
      ],
      "payable": false,
      "stateMutability": "view",
      "type": "function",
      "signature": "0xe985e9c5"
    },
    {
      "constant": false,
      "inputs": [
        {
          "name": "newOwner",
          "type": "address"
        }
      ],
      "name": "transferOwnership",
      "outputs": [],
      "payable": false,
      "stateMutability": "nonpayable",
      "type": "function",
      "signature": "0xf2fde38b"
    },
    {
      "constant": true,
      "inputs": [
        {
          "name": "",
          "type": "uint256"
        }
      ],
      "name": "CertificateIDS",
      "outputs": [
        {
          "name": "",
          "type": "uint256"
        }
      ],
      "payable": false,
      "stateMutability": "view",
      "type": "function",
      "signature": "0xfd7d4c0e"
    },
    {
      "payable": true,
      "stateMutability": "payable",
      "type": "fallback"
    },
    {
      "anonymous": false,
      "inputs": [
        {
          "indexed": false,
          "name": "index",
          "type": "uint256"
        },
        {
          "indexed": false,
          "name": "CID",
          "type": "uint256"
        },
        {
          "indexed": false,
          "name": "msgsender",
          "type": "address"
        },
        {
          "indexed": false,
          "name": "onwershipHistory",
          "type": "address[]"
        },
        {
          "indexed": false,
          "name": "licenses",
          "type": "uint256[]"
        }
      ],
      "name": "ReturnCreateCertificate",
      "type": "event",
      "signature": "0x96172826f9ea866fc62df98936ebb5601ef36641adf5c4a7dd7b9953412b1a95"
    },
    {
      "anonymous": false,
      "inputs": [
        {
          "indexed": false,
          "name": "Licenses",
          "type": "uint256[]"
        }
      ],
      "name": "ReturnCertificateLicenses",
      "type": "event",
      "signature": "0xd49a4d28bb10172ee9a78709bdbfc91750333ca9c9012b22136a0471efb975f7"
    },
    {
      "anonymous": false,
      "inputs": [
        {
          "indexed": false,
          "name": "tokenStatus",
          "type": "bool"
        }
      ],
      "name": "ReturnDestroyToken",
      "type": "event",
      "signature": "0x486ba50ba1b2ac0157dc7c2b5bb2953cc5b90e298b682f197a4019d303de8366"
    },
    {
      "anonymous": false,
      "inputs": [
        {
          "indexed": false,
          "name": "creator",
          "type": "address"
        },
        {
          "indexed": false,
          "name": "owner",
          "type": "address"
        },
        {
          "indexed": false,
          "name": "ownershipHistory",
          "type": "address[]"
        },
        {
          "indexed": false,
          "name": "licenses",
          "type": "uint256[]"
        }
      ],
      "name": "ReturnTransferCertificate",
      "type": "event",
      "signature": "0x118156733240272377b9f5489d38ded92256543bb9d43c8295ec716f0ece5039"
    },
    {
      "anonymous": false,
      "inputs": [
        {
          "indexed": false,
          "name": "Number",
          "type": "uint256"
        },
        {
          "indexed": false,
          "name": "String",
          "type": "string"
        },
        {
          "indexed": false,
          "name": "Address",
          "type": "address"
        }
      ],
      "name": "ReturnTestData",
      "type": "event",
      "signature": "0x22b9c755030da0a8df2943f4e8a7957fe52af38f8a3ca8f4e2deac88d3620152"
    },
    {
      "anonymous": false,
      "inputs": [
        {
          "indexed": false,
          "name": "Boolean",
          "type": "bool"
        }
      ],
      "name": "ReturnTestBoolData",
      "type": "event",
      "signature": "0x97b7c9cb7bb176c0fb96877e03418b52ea0d7ba99071201ca2f3140b97451ccd"
    },
    {
      "anonymous": false,
      "inputs": [
        {
          "indexed": false,
          "name": "Number",
          "type": "uint256[]"
        }
      ],
      "name": "ReturnTestArrayData",
      "type": "event",
      "signature": "0xb980824ca9615efc2a4931640c07380d9e1ddabe014fee98672600f1e84db69e"
    },
    {
      "anonymous": false,
      "inputs": [
        {
          "indexed": false,
          "name": "userAddress",
          "type": "address"
        },
        {
          "indexed": false,
          "name": "userName",
          "type": "string"
        },
        {
          "indexed": false,
          "name": "portfolio",
          "type": "uint256[]"
        }
      ],
      "name": "ReturnCreateUser",
      "type": "event",
      "signature": "0x1762e6485dad7c291ae8191119acded92bd07cda85e738e1e570a5949d5a264b"
    },
    {
      "anonymous": false,
      "inputs": [
        {
          "indexed": false,
          "name": "AssetID",
          "type": "uint256"
        }
      ],
      "name": "returnAID",
      "type": "event",
      "signature": "0x4893c8577e724f997ce2a66eaa3376f5921e8c449711fa299dadf3dc2b688a98"
    },
    {
      "anonymous": false,
      "inputs": [
        {
          "indexed": false,
          "name": "CertificateID",
          "type": "uint256"
        }
      ],
      "name": "returnCID",
      "type": "event",
      "signature": "0x7bb34176ea5c54ad2400ab070d5ea84ffa3016a701e16082f71d4ff48d004f34"
    },
    {
      "anonymous": false,
      "inputs": [
        {
          "indexed": false,
          "name": "LicenseID",
          "type": "uint256"
        }
      ],
      "name": "returnLID",
      "type": "event",
      "signature": "0xa323dbc7f3cc04e17c7c12b5263e160308382919b308390323d16caf0c3d5304"
    },
    {
      "anonymous": false,
      "inputs": [
        {
          "indexed": true,
          "name": "previousOwner",
          "type": "address"
        },
        {
          "indexed": true,
          "name": "newOwner",
          "type": "address"
        }
      ],
      "name": "OwnershipTransferred",
      "type": "event",
      "signature": "0x8be0079c531659141344cd1fd0a4f28419497f9722a3daafe3b4186f6b6457e0"
    },
    {
      "anonymous": false,
      "inputs": [
        {
          "indexed": true,
          "name": "from",
          "type": "address"
        },
        {
          "indexed": true,
          "name": "to",
          "type": "address"
        },
        {
          "indexed": true,
          "name": "tokenId",
          "type": "uint256"
        }
      ],
      "name": "Transfer",
      "type": "event",
      "signature": "0xddf252ad1be2c89b69c2b068fc378daa952ba7f163c4a11628f55a4df523b3ef"
    },
    {
      "anonymous": false,
      "inputs": [
        {
          "indexed": true,
          "name": "owner",
          "type": "address"
        },
        {
          "indexed": true,
          "name": "approved",
          "type": "address"
        },
        {
          "indexed": true,
          "name": "tokenId",
          "type": "uint256"
        }
      ],
      "name": "Approval",
      "type": "event",
      "signature": "0x8c5be1e5ebec7d5bd14f71427d1e84f3dd0314c0f7b2291e5b200ac8c7c3b925"
    },
    {
      "anonymous": false,
      "inputs": [
        {
          "indexed": true,
          "name": "owner",
          "type": "address"
        },
        {
          "indexed": true,
          "name": "operator",
          "type": "address"
        },
        {
          "indexed": false,
          "name": "approved",
          "type": "bool"
        }
      ],
      "name": "ApprovalForAll",
      "type": "event",
      "signature": "0x17307eab39ab6107e8899845ad3d59bd9653f200f220920489ca2b5937696c31"
    },
    {
      "constant": true,
      "inputs": [],
      "name": "returnAssetIDS",
      "outputs": [
        {
          "name": "assetIDS",
          "type": "uint256[]"
        }
      ],
      "payable": false,
      "stateMutability": "view",
      "type": "function",
      "signature": "0xfef9fe5c"
    },
    {
      "constant": true,
      "inputs": [
        {
          "name": "userAddress",
          "type": "address"
        }
      ],
      "name": "returnUserByAddress",
      "outputs": [
        {
          "name": "userName",
          "type": "string"
        },
        {
          "name": "portfolio",
          "type": "uint256[]"
        }
      ],
      "payable": false,
      "stateMutability": "view",
      "type": "function",
      "signature": "0x642db464"
    },
    {
      "constant": true,
      "inputs": [
        {
          "name": "owner",
          "type": "address"
        }
      ],
      "name": "checkBalance",
      "outputs": [
        {
          "name": "balance",
          "type": "uint256"
        }
      ],
      "payable": false,
      "stateMutability": "view",
      "type": "function",
      "signature": "0x5f515226"
    },
    {
      "constant": true,
      "inputs": [
        {
          "name": "tokenID",
          "type": "uint256"
        }
      ],
      "name": "checkOwnerOfToken",
      "outputs": [
        {
          "name": "owner",
          "type": "address"
        }
      ],
      "payable": false,
      "stateMutability": "view",
      "type": "function",
      "signature": "0x30501180"
    },
    {
      "constant": true,
      "inputs": [
        {
          "name": "tokenID",
          "type": "uint256"
        }
      ],
      "name": "checkTokenStatus",
      "outputs": [
        {
          "name": "status",
          "type": "bool"
        }
      ],
      "payable": false,
      "stateMutability": "view",
      "type": "function",
      "signature": "0x987c389b"
    },
    {
      "constant": true,
      "inputs": [
        {
          "name": "owner",
          "type": "address"
        },
        {
          "name": "tokenID",
          "type": "uint256"
        }
      ],
      "name": "checkOwnerStatus",
      "outputs": [
        {
          "name": "status",
          "type": "bool"
        }
      ],
      "payable": false,
      "stateMutability": "view",
      "type": "function",
      "signature": "0x947c1bb4"
    },
    {
      "constant": true,
      "inputs": [
        {
          "name": "licenseID",
          "type": "uint256"
        }
      ],
      "name": "checkLicenseStatus",
      "outputs": [
        {
          "name": "tokenStatus",
          "type": "bool"
        },
        {
          "name": "licenseStatus",
          "type": "bool"
        }
      ],
      "payable": false,
      "stateMutability": "view",
      "type": "function",
      "signature": "0x6151d0fb"
    },
    {
      "constant": true,
      "inputs": [
        {
          "name": "certificateID",
          "type": "uint256"
        }
      ],
      "name": "returnCertificateURL",
      "outputs": [
        {
          "name": "URL",
          "type": "string"
        },
        {
          "name": "assetID",
          "type": "uint256"
        }
      ],
      "payable": false,
      "stateMutability": "view",
      "type": "function",
      "signature": "0xa11e2375"
    },
    {
      "constant": true,
      "inputs": [
        {
          "name": "certificateID",
          "type": "uint256"
        }
      ],
      "name": "returnCertificate",
      "outputs": [
        {
          "name": "index",
          "type": "uint256"
        },
        {
          "name": "assetID",
          "type": "uint256"
        },
        {
          "name": "licenses",
          "type": "uint256[]"
        },
        {
          "name": "url",
          "type": "string"
        },
        {
          "name": "title",
          "type": "string"
        },
        {
          "name": "creator",
          "type": "address"
        },
        {
          "name": "owner",
          "type": "address"
        },
        {
          "name": "ownershipHistory",
          "type": "address[]"
        },
        {
          "name": "status",
          "type": "bool"
        }
      ],
      "payable": false,
      "stateMutability": "view",
      "type": "function",
      "signature": "0x1668d769"
    },
    {
      "constant": true,
      "inputs": [
        {
          "name": "licenseID",
          "type": "uint256"
        }
      ],
      "name": "returnLicense",
      "outputs": [
        {
          "name": "index",
          "type": "uint256"
        },
        {
          "name": "licenseOwner",
          "type": "address"
        },
        {
          "name": "url",
          "type": "string"
        },
        {
          "name": "status",
          "type": "bool"
        }
      ],
      "payable": false,
      "stateMutability": "view",
      "type": "function",
      "signature": "0x37c14a79"
    },
    {
      "constant": true,
      "inputs": [
        {
          "name": "certificateID",
          "type": "uint256"
        }
      ],
      "name": "returnLicenseOwnerArray",
      "outputs": [
        {
          "name": "ownersArray",
          "type": "address[]"
        }
      ],
      "payable": false,
      "stateMutability": "view",
      "type": "function",
      "signature": "0xa6e370db"
    }
  ],
  "bytecode": "0x60806040526020600955600954600a0a600a55600954600a0a600b55600954600a0a600202600c55600954600a0a600302600d556000601455620000756301ffc9a77c01000000000000000000000000000000000000000000000000000000000262000176640100000000026401000000009004565b620000b26380ac58cd7c01000000000000000000000000000000000000000000000000000000000262000176640100000000026401000000009004565b33600560006101000a81548173ffffffffffffffffffffffffffffffffffffffff021916908373ffffffffffffffffffffffffffffffffffffffff160217905550600560009054906101000a900473ffffffffffffffffffffffffffffffffffffffff1673ffffffffffffffffffffffffffffffffffffffff16600073ffffffffffffffffffffffffffffffffffffffff167f8be0079c531659141344cd1fd0a4f28419497f9722a3daafe3b4186f6b6457e060405160405180910390a362000234565b63ffffffff7c010000000000000000000000000000000000000000000000000000000002817bffffffffffffffffffffffffffffffffffffffffffffffffffffffff191614151515620001c857600080fd5b6001600080837bffffffffffffffffffffffffffffffffffffffffffffffffffffffff19167bffffffffffffffffffffffffffffffffffffffffffffffffffffffff1916815260200190815260200160002060006101000a81548160ff02191690831515021790555050565b6155c080620002446000396000f3fe60806040526004361061022c576000357c010000000000000000000000000000000000000000000000000000000090048063642db46411610135578063a22cb465116100bd578063d16861401161008c578063d16861401461143c578063e985e9c51461148b578063f2fde38b14611514578063fd7d4c0e14611565578063fef9fe5c146115b45761022c565b8063a22cb4651461102c578063a6e370db14611089578063ac778b8f14611119578063b88d4fde1461132a5761022c565b80638da5cb5b116101045780638da5cb5b14610e255780638f32d59b14610e7c578063947c1bb414610eab578063987c389b14610f1e578063a11e237514610f715761022c565b8063642db46414610c5c57806370a0823114610d6e578063715018a614610dd35780638a7d124b14610dea5761022c565b806337c14a79116101b857806358be6f8e1161018757806358be6f8e14610a605780635d3ea9c914610acf5780635f51522614610b1e5780636151d0fb14610b835780636352211e14610be15761022c565b806337c14a79146107d557806342842e0e146108ce5780634e325ed314610949578063507ffba5146109985761022c565b80630b4f12f6116101ff5780630b4f12f61461038d5780631668d7691461045557806323b872dd146106845780632e8d9740146106ff578063305011801461075a5761022c565b806301ffc9a71461022e578063026ff05e146102a0578063081812fc146102b7578063095ea7b314610332575b005b34801561023a57600080fd5b506102866004803603602081101561025157600080fd5b8101908080357bffffffffffffffffffffffffffffffffffffffffffffffffffffffff19169060200190929190505050611620565b604051808215151515815260200191505060405180910390f35b3480156102ac57600080fd5b506102b5611687565b005b3480156102c357600080fd5b506102f0600480360360208110156102da57600080fd5b81019080803590602001909291905050506117d7565b604051808273ffffffffffffffffffffffffffffffffffffffff1673ffffffffffffffffffffffffffffffffffffffff16815260200191505060405180910390f35b34801561033e57600080fd5b5061038b6004803603604081101561035557600080fd5b81019080803573ffffffffffffffffffffffffffffffffffffffff16906020019092919080359060200190929190505050611828565b005b34801561039957600080fd5b50610453600480360360208110156103b057600080fd5b81019080803590602001906401000000008111156103cd57600080fd5b8201836020820111156103df57600080fd5b8035906020019184600183028401116401000000008311171561040157600080fd5b91908080601f016020809104026020016040519081016040528093929190818152602001838380828437600081840152601f19601f82011690508083019250505050505050919291929050505061196d565b005b34801561046157600080fd5b5061048e6004803603602081101561047857600080fd5b8101908080359060200190929190505050611ace565b604051808a81526020018981526020018060200180602001806020018873ffffffffffffffffffffffffffffffffffffffff1673ffffffffffffffffffffffffffffffffffffffff1681526020018773ffffffffffffffffffffffffffffffffffffffff1673ffffffffffffffffffffffffffffffffffffffff168152602001806020018615151515815260200185810385528c818151815260200191508051906020019060200280838360005b8381101561055757808201518184015260208101905061053c565b5050505090500185810384528b818151815260200191508051906020019080838360005b8381101561059657808201518184015260208101905061057b565b50505050905090810190601f1680156105c35780820380516001836020036101000a031916815260200191505b5085810383528a818151815260200191508051906020019080838360005b838110156105fc5780820151818401526020810190506105e1565b50505050905090810190601f1680156106295780820380516001836020036101000a031916815260200191505b50858103825287818151815260200191508051906020019060200280838360005b8381101561066557808201518184015260208101905061064a565b505050509050019d505050505050505050505050505060405180910390f35b34801561069057600080fd5b506106fd600480360360608110156106a757600080fd5b81019080803573ffffffffffffffffffffffffffffffffffffffff169060200190929190803573ffffffffffffffffffffffffffffffffffffffff16906020019092919080359060200190929190505050611e1a565b005b34801561070b57600080fd5b506107586004803603604081101561072257600080fd5b81019080803573ffffffffffffffffffffffffffffffffffffffff16906020019092919080359060200190929190505050611e3f565b005b34801561076657600080fd5b506107936004803603602081101561077d57600080fd5b81019080803590602001909291905050506123e5565b604051808273ffffffffffffffffffffffffffffffffffffffff1673ffffffffffffffffffffffffffffffffffffffff16815260200191505060405180910390f35b3480156107e157600080fd5b5061080e600480360360208110156107f857600080fd5b8101908080359060200190929190505050612440565b604051808581526020018473ffffffffffffffffffffffffffffffffffffffff1673ffffffffffffffffffffffffffffffffffffffff1681526020018060200183151515158152602001828103825284818151815260200191508051906020019080838360005b83811015610890578082015181840152602081019050610875565b50505050905090810190601f1680156108bd5780820380516001836020036101000a031916815260200191505b509550505050505060405180910390f35b3480156108da57600080fd5b50610947600480360360608110156108f157600080fd5b81019080803573ffffffffffffffffffffffffffffffffffffffff169060200190929190803573ffffffffffffffffffffffffffffffffffffffff16906020019092919080359060200190929190505050612577565b005b34801561095557600080fd5b506109826004803603602081101561096c57600080fd5b8101908080359060200190929190505050612598565b6040518082815260200191505060405180910390f35b3480156109a457600080fd5b50610a5e600480360360208110156109bb57600080fd5b81019080803590602001906401000000008111156109d857600080fd5b8201836020820111156109ea57600080fd5b80359060200191846001830284011164010000000083111715610a0c57600080fd5b91908080601f016020809104026020016040519081016040528093929190818152602001838380828437600081840152601f19601f8201169050808301925050505050505091929192905050506125bb565b005b348015610a6c57600080fd5b50610ab960048036036040811015610a8357600080fd5b8101908080359060200190929190803573ffffffffffffffffffffffffffffffffffffffff169060200190929190505050612a00565b6040518082815260200191505060405180910390f35b348015610adb57600080fd5b50610b0860048036036020811015610af257600080fd5b8101908080359060200190929190505050612f78565b6040518082815260200191505060405180910390f35b348015610b2a57600080fd5b50610b6d60048036036020811015610b4157600080fd5b81019080803573ffffffffffffffffffffffffffffffffffffffff169060200190929190505050612f90565b6040518082815260200191505060405180910390f35b348015610b8f57600080fd5b50610bbc60048036036020811015610ba657600080fd5b8101908080359060200190929190505050612fa2565b6040518083151515158152602001821515151581526020019250505060405180910390f35b348015610bed57600080fd5b50610c1a60048036036020811015610c0457600080fd5b8101908080359060200190929190505050612fdb565b604051808273ffffffffffffffffffffffffffffffffffffffff1673ffffffffffffffffffffffffffffffffffffffff16815260200191505060405180910390f35b348015610c6857600080fd5b50610cab60048036036020811015610c7f57600080fd5b81019080803573ffffffffffffffffffffffffffffffffffffffff169060200190929190505050613059565b604051808060200180602001838103835285818151815260200191508051906020019080838360005b83811015610cef578082015181840152602081019050610cd4565b50505050905090810190601f168015610d1c5780820380516001836020036101000a031916815260200191505b50838103825284818151815260200191508051906020019060200280838360005b83811015610d58578082015181840152602081019050610d3d565b5050505090500194505050505060405180910390f35b348015610d7a57600080fd5b50610dbd60048036036020811015610d9157600080fd5b81019080803573ffffffffffffffffffffffffffffffffffffffff1690602001909291905050506131d1565b6040518082815260200191505060405180910390f35b348015610ddf57600080fd5b50610de8613255565b005b348015610df657600080fd5b50610e2360048036036020811015610e0d57600080fd5b8101908080359060200190929190505050613329565b005b348015610e3157600080fd5b50610e3a613721565b604051808273ffffffffffffffffffffffffffffffffffffffff1673ffffffffffffffffffffffffffffffffffffffff16815260200191505060405180910390f35b348015610e8857600080fd5b50610e9161374b565b604051808215151515815260200191505060405180910390f35b348015610eb757600080fd5b50610f0460048036036040811015610ece57600080fd5b81019080803573ffffffffffffffffffffffffffffffffffffffff169060200190929190803590602001909291905050506137a3565b604051808215151515815260200191505060405180910390f35b348015610f2a57600080fd5b50610f5760048036036020811015610f4157600080fd5b81019080803590602001909291905050506137b7565b604051808215151515815260200191505060405180910390f35b348015610f7d57600080fd5b50610faa60048036036020811015610f9457600080fd5b81019080803590602001909291905050506137c9565b6040518080602001838152602001828103825284818151815260200191508051906020019080838360005b83811015610ff0578082015181840152602081019050610fd5565b50505050905090810190601f16801561101d5780820380516001836020036101000a031916815260200191505b50935050505060405180910390f35b34801561103857600080fd5b506110876004803603604081101561104f57600080fd5b81019080803573ffffffffffffffffffffffffffffffffffffffff16906020019092919080351515906020019092919050505061389c565b005b34801561109557600080fd5b506110c2600480360360208110156110ac57600080fd5b81019080803590602001909291905050506139d8565b6040518080602001828103825283818151815260200191508051906020019060200280838360005b838110156111055780820151818401526020810190506110ea565b505050509050019250505060405180910390f35b34801561112557600080fd5b5061130d6004803603606081101561113c57600080fd5b810190808035906020019064010000000081111561115957600080fd5b82018360208201111561116b57600080fd5b8035906020019184600183028401116401000000008311171561118d57600080fd5b91908080601f016020809104026020016040519081016040528093929190818152602001838380828437600081840152601f19601f820116905080830192505050505050509192919290803590602001906401000000008111156111f057600080fd5b82018360208201111561120257600080fd5b8035906020019184600183028401116401000000008311171561122457600080fd5b91908080601f016020809104026020016040519081016040528093929190818152602001838380828437600081840152601f19601f8201169050808301925050505050505091929192908035906020019064010000000081111561128757600080fd5b82018360208201111561129957600080fd5b803590602001918460018302840111640100000000831117156112bb57600080fd5b91908080601f016020809104026020016040519081016040528093929190818152602001838380828437600081840152601f19601f820116905080830192505050505050509192919290505050613afa565b604051808381526020018281526020019250505060405180910390f35b34801561133657600080fd5b5061143a6004803603608081101561134d57600080fd5b81019080803573ffffffffffffffffffffffffffffffffffffffff169060200190929190803573ffffffffffffffffffffffffffffffffffffffff16906020019092919080359060200190929190803590602001906401000000008111156113b457600080fd5b8201836020820111156113c657600080fd5b803590602001918460018302840111640100000000831117156113e857600080fd5b91908080601f016020809104026020016040519081016040528093929190818152602001838380828437600081840152601f19601f8201169050808301925050505050505091929192905050506140f5565b005b34801561144857600080fd5b506114756004803603602081101561145f57600080fd5b810190808035906020019092919050505061411d565b6040518082815260200191505060405180910390f35b34801561149757600080fd5b506114fa600480360360408110156114ae57600080fd5b81019080803573ffffffffffffffffffffffffffffffffffffffff169060200190929190803573ffffffffffffffffffffffffffffffffffffffff169060200190929190505050614140565b604051808215151515815260200191505060405180910390f35b34801561152057600080fd5b506115636004803603602081101561153757600080fd5b81019080803573ffffffffffffffffffffffffffffffffffffffff1690602001909291905050506141d4565b005b34801561157157600080fd5b5061159e6004803603602081101561158857600080fd5b81019080803590602001909291905050506141f3565b6040518082815260200191505060405180910390f35b3480156115c057600080fd5b506115c9614216565b6040518080602001828103825283818151815260200191508051906020019060200280838360005b8381101561160c5780820151818401526020810190506115f1565b505050509050019250505060405180910390f35b6000806000837bffffffffffffffffffffffffffffffffffffffffffffffffffffffff19167bffffffffffffffffffffffffffffffffffffffffffffffffffffffff1916815260200190815260200160002060009054906101000a900460ff169050919050565b6000601360003373ffffffffffffffffffffffffffffffffffffffff1673ffffffffffffffffffffffffffffffffffffffff16815260200190815260200160002060000160006101000a81548173ffffffffffffffffffffffffffffffffffffffff021916908373ffffffffffffffffffffffffffffffffffffffff1602179055506020604051908101604052806000815250601360003373ffffffffffffffffffffffffffffffffffffffff1673ffffffffffffffffffffffffffffffffffffffff168152602001908152602001600020600101908051906020019061176f929190615162565b50602060405190810160405280600060ff16815250601360003373ffffffffffffffffffffffffffffffffffffffff1673ffffffffffffffffffffffffffffffffffffffff1681526020019081526020016000206002019060016117d49291906151e2565b50565b60006117e28261426e565b15156117ed57600080fd5b6002600083815260200190815260200160002060009054906101000a900473ffffffffffffffffffffffffffffffffffffffff169050919050565b600061183382612fdb565b90508073ffffffffffffffffffffffffffffffffffffffff168373ffffffffffffffffffffffffffffffffffffffff161415151561187057600080fd5b8073ffffffffffffffffffffffffffffffffffffffff163373ffffffffffffffffffffffffffffffffffffffff1614806118b057506118af8133614140565b5b15156118bb57600080fd5b826002600084815260200190815260200160002060006101000a81548173ffffffffffffffffffffffffffffffffffffffff021916908373ffffffffffffffffffffffffffffffffffffffff160217905550818373ffffffffffffffffffffffffffffffffffffffff168273ffffffffffffffffffffffffffffffffffffffff167f8c5be1e5ebec7d5bd14f71427d1e84f3dd0314c0f7b2291e5b200ac8c7c3b92560405160405180910390a4505050565b600073ffffffffffffffffffffffffffffffffffffffff16601360003373ffffffffffffffffffffffffffffffffffffffff1673ffffffffffffffffffffffffffffffffffffffff16815260200190815260200160002060000160009054906101000a900473ffffffffffffffffffffffffffffffffffffffff1673ffffffffffffffffffffffffffffffffffffffff1614151515611a74576040517f08c379a00000000000000000000000000000000000000000000000000000000081526004018080602001828103825260138152602001807f5573657220646f6573206e6f742065786973740000000000000000000000000081525060200191505060405180910390fd5b80601360003373ffffffffffffffffffffffffffffffffffffffff1673ffffffffffffffffffffffffffffffffffffffff1681526020019081526020016000206001019080519060200190611aca929190615162565b5050565b600080606080606060008060606000600e60008b8152602001908152602001600020600001549850600e60008b8152602001908152602001600020600201549750600e60008b8152602001908152602001600020600301805480602002602001604051908101604052809291908181526020018280548015611b6f57602002820191906000526020600020905b815481526020019060010190808311611b5b575b50505050509650600e60008b81526020019081526020016000206004018054600181600116156101000203166002900480601f016020809104026020016040519081016040528092919081815260200182805460018160011615610100020316600290048015611c205780601f10611bf557610100808354040283529160200191611c20565b820191906000526020600020905b815481529060010190602001808311611c0357829003601f168201915b50505050509550600e60008b81526020019081526020016000206005018054600181600116156101000203166002900480601f016020809104026020016040519081016040528092919081815260200182805460018160011615610100020316600290048015611cd15780601f10611ca657610100808354040283529160200191611cd1565b820191906000526020600020905b815481529060010190602001808311611cb457829003601f168201915b50505050509450600e60008b815260200190815260200160002060060160009054906101000a900473ffffffffffffffffffffffffffffffffffffffff169350600e60008b815260200190815260200160002060070160009054906101000a900473ffffffffffffffffffffffffffffffffffffffff169250600e60008b8152602001908152602001600020600801805480602002602001604051908101604052809291908181526020018280548015611de057602002820191906000526020600020905b8160009054906101000a900473ffffffffffffffffffffffffffffffffffffffff1673ffffffffffffffffffffffffffffffffffffffff1681526020019060010190808311611d96575b50505050509150600e60008b815260200190815260200160002060090160009054906101000a900460ff1690509193959799909294969850565b611e2433826142e0565b1515611e2f57600080fd5b611e3a838383614375565b505050565b60011515611e4d33836145da565b1515141515611ea7576040517f08c379a00000000000000000000000000000000000000000000000000000000081526004018080602001828103825260338152602001806155396033913960400191505060405180910390fd5b600d5481101515611f20576040517f08c379a000000000000000000000000000000000000000000000000000000000815260040180806020018281038252601c8152602001807f596f752063616e6e6f74207472616e73666572204c6963656e7365730000000081525060200191505060405180910390fd5b8173ffffffffffffffffffffffffffffffffffffffff16600e600083815260200190815260200160002060070160009054906101000a900473ffffffffffffffffffffffffffffffffffffffff1673ffffffffffffffffffffffffffffffffffffffff1614151515611fdd576040517f08c379a00000000000000000000000000000000000000000000000000000000081526004018080602001828103825260278152602001806155126027913960400191505060405180910390fd5b60011515600e600083815260200190815260200160002060090160009054906101000a900460ff16151514151561207c576040517f08c379a000000000000000000000000000000000000000000000000000000000815260040180806020018281038252601a8152602001807f5468697320636572746966696361746520697320636c6f73656400000000000081525060200191505060405180910390fd5b6120873383836145ee565b81600e600083815260200190815260200160002060070160006101000a81548173ffffffffffffffffffffffffffffffffffffffff021916908373ffffffffffffffffffffffffffffffffffffffff160217905550600e60008281526020019081526020016000206008018290806001815401808255809150509060018203906000526020600020016000909192909190916101000a81548173ffffffffffffffffffffffffffffffffffffffff021916908373ffffffffffffffffffffffffffffffffffffffff160217905550506000600e60008381526020019081526020016000206003018054905011156121f2575b6001600e600083815260200190815260200160002060030180549050036014541115156121f1576121da3383600e60008581526020019081526020016000206003016014548154811015156121ca57fe5b90600052602060002001546145ee565b601460008154809291906001019190505550612179565b5b7f118156733240272377b9f5489d38ded92256543bb9d43c8295ec716f0ece5039600e600083815260200190815260200160002060060160009054906101000a900473ffffffffffffffffffffffffffffffffffffffff16600e600084815260200190815260200160002060070160009054906101000a900473ffffffffffffffffffffffffffffffffffffffff16600e6000858152602001908152602001600020600801600e6000868152602001908152602001600020600301604051808573ffffffffffffffffffffffffffffffffffffffff1673ffffffffffffffffffffffffffffffffffffffff1681526020018473ffffffffffffffffffffffffffffffffffffffff1673ffffffffffffffffffffffffffffffffffffffff1681526020018060200180602001838103835285818154815260200191508054801561239057602002820191906000526020600020905b8160009054906101000a900473ffffffffffffffffffffffffffffffffffffffff1673ffffffffffffffffffffffffffffffffffffffff1681526020019060010190808311612346575b505083810382528481815481526020019150805480156123cf57602002820191906000526020600020905b8154815260200190600101908083116123bb575b5050965050505050505060405180910390a15050565b6000600d5482111561242f57600f600083815260200190815260200160002060020160009054906101000a900473ffffffffffffffffffffffffffffffffffffffff16905061243b565b612438826145fe565b90505b919050565b60008060606000600f6000868152602001908152602001600020600001549350600f600086815260200190815260200160002060020160009054906101000a900473ffffffffffffffffffffffffffffffffffffffff169250600f60008681526020019081526020016000206003018054600181600116156101000203166002900480601f0160208091040260200160405190810160405280929190818152602001828054600181600116156101000203166002900480156125435780601f1061251857610100808354040283529160200191612543565b820191906000526020600020905b81548152906001019060200180831161252657829003601f168201915b50505050509150600f600086815260200190815260200160002060040160009054906101000a900460ff1690509193509193565b61259383838360206040519081016040528060008152506140f5565b505050565b6007818154811015156125a757fe5b906000526020600020016000915090505481565b600073ffffffffffffffffffffffffffffffffffffffff16601360003373ffffffffffffffffffffffffffffffffffffffff1673ffffffffffffffffffffffffffffffffffffffff16815260200190815260200160002060000160009054906101000a900473ffffffffffffffffffffffffffffffffffffffff1673ffffffffffffffffffffffffffffffffffffffff161415156126c1576040517f08c379a00000000000000000000000000000000000000000000000000000000081526004018080602001828103825260188152602001807f54686973205573657220616c726561647920657869737473000000000000000081525060200191505060405180910390fd5b6060604051908101604052803373ffffffffffffffffffffffffffffffffffffffff168152602001828152602001600060405190808252806020026020018201604052801561271f5781602001602082028038833980820191505090505b50815250601360003373ffffffffffffffffffffffffffffffffffffffff1673ffffffffffffffffffffffffffffffffffffffff16815260200190815260200160002060008201518160000160006101000a81548173ffffffffffffffffffffffffffffffffffffffff021916908373ffffffffffffffffffffffffffffffffffffffff16021790555060208201518160010190805190602001906127c5929190615234565b5060408201518160020190805190602001906127e29291906152b4565b509050507f1762e6485dad7c291ae8191119acded92bd07cda85e738e1e570a5949d5a264b601360003373ffffffffffffffffffffffffffffffffffffffff1673ffffffffffffffffffffffffffffffffffffffff16815260200190815260200160002060000160009054906101000a900473ffffffffffffffffffffffffffffffffffffffff16601360003373ffffffffffffffffffffffffffffffffffffffff1673ffffffffffffffffffffffffffffffffffffffff168152602001908152602001600020600101601360003373ffffffffffffffffffffffffffffffffffffffff1673ffffffffffffffffffffffffffffffffffffffff168152602001908152602001600020600201604051808473ffffffffffffffffffffffffffffffffffffffff1673ffffffffffffffffffffffffffffffffffffffff16815260200180602001806020018381038352858181546001816001161561010002031660029004815260200191508054600181600116156101000203166002900480156129ad5780601f10612982576101008083540402835291602001916129ad565b820191906000526020600020905b81548152906001019060200180831161299057829003601f168201915b505083810382528481815481526020019150805480156129ec57602002820191906000526020600020905b8154815260200190600101908083116129d8575b50509550505050505060405180910390a150565b600082600d5481101515612a7c576040517f08c379a00000000000000000000000000000000000000000000000000000000081526004018080602001828103825260198152602001807f434944206973206c6172676572207468616e20746865204c490000000000000081525060200191505060405180910390fd5b3373ffffffffffffffffffffffffffffffffffffffff16612a9c826145fe565b73ffffffffffffffffffffffffffffffffffffffff16141515612b0a576040517f08c379a00000000000000000000000000000000000000000000000000000000081526004018080602001828103825260288152602001806154ea6028913960400191505060405180910390fd5b600e600082815260200190815260200160002060070160009054906101000a900473ffffffffffffffffffffffffffffffffffffffff1673ffffffffffffffffffffffffffffffffffffffff163373ffffffffffffffffffffffffffffffffffffffff16141515612bc6576040517f08c379a000000000000000000000000000000000000000000000000000000000815260040180806020018281038252602981526020018061556c6029913960400191505060405180910390fd5b612c0784600e600087815260200190815260200160002060070160009054906101000a900473ffffffffffffffffffffffffffffffffffffffff1685614610565b9150612c11615301565b60a06040519081016040528060078054905081526020018481526020018573ffffffffffffffffffffffffffffffffffffffff168152602001600e60008881526020019081526020016000206004018054600181600116156101000203166002900480601f016020809104026020016040519081016040528092919081815260200182805460018160011615610100020316600290048015612cf45780601f10612cc957610100808354040283529160200191612cf4565b820191906000526020600020905b815481529060010190602001808311612cd757829003601f168201915b505050505081526020016001151581525090506007839080600181540180825580915050906001820390600052602060002001600090919290919091505550612d73600e600087815260200190815260200160002060070160009054906101000a900473ffffffffffffffffffffffffffffffffffffffff1684614775565b600e600086815260200190815260200160002060030183908060018154018082558091505090600182039060005260206000200160009091929091909150555080600f6000858152602001908152602001600020600082015181600001556020820151816001015560408201518160020160006101000a81548173ffffffffffffffffffffffffffffffffffffffff021916908373ffffffffffffffffffffffffffffffffffffffff1602179055506060820151816003019080519060200190612e3e929190615234565b5060808201518160040160006101000a81548160ff021916908315150217905550905050601360003373ffffffffffffffffffffffffffffffffffffffff1673ffffffffffffffffffffffffffffffffffffffff1681526020019081526020016000206002018390806001815401808255809150509060018203906000526020600020016000909192909190915055508460106000858152602001908152602001600020819055507fd49a4d28bb10172ee9a78709bdbfc91750333ca9c9012b22136a0471efb975f7600e600087815260200190815260200160002060030160405180806020018281038252838181548152602001915080548015612f6257602002820191906000526020600020905b815481526020019060010190808311612f4e575b50509250505060405180910390a1505092915050565b60106020528060005260406000206000915090505481565b6000612f9b82614783565b9050919050565b600080612fae83614795565b9150600f600084815260200190815260200160002060040160009054906101000a900460ff169050915091565b6000806001600084815260200190815260200160002060009054906101000a900473ffffffffffffffffffffffffffffffffffffffff169050600073ffffffffffffffffffffffffffffffffffffffff168173ffffffffffffffffffffffffffffffffffffffff161415151561305057600080fd5b80915050919050565b606080601360008473ffffffffffffffffffffffffffffffffffffffff1673ffffffffffffffffffffffffffffffffffffffff1681526020019081526020016000206001018054600181600116156101000203166002900480601f0160208091040260200160405190810160405280929190818152602001828054600181600116156101000203166002900480156131325780601f1061310757610100808354040283529160200191613132565b820191906000526020600020905b81548152906001019060200180831161311557829003601f168201915b50505050509150601360008473ffffffffffffffffffffffffffffffffffffffff1673ffffffffffffffffffffffffffffffffffffffff1681526020019081526020016000206002018054806020026020016040519081016040528092919081815260200182805480156131c557602002820191906000526020600020905b8154815260200190600101908083116131b1575b50505050509050915091565b60008073ffffffffffffffffffffffffffffffffffffffff168273ffffffffffffffffffffffffffffffffffffffff161415151561320e57600080fd5b600360008373ffffffffffffffffffffffffffffffffffffffff1673ffffffffffffffffffffffffffffffffffffffff168152602001908152602001600020549050919050565b61325d61374b565b151561326857600080fd5b600073ffffffffffffffffffffffffffffffffffffffff16600560009054906101000a900473ffffffffffffffffffffffffffffffffffffffff1673ffffffffffffffffffffffffffffffffffffffff167f8be0079c531659141344cd1fd0a4f28419497f9722a3daafe3b4186f6b6457e060405160405180910390a36000600560006101000a81548173ffffffffffffffffffffffffffffffffffffffff021916908373ffffffffffffffffffffffffffffffffffffffff160217905550565b600d54811015156135bc575b6001600e600060106000858152602001908152602001600020548152602001908152602001600020600301805490500360145411151561353b5780600e6000601060008581526020019081526020016000205481526020019081526020016000206003016014548154811015156133a857fe5b9060005260206000200154141561352457600e6000601060008481526020019081526020016000205481526020019081526020016000206003016001600e600060106000868152602001908152602001600020548152602001908152602001600020600301805490500381548110151561341e57fe5b9060005260206000200154600e60006010600085815260200190815260200160002054815260200190815260200160002060030160145481548110151561346157fe5b9060005260206000200181905550600e6000601060008481526020019081526020016000205481526020019081526020016000206003016001600e60006010600086815260200190815260200160002054815260200190815260200160002060030180549050038154811015156134d457fe5b9060005260206000200160009055600e60006010600084815260200190815260200160002054815260200190815260200160002060030180548091906001900361351e9190615349565b5061353b565b601460008154809291906001019190505550613335565b6000600f600083815260200190815260200160002060040160006101000a81548160ff02191690831515021790555061357433826147a7565b7f486ba50ba1b2ac0157dc7c2b5bb2953cc5b90e298b682f197a4019d303de836661359e82614795565b604051808215151515815260200191505060405180910390a161371e565b60006012600083815260200190815260200160002054905060006011600060086001600880549050038154811015156135f157fe5b90600052602060002001548152602001908152602001600020549050600860016008805490500381548110151561362457fe5b906000526020600020015460088381548110151561363e57fe5b9060005260206000200181905550816012600083815260200190815260200160002081905550600860016008805490500381548110151561367b57fe5b9060005260206000200160009055600880548091906001900361369e9190615349565b506000600e600085815260200190815260200160002060090160006101000a81548160ff0219169083151502179055506136d833846147a7565b7f486ba50ba1b2ac0157dc7c2b5bb2953cc5b90e298b682f197a4019d303de836661370284614795565b604051808215151515815260200191505060405180910390a150505b50565b6000600560009054906101000a900473ffffffffffffffffffffffffffffffffffffffff16905090565b6000600560009054906101000a900473ffffffffffffffffffffffffffffffffffffffff1673ffffffffffffffffffffffffffffffffffffffff163373ffffffffffffffffffffffffffffffffffffffff1614905090565b60006137af83836145da565b905092915050565b60006137c282614795565b9050919050565b60606000600e60008481526020019081526020016000206004018054600181600116156101000203166002900480601f0160208091040260200160405190810160405280929190818152602001828054600181600116156101000203166002900480156138775780601f1061384c57610100808354040283529160200191613877565b820191906000526020600020905b81548152906001019060200180831161385a57829003601f168201915b50505050509150600e6000848152602001908152602001600020600201549050915091565b3373ffffffffffffffffffffffffffffffffffffffff168273ffffffffffffffffffffffffffffffffffffffff16141515156138d757600080fd5b80600460003373ffffffffffffffffffffffffffffffffffffffff1673ffffffffffffffffffffffffffffffffffffffff16815260200190815260200160002060008473ffffffffffffffffffffffffffffffffffffffff1673ffffffffffffffffffffffffffffffffffffffff16815260200190815260200160002060006101000a81548160ff0219169083151502179055508173ffffffffffffffffffffffffffffffffffffffff163373ffffffffffffffffffffffffffffffffffffffff167f17307eab39ab6107e8899845ad3d59bd9653f200f220920489ca2b5937696c3183604051808215151515815260200191505060405180910390a35050565b60606000600e600084815260200190815260200160002060030180549050905080604051908082528060200260200182016040528015613a275781602001602082028038833980820191505090505b50915060008090505b81811015613af357600f6000600e600087815260200190815260200160002060030183815481101515613a5f57fe5b9060005260206000200154815260200190815260200160002060020160009054906101000a900473ffffffffffffffffffffffffffffffffffffffff168382815181101515613aaa57fe5b9060200190602002019073ffffffffffffffffffffffffffffffffffffffff16908173ffffffffffffffffffffffffffffffffffffffff16815250508080600101915050613a30565b5050919050565b600080613b06846147b5565b90505b6008805490506014541015613bc257806008601454815481101515613b2a57fe5b906000526020600020015414151515613bab576040517f08c379a00000000000000000000000000000000000000000000000000000000081526004018080602001828103825260148152602001807f417373657420616c72656164792065786973747300000000000000000000000081525060200191505060405180910390fd5b601460008154809291906001019190505550613b09565b613bcc81336148df565b9150816011600083815260200190815260200160002081905550600160088290806001815401808255809150509060018203906000526020600020016000909192909190915055036012600084815260200190815260200160002081905550613c33615375565b6101406040519081016040528060068054905081526020018481526020018381526020016000604051908082528060200260200182016040528015613c875781602001602082028038833980820191505090505b5081526020018581526020018781526020013373ffffffffffffffffffffffffffffffffffffffff1681526020013373ffffffffffffffffffffffffffffffffffffffff1681526020016000604051908082528060200260200182016040528015613d015781602001602082028038833980820191505090505b508152602001600115158152509050600683908060018154018082558091505090600182039060005260206000200160009091929091909150555080600e60008581526020019081526020016000206000820151816000015560208201518160010155604082015181600201556060820151816003019080519060200190613d8a9291906152b4565b506080820151816004019080519060200190613da7929190615234565b5060a0820151816005019080519060200190613dc4929190615234565b5060c08201518160060160006101000a81548173ffffffffffffffffffffffffffffffffffffffff021916908373ffffffffffffffffffffffffffffffffffffffff16021790555060e08201518160070160006101000a81548173ffffffffffffffffffffffffffffffffffffffff021916908373ffffffffffffffffffffffffffffffffffffffff160217905550610100820151816008019080519060200190613e709291906153f7565b506101208201518160090160006101000a81548160ff021916908315150217905550905050600e60008481526020019081526020016000206008013390806001815401808255809150509060018203906000526020600020016000909192909190916101000a81548173ffffffffffffffffffffffffffffffffffffffff021916908373ffffffffffffffffffffffffffffffffffffffff16021790555050601360003373ffffffffffffffffffffffffffffffffffffffff1673ffffffffffffffffffffffffffffffffffffffff168152602001908152602001600020600201839080600181540180825580915050906001820390600052602060002001600090919290919091505550613f853384614775565b7f96172826f9ea866fc62df98936ebb5601ef36641adf5c4a7dd7b9953412b1a958160000151826020015133600e6000888152602001908152602001600020600801600e6000898152602001908152602001600020600301604051808681526020018581526020018473ffffffffffffffffffffffffffffffffffffffff1673ffffffffffffffffffffffffffffffffffffffff1681526020018060200180602001838103835285818154815260200191508054801561409a57602002820191906000526020600020905b8160009054906101000a900473ffffffffffffffffffffffffffffffffffffffff1673ffffffffffffffffffffffffffffffffffffffff1681526020019060010190808311614050575b505083810382528481815481526020019150805480156140d957602002820191906000526020600020905b8154815260200190600101908083116140c5575b505097505050505050505060405180910390a150935093915050565b614100848484611e1a565b61410c84848484614a00565b151561411757600080fd5b50505050565b60088181548110151561412c57fe5b906000526020600020016000915090505481565b6000600460008473ffffffffffffffffffffffffffffffffffffffff1673ffffffffffffffffffffffffffffffffffffffff16815260200190815260200160002060008373ffffffffffffffffffffffffffffffffffffffff1673ffffffffffffffffffffffffffffffffffffffff16815260200190815260200160002060009054906101000a900460ff16905092915050565b6141dc61374b565b15156141e757600080fd5b6141f081614c23565b50565b60068181548110151561420257fe5b906000526020600020016000915090505481565b6060600880548060200260200160405190810160405280929190818152602001828054801561426457602002820191906000526020600020905b815481526020019060010190808311614250575b5050505050905090565b6000806001600084815260200190815260200160002060009054906101000a900473ffffffffffffffffffffffffffffffffffffffff169050600073ffffffffffffffffffffffffffffffffffffffff168173ffffffffffffffffffffffffffffffffffffffff161415915050919050565b6000806142ec83612fdb565b90508073ffffffffffffffffffffffffffffffffffffffff168473ffffffffffffffffffffffffffffffffffffffff16148061435b57508373ffffffffffffffffffffffffffffffffffffffff16614343846117d7565b73ffffffffffffffffffffffffffffffffffffffff16145b8061436c575061436b8185614140565b5b91505092915050565b8273ffffffffffffffffffffffffffffffffffffffff1661439582612fdb565b73ffffffffffffffffffffffffffffffffffffffff161415156143b757600080fd5b600073ffffffffffffffffffffffffffffffffffffffff168273ffffffffffffffffffffffffffffffffffffffff16141515156143f357600080fd5b6143fc81614d1f565b61444f6001600360008673ffffffffffffffffffffffffffffffffffffffff1673ffffffffffffffffffffffffffffffffffffffff16815260200190815260200160002054614ddf90919063ffffffff16565b600360008573ffffffffffffffffffffffffffffffffffffffff1673ffffffffffffffffffffffffffffffffffffffff168152602001908152602001600020819055506144e56001600360008573ffffffffffffffffffffffffffffffffffffffff1673ffffffffffffffffffffffffffffffffffffffff16815260200190815260200160002054614e0190919063ffffffff16565b600360008473ffffffffffffffffffffffffffffffffffffffff1673ffffffffffffffffffffffffffffffffffffffff16815260200190815260200160002081905550816001600083815260200190815260200160002060006101000a81548173ffffffffffffffffffffffffffffffffffffffff021916908373ffffffffffffffffffffffffffffffffffffffff160217905550808273ffffffffffffffffffffffffffffffffffffffff168473ffffffffffffffffffffffffffffffffffffffff167fddf252ad1be2c89b69c2b068fc378daa952ba7f163c4a11628f55a4df523b3ef60405160405180910390a4505050565b60006145e683836142e0565b905092915050565b6145f9838383612577565b505050565b600061460982612fdb565b9050919050565b6000600a546002858585604051602001808481526020018373ffffffffffffffffffffffffffffffffffffffff1673ffffffffffffffffffffffffffffffffffffffff166c010000000000000000000000000281526014018273ffffffffffffffffffffffffffffffffffffffff1673ffffffffffffffffffffffffffffffffffffffff166c0100000000000000000000000002815260140193505050506040516020818303038152906040526040518082805190602001908083835b6020831015156146f257805182526020820191506020810190506020830392506146cd565b6001836020036101000a038019825116818451168082178552505050505050905001915050602060405180830381855afa158015614734573d6000803e3d6000fd5b5050506040513d602081101561474957600080fd5b81019080805190602001909291905050506001900481151561476757fe5b06600d540190509392505050565b61477f8282614e22565b5050565b600061478e826131d1565b9050919050565b60006147a08261426e565b9050919050565b6147b18282614fbb565b5050565b6000600a546002836040516020018082805190602001908083835b6020831015156147f557805182526020820191506020810190506020830392506147d0565b6001836020036101000a0380198251168184511680821785525050505050509050019150506040516020818303038152906040526040518082805190602001908083835b60208310151561485e5780518252602082019150602081019050602083039250614839565b6001836020036101000a038019825116818451168082178552505050505050905001915050602060405180830381855afa1580156148a0573d6000803e3d6000fd5b5050506040513d60208110156148b557600080fd5b8101908080519060200190929190505050600190048115156148d357fe5b06600b54019050919050565b6000600a5460028484604051602001808381526020018273ffffffffffffffffffffffffffffffffffffffff1673ffffffffffffffffffffffffffffffffffffffff166c01000000000000000000000000028152601401925050506040516020818303038152906040526040518082805190602001908083835b60208310151561497e5780518252602082019150602081019050602083039250614959565b6001836020036101000a038019825116818451168082178552505050505050905001915050602060405180830381855afa1580156149c0573d6000803e3d6000fd5b5050506040513d60208110156149d557600080fd5b8101908080519060200190929190505050600190048115156149f357fe5b06600c5401905092915050565b6000614a218473ffffffffffffffffffffffffffffffffffffffff1661514f565b1515614a305760019050614c1b565b60008473ffffffffffffffffffffffffffffffffffffffff1663150b7a02338887876040518563ffffffff167c0100000000000000000000000000000000000000000000000000000000028152600401808573ffffffffffffffffffffffffffffffffffffffff1673ffffffffffffffffffffffffffffffffffffffff1681526020018473ffffffffffffffffffffffffffffffffffffffff1673ffffffffffffffffffffffffffffffffffffffff16815260200183815260200180602001828103825283818151815260200191508051906020019080838360005b83811015614b27578082015181840152602081019050614b0c565b50505050905090810190601f168015614b545780820380516001836020036101000a031916815260200191505b5095505050505050602060405180830381600087803b158015614b7657600080fd5b505af1158015614b8a573d6000803e3d6000fd5b505050506040513d6020811015614ba057600080fd5b8101908080519060200190929190505050905063150b7a027c0100000000000000000000000000000000000000000000000000000000027bffffffffffffffffffffffffffffffffffffffffffffffffffffffff1916817bffffffffffffffffffffffffffffffffffffffffffffffffffffffff1916149150505b949350505050565b600073ffffffffffffffffffffffffffffffffffffffff168173ffffffffffffffffffffffffffffffffffffffff1614151515614c5f57600080fd5b8073ffffffffffffffffffffffffffffffffffffffff16600560009054906101000a900473ffffffffffffffffffffffffffffffffffffffff1673ffffffffffffffffffffffffffffffffffffffff167f8be0079c531659141344cd1fd0a4f28419497f9722a3daafe3b4186f6b6457e060405160405180910390a380600560006101000a81548173ffffffffffffffffffffffffffffffffffffffff021916908373ffffffffffffffffffffffffffffffffffffffff16021790555050565b600073ffffffffffffffffffffffffffffffffffffffff166002600083815260200190815260200160002060009054906101000a900473ffffffffffffffffffffffffffffffffffffffff1673ffffffffffffffffffffffffffffffffffffffff16141515614ddc5760006002600083815260200190815260200160002060006101000a81548173ffffffffffffffffffffffffffffffffffffffff021916908373ffffffffffffffffffffffffffffffffffffffff1602179055505b50565b6000828211151515614df057600080fd5b600082840390508091505092915050565b6000808284019050838110151515614e1857600080fd5b8091505092915050565b600073ffffffffffffffffffffffffffffffffffffffff168273ffffffffffffffffffffffffffffffffffffffff1614151515614e5e57600080fd5b614e678161426e565b151515614e7357600080fd5b816001600083815260200190815260200160002060006101000a81548173ffffffffffffffffffffffffffffffffffffffff021916908373ffffffffffffffffffffffffffffffffffffffff160217905550614f186001600360008573ffffffffffffffffffffffffffffffffffffffff1673ffffffffffffffffffffffffffffffffffffffff16815260200190815260200160002054614e0190919063ffffffff16565b600360008473ffffffffffffffffffffffffffffffffffffffff1673ffffffffffffffffffffffffffffffffffffffff16815260200190815260200160002081905550808273ffffffffffffffffffffffffffffffffffffffff16600073ffffffffffffffffffffffffffffffffffffffff167fddf252ad1be2c89b69c2b068fc378daa952ba7f163c4a11628f55a4df523b3ef60405160405180910390a45050565b8173ffffffffffffffffffffffffffffffffffffffff16614fdb82612fdb565b73ffffffffffffffffffffffffffffffffffffffff16141515614ffd57600080fd5b61500681614d1f565b6150596001600360008573ffffffffffffffffffffffffffffffffffffffff1673ffffffffffffffffffffffffffffffffffffffff16815260200190815260200160002054614ddf90919063ffffffff16565b600360008473ffffffffffffffffffffffffffffffffffffffff1673ffffffffffffffffffffffffffffffffffffffff1681526020019081526020016000208190555060006001600083815260200190815260200160002060006101000a81548173ffffffffffffffffffffffffffffffffffffffff021916908373ffffffffffffffffffffffffffffffffffffffff16021790555080600073ffffffffffffffffffffffffffffffffffffffff168373ffffffffffffffffffffffffffffffffffffffff167fddf252ad1be2c89b69c2b068fc378daa952ba7f163c4a11628f55a4df523b3ef60405160405180910390a45050565b600080823b905060008111915050919050565b828054600181600116156101000203166002900490600052602060002090601f016020900481019282601f106151a357805160ff19168380011785556151d1565b828001600101855582156151d1579182015b828111156151d05782518255916020019190600101906151b5565b5b5090506151de9190615481565b5090565b828054828255906000526020600020908101928215615223579160200282015b82811115615222578251829060ff16905591602001919060010190615202565b5b5090506152309190615481565b5090565b828054600181600116156101000203166002900490600052602060002090601f016020900481019282601f1061527557805160ff19168380011785556152a3565b828001600101855582156152a3579182015b828111156152a2578251825591602001919060010190615287565b5b5090506152b09190615481565b5090565b8280548282559060005260206000209081019282156152f0579160200282015b828111156152ef5782518255916020019190600101906152d4565b5b5090506152fd9190615481565b5090565b60a0604051908101604052806000815260200160008152602001600073ffffffffffffffffffffffffffffffffffffffff168152602001606081526020016000151581525090565b8154818355818111156153705781836000526020600020918201910161536f9190615481565b5b505050565b61014060405190810160405280600081526020016000815260200160008152602001606081526020016060815260200160608152602001600073ffffffffffffffffffffffffffffffffffffffff168152602001600073ffffffffffffffffffffffffffffffffffffffff168152602001606081526020016000151581525090565b828054828255906000526020600020908101928215615470579160200282015b8281111561546f5782518260006101000a81548173ffffffffffffffffffffffffffffffffffffffff021916908373ffffffffffffffffffffffffffffffffffffffff16021790555091602001919060010190615417565b5b50905061547d91906154a6565b5090565b6154a391905b8082111561549f576000816000905550600101615487565b5090565b90565b6154e691905b808211156154e257600081816101000a81549073ffffffffffffffffffffffffffffffffffffffff0219169055506001016154ac565b5090565b9056fe4d73672e73656e646572206973206e6f7420746865206f776e6572206f662074686520746f6b656e54686973207573657220616c7265616479206f776e732074686973206365727469666963617465596f7520617265206e6f7420616e20616c6c6f77656420746f207472616e736665722074686973206365727469666963617465596f7520617265206e6f7420746865206f776e6572206f662074686973206365727469666963617465a165627a7a7230582025b5ab17ad7a54238bcb15ff9c0617b176531856900c223e69c81066d649d1b60029",
  "source": "pragma solidity ^0.5.3;\n\nimport \"./DMCT.sol\";\n\ncontract DMCT_Services is DMCT {\n\n    function () external payable {\n        \n    }\n\n    function returnAssetIDS() public view returns(uint[] memory assetIDS) {\n        assetIDS = AssetIDS;\n    }\n\n    function returnUserByAddress(address userAddress) public view returns(string memory userName, uint[] memory portfolio){\n        userName = addressToUser[userAddress].userName;\n        portfolio = addressToUser[userAddress].portfolio;\n    }\n\n    function checkBalance(address owner) public view returns(uint balance) {\n        balance = Models.balance(owner);\n    }\n\n    function checkOwnerOfToken(uint tokenID) public view returns(address owner) {\n        if(tokenID > LI) {\n            owner = LIDToLicense[tokenID].licenseOwner;\n        }\n        else {\n            owner = ownerOfToken(tokenID);\n        }\n    }\n\n    function checkTokenStatus(uint tokenID) public view returns(bool status){\n        status = Models.exists(tokenID);\n    }\n\n    function checkOwnerStatus(address owner, uint tokenID) public view returns(bool status){\n        status = Models.isApprovedOrOwner(owner, tokenID);\n    }\n\n    function checkLicenseStatus(uint licenseID) public view returns(bool tokenStatus, bool licenseStatus) {\n        tokenStatus = Models.exists(licenseID);\n        licenseStatus = LIDToLicense[licenseID].status;\n    }\n\n    function returnCertificateURL(uint certificateID) public view returns(string memory URL, uint assetID) {\n        URL = CIDToCertificate[certificateID].url;\n        assetID = CIDToCertificate[certificateID].assetID;\n    }\n\n    function returnCertificate(uint certificateID) public view returns(\n        uint index, \n        uint assetID, //AID\n        uint[] memory licenses,\n        string memory url,\n        string memory title,\n        address creator,\n        address owner,\n        address[] memory ownershipHistory,\n        bool status) {\n\n        index = CIDToCertificate[certificateID].index;\n        assetID = CIDToCertificate[certificateID].assetID;\n        licenses = CIDToCertificate[certificateID].licenses;\n        url = CIDToCertificate[certificateID].url;\n        title = CIDToCertificate[certificateID].title;\n        creator = CIDToCertificate[certificateID].certificateCreator;\n        owner = CIDToCertificate[certificateID].certificateOwner;\n        ownershipHistory = CIDToCertificate[certificateID].ownershipHistory;\n        status = CIDToCertificate[certificateID].status;\n    }\n\n    function returnLicense(uint licenseID) public view returns(\n        uint index,\n        address licenseOwner,\n        string memory url,\n        bool status) {\n\n        index = LIDToLicense[licenseID].index;\n        licenseOwner = LIDToLicense[licenseID].licenseOwner;\n        url = LIDToLicense[licenseID].url;\n        status = LIDToLicense[licenseID].status;\n    }\n\n    function returnLicenseOwnerArray(uint certificateID) public view returns(address[] memory ownersArray){\n        uint licenseCount = CIDToCertificate[certificateID].licenses.length;\n        ownersArray = new address[](licenseCount);\n        for(uint i = 0; i < licenseCount; i++) {\n            ownersArray[i] = LIDToLicense[CIDToCertificate[certificateID].licenses[i]].licenseOwner;\n        }\n    }\n}",
  "sourcePath": "C:/Users/Purple/Documents/Life/Work/Passion/Blockchain/Blockchain Development/EthereumdApp/Portfolio(OG)/contracts/DMCT/DMCT_Services.sol",
  "compiler": {
    "name": "solc",
    "version": "0.5.3+commit.10d17f24.Emscripten.clang"
  },
  "schemaVersion": "3.0.5",
  "updatedAt": "2019-03-21T21:56:06.006Z",
  "devdoc": {
    "methods": {
      "approve(address,uint256)": {
        "details": "Approves another address to transfer the given token ID The zero address indicates there is no approved address. There can only be one approved address per token at a given time. Can only be called by the token owner or an approved operator.",
        "params": {
          "to": "address to be approved for the given token ID",
          "tokenId": "uint256 ID of the token to be approved"
        }
      },
      "balanceOf(address)": {
        "details": "Gets the balance of the specified address",
        "params": {
          "owner": "address to query the balance of"
        },
        "return": "uint256 representing the amount owned by the passed address"
      },
      "getApproved(uint256)": {
        "details": "Gets the approved address for a token ID, or zero if no address set Reverts if the token ID does not exist.",
        "params": {
          "tokenId": "uint256 ID of the token to query the approval of"
        },
        "return": "address currently approved for the given token ID"
      },
      "isApprovedForAll(address,address)": {
        "details": "Tells whether an operator is approved by a given owner",
        "params": {
          "operator": "operator address which you want to query the approval of",
          "owner": "owner address which you want to query the approval of"
        },
        "return": "bool whether the given operator is approved by the given owner"
      },
      "isOwner()": {
        "return": "true if `msg.sender` is the owner of the contract."
      },
      "owner()": {
        "return": "the address of the owner."
      },
      "ownerOf(uint256)": {
        "details": "Gets the owner of the specified token ID",
        "params": {
          "tokenId": "uint256 ID of the token to query the owner of"
        },
        "return": "owner address currently marked as the owner of the given token ID"
      },
      "renounceOwnership()": {
        "details": "Allows the current owner to relinquish control of the contract."
      },
      "safeTransferFrom(address,address,uint256)": {
        "details": "Safely transfers the ownership of a given token ID to another address If the target address is a contract, it must implement `onERC721Received`, which is called upon a safe transfer, and return the magic value `bytes4(keccak256(\"onERC721Received(address,address,uint256,bytes)\"))`; otherwise, the transfer is reverted.     * Requires the msg sender to be the owner, approved, or operator",
        "params": {
          "from": "current owner of the token",
          "to": "address to receive the ownership of the given token ID",
          "tokenId": "uint256 ID of the token to be transferred"
        }
      },
      "safeTransferFrom(address,address,uint256,bytes)": {
        "details": "Safely transfers the ownership of a given token ID to another address If the target address is a contract, it must implement `onERC721Received`, which is called upon a safe transfer, and return the magic value `bytes4(keccak256(\"onERC721Received(address,address,uint256,bytes)\"))`; otherwise, the transfer is reverted. Requires the msg sender to be the owner, approved, or operator",
        "params": {
          "_data": "bytes data to send along with a safe transfer check",
          "from": "current owner of the token",
          "to": "address to receive the ownership of the given token ID",
          "tokenId": "uint256 ID of the token to be transferred"
        }
      },
      "setApprovalForAll(address,bool)": {
        "details": "Sets or unsets the approval of a given operator An operator is allowed to transfer all tokens of the sender on their behalf",
        "params": {
          "approved": "representing the status of the approval to be set",
          "to": "operator address to set the approval"
        }
      },
      "supportsInterface(bytes4)": {
        "details": "implement supportsInterface(bytes4) using a lookup table"
      },
      "transferFrom(address,address,uint256)": {
        "details": "Transfers the ownership of a given token ID to another address Usage of this method is discouraged, use `safeTransferFrom` whenever possible Requires the msg sender to be the owner, approved, or operator",
        "params": {
          "from": "current owner of the token",
          "to": "address to receive the ownership of the given token ID",
          "tokenId": "uint256 ID of the token to be transferred"
        }
      },
      "transferOwnership(address)": {
        "details": "Allows the current owner to transfer control of the contract to a newOwner.",
        "params": {
          "newOwner": "The address to transfer ownership to."
        }
      }
    }
  },
  "userdoc": {
    "methods": {
      "renounceOwnership()": {
        "notice": "Renouncing to ownership will leave the contract without an owner. It will not be possible to call the functions with the `onlyOwner` modifier anymore."
      }
    }
  }
}