{
  "contractName": "DMCT",
  "abi": [
    {
      "anonymous": false,
      "inputs": [
        {
          "indexed": true,
          "internalType": "address",
          "name": "owner",
          "type": "address"
        },
        {
          "indexed": true,
          "internalType": "address",
          "name": "approved",
          "type": "address"
        },
        {
          "indexed": true,
          "internalType": "uint256",
          "name": "tokenId",
          "type": "uint256"
        }
      ],
      "name": "Approval",
      "type": "event"
    },
    {
      "anonymous": false,
      "inputs": [
        {
          "indexed": true,
          "internalType": "address",
          "name": "owner",
          "type": "address"
        },
        {
          "indexed": true,
          "internalType": "address",
          "name": "operator",
          "type": "address"
        },
        {
          "indexed": false,
          "internalType": "bool",
          "name": "approved",
          "type": "bool"
        }
      ],
      "name": "ApprovalForAll",
      "type": "event"
    },
    {
      "anonymous": false,
      "inputs": [
        {
          "indexed": false,
          "internalType": "string",
          "name": "_hash",
          "type": "string"
        }
      ],
      "name": "DataStoredInTheLog",
      "type": "event"
    },
    {
      "anonymous": false,
      "inputs": [
        {
          "indexed": true,
          "internalType": "address",
          "name": "previousOwner",
          "type": "address"
        },
        {
          "indexed": true,
          "internalType": "address",
          "name": "newOwner",
          "type": "address"
        }
      ],
      "name": "OwnershipTransferred",
      "type": "event"
    },
    {
      "anonymous": false,
      "inputs": [
        {
          "indexed": false,
          "internalType": "uint256[]",
          "name": "Licenses",
          "type": "uint256[]"
        }
      ],
      "name": "ReturnCertificateLicenses",
      "type": "event"
    },
    {
      "anonymous": false,
      "inputs": [
        {
          "indexed": false,
          "internalType": "uint256",
          "name": "index",
          "type": "uint256"
        },
        {
          "indexed": false,
          "internalType": "uint256",
          "name": "CID",
          "type": "uint256"
        },
        {
          "indexed": false,
          "internalType": "uint256",
          "name": "AID",
          "type": "uint256"
        },
        {
          "components": [
            {
              "internalType": "bytes32",
              "name": "multiHash",
              "type": "bytes32"
            },
            {
              "internalType": "bytes4",
              "name": "multiHash_Function",
              "type": "bytes4"
            }
          ],
          "indexed": false,
          "internalType": "struct IPFSEngine.IpfsHash",
          "name": "url",
          "type": "tuple"
        },
        {
          "indexed": false,
          "internalType": "address",
          "name": "msgsender",
          "type": "address"
        },
        {
          "indexed": false,
          "internalType": "address[]",
          "name": "onwershipHistory",
          "type": "address[]"
        },
        {
          "indexed": false,
          "internalType": "uint256[]",
          "name": "licenses",
          "type": "uint256[]"
        }
      ],
      "name": "ReturnCreateCertificate",
      "type": "event"
    },
    {
      "anonymous": false,
      "inputs": [
        {
          "indexed": false,
          "internalType": "address",
          "name": "userAddress",
          "type": "address"
        },
        {
          "indexed": false,
          "internalType": "string",
          "name": "userName",
          "type": "string"
        },
        {
          "indexed": false,
          "internalType": "uint256[]",
          "name": "portfolio",
          "type": "uint256[]"
        }
      ],
      "name": "ReturnCreateUser",
      "type": "event"
    },
    {
      "anonymous": false,
      "inputs": [
        {
          "indexed": false,
          "internalType": "bool",
          "name": "tokenStatus",
          "type": "bool"
        }
      ],
      "name": "ReturnDestroyToken",
      "type": "event"
    },
    {
      "anonymous": false,
      "inputs": [
        {
          "indexed": false,
          "internalType": "string",
          "name": "message",
          "type": "string"
        }
      ],
      "name": "ReturnMessage",
      "type": "event"
    },
    {
      "anonymous": false,
      "inputs": [
        {
          "indexed": false,
          "internalType": "uint256[]",
          "name": "Number",
          "type": "uint256[]"
        }
      ],
      "name": "ReturnTestArrayData",
      "type": "event"
    },
    {
      "anonymous": false,
      "inputs": [
        {
          "indexed": false,
          "internalType": "bool",
          "name": "Boolean",
          "type": "bool"
        }
      ],
      "name": "ReturnTestBoolData",
      "type": "event"
    },
    {
      "anonymous": false,
      "inputs": [
        {
          "indexed": false,
          "internalType": "uint256",
          "name": "Number",
          "type": "uint256"
        },
        {
          "indexed": false,
          "internalType": "string",
          "name": "String",
          "type": "string"
        },
        {
          "indexed": false,
          "internalType": "address",
          "name": "Address",
          "type": "address"
        }
      ],
      "name": "ReturnTestData",
      "type": "event"
    },
    {
      "anonymous": false,
      "inputs": [
        {
          "indexed": false,
          "internalType": "address",
          "name": "creator",
          "type": "address"
        },
        {
          "indexed": false,
          "internalType": "address",
          "name": "owner",
          "type": "address"
        },
        {
          "indexed": false,
          "internalType": "address[]",
          "name": "ownershipHistory",
          "type": "address[]"
        },
        {
          "indexed": false,
          "internalType": "uint256[]",
          "name": "licenses",
          "type": "uint256[]"
        }
      ],
      "name": "ReturnTransferCertificate",
      "type": "event"
    },
    {
      "anonymous": false,
      "inputs": [
        {
          "indexed": true,
          "internalType": "address",
          "name": "from",
          "type": "address"
        },
        {
          "indexed": true,
          "internalType": "address",
          "name": "to",
          "type": "address"
        },
        {
          "indexed": true,
          "internalType": "uint256",
          "name": "tokenId",
          "type": "uint256"
        }
      ],
      "name": "Transfer",
      "type": "event"
    },
    {
      "anonymous": false,
      "inputs": [
        {
          "indexed": false,
          "internalType": "uint256",
          "name": "AssetID",
          "type": "uint256"
        }
      ],
      "name": "returnAID",
      "type": "event"
    },
    {
      "anonymous": false,
      "inputs": [
        {
          "indexed": false,
          "internalType": "uint256",
          "name": "CertificateID",
          "type": "uint256"
        }
      ],
      "name": "returnCID",
      "type": "event"
    },
    {
      "anonymous": false,
      "inputs": [
        {
          "indexed": false,
          "internalType": "uint256",
          "name": "LicenseID",
          "type": "uint256"
        }
      ],
      "name": "returnLID",
      "type": "event"
    },
    {
      "inputs": [
        {
          "internalType": "uint256",
          "name": "",
          "type": "uint256"
        }
      ],
      "name": "AssetIDS",
      "outputs": [
        {
          "internalType": "uint256",
          "name": "",
          "type": "uint256"
        }
      ],
      "stateMutability": "view",
      "type": "function",
      "constant": true
    },
    {
      "inputs": [
        {
          "internalType": "uint256",
          "name": "",
          "type": "uint256"
        }
      ],
      "name": "CertificateIDS",
      "outputs": [
        {
          "internalType": "uint256",
          "name": "",
          "type": "uint256"
        }
      ],
      "stateMutability": "view",
      "type": "function",
      "constant": true
    },
    {
      "inputs": [
        {
          "internalType": "uint256",
          "name": "",
          "type": "uint256"
        }
      ],
      "name": "LIDToCID",
      "outputs": [
        {
          "internalType": "uint256",
          "name": "",
          "type": "uint256"
        }
      ],
      "stateMutability": "view",
      "type": "function",
      "constant": true
    },
    {
      "inputs": [
        {
          "internalType": "uint256",
          "name": "",
          "type": "uint256"
        }
      ],
      "name": "LicenseIDS",
      "outputs": [
        {
          "internalType": "uint256",
          "name": "",
          "type": "uint256"
        }
      ],
      "stateMutability": "view",
      "type": "function",
      "constant": true
    },
    {
      "inputs": [
        {
          "internalType": "address",
          "name": "to",
          "type": "address"
        },
        {
          "internalType": "uint256",
          "name": "tokenId",
          "type": "uint256"
        }
      ],
      "name": "approve",
      "outputs": [],
      "stateMutability": "nonpayable",
      "type": "function"
    },
    {
      "inputs": [
        {
          "internalType": "address",
          "name": "owner",
          "type": "address"
        }
      ],
      "name": "balanceOf",
      "outputs": [
        {
          "internalType": "uint256",
          "name": "",
          "type": "uint256"
        }
      ],
      "stateMutability": "view",
      "type": "function",
      "constant": true
    },
    {
      "inputs": [],
      "name": "baseURI",
      "outputs": [
        {
          "internalType": "string",
          "name": "",
          "type": "string"
        }
      ],
      "stateMutability": "view",
      "type": "function",
      "constant": true
    },
    {
      "inputs": [
        {
          "internalType": "string",
          "name": "userName",
          "type": "string"
        }
      ],
      "name": "createUser",
      "outputs": [],
      "stateMutability": "nonpayable",
      "type": "function"
    },
    {
      "inputs": [],
      "name": "deleteUser",
      "outputs": [],
      "stateMutability": "nonpayable",
      "type": "function"
    },
    {
      "inputs": [
        {
          "internalType": "uint256",
          "name": "tokenId",
          "type": "uint256"
        }
      ],
      "name": "getApproved",
      "outputs": [
        {
          "internalType": "address",
          "name": "",
          "type": "address"
        }
      ],
      "stateMutability": "view",
      "type": "function",
      "constant": true
    },
    {
      "inputs": [
        {
          "internalType": "address",
          "name": "owner",
          "type": "address"
        },
        {
          "internalType": "address",
          "name": "operator",
          "type": "address"
        }
      ],
      "name": "isApprovedForAll",
      "outputs": [
        {
          "internalType": "bool",
          "name": "",
          "type": "bool"
        }
      ],
      "stateMutability": "view",
      "type": "function",
      "constant": true
    },
    {
      "inputs": [],
      "name": "name",
      "outputs": [
        {
          "internalType": "string",
          "name": "",
          "type": "string"
        }
      ],
      "stateMutability": "view",
      "type": "function",
      "constant": true
    },
    {
      "inputs": [],
      "name": "owner",
      "outputs": [
        {
          "internalType": "address",
          "name": "",
          "type": "address"
        }
      ],
      "stateMutability": "view",
      "type": "function",
      "constant": true
    },
    {
      "inputs": [
        {
          "internalType": "uint256",
          "name": "tokenId",
          "type": "uint256"
        }
      ],
      "name": "ownerOf",
      "outputs": [
        {
          "internalType": "address",
          "name": "",
          "type": "address"
        }
      ],
      "stateMutability": "view",
      "type": "function",
      "constant": true
    },
    {
      "inputs": [],
      "name": "renounceOwnership",
      "outputs": [],
      "stateMutability": "nonpayable",
      "type": "function"
    },
    {
      "inputs": [
        {
          "internalType": "address",
          "name": "from",
          "type": "address"
        },
        {
          "internalType": "address",
          "name": "to",
          "type": "address"
        },
        {
          "internalType": "uint256",
          "name": "tokenId",
          "type": "uint256"
        }
      ],
      "name": "safeTransferFrom",
      "outputs": [],
      "stateMutability": "nonpayable",
      "type": "function"
    },
    {
      "inputs": [
        {
          "internalType": "address",
          "name": "from",
          "type": "address"
        },
        {
          "internalType": "address",
          "name": "to",
          "type": "address"
        },
        {
          "internalType": "uint256",
          "name": "tokenId",
          "type": "uint256"
        },
        {
          "internalType": "bytes",
          "name": "_data",
          "type": "bytes"
        }
      ],
      "name": "safeTransferFrom",
      "outputs": [],
      "stateMutability": "nonpayable",
      "type": "function"
    },
    {
      "inputs": [
        {
          "internalType": "address",
          "name": "operator",
          "type": "address"
        },
        {
          "internalType": "bool",
          "name": "approved",
          "type": "bool"
        }
      ],
      "name": "setApprovalForAll",
      "outputs": [],
      "stateMutability": "nonpayable",
      "type": "function"
    },
    {
      "inputs": [
        {
          "internalType": "string",
          "name": "_hash",
          "type": "string"
        }
      ],
      "name": "storeDataAsLog",
      "outputs": [],
      "stateMutability": "nonpayable",
      "type": "function"
    },
    {
      "inputs": [
        {
          "internalType": "string",
          "name": "_hash",
          "type": "string"
        }
      ],
      "name": "storeDataAsString",
      "outputs": [],
      "stateMutability": "nonpayable",
      "type": "function"
    },
    {
      "inputs": [
        {
          "internalType": "bytes32",
          "name": "multiHash",
          "type": "bytes32"
        },
        {
          "internalType": "bytes4",
          "name": "multiHash_Function",
          "type": "bytes4"
        }
      ],
      "name": "storeDataAsStruct",
      "outputs": [
        {
          "components": [
            {
              "internalType": "bytes32",
              "name": "multiHash",
              "type": "bytes32"
            },
            {
              "internalType": "bytes4",
              "name": "multiHash_Function",
              "type": "bytes4"
            }
          ],
          "internalType": "struct IPFSEngine.IpfsHash",
          "name": "IpfsHashMemory",
          "type": "tuple"
        }
      ],
      "stateMutability": "pure",
      "type": "function",
      "constant": true
    },
    {
      "inputs": [
        {
          "internalType": "bytes4",
          "name": "interfaceId",
          "type": "bytes4"
        }
      ],
      "name": "supportsInterface",
      "outputs": [
        {
          "internalType": "bool",
          "name": "",
          "type": "bool"
        }
      ],
      "stateMutability": "view",
      "type": "function",
      "constant": true
    },
    {
      "inputs": [],
      "name": "symbol",
      "outputs": [
        {
          "internalType": "string",
          "name": "",
          "type": "string"
        }
      ],
      "stateMutability": "view",
      "type": "function",
      "constant": true
    },
    {
      "inputs": [
        {
          "internalType": "uint256",
          "name": "index",
          "type": "uint256"
        }
      ],
      "name": "tokenByIndex",
      "outputs": [
        {
          "internalType": "uint256",
          "name": "",
          "type": "uint256"
        }
      ],
      "stateMutability": "view",
      "type": "function",
      "constant": true
    },
    {
      "inputs": [
        {
          "internalType": "address",
          "name": "owner",
          "type": "address"
        },
        {
          "internalType": "uint256",
          "name": "index",
          "type": "uint256"
        }
      ],
      "name": "tokenOfOwnerByIndex",
      "outputs": [
        {
          "internalType": "uint256",
          "name": "",
          "type": "uint256"
        }
      ],
      "stateMutability": "view",
      "type": "function",
      "constant": true
    },
    {
      "inputs": [
        {
          "internalType": "uint256",
          "name": "tokenId",
          "type": "uint256"
        }
      ],
      "name": "tokenURI",
      "outputs": [
        {
          "internalType": "string",
          "name": "",
          "type": "string"
        }
      ],
      "stateMutability": "view",
      "type": "function",
      "constant": true
    },
    {
      "inputs": [],
      "name": "totalSupply",
      "outputs": [
        {
          "internalType": "uint256",
          "name": "",
          "type": "uint256"
        }
      ],
      "stateMutability": "view",
      "type": "function",
      "constant": true
    },
    {
      "inputs": [
        {
          "internalType": "address",
          "name": "from",
          "type": "address"
        },
        {
          "internalType": "address",
          "name": "to",
          "type": "address"
        },
        {
          "internalType": "uint256",
          "name": "tokenId",
          "type": "uint256"
        }
      ],
      "name": "transferFrom",
      "outputs": [],
      "stateMutability": "nonpayable",
      "type": "function"
    },
    {
      "inputs": [
        {
          "internalType": "address",
          "name": "newOwner",
          "type": "address"
        }
      ],
      "name": "transferOwnership",
      "outputs": [],
      "stateMutability": "nonpayable",
      "type": "function"
    },
    {
      "inputs": [
        {
          "internalType": "string",
          "name": "userName",
          "type": "string"
        }
      ],
      "name": "updateUser",
      "outputs": [],
      "stateMutability": "nonpayable",
      "type": "function"
    },
    {
      "inputs": [
        {
          "internalType": "string",
          "name": "title",
          "type": "string"
        },
        {
          "internalType": "bytes8",
          "name": "assetHash",
          "type": "bytes8"
        },
        {
          "internalType": "bytes32",
          "name": "urlHash",
          "type": "bytes32"
        },
        {
          "internalType": "bytes4",
          "name": "urlHash_Function",
          "type": "bytes4"
        }
      ],
      "name": "createCertificate",
      "outputs": [
        {
          "internalType": "uint256",
          "name": "certificateID",
          "type": "uint256"
        },
        {
          "internalType": "uint256",
          "name": "assetID",
          "type": "uint256"
        }
      ],
      "stateMutability": "nonpayable",
      "type": "function"
    },
    {
      "inputs": [
        {
          "internalType": "uint256",
          "name": "certificateID",
          "type": "uint256"
        },
        {
          "internalType": "address",
          "name": "licenseOwner",
          "type": "address"
        },
        {
          "internalType": "bytes32",
          "name": "urlHash",
          "type": "bytes32"
        },
        {
          "internalType": "bytes4",
          "name": "urlHash_Function",
          "type": "bytes4"
        }
      ],
      "name": "createLicense",
      "outputs": [
        {
          "internalType": "uint256",
          "name": "licenseID",
          "type": "uint256"
        }
      ],
      "stateMutability": "nonpayable",
      "type": "function"
    },
    {
      "inputs": [
        {
          "internalType": "uint256",
          "name": "tokenID",
          "type": "uint256"
        }
      ],
      "name": "destroyToken",
      "outputs": [],
      "stateMutability": "nonpayable",
      "type": "function"
    },
    {
      "inputs": [
        {
          "internalType": "address",
          "name": "to",
          "type": "address"
        },
        {
          "internalType": "uint256",
          "name": "certificateID",
          "type": "uint256"
        }
      ],
      "name": "transferCertificte",
      "outputs": [],
      "stateMutability": "nonpayable",
      "type": "function"
    }
  ],
  "bytecode": "0x6020600f556d04ee2d6d415b85acef810000000060108190556011556d09dc5ada82b70b59df02000000006012556d0eca8847c4129106ce83000000006013556000601b55601d60809081527f4469676974616c204d6564696120436f7079726967687420546f6b656e00000060a052610100604052600460c090815263111350d560e21b60e052620000a26301ffc9a760e01b6001600160e01b036200018b16565b8151620000b7906006906020850190620001eb565b508051620000cd906007906020840190620001eb565b50620000e96380ac58cd60e01b6001600160e01b036200018b16565b62000104635b5e139f60e01b6001600160e01b036200018b16565b6200011f63780e9d6360e01b6001600160e01b036200018b16565b5060009050620001376001600160e01b03620001e616565b600a80546001600160a01b0319166001600160a01b038316908117909155604051919250906000907f8be0079c531659141344cd1fd0a4f28419497f9722a3daafe3b4186f6b6457e0908290a350620002c4565b6001600160e01b03198082161415620001c15760405162461bcd60e51b8152600401620001b8906200028d565b60405180910390fd5b6001600160e01b0319166000908152602081905260409020805460ff19166001179055565b335b90565b828054600181600116156101000203166002900490600052602060002090601f016020900481019282601f106200022e57805160ff19168380011785556200025e565b828001600101855582156200025e579182015b828111156200025e57825182559160200191906001019062000241565b506200026c92915062000270565b5090565b620001e891905b808211156200026c576000815560010162000277565b6020808252601c908201527f4552433136353a20696e76616c696420696e7465726661636520696400000000604082015260600190565b613baf80620002d46000396000f3fe608060405234801561001057600080fd5b50600436106102065760003560e01c80636352211e1161011a578063a22cb465116100ad578063cfd56b191161007c578063cfd56b191461043f578063d168614014610452578063e985e9c514610465578063f2fde38b14610478578063fd7d4c0e1461048b57610206565b8063a22cb465146103e6578063a52361d0146103f9578063b88d4fde14610419578063c87b56dd1461042c57610206565b8063715018a6116100e9578063715018a6146103bb5780638a7d124b146103c35780638da5cb5b146103d657806395d89b41146103de57610206565b80636352211e1461036c57806367c76a531461037f5780636c0360eb146103a057806370a08231146103a857610206565b806323b872dd1161019d57806342842e0e1161016c57806342842e0e1461030d5780634e325ed3146103205780634f6ccce714610333578063507ffba5146103465780635d3ea9c91461035957610206565b806323b872dd146102c15780632e8d9740146102d45780632f745c59146102e757806333242a19146102fa57610206565b8063081812fc116101d9578063081812fc14610273578063095ea7b3146102935780630b4f12f6146102a657806318160ddd146102b957610206565b806301ffc9a71461020b578063026ff05e1461023457806306fdde031461023e57806307040f1714610253575b600080fd5b61021e610219366004612d21565b61049e565b60405161022b9190613154565b60405180910390f35b61023c6104c1565b005b610246610537565b60405161022b919061315f565b610266610261366004612e1a565b6105ce565b60405161022b9190613a40565b610286610281366004612e02565b61085d565b60405161022b9190613000565b61023c6102a1366004612cbb565b6108a0565b61023c6102b4366004612d59565b610938565b610266610997565b61023c6102cf366004612bd8565b6109a8565b61023c6102e2366004612cbb565b6109e0565b6102666102f5366004612cbb565b610c65565b61023c610308366004612d59565b610c96565b61023c61031b366004612bd8565b610cd0565b61026661032e366004612e02565b610ceb565b610266610341366004612e02565b610d09565b61023c610354366004612d59565b610d25565b610266610367366004612e02565b610e36565b61028661037a366004612e02565b610e48565b61039261038d366004612d8c565b610e76565b60405161022b929190613a49565b61024661135b565b6102666103b6366004612b89565b6113bc565b61023c611405565b61023c6103d1366004612e02565b611484565b6102866117ec565b6102466117fb565b61023c6103f4366004612c80565b61185c565b61040c610407366004612cfd565b61192a565b60405161022b9190613a32565b61023c610427366004612c18565b611947565b61024661043a366004612e02565b611986565b61023c61044d366004612d59565b611ad0565b610266610460366004612e02565b611ae3565b61021e610473366004612ba4565b611af0565b61023c610486366004612b89565b611b1e565b610266610499366004612e02565b611bd5565b6001600160e01b0319811660009081526020819052604090205460ff165b919050565b336000818152601a6020818152604080842080546001600160a01b03191681558151808401928390528581529590945291905291516105069260019092019190612824565b5060408051602080820183526000808352338152601a909152919091206105349160029091019060016128a2565b50565b60068054604080516020601f60026000196101006001881615020190951694909404938401819004810282018101909252828152606093909290918301828280156105c35780601f10610598576101008083540402835291602001916105c3565b820191906000526020600020905b8154815290600101906020018083116105a657829003601f168201915b505050505090505b90565b60008460135481106105fb5760405162461bcd60e51b81526004016105f2906131fc565b60405180910390fd5b3361060582611be2565b6001600160a01b03161461062b5760405162461bcd60e51b81526004016105f290613172565b6000818152601560205260409020600801546001600160a01b031633146106645760405162461bcd60e51b81526004016105f290613982565b60008681526015602052604090206008015461068b9087906001600160a01b031687611bed565b91506106956128e2565b50604080518082019091528481526001600160e01b0319841660208201526106bb6128f9565b506040805160a081018252600d805480835260208084018890526001600160a01b03808c16858701526060850187905260016080860181905283019093557fd7b6990105719101dabeb77144f2a3385c8033acd3af97e9423a695e81ad1eb590910187905560008b815260159091529290922060080154909161073f911685611c7e565b600088815260156020818152604080842060039081018054600180820183558288528588209091018b90558a87526016855283872088518155888601518183015588850151600280830180546001600160a01b0319166001600160a01b039093169290921790915560608a01518051958301959095559386015160048201805463ffffffff191660e09290921c91909117905560808901516005909101805460ff1916911515919091179055338752601a8552838720909201805492830181558652838620909101899055888552601783528185208d9055938c9052919052517fd49a4d28bb10172ee9a78709bdbfc91750333ca9c9012b22136a0471efb975f79161084a91613141565b60405180910390a1505050949350505050565b600061086882611c88565b6108845760405162461bcd60e51b81526004016105f2906136a0565b506000908152600460205260409020546001600160a01b031690565b60006108ab82610e48565b9050806001600160a01b0316836001600160a01b031614156108df5760405162461bcd60e51b81526004016105f290613843565b806001600160a01b03166108f1611c9b565b6001600160a01b0316148061090d575061090d81610473611c9b565b6109295760405162461bcd60e51b81526004016105f29061353b565b6109338383611c9f565b505050565b336000908152601a60205260409020546001600160a01b031661096d5760405162461bcd60e51b81526004016105f290613884565b336000908152601a60209081526040909120825161099392600190920191840190612824565b5050565b60006109a36002611d0d565b905090565b6109b96109b3611c9b565b82611d18565b6109d55760405162461bcd60e51b81526004016105f2906138b1565b610933838383611d95565b806013548110610a025760405162461bcd60e51b81526004016105f2906131fc565b33610a0c82611be2565b6001600160a01b031614610a325760405162461bcd60e51b81526004016105f290613172565b6000818152601560205260409020600801546001600160a01b03163314610a6b5760405162461bcd60e51b81526004016105f290613982565b610a753383611eb5565b1515600114610a965760405162461bcd60e51b81526004016105f290613721565b6013548210610ab75760405162461bcd60e51b81526004016105f2906139cb565b6000828152601560205260409020600801546001600160a01b0384811691161415610af45760405162461bcd60e51b81526004016105f2906135e2565b6000828152601560205260409020600a015460ff161515600114610b2a5760405162461bcd60e51b81526004016105f2906137bd565b610b35338484611ec1565b600082815260156020908152604082206008810180546001600160a01b0388166001600160a01b03199182168117909255600983018054600181018255908652938520909301805490931617909155908390526003015415610bf8575b600082815260156020526040902060030154601b5460001990910110610bf857610bea338460156000868152602001908152602001600020600301601b5481548110610bda57fe5b9060005260206000200154611ec1565b601b80546001019055610b92565b600082815260156020526040908190206007810154600882015492517f118156733240272377b9f5489d38ded92256543bb9d43c8295ec716f0ece503993610c58936001600160a01b039384169390911691600982019160030190613051565b60405180910390a1505050565b6001600160a01b0382166000908152600160205260408120610c8d908363ffffffff611ecc16565b90505b92915050565b7fdb08a06eba245dbd34ffbd08b80e14e9acdd66a8ca6f8f1f035348ced6ef7dc781604051610cc5919061315f565b60405180910390a150565b61093383838360405180602001604052806000815250611947565b600d8181548110610cf857fe5b600091825260209091200154905081565b600080610d1d60028463ffffffff611ed816565b509392505050565b336000908152601a60205260409020546001600160a01b031615610d5b5760405162461bcd60e51b81526004016105f2906134cd565b6040805160608101825233808252602080830185815284516000808252818401875285870191909152928352601a825293909120825181546001600160a01b0319166001600160a01b0390911617815592518051929392610dc29260018501920190612824565b5060408201518051610dde916002840191602090910190612937565b5050336000908152601a602052604090819020805491517f1762e6485dad7c291ae8191119acded92bd07cda85e738e1e570a5949d5a264b9350610cc5926001600160a01b031691600181019160029091019061308f565b60176020526000908152604090205481565b6000610c9082604051806060016040528060298152602001613b51602991396002919063ffffffff611ef416565b600080610e816128e2565b8481526001600160e01b031984166020820152610e9e8682611f0b565b91505b600e54601b541015610fed57610eb5612971565b60146000600e601b5481548110610ec857fe5b60009182526020808320919091015483528281019390935260409182019020815160808101835281548152600182015481850152600282015460c01b6001600160c01b0319168184015282518084019093526003820154835260049091015460e01b6001600160e01b031916928201929092526060820152601b54600e805492935085929091908110610f5757fe5b90600052602060002001541415610f805760405162461bcd60e51b81526004016105f290613a02565b866001600160c01b03191681604001516001600160c01b0319161415610fb85760405162461bcd60e51b81526004016105f290613404565b81516060820151511415610fde5760405162461bcd60e51b81526004016105f290613504565b50601b80546001019055610ea1565b610ff78233611f2f565b6000838152601860205260408120829055600e8054600181018255918190527fbb7b4a454dc3493923482f07822329ed19e8244eff582cc204f8554c3620c3fd909101849055549093506000190161104d612971565b506040805160808101825282815260208082018681526001600160c01b03198b16838501908152606084018781526000898152601485528681208651815593516001850155915160028401805467ffffffffffffffff191660c09290921c91909117905551805160038401558301516004909201805463ffffffff191660e09390931c929092179091558781526019909152919091208290556110ee6129a8565b6040805161014081018252600c54815260208082018990528183018890528251600080825291810190935290916060830191508152602080820187905260408083018e9052336060840181905260808401528051600080825292810190915260a0909201919050815260016020918201819052600c80548083019091557fdf6966c971051c3d54ec59162606531493a51404a002842f56009d7e5cf4a8c701899055600089815260158352604090819020845181558484015192810192909255830151600282015560608301518051939450849391926111d692600385019290910190612937565b5060808201518051600483015560209081015160058301805463ffffffff191660e09290921c91909117905560a083015180516112199260068501920190612824565b5060c08201516007820180546001600160a01b039283166001600160a01b03199182161790915560e08401516008840180549190931691161790556101008201518051611270916009840191602090910190612a15565b506101209190910151600a909101805460ff19169115159190911790556000868152601560209081526040808320600901805460018181018355918552838520018054336001600160a01b03199091168117909155808552601a845291842060020180549182018155845291909220018790556112ed9087611c7e565b80516020808301516000898152601590925260409182902091517fd0269f6fd5d6d7503bdcb2ba2498d12e35613b699b28aef8f930c268b627afa793611346939092918a918a9133916009810191600390910190613a57565b60405180910390a15050505094509492505050565b60098054604080516020601f60026000196101006001881615020190951694909404938401819004810282018101909252828152606093909290918301828280156105c35780601f10610598576101008083540402835291602001916105c3565b60006001600160a01b0382166113e45760405162461bcd60e51b81526004016105f290613598565b6001600160a01b0382166000908152600160205260409020610c9090611d0d565b61140d611c9b565b600a546001600160a01b0390811691161461143a5760405162461bcd60e51b81526004016105f2906136ec565b600a546040516000916001600160a01b0316907f8be0079c531659141344cd1fd0a4f28419497f9722a3daafe3b4186f6b6457e0908390a3600a80546001600160a01b0319169055565b6013548110611667575b60008181526017602090815260408083205483526015909152902060030154601b546000199091011061160057600081815260176020908152604080832054835260159091529020601b546003909101805483929081106114eb57fe5b906000526020600020015414156115f2576000818152601760209081526040808320548352601590915290206003018054600019810190811061152a57fe5b90600052602060002001546015600060176000858152602001908152602001600020548152602001908152602001600020600301601b548154811061156b57fe5b600091825260208083209190910192909255828152601782526040808220548252601590925220600301805460001981019081106115a557fe5b60009182526020808320909101829055828252601781526040808320548352601590915290206003018054806115d757fe5b60019003818190600052602060002001600090559055611600565b601b8054600101905561148e565b6000818152601660205260409020600501805460ff191690556116233382611f4f565b7f486ba50ba1b2ac0157dc7c2b5bb2953cc5b90e298b682f197a4019d303de836661164d82611f83565b60405161165a9190613154565b60405180910390a1610534565b600081815260196020526040812054600e80549192916018918391600019810190811061169057fe5b9060005260206000200154815260200190815260200160002054905080600c6001600c8054905003815481106116c257fe5b906000526020600020015414611708577fad70efb6faf0745f98f66743197c2e122372a10573177c92191a9e85eb8a24db6040516116ff90613339565b60405180910390a15b600e8054600019810190811061171a57fe5b9060005260206000200154600e838154811061173257fe5b6000918252602080832090910192909255828152601990915260409020829055600e8054600019810190811061176457fe5b6000918252602082200155600e80548061177a57fe5b6000828152602080822083016000199081018390559092019092558482526015905260409020600a01805460ff191690556117b53384611f4f565b7f486ba50ba1b2ac0157dc7c2b5bb2953cc5b90e298b682f197a4019d303de83666117df84611f83565b604051610c589190613154565b600a546001600160a01b031690565b60078054604080516020601f60026000196101006001881615020190951694909404938401819004810282018101909252828152606093909290918301828280156105c35780601f10610598576101008083540402835291602001916105c3565b611864611c9b565b6001600160a01b0316826001600160a01b031614156118955760405162461bcd60e51b81526004016105f2906133cd565b80600560006118a2611c9b565b6001600160a01b03908116825260208083019390935260409182016000908120918716808252919093529120805460ff1916921515929092179091556118e6611c9b565b6001600160a01b03167f17307eab39ab6107e8899845ad3d59bd9653f200f220920489ca2b5937696c318360405161191e9190613154565b60405180910390a35050565b6119326128e2565b9182526001600160e01b031916602082015290565b611958611952611c9b565b83611d18565b6119745760405162461bcd60e51b81526004016105f2906138b1565b61198084848484611f8e565b50505050565b606061199182611c88565b6119ad5760405162461bcd60e51b81526004016105f2906137f4565b60008281526008602090815260409182902080548351601f6002600019610100600186161502019093169290920491820184900484028101840190945280845260609392830182828015611a425780601f10611a1757610100808354040283529160200191611a42565b820191906000526020600020905b815481529060010190602001808311611a2557829003601f168201915b505060095493945050505060026000196101006001841615020190911604611a6b5790506104bc565b805115611a9d57600981604051602001611a86929190612f34565b6040516020818303038152906040529150506104bc565b6009611aa884611fc1565b604051602001611ab9929190612f34565b604051602081830303815290604052915050919050565b805161099390600b906020840190612824565b600e8181548110610cf857fe5b6001600160a01b03918216600090815260056020908152604080832093909416825291909152205460ff1690565b611b26611c9b565b600a546001600160a01b03908116911614611b535760405162461bcd60e51b81526004016105f2906136ec565b6001600160a01b038116611b795760405162461bcd60e51b81526004016105f290613285565b600a546040516001600160a01b038084169216907f8be0079c531659141344cd1fd0a4f28419497f9722a3daafe3b4186f6b6457e090600090a3600a80546001600160a01b0319166001600160a01b0392909216919091179055565b600c8181548110610cf857fe5b6000610c9082610e48565b6000611c766013546010546002878787604051602001611c0f93929190612fd5565b60408051601f1981840301815290829052611c2991612f18565b602060405180830381855afa158015611c46573d6000803e3d6000fd5b5050506040513d601f19601f82011682018060405250611c699190810190612ce5565b81611c7057fe5b06612085565b949350505050565b61099382826120aa565b6000610c9060028363ffffffff61217a16565b3390565b600081815260046020526040902080546001600160a01b0319166001600160a01b0384169081179091558190611cd482610e48565b6001600160a01b03167f8c5be1e5ebec7d5bd14f71427d1e84f3dd0314c0f7b2291e5b200ac8c7c3b92560405160405180910390a45050565b6000610c9082612186565b6000611d2382611c88565b611d3f5760405162461bcd60e51b81526004016105f290613481565b6000611d4a83610e48565b9050806001600160a01b0316846001600160a01b03161480611d855750836001600160a01b0316611d7a8461085d565b6001600160a01b0316145b80611c765750611c768185611af0565b826001600160a01b0316611da882610e48565b6001600160a01b031614611dce5760405162461bcd60e51b81526004016105f290613774565b6001600160a01b038216611df45760405162461bcd60e51b81526004016105f290613389565b611dff838383610933565b611e0a600082611c9f565b6001600160a01b0383166000908152600160205260409020611e32908263ffffffff61218a16565b506001600160a01b0382166000908152600160205260409020611e5b908263ffffffff61219616565b50611e6e6002828463ffffffff6121a216565b5080826001600160a01b0316846001600160a01b03167fddf252ad1be2c89b69c2b068fc378daa952ba7f163c4a11628f55a4df523b3ef60405160405180910390a4505050565b6000610c8d8383611d18565b610933838383610cd0565b6000610c8d83836121b8565b6000808080611ee786866121fd565b9097909650945050505050565b6000611f01848484612259565b90505b9392505050565b6000610c8d6011546010546002868660000151604051602001611c0f929190612efe565b6000610c8d60125460105460028686604051602001611c0f929190612fb5565b611f598282611eb5565b1515600114611f7a5760405162461bcd60e51b81526004016105f290613902565b610993816122b8565b6000610c9082611c88565b611f99848484611d95565b611fa584848484612391565b6119805760405162461bcd60e51b81526004016105f290613233565b606081611fe657506040805180820190915260018152600360fc1b60208201526104bc565b8160005b8115611ffe57600101600a82049150611fea565b6060816040519080825280601f01601f19166020018201604052801561202b576020820181803883390190505b50859350905060001982015b831561207c57600a840660300160f81b8282806001900393508151811061205a57fe5b60200101906001600160f81b031916908160001a905350600a84049350612037565b50949350505050565b600082820183811015610c8d5760405162461bcd60e51b81526004016105f290613302565b6001600160a01b0382166120d05760405162461bcd60e51b81526004016105f29061366b565b6120d981611c88565b156120f65760405162461bcd60e51b81526004016105f2906132cb565b61210260008383610933565b6001600160a01b038216600090815260016020526040902061212a908263ffffffff61219616565b5061213d6002828463ffffffff6121a216565b5060405181906001600160a01b038416906000907fddf252ad1be2c89b69c2b068fc378daa952ba7f163c4a11628f55a4df523b3ef908290a45050565b6000610c8d8383612476565b5490565b6000610c8d838361248e565b6000610c8d8383612554565b6000611c7684846001600160a01b03851661259e565b815460009082106121db5760405162461bcd60e51b81526004016105f2906131ba565b8260000182815481106121ea57fe5b9060005260206000200154905092915050565b8154600090819083106122225760405162461bcd60e51b81526004016105f290613629565b600084600001848154811061223357fe5b906000526020600020906002020190508060000154816001015492509250509250929050565b600082815260018401602052604081205482816122895760405162461bcd60e51b81526004016105f2919061315f565b5084600001600182038154811061229c57fe5b9060005260206000209060020201600101549150509392505050565b60006122c382610e48565b90506122d181600084610933565b6122dc600083611c9f565b600082815260086020526040902054600260001961010060018416150201909116041561231a57600082815260086020526040812061231a91612a76565b6001600160a01b0381166000908152600160205260409020612342908363ffffffff61218a16565b5061235460028363ffffffff61263516565b5060405182906000906001600160a01b038416907fddf252ad1be2c89b69c2b068fc378daa952ba7f163c4a11628f55a4df523b3ef908390a45050565b60006123a5846001600160a01b0316612641565b6123b157506001611c76565b606061243f630a85bd0160e11b6123c6611c9b565b8887876040516024016123dc9493929190613014565b604051602081830303815290604052906001600160e01b0319166020820180516001600160e01b038381831617835250505050604051806060016040528060328152602001613b1f603291396001600160a01b038816919063ffffffff61264716565b90506000818060200190516124579190810190612d3d565b6001600160e01b031916630a85bd0160e11b1492505050949350505050565b60009081526001919091016020526040902054151590565b6000818152600183016020526040812054801561254a57835460001980830191908101906000908790839081106124c157fe5b90600052602060002001549050808760000184815481106124de57fe5b60009182526020808320909101929092558281526001898101909252604090209084019055865487908061250e57fe5b60019003818190600052602060002001600090559055866001016000878152602001908152602001600020600090556001945050505050610c90565b6000915050610c90565b60006125608383612476565b61259657508154600181810184556000848152602080822090930184905584548482528286019093526040902091909155610c90565b506000610c90565b600082815260018401602052604081205480612603575050604080518082018252838152602080820184815286546001818101895560008981528481209551600290930290950191825591519082015586548684528188019092529290912055611f04565b8285600001600183038154811061261657fe5b9060005260206000209060020201600101819055506000915050611f04565b6000610c8d8383612656565b3b151590565b6060611c76848460008561272a565b6000818152600183016020526040812054801561254a578354600019808301919081019060009087908390811061268957fe5b90600052602060002090600202019050808760000184815481106126a957fe5b6000918252602080832084546002909302019182556001938401549184019190915583548252898301905260409020908401905586548790806126e857fe5b6000828152602080822060026000199094019384020182815560019081018390559290935588815289820190925260408220919091559450610c909350505050565b60608247101561274c5760405162461bcd60e51b81526004016105f29061343b565b61275585612641565b6127715760405162461bcd60e51b81526004016105f29061394b565b60006060866001600160a01b0316858760405161278e9190612f18565b60006040518083038185875af1925050503d80600081146127cb576040519150601f19603f3d011682016040523d82523d6000602084013e6127d0565b606091505b50915091506127e08282866127eb565b979650505050505050565b606083156127fa575081611f04565b82511561280a5782518084602001fd5b8160405162461bcd60e51b81526004016105f2919061315f565b828054600181600116156101000203166002900490600052602060002090601f016020900481019282601f1061286557805160ff1916838001178555612892565b82800160010185558215612892579182015b82811115612892578251825591602001919060010190612877565b5061289e929150612ab6565b5090565b828054828255906000526020600020908101928215612892579160200282015b82811115612892578251829060ff169055916020019190600101906128c2565b604080518082019091526000808252602082015290565b6040518060a00160405280600081526020016000815260200160006001600160a01b0316815260200161292a6128e2565b8152600060209091015290565b8280548282559060005260206000209081019282156128925791602002820182811115612892578251825591602001919060010190612877565b6040518060800160405280600081526020016000815260200160006001600160c01b03191681526020016129a36128e2565b905290565b604051806101400160405280600081526020016000815260200160008152602001606081526020016129d86128e2565b81526020016060815260200160006001600160a01b0316815260200160006001600160a01b03168152602001606081526020016000151581525090565b828054828255906000526020600020908101928215612a6a579160200282015b82811115612a6a57825182546001600160a01b0319166001600160a01b03909116178255602090920191600190910190612a35565b5061289e929150612ad0565b50805460018160011615610100020316600290046000825580601f10612a9c5750610534565b601f01602090049060005260206000209081019061053491905b6105cb91905b8082111561289e5760008155600101612abc565b6105cb91905b8082111561289e5780546001600160a01b0319168155600101612ad6565b80356001600160a01b0381168114610c9057600080fd5b600082601f830112612b1b578081fd5b813567ffffffffffffffff80821115612b32578283fd5b604051601f8301601f191681016020018281118282101715612b52578485fd5b604052828152925082848301602001861015612b6d57600080fd5b8260208601602083013760006020848301015250505092915050565b600060208284031215612b9a578081fd5b610c8d8383612af4565b60008060408385031215612bb6578081fd5b612bc08484612af4565b9150612bcf8460208501612af4565b90509250929050565b600080600060608486031215612bec578081fd5b8335612bf781613af3565b92506020840135612c0781613af3565b929592945050506040919091013590565b60008060008060808587031215612c2d578081fd5b612c378686612af4565b9350612c468660208701612af4565b925060408501359150606085013567ffffffffffffffff811115612c68578182fd5b612c7487828801612b0b565b91505092959194509250565b60008060408385031215612c92578182fd5b612c9c8484612af4565b915060208301358015158114612cb0578182fd5b809150509250929050565b60008060408385031215612ccd578182fd5b612cd78484612af4565b946020939093013593505050565b600060208284031215612cf6578081fd5b5051919050565b60008060408385031215612d0f578182fd5b823591506020830135612cb081613b08565b600060208284031215612d32578081fd5b8135610c8d81613b08565b600060208284031215612d4e578081fd5b8151610c8d81613b08565b600060208284031215612d6a578081fd5b813567ffffffffffffffff811115612d80578182fd5b611c7684828501612b0b565b60008060008060808587031215612da1578384fd5b843567ffffffffffffffff811115612db7578485fd5b612dc387828801612b0b565b94505060208501356001600160c01b031981168114612de0578384fd5b9250604085013591506060850135612df781613b08565b939692955090935050565b600060208284031215612e13578081fd5b5035919050565b60008060008060808587031215612e2f578182fd5b843593506020850135612de081613af3565b6000815480845260208085019450838352808320835b83811015612e7c5781546001600160a01b031687529582019560019182019101612e57565b509495945050505050565b6000815480845260208085019450838352808320835b83811015612e7c57815487529582019560019182019101612e9d565b60008151808452612ed1816020860160208601613ac7565b601f01601f19169290920160200192915050565b805182526020908101516001600160e01b031916910152565b6001600160c01b0319929092168252600882015260280190565b60008251612f2a818460208701613ac7565b9190910192915050565b6000808454600180821660008114612f535760018114612f6a57612f99565b60ff198316865260028304607f1686019350612f99565b600283048886526020808720875b83811015612f915781548a820152908501908201612f78565b505050860193505b5050508351612fac818360208801613ac7565b01949350505050565b91825260601b6bffffffffffffffffffffffff1916602082015260340190565b9283526bffffffffffffffffffffffff19606092831b81166020850152911b16603482015260480190565b6001600160a01b0391909116815260200190565b6001600160a01b038581168252841660208201526040810183905260806060820181905260009061304790830184612eb9565b9695505050505050565b6001600160a01b0385811682528416602082015260806040820181905260009061307d90830185612e41565b82810360608401526127e08185612e87565b60006060820160018060a01b038616835260206060818501528286546001808216600081146130c557600181146130e557613120565b6130d5607f600285041687613a40565b60ff198416815285019350613120565b600283046130f38188613a40565b6130fc8c613abb565b895b83811015613117578154838201529085019088016130fe565b91909101955050505b50505084810360408601526131358187612e87565b98975050505050505050565b600060208252610c8d6020830184612e87565b901515815260200190565b600060208252610c8d6020830184612eb9565b60208082526028908201527f4d73672e73656e646572206973206e6f7420746865206f776e6572206f6620746040820152673432903a37b5b2b760c11b606082015260800190565b60208082526022908201527f456e756d657261626c655365743a20696e646578206f7574206f6620626f756e604082015261647360f01b606082015260800190565b60208082526019908201527f434944206973206c6172676572207468616e20746865204c4900000000000000604082015260600190565b60208082526032908201527f4552433732313a207472616e7366657220746f206e6f6e20455243373231526560408201527131b2b4bb32b91034b6b83632b6b2b73a32b960711b606082015260800190565b60208082526026908201527f4f776e61626c653a206e6577206f776e657220697320746865207a65726f206160408201526564647265737360d01b606082015260800190565b6020808252601c908201527f4552433732313a20746f6b656e20616c7265616479206d696e74656400000000604082015260600190565b6020808252601b908201527f536166654d6174683a206164646974696f6e206f766572666c6f770000000000604082015260600190565b60208082526030908201527f4365727449445320616e6420417373657449445320617265206e6f7420696e6460408201526f6578656420696e2073657175656e636560801b606082015260800190565b60208082526024908201527f4552433732313a207472616e7366657220746f20746865207a65726f206164646040820152637265737360e01b606082015260800190565b60208082526019908201527f4552433732313a20617070726f766520746f2063616c6c657200000000000000604082015260600190565b60208082526018908201527f41737365744861736820616c7265616479206578697374730000000000000000604082015260600190565b60208082526026908201527f416464726573733a20696e73756666696369656e742062616c616e636520666f6040820152651c8818d85b1b60d21b606082015260800190565b6020808252602c908201527f4552433732313a206f70657261746f7220717565727920666f72206e6f6e657860408201526b34b9ba32b73a103a37b5b2b760a11b606082015260800190565b60208082526017908201527f54686973205573657220616c7265616479206578697374000000000000000000604082015260600190565b60208082526017908201527f417373657443494420616c726561647920657869737473000000000000000000604082015260600190565b60208082526038908201527f4552433732313a20617070726f76652063616c6c6572206973206e6f74206f7760408201527f6e6572206e6f7220617070726f76656420666f7220616c6c0000000000000000606082015260800190565b6020808252602a908201527f4552433732313a2062616c616e636520717565727920666f7220746865207a65604082015269726f206164647265737360b01b606082015260800190565b60208082526027908201527f54686973207573657220616c7265616479206f776e73207468697320636572746040820152666966696361746560c81b606082015260800190565b60208082526022908201527f456e756d657261626c654d61703a20696e646578206f7574206f6620626f756e604082015261647360f01b606082015260800190565b6020808252818101527f4552433732313a206d696e7420746f20746865207a65726f2061646472657373604082015260600190565b6020808252602c908201527f4552433732313a20617070726f76656420717565727920666f72206e6f6e657860408201526b34b9ba32b73a103a37b5b2b760a11b606082015260800190565b6020808252818101527f4f776e61626c653a2063616c6c6572206973206e6f7420746865206f776e6572604082015260600190565b60208082526033908201527f596f7520617265206e6f7420616e20616c6c6f77656420746f207472616e73666040820152726572207468697320636572746966696361746560681b606082015260800190565b60208082526029908201527f4552433732313a207472616e73666572206f6620746f6b656e2074686174206960408201526839903737ba1037bbb760b91b606082015260800190565b6020808252601a908201527f5468697320636572746966696361746520697320636c6f736564000000000000604082015260600190565b6020808252602f908201527f4552433732314d657461646174613a2055524920717565727920666f72206e6f60408201526e3732bc34b9ba32b73a103a37b5b2b760891b606082015260800190565b60208082526021908201527f4552433732313a20617070726f76616c20746f2063757272656e74206f776e656040820152603960f91b606082015260800190565b602080825260139082015272155cd95c88191bd95cc81b9bdd08195e1a5cdd606a1b604082015260600190565b60208082526031908201527f4552433732313a207472616e736665722063616c6c6572206973206e6f74206f6040820152701ddb995c881b9bdc88185c1c1c9bdd9959607a1b606082015260800190565b60208082526029908201527f596f7520617265206e6f7420617574686f72697a656420746f206275726e20746040820152683434b9903a37b5b2b760b91b606082015260800190565b6020808252601d908201527f416464726573733a2063616c6c20746f206e6f6e2d636f6e7472616374000000604082015260600190565b60208082526029908201527f596f7520617265206e6f7420746865206f776e6572206f66207468697320636560408201526872746966696361746560b81b606082015260800190565b6020808252601c908201527f596f752063616e6e6f74207472616e73666572204c6963656e73657300000000604082015260600190565b6020808252601690820152754173736574494420616c72656164792065786973747360501b604082015260600190565b60408101610c908284612ee5565b90815260200190565b918252602082015260400190565b6000610100898352886020840152876040840152613a786060840188612ee5565b6001600160a01b03861660a084015260c08301819052613a9a81840186612e41565b83810360e0850152613aac8186612e87565b9b9a5050505050505050505050565b60009081526020902090565b60005b83811015613ae2578181015183820152602001613aca565b838111156119805750506000910152565b6001600160a01b038116811461053457600080fd5b6001600160e01b03198116811461053457600080fdfe4552433732313a207472616e7366657220746f206e6f6e20455243373231526563656976657220696d706c656d656e7465724552433732313a206f776e657220717565727920666f72206e6f6e6578697374656e7420746f6b656ea2646970667358221220f019bf1a942c2a370dd24a476b3d1fbca619d8711432556c70c35737e35e82e964736f6c63430006020033",
  "source": "pragma solidity ^0.6.0;\npragma experimental ABIEncoderV2;\n\nimport \"../Models.sol\";\nimport \"../Artisan.sol\";\n\ncontract DMCT is Models, Artisan {\n    //Events\n    event ReturnCreateCertificate(\n        uint256 index,\n        uint256 CID,\n        uint256 AID,\n        IpfsHash url,\n        address msgsender,\n        address[] onwershipHistory,\n        uint256[] licenses\n    );\n    event ReturnCertificateLicenses(uint256[] Licenses);\n    event ReturnDestroyToken(bool tokenStatus);\n    event ReturnTransferCertificate(\n        address creator,\n        address owner,\n        address[] ownershipHistory,\n        uint256[] licenses\n    );\n    event ReturnTestData(uint256 Number, string String, address Address);\n    event ReturnTestBoolData(bool Boolean);\n    event ReturnTestArrayData(uint256[] Number);\n    event ReturnMessage(string message);\n    uint256 i = 0; //loop counter\n\n    //Create Functions\n    function createCertificate(\n        string memory title,\n        bytes8 assetHash,\n        bytes32 urlHash,\n        bytes4 urlHash_Function\n    ) public returns (uint256 certificateID, uint256 assetID) {\n        IpfsHash memory IpfsUrl;\n        IpfsUrl.multiHash = urlHash;\n        IpfsUrl.multiHash_Function = urlHash_Function;\n        assetID = generateAssetID(assetHash, IpfsUrl);\n        while (i < AssetIDS.length) {\n            Asset memory _asset = AIDToAsset[AssetIDS[i]];\n            require(AssetIDS[i] != assetID, \"AssetID already exists\");\n            require(_asset.assetHash != assetHash, \"AssetHash already exists\");\n            require(\n                _asset.assetUrl.multiHash != IpfsUrl.multiHash,\n                \"AssetCID already exists\"\n            );\n            i++;\n        }\n        certificateID = generateCertificateID(assetID, msg.sender);\n        AIDToCID[assetID] = certificateID;\n        AssetIDS.push(assetID);\n        uint256 assetIndex = AssetIDS.length - 1;\n        Asset memory asset = Asset(assetIndex, assetID, assetHash, IpfsUrl);\n        AIDToAsset[assetID] = asset;\n        CIDToAIDIndex[certificateID] = assetIndex;\n        Certificate memory certificate = Certificate(\n            CertificateIDS.length,\n            certificateID,\n            assetID,\n            new uint256[](0),\n            IpfsUrl,\n            title,\n            msg.sender,\n            msg.sender,\n            new address[](0),\n            true\n        );\n        CertificateIDS.push(certificateID);\n        CIDToCertificate[certificateID] = certificate;\n        CIDToCertificate[certificateID].ownershipHistory.push(msg.sender);\n        addressToUser[msg.sender].portfolio.push(certificateID);\n        //ERC721 Mint\n        Models.mint(msg.sender, certificateID);\n        emit ReturnCreateCertificate(\n            certificate.index,\n            certificate.certificateID,\n            assetID,\n            IpfsUrl,\n            msg.sender,\n            CIDToCertificate[certificateID].ownershipHistory,\n            CIDToCertificate[certificateID].licenses\n        );\n    }\n\n    function createLicense(\n        uint256 certificateID,\n        address licenseOwner,\n        bytes32 urlHash,\n        bytes4 urlHash_Function\n    ) public onlyCertificateOwner(certificateID) returns (uint256 licenseID) {\n        licenseID = generateLicenseID(\n            certificateID,\n            CIDToCertificate[certificateID].certificateOwner,\n            licenseOwner\n        );\n        IpfsHash memory licenseUrl = IpfsHash(urlHash, urlHash_Function);\n        License memory license = License(\n            LicenseIDS.length,\n            licenseID,\n            licenseOwner,\n            licenseUrl,\n            true\n        );\n        LicenseIDS.push(licenseID);\n        Models.mint(\n            CIDToCertificate[certificateID].certificateOwner,\n            licenseID\n        );\n        CIDToCertificate[certificateID].licenses.push(licenseID);\n        LIDToLicense[licenseID] = license;\n        addressToUser[msg.sender].portfolio.push(licenseID);\n        LIDToCID[licenseID] = certificateID;\n        emit ReturnCertificateLicenses(\n            CIDToCertificate[certificateID].licenses\n        );\n    }\n\n    function destroyToken(uint256 tokenID) public {\n        if (tokenID >= LI) {\n            while (\n                i <= CIDToCertificate[LIDToCID[tokenID]].licenses.length - 1\n            ) {\n                if (\n                    CIDToCertificate[LIDToCID[tokenID]].licenses[i] == tokenID\n                ) {\n                    CIDToCertificate[LIDToCID[tokenID]]\n                        .licenses[i] = CIDToCertificate[LIDToCID[tokenID]]\n                        .licenses[CIDToCertificate[LIDToCID[tokenID]]\n                        .licenses\n                        .length - 1];\n                    delete CIDToCertificate[LIDToCID[tokenID]]\n                        .licenses[CIDToCertificate[LIDToCID[tokenID]]\n                        .licenses\n                        .length - 1];\n                    CIDToCertificate[LIDToCID[tokenID]].licenses.pop();\n                    break;\n                }\n                i++;\n            }\n            LIDToLicense[tokenID].status = false;\n            Models.burn(msg.sender, tokenID);\n            emit ReturnDestroyToken(Models.exists(tokenID));\n        } else {\n            uint256 index = CIDToAIDIndex[tokenID];\n            uint256 CID = AIDToCID[AssetIDS[AssetIDS.length - 1]];\n            if(CertificateIDS[CertificateIDS.length - 1] != CID) {\n                emit ReturnMessage('CertIDS and AssetIDS are not indexed in sequence');\n            }\n            AssetIDS[index] = AssetIDS[AssetIDS.length - 1];\n            CIDToAIDIndex[CID] = index;\n            delete AssetIDS[AssetIDS.length - 1];\n            AssetIDS.pop();\n            CIDToCertificate[tokenID].status = false;\n            Models.burn(msg.sender, tokenID);\n            emit ReturnDestroyToken(Models.exists(tokenID));\n        }\n    }\n\n    function transferCertificte(address to, uint256 certificateID) public onlyCertificateOwner(certificateID) {\n        require(\n            isApprovedOrOwner(msg.sender, certificateID) == true,\n            \"You are not an allowed to transfer this certificate\"\n        );\n        require(certificateID < LI, \"You cannot transfer Licenses\");\n        require(\n            CIDToCertificate[certificateID].certificateOwner != to,\n            \"This user already owns this certificate\"\n        );\n        require(\n            CIDToCertificate[certificateID].status == true,\n            \"This certificate is closed\"\n        );\n        transferToken(msg.sender, to, certificateID);\n        CIDToCertificate[certificateID].certificateOwner = to;\n        CIDToCertificate[certificateID].ownershipHistory.push(to);\n        if (CIDToCertificate[certificateID].licenses.length > 0) {\n            while (i <= CIDToCertificate[certificateID].licenses.length - 1) {\n                transferToken(\n                    msg.sender,\n                    to,\n                    CIDToCertificate[certificateID].licenses[i]\n                );\n                i++;\n            }\n        }\n        emit ReturnTransferCertificate(\n            CIDToCertificate[certificateID].certificateCreator,\n            CIDToCertificate[certificateID].certificateOwner,\n            CIDToCertificate[certificateID].ownershipHistory,\n            CIDToCertificate[certificateID].licenses\n        );\n    }\n}\n",
  "sourcePath": "C:\\MyData\\Projects\\Portfolio\\dmct\\contracts\\DMCT\\DMCT.sol",
  "compiler": {
    "name": "solc",
    "version": "0.6.2+commit.bacdbe57.Emscripten.clang"
  },
  "schemaVersion": "3.2.0",
  "updatedAt": "2021-01-11T03:18:07.099Z",
  "networkType": "ethereum",
  "devdoc": {
    "methods": {
      "approve(address,uint256)": {
        "details": "See {IERC721-approve}."
      },
      "balanceOf(address)": {
        "details": "See {IERC721-balanceOf}."
      },
      "baseURI()": {
        "details": "Returns the base URI set via {_setBaseURI}. This will be automatically added as a prefix in {tokenURI} to each token's URI, or to the token ID if no specific URI is set for that token ID."
      },
      "getApproved(uint256)": {
        "details": "See {IERC721-getApproved}."
      },
      "isApprovedForAll(address,address)": {
        "details": "See {IERC721-isApprovedForAll}."
      },
      "name()": {
        "details": "See {IERC721Metadata-name}."
      },
      "owner()": {
        "details": "Returns the address of the current owner."
      },
      "ownerOf(uint256)": {
        "details": "See {IERC721-ownerOf}."
      },
      "renounceOwnership()": {
        "details": "Leaves the contract without owner. It will not be possible to call `onlyOwner` functions anymore. Can only be called by the current owner.     * NOTE: Renouncing ownership will leave the contract without an owner, thereby removing any functionality that is only available to the owner."
      },
      "safeTransferFrom(address,address,uint256)": {
        "details": "See {IERC721-safeTransferFrom}."
      },
      "safeTransferFrom(address,address,uint256,bytes)": {
        "details": "See {IERC721-safeTransferFrom}."
      },
      "setApprovalForAll(address,bool)": {
        "details": "See {IERC721-setApprovalForAll}."
      },
      "supportsInterface(bytes4)": {
        "details": "See {IERC165-supportsInterface}.     * Time complexity O(1), guaranteed to always use less than 30 000 gas."
      },
      "symbol()": {
        "details": "See {IERC721Metadata-symbol}."
      },
      "tokenByIndex(uint256)": {
        "details": "See {IERC721Enumerable-tokenByIndex}."
      },
      "tokenOfOwnerByIndex(address,uint256)": {
        "details": "See {IERC721Enumerable-tokenOfOwnerByIndex}."
      },
      "tokenURI(uint256)": {
        "details": "See {IERC721Metadata-tokenURI}."
      },
      "totalSupply()": {
        "details": "See {IERC721Enumerable-totalSupply}."
      },
      "transferFrom(address,address,uint256)": {
        "details": "See {IERC721-transferFrom}."
      },
      "transferOwnership(address)": {
        "details": "Transfers ownership of the contract to a new account (`newOwner`). Can only be called by the current owner."
      }
    }
  },
  "userdoc": {
    "methods": {}
  }
}