{
  "contractName": "IPFSEngine",
  "abi": [
    {
      "anonymous": false,
      "inputs": [
        {
          "indexed": false,
          "internalType": "string",
          "name": "_hash",
          "type": "string"
        }
      ],
      "name": "DataStoredInTheLog",
      "type": "event"
    },
    {
      "inputs": [
        {
          "internalType": "string",
          "name": "_hash",
          "type": "string"
        }
      ],
      "name": "storeDataAsString",
      "outputs": [],
      "stateMutability": "nonpayable",
      "type": "function"
    },
    {
      "inputs": [
        {
          "internalType": "bytes32",
          "name": "multiHash",
          "type": "bytes32"
        },
        {
          "internalType": "bytes4",
          "name": "multiHash_Function",
          "type": "bytes4"
        }
      ],
      "name": "storeDataAsStruct",
      "outputs": [
        {
          "components": [
            {
              "internalType": "bytes32",
              "name": "multiHash",
              "type": "bytes32"
            },
            {
              "internalType": "bytes4",
              "name": "multiHash_Function",
              "type": "bytes4"
            }
          ],
          "internalType": "struct IPFSEngine.IpfsHash",
          "name": "IpfsHashMemory",
          "type": "tuple"
        }
      ],
      "stateMutability": "pure",
      "type": "function"
    },
    {
      "inputs": [
        {
          "internalType": "string",
          "name": "_hash",
          "type": "string"
        }
      ],
      "name": "storeDataAsLog",
      "outputs": [],
      "stateMutability": "nonpayable",
      "type": "function"
    }
  ],
  "bytecode": "0x608060405234801561001057600080fd5b50610343806100206000396000f3fe608060405234801561001057600080fd5b50600436106100415760003560e01c806333242a1914610046578063a52361d01461005b578063cfd56b1914610084575b600080fd5b6100596100543660046101f2565b610097565b005b61006e6100693660046101b7565b6100d1565b60405161007b91906102e0565b60405180910390f35b6100596100923660046101f2565b6100ee565b7fdb08a06eba245dbd34ffbd08b80e14e9acdd66a8ca6f8f1f035348ced6ef7dc7816040516100c6919061028d565b60405180910390a150565b6100d9610105565b9182526001600160e01b031916602082015290565b805161010190600090602084019061011c565b5050565b604080518082019091526000808252602082015290565b828054600181600116156101000203166002900490600052602060002090601f016020900481019282601f1061015d57805160ff191683800117855561018a565b8280016001018555821561018a579182015b8281111561018a57825182559160200191906001019061016f565b5061019692915061019a565b5090565b6101b491905b8082111561019657600081556001016101a0565b90565b600080604083850312156101c9578182fd5b8235915060208301356001600160e01b0319811681146101e7578182fd5b809150509250929050565b600060208284031215610203578081fd5b813567ffffffffffffffff8082111561021a578283fd5b81840185601f82011261022b578384fd5b803592508183111561023b578384fd5b604051601f8401601f19168101602001838111828210171561025b578586fd5b604052838152818401602001871015610272578485fd5b610283846020830160208501610301565b9695505050505050565b6000602080835283518082850152825b818110156102b95785810183015185820160400152820161029d565b818111156102ca5783604083870101525b50601f01601f1916929092016040019392505050565b815181526020918201516001600160e01b0319169181019190915260400190565b8281833750600091015256fea2646970667358221220eedcaf56a66c74ebf112e24fd77087bff2a1c2cc21dba8a3fa7ac929335ddf4164736f6c63430006020033",
  "source": "pragma solidity ^0.6.0;\r\npragma experimental ABIEncoderV2;\r\n\r\ncontract IPFSEngine {\r\n    struct IpfsHash {\r\n        bytes32 multiHash;\r\n        bytes4 multiHash_Function;\r\n    }\r\n\r\n    string hash;\r\n\r\n    function storeDataAsString(string memory _hash) public {\r\n        hash = _hash;\r\n    }\r\n\r\n    function storeDataAsStruct(\r\n        bytes32 multiHash,\r\n        bytes4 multiHash_Function\r\n    ) public pure returns (IpfsHash memory IpfsHashMemory) {\r\n        IpfsHashMemory.multiHash = multiHash;\r\n        IpfsHashMemory.multiHash_Function = multiHash_Function;\r\n    }\r\n\r\n    event DataStoredInTheLog(string _hash);\r\n\r\n    function storeDataAsLog(string memory _hash) public {\r\n        emit DataStoredInTheLog(_hash);\r\n    }\r\n}\r\n",
  "sourcePath": "C:\\MyData\\Projects\\Portfolio\\contracts\\IPFSEngine.sol",
  "compiler": {
    "name": "solc",
    "version": "0.6.2+commit.bacdbe57.Emscripten.clang"
  },
  "schemaVersion": "3.2.0",
  "updatedAt": "2020-07-09T07:43:06.431Z",
  "devdoc": {
    "methods": {}
  },
  "userdoc": {
    "methods": {}
  }
}