{
  "contractName": "Models",
  "abi": [
    {
      "inputs": [],
      "stateMutability": "nonpayable",
      "type": "constructor"
    },
    {
      "anonymous": false,
      "inputs": [
        {
          "indexed": true,
          "internalType": "address",
          "name": "owner",
          "type": "address"
        },
        {
          "indexed": true,
          "internalType": "address",
          "name": "approved",
          "type": "address"
        },
        {
          "indexed": true,
          "internalType": "uint256",
          "name": "tokenId",
          "type": "uint256"
        }
      ],
      "name": "Approval",
      "type": "event"
    },
    {
      "anonymous": false,
      "inputs": [
        {
          "indexed": true,
          "internalType": "address",
          "name": "owner",
          "type": "address"
        },
        {
          "indexed": true,
          "internalType": "address",
          "name": "operator",
          "type": "address"
        },
        {
          "indexed": false,
          "internalType": "bool",
          "name": "approved",
          "type": "bool"
        }
      ],
      "name": "ApprovalForAll",
      "type": "event"
    },
    {
      "anonymous": false,
      "inputs": [
        {
          "indexed": false,
          "internalType": "string",
          "name": "_hash",
          "type": "string"
        }
      ],
      "name": "DataStoredInTheLog",
      "type": "event"
    },
    {
      "anonymous": false,
      "inputs": [
        {
          "indexed": true,
          "internalType": "address",
          "name": "previousOwner",
          "type": "address"
        },
        {
          "indexed": true,
          "internalType": "address",
          "name": "newOwner",
          "type": "address"
        }
      ],
      "name": "OwnershipTransferred",
      "type": "event"
    },
    {
      "anonymous": false,
      "inputs": [
        {
          "indexed": true,
          "internalType": "address",
          "name": "from",
          "type": "address"
        },
        {
          "indexed": true,
          "internalType": "address",
          "name": "to",
          "type": "address"
        },
        {
          "indexed": true,
          "internalType": "uint256",
          "name": "tokenId",
          "type": "uint256"
        }
      ],
      "name": "Transfer",
      "type": "event"
    },
    {
      "anonymous": false,
      "inputs": [
        {
          "indexed": false,
          "internalType": "uint256",
          "name": "AssetID",
          "type": "uint256"
        }
      ],
      "name": "returnAID",
      "type": "event"
    },
    {
      "anonymous": false,
      "inputs": [
        {
          "indexed": false,
          "internalType": "uint256",
          "name": "CertificateID",
          "type": "uint256"
        }
      ],
      "name": "returnCID",
      "type": "event"
    },
    {
      "anonymous": false,
      "inputs": [
        {
          "indexed": false,
          "internalType": "uint256",
          "name": "LicenseID",
          "type": "uint256"
        }
      ],
      "name": "returnLID",
      "type": "event"
    },
    {
      "inputs": [
        {
          "internalType": "uint256",
          "name": "",
          "type": "uint256"
        }
      ],
      "name": "AssetIDS",
      "outputs": [
        {
          "internalType": "uint256",
          "name": "",
          "type": "uint256"
        }
      ],
      "stateMutability": "view",
      "type": "function",
      "constant": true
    },
    {
      "inputs": [
        {
          "internalType": "uint256",
          "name": "",
          "type": "uint256"
        }
      ],
      "name": "CertificateIDS",
      "outputs": [
        {
          "internalType": "uint256",
          "name": "",
          "type": "uint256"
        }
      ],
      "stateMutability": "view",
      "type": "function",
      "constant": true
    },
    {
      "inputs": [
        {
          "internalType": "uint256",
          "name": "",
          "type": "uint256"
        }
      ],
      "name": "LIDToCID",
      "outputs": [
        {
          "internalType": "uint256",
          "name": "",
          "type": "uint256"
        }
      ],
      "stateMutability": "view",
      "type": "function",
      "constant": true
    },
    {
      "inputs": [
        {
          "internalType": "uint256",
          "name": "",
          "type": "uint256"
        }
      ],
      "name": "LicenseIDS",
      "outputs": [
        {
          "internalType": "uint256",
          "name": "",
          "type": "uint256"
        }
      ],
      "stateMutability": "view",
      "type": "function",
      "constant": true
    },
    {
      "inputs": [
        {
          "internalType": "address",
          "name": "to",
          "type": "address"
        },
        {
          "internalType": "uint256",
          "name": "tokenId",
          "type": "uint256"
        }
      ],
      "name": "approve",
      "outputs": [],
      "stateMutability": "nonpayable",
      "type": "function"
    },
    {
      "inputs": [
        {
          "internalType": "address",
          "name": "owner",
          "type": "address"
        }
      ],
      "name": "balanceOf",
      "outputs": [
        {
          "internalType": "uint256",
          "name": "",
          "type": "uint256"
        }
      ],
      "stateMutability": "view",
      "type": "function",
      "constant": true
    },
    {
      "inputs": [],
      "name": "baseURI",
      "outputs": [
        {
          "internalType": "string",
          "name": "",
          "type": "string"
        }
      ],
      "stateMutability": "view",
      "type": "function",
      "constant": true
    },
    {
      "inputs": [
        {
          "internalType": "uint256",
          "name": "tokenId",
          "type": "uint256"
        }
      ],
      "name": "getApproved",
      "outputs": [
        {
          "internalType": "address",
          "name": "",
          "type": "address"
        }
      ],
      "stateMutability": "view",
      "type": "function",
      "constant": true
    },
    {
      "inputs": [
        {
          "internalType": "address",
          "name": "owner",
          "type": "address"
        },
        {
          "internalType": "address",
          "name": "operator",
          "type": "address"
        }
      ],
      "name": "isApprovedForAll",
      "outputs": [
        {
          "internalType": "bool",
          "name": "",
          "type": "bool"
        }
      ],
      "stateMutability": "view",
      "type": "function",
      "constant": true
    },
    {
      "inputs": [],
      "name": "name",
      "outputs": [
        {
          "internalType": "string",
          "name": "",
          "type": "string"
        }
      ],
      "stateMutability": "view",
      "type": "function",
      "constant": true
    },
    {
      "inputs": [],
      "name": "owner",
      "outputs": [
        {
          "internalType": "address",
          "name": "",
          "type": "address"
        }
      ],
      "stateMutability": "view",
      "type": "function",
      "constant": true
    },
    {
      "inputs": [
        {
          "internalType": "uint256",
          "name": "tokenId",
          "type": "uint256"
        }
      ],
      "name": "ownerOf",
      "outputs": [
        {
          "internalType": "address",
          "name": "",
          "type": "address"
        }
      ],
      "stateMutability": "view",
      "type": "function",
      "constant": true
    },
    {
      "inputs": [],
      "name": "renounceOwnership",
      "outputs": [],
      "stateMutability": "nonpayable",
      "type": "function"
    },
    {
      "inputs": [
        {
          "internalType": "address",
          "name": "from",
          "type": "address"
        },
        {
          "internalType": "address",
          "name": "to",
          "type": "address"
        },
        {
          "internalType": "uint256",
          "name": "tokenId",
          "type": "uint256"
        }
      ],
      "name": "safeTransferFrom",
      "outputs": [],
      "stateMutability": "nonpayable",
      "type": "function"
    },
    {
      "inputs": [
        {
          "internalType": "address",
          "name": "from",
          "type": "address"
        },
        {
          "internalType": "address",
          "name": "to",
          "type": "address"
        },
        {
          "internalType": "uint256",
          "name": "tokenId",
          "type": "uint256"
        },
        {
          "internalType": "bytes",
          "name": "_data",
          "type": "bytes"
        }
      ],
      "name": "safeTransferFrom",
      "outputs": [],
      "stateMutability": "nonpayable",
      "type": "function"
    },
    {
      "inputs": [
        {
          "internalType": "address",
          "name": "operator",
          "type": "address"
        },
        {
          "internalType": "bool",
          "name": "approved",
          "type": "bool"
        }
      ],
      "name": "setApprovalForAll",
      "outputs": [],
      "stateMutability": "nonpayable",
      "type": "function"
    },
    {
      "inputs": [
        {
          "internalType": "string",
          "name": "_hash",
          "type": "string"
        }
      ],
      "name": "storeDataAsLog",
      "outputs": [],
      "stateMutability": "nonpayable",
      "type": "function"
    },
    {
      "inputs": [
        {
          "internalType": "string",
          "name": "_hash",
          "type": "string"
        }
      ],
      "name": "storeDataAsString",
      "outputs": [],
      "stateMutability": "nonpayable",
      "type": "function"
    },
    {
      "inputs": [
        {
          "internalType": "bytes32",
          "name": "multiHash",
          "type": "bytes32"
        },
        {
          "internalType": "bytes4",
          "name": "multiHash_Function",
          "type": "bytes4"
        }
      ],
      "name": "storeDataAsStruct",
      "outputs": [
        {
          "components": [
            {
              "internalType": "bytes32",
              "name": "multiHash",
              "type": "bytes32"
            },
            {
              "internalType": "bytes4",
              "name": "multiHash_Function",
              "type": "bytes4"
            }
          ],
          "internalType": "struct IPFSEngine.IpfsHash",
          "name": "IpfsHashMemory",
          "type": "tuple"
        }
      ],
      "stateMutability": "pure",
      "type": "function",
      "constant": true
    },
    {
      "inputs": [
        {
          "internalType": "bytes4",
          "name": "interfaceId",
          "type": "bytes4"
        }
      ],
      "name": "supportsInterface",
      "outputs": [
        {
          "internalType": "bool",
          "name": "",
          "type": "bool"
        }
      ],
      "stateMutability": "view",
      "type": "function",
      "constant": true
    },
    {
      "inputs": [],
      "name": "symbol",
      "outputs": [
        {
          "internalType": "string",
          "name": "",
          "type": "string"
        }
      ],
      "stateMutability": "view",
      "type": "function",
      "constant": true
    },
    {
      "inputs": [
        {
          "internalType": "uint256",
          "name": "index",
          "type": "uint256"
        }
      ],
      "name": "tokenByIndex",
      "outputs": [
        {
          "internalType": "uint256",
          "name": "",
          "type": "uint256"
        }
      ],
      "stateMutability": "view",
      "type": "function",
      "constant": true
    },
    {
      "inputs": [
        {
          "internalType": "address",
          "name": "owner",
          "type": "address"
        },
        {
          "internalType": "uint256",
          "name": "index",
          "type": "uint256"
        }
      ],
      "name": "tokenOfOwnerByIndex",
      "outputs": [
        {
          "internalType": "uint256",
          "name": "",
          "type": "uint256"
        }
      ],
      "stateMutability": "view",
      "type": "function",
      "constant": true
    },
    {
      "inputs": [
        {
          "internalType": "uint256",
          "name": "tokenId",
          "type": "uint256"
        }
      ],
      "name": "tokenURI",
      "outputs": [
        {
          "internalType": "string",
          "name": "",
          "type": "string"
        }
      ],
      "stateMutability": "view",
      "type": "function",
      "constant": true
    },
    {
      "inputs": [],
      "name": "totalSupply",
      "outputs": [
        {
          "internalType": "uint256",
          "name": "",
          "type": "uint256"
        }
      ],
      "stateMutability": "view",
      "type": "function",
      "constant": true
    },
    {
      "inputs": [
        {
          "internalType": "address",
          "name": "from",
          "type": "address"
        },
        {
          "internalType": "address",
          "name": "to",
          "type": "address"
        },
        {
          "internalType": "uint256",
          "name": "tokenId",
          "type": "uint256"
        }
      ],
      "name": "transferFrom",
      "outputs": [],
      "stateMutability": "nonpayable",
      "type": "function"
    },
    {
      "inputs": [
        {
          "internalType": "address",
          "name": "newOwner",
          "type": "address"
        }
      ],
      "name": "transferOwnership",
      "outputs": [],
      "stateMutability": "nonpayable",
      "type": "function"
    }
  ],
  "bytecode": "0x60806040526020600f556d04ee2d6d415b85acef810000000060108190556011556d09dc5ada82b70b59df02000000006012556d0eca8847c4129106ce83000000006013553480156200005157600080fd5b50604080518082018252601d81527f4469676974616c204d6564696120436f7079726967687420546f6b656e00000060208083019190915282518084019093526004835263111350d560e21b9083015290620000bd6301ffc9a760e01b6001600160e01b03620001a616565b8151620000d290600690602085019062000206565b508051620000e890600790602084019062000206565b50620001046380ac58cd60e01b6001600160e01b03620001a616565b6200011f635b5e139f60e01b6001600160e01b03620001a616565b6200013a63780e9d6360e01b6001600160e01b03620001a616565b5060009050620001526001600160e01b036200020116565b600a80546001600160a01b0319166001600160a01b038316908117909155604051919250906000907f8be0079c531659141344cd1fd0a4f28419497f9722a3daafe3b4186f6b6457e0908290a350620002df565b6001600160e01b03198082161415620001dc5760405162461bcd60e51b8152600401620001d390620002a8565b60405180910390fd5b6001600160e01b0319166000908152602081905260409020805460ff19166001179055565b335b90565b828054600181600116156101000203166002900490600052602060002090601f016020900481019282601f106200024957805160ff191683800117855562000279565b8280016001018555821562000279579182015b82811115620002795782518255916020019190600101906200025c565b50620002879291506200028b565b5090565b6200020391905b8082111562000287576000815560010162000292565b6020808252601c908201527f4552433136353a20696e76616c696420696e7465726661636520696400000000604082015260600190565b611df980620002ef6000396000f3fe608060405234801561001057600080fd5b50600436106101a95760003560e01c80636c0360eb116100f9578063b88d4fde11610097578063d168614011610071578063d16861401461036d578063e985e9c514610380578063f2fde38b14610393578063fd7d4c0e146103a6576101a9565b8063b88d4fde14610334578063c87b56dd14610347578063cfd56b191461035a576101a9565b80638da5cb5b116100d35780638da5cb5b146102f157806395d89b41146102f9578063a22cb46514610301578063a52361d014610314576101a9565b80636c0360eb146102ce57806370a08231146102d6578063715018a6146102e9576101a9565b80632f745c59116101665780634e325ed3116101405780634e325ed3146102825780634f6ccce7146102955780635d3ea9c9146102a85780636352211e146102bb576101a9565b80632f745c591461024957806333242a191461025c57806342842e0e1461026f576101a9565b806301ffc9a7146101ae57806306fdde03146101d7578063081812fc146101ec578063095ea7b31461020c57806318160ddd1461022157806323b872dd14610236575b600080fd5b6101c16101bc3660046116bd565b6103b9565b6040516101ce919061185a565b60405180910390f35b6101df6103dc565b6040516101ce9190611865565b6101ff6101fa366004611728565b610473565b6040516101ce9190611809565b61021f61021a36600461166f565b6104bf565b005b610229610557565b6040516101ce9190611d05565b61021f61024436600461158c565b610568565b61022961025736600461166f565b6105a0565b61021f61026a3660046116f5565b6105d1565b61021f61027d36600461158c565b61060b565b610229610290366004611728565b610626565b6102296102a3366004611728565b610644565b6102296102b6366004611728565b610660565b6101ff6102c9366004611728565b610672565b6101df6106a0565b6102296102e436600461153d565b610701565b61021f61074a565b6101ff6107c9565b6101df6107d8565b61021f61030f366004611634565b610839565b610327610322366004611699565b610907565b6040516101ce9190611ce4565b61021f6103423660046115cc565b610924565b6101df610355366004611728565b610963565b61021f6103683660046116f5565b610aad565b61022961037b366004611728565b610ac4565b6101c161038e366004611558565b610ad1565b61021f6103a136600461153d565b610aff565b6102296103b4366004611728565b610bb6565b6001600160e01b0319811660009081526020819052604090205460ff165b919050565b60068054604080516020601f60026000196101006001881615020190951694909404938401819004810282018101909252828152606093909290918301828280156104685780601f1061043d57610100808354040283529160200191610468565b820191906000526020600020905b81548152906001019060200180831161044b57829003601f168201915b505050505090505b90565b600061047e82610bc3565b6104a35760405162461bcd60e51b815260040161049a90611b02565b60405180910390fd5b506000908152600460205260409020546001600160a01b031690565b60006104ca82610672565b9050806001600160a01b0316836001600160a01b031614156104fe5760405162461bcd60e51b815260040161049a90611c1b565b806001600160a01b0316610510610bd6565b6001600160a01b0316148061052c575061052c8161038e610bd6565b6105485760405162461bcd60e51b815260040161049a90611a19565b6105528383610bda565b505050565b60006105636002610c48565b905090565b610579610573610bd6565b82610c53565b6105955760405162461bcd60e51b815260040161049a90611c5c565b610552838383610cd8565b6001600160a01b03821660009081526001602052604081206105c8908363ffffffff610df816565b90505b92915050565b7fdb08a06eba245dbd34ffbd08b80e14e9acdd66a8ca6f8f1f035348ced6ef7dc7816040516106009190611865565b60405180910390a150565b61055283838360405180602001604052806000815250610924565b600d818154811061063357fe5b600091825260209091200154905081565b60008061065860028463ffffffff610e0416565b509392505050565b60176020526000908152604090205481565b60006105cb82604051806060016040528060298152602001611d9b602991396002919063ffffffff610e2016565b60098054604080516020601f60026000196101006001881615020190951694909404938401819004810282018101909252828152606093909290918301828280156104685780601f1061043d57610100808354040283529160200191610468565b60006001600160a01b0382166107295760405162461bcd60e51b815260040161049a90611a76565b6001600160a01b03821660009081526001602052604090206105cb90610c48565b610752610bd6565b600a546001600160a01b0390811691161461077f5760405162461bcd60e51b815260040161049a90611b4e565b600a546040516000916001600160a01b0316907f8be0079c531659141344cd1fd0a4f28419497f9722a3daafe3b4186f6b6457e0908390a3600a80546001600160a01b0319169055565b600a546001600160a01b031690565b60078054604080516020601f60026000196101006001881615020190951694909404938401819004810282018101909252828152606093909290918301828280156104685780601f1061043d57610100808354040283529160200191610468565b610841610bd6565b6001600160a01b0316826001600160a01b031614156108725760405162461bcd60e51b815260040161049a90611996565b806005600061087f610bd6565b6001600160a01b03908116825260208083019390935260409182016000908120918716808252919093529120805460ff1916921515929092179091556108c3610bd6565b6001600160a01b03167f17307eab39ab6107e8899845ad3d59bd9653f200f220920489ca2b5937696c31836040516108fb919061185a565b60405180910390a35050565b61090f6113f9565b9182526001600160e01b031916602082015290565b61093561092f610bd6565b83610c53565b6109515760405162461bcd60e51b815260040161049a90611c5c565b61095d84848484610e37565b50505050565b606061096e82610bc3565b61098a5760405162461bcd60e51b815260040161049a90611bcc565b60008281526008602090815260409182902080548351601f6002600019610100600186161502019093169290920491820184900484028101840190945280845260609392830182828015610a1f5780601f106109f457610100808354040283529160200191610a1f565b820191906000526020600020905b815481529060010190602001808311610a0257829003601f168201915b505060095493945050505060026000196101006001841615020190911604610a485790506103d7565b805115610a7a57600981604051602001610a63929190611788565b6040516020818303038152906040529150506103d7565b6009610a8584610e6a565b604051602001610a96929190611788565b604051602081830303815290604052915050919050565b8051610ac090600b906020840190611410565b5050565b600e818154811061063357fe5b6001600160a01b03918216600090815260056020908152604080832093909416825291909152205460ff1690565b610b07610bd6565b600a546001600160a01b03908116911614610b345760405162461bcd60e51b815260040161049a90611b4e565b6001600160a01b038116610b5a5760405162461bcd60e51b815260040161049a9061190c565b600a546040516001600160a01b038084169216907f8be0079c531659141344cd1fd0a4f28419497f9722a3daafe3b4186f6b6457e090600090a3600a80546001600160a01b0319166001600160a01b0392909216919091179055565b600c818154811061063357fe5b60006105cb60028363ffffffff610f2e16565b3390565b600081815260046020526040902080546001600160a01b0319166001600160a01b0384169081179091558190610c0f82610672565b6001600160a01b03167f8c5be1e5ebec7d5bd14f71427d1e84f3dd0314c0f7b2291e5b200ac8c7c3b92560405160405180910390a45050565b60006105cb82610f3a565b6000610c5e82610bc3565b610c7a5760405162461bcd60e51b815260040161049a906119cd565b6000610c8583610672565b9050806001600160a01b0316846001600160a01b03161480610cc05750836001600160a01b0316610cb584610473565b6001600160a01b0316145b80610cd05750610cd08185610ad1565b949350505050565b826001600160a01b0316610ceb82610672565b6001600160a01b031614610d115760405162461bcd60e51b815260040161049a90611b83565b6001600160a01b038216610d375760405162461bcd60e51b815260040161049a90611952565b610d42838383610552565b610d4d600082610bda565b6001600160a01b0383166000908152600160205260409020610d75908263ffffffff610f3e16565b506001600160a01b0382166000908152600160205260409020610d9e908263ffffffff610f4a16565b50610db16002828463ffffffff610f5616565b5080826001600160a01b0316846001600160a01b03167fddf252ad1be2c89b69c2b068fc378daa952ba7f163c4a11628f55a4df523b3ef60405160405180910390a4505050565b60006105c88383610f6c565b6000808080610e138686610fb1565b9097909650945050505050565b6000610e2d84848461100d565b90505b9392505050565b610e42848484610cd8565b610e4e8484848461106c565b61095d5760405162461bcd60e51b815260040161049a906118ba565b606081610e8f57506040805180820190915260018152600360fc1b60208201526103d7565b8160005b8115610ea757600101600a82049150610e93565b6060816040519080825280601f01601f191660200182016040528015610ed4576020820181803883390190505b50859350905060001982015b8315610f2557600a840660300160f81b82828060019003935081518110610f0357fe5b60200101906001600160f81b031916908160001a905350600a84049350610ee0565b50949350505050565b60006105c88383611151565b5490565b60006105c88383611169565b60006105c8838361122f565b6000610e2d84846001600160a01b038516611279565b81546000908210610f8f5760405162461bcd60e51b815260040161049a90611878565b826000018281548110610f9e57fe5b9060005260206000200154905092915050565b815460009081908310610fd65760405162461bcd60e51b815260040161049a90611ac0565b6000846000018481548110610fe757fe5b906000526020600020906002020190508060000154816001015492509250509250929050565b6000828152600184016020526040812054828161103d5760405162461bcd60e51b815260040161049a9190611865565b5084600001600182038154811061105057fe5b9060005260206000209060020201600101549150509392505050565b6000611080846001600160a01b0316611310565b61108c57506001610cd0565b606061111a630a85bd0160e11b6110a1610bd6565b8887876040516024016110b7949392919061181d565b604051602081830303815290604052906001600160e01b0319166020820180516001600160e01b038381831617835250505050604051806060016040528060328152602001611d69603291396001600160a01b038816919063ffffffff61131616565b905060008180602001905161113291908101906116d9565b6001600160e01b031916630a85bd0160e11b1492505050949350505050565b60009081526001919091016020526040902054151590565b60008181526001830160205260408120548015611225578354600019808301919081019060009087908390811061119c57fe5b90600052602060002001549050808760000184815481106111b957fe5b6000918252602080832090910192909255828152600189810190925260409020908401905586548790806111e957fe5b600190038181906000526020600020016000905590558660010160008781526020019081526020016000206000905560019450505050506105cb565b60009150506105cb565b600061123b8383611151565b611271575081546001818101845560008481526020808220909301849055845484825282860190935260409020919091556105cb565b5060006105cb565b6000828152600184016020526040812054806112de575050604080518082018252838152602080820184815286546001818101895560008981528481209551600290930290950191825591519082015586548684528188019092529290912055610e30565b828560000160018303815481106112f157fe5b9060005260206000209060020201600101819055506000915050610e30565b3b151590565b6060610e2d84846000858561132a85611310565b6113465760405162461bcd60e51b815260040161049a90611cad565b60006060866001600160a01b03168587604051611363919061176c565b60006040518083038185875af1925050503d80600081146113a0576040519150601f19603f3d011682016040523d82523d6000602084013e6113a5565b606091505b50915091506113b58282866113c0565b979650505050505050565b606083156113cf575081610e30565b8251156113df5782518084602001fd5b8160405162461bcd60e51b815260040161049a9190611865565b604080518082019091526000808252602082015290565b828054600181600116156101000203166002900490600052602060002090601f016020900481019282601f1061145157805160ff191683800117855561147e565b8280016001018555821561147e579182015b8281111561147e578251825591602001919060010190611463565b5061148a92915061148e565b5090565b61047091905b8082111561148a5760008155600101611494565b80356001600160a01b03811681146105cb57600080fd5b600082601f8301126114cf578081fd5b813567ffffffffffffffff808211156114e6578283fd5b604051601f8301601f191681016020018281118282101715611506578485fd5b60405282815292508284830160200186101561152157600080fd5b8260208601602083013760006020848301015250505092915050565b60006020828403121561154e578081fd5b6105c883836114a8565b6000806040838503121561156a578081fd5b61157484846114a8565b915061158384602085016114a8565b90509250929050565b6000806000606084860312156115a0578081fd5b83356115ab81611d3a565b925060208401356115bb81611d3a565b929592945050506040919091013590565b600080600080608085870312156115e1578081fd5b6115eb86866114a8565b93506115fa86602087016114a8565b925060408501359150606085013567ffffffffffffffff81111561161c578182fd5b611628878288016114bf565b91505092959194509250565b60008060408385031215611646578182fd5b61165084846114a8565b915060208301358015158114611664578182fd5b809150509250929050565b60008060408385031215611681578182fd5b61168b84846114a8565b946020939093013593505050565b600080604083850312156116ab578182fd5b82359150602083013561166481611d52565b6000602082840312156116ce578081fd5b8135610e3081611d52565b6000602082840312156116ea578081fd5b8151610e3081611d52565b600060208284031215611706578081fd5b813567ffffffffffffffff81111561171c578182fd5b610cd0848285016114bf565b600060208284031215611739578081fd5b5035919050565b60008151808452611758816020860160208601611d0e565b601f01601f19169290920160200192915050565b6000825161177e818460208701611d0e565b9190910192915050565b60008084546001808216600081146117a757600181146117be576117ed565b60ff198316865260028304607f16860193506117ed565b600283048886526020808720875b838110156117e55781548a8201529085019082016117cc565b505050860193505b5050508351611800818360208801611d0e565b01949350505050565b6001600160a01b0391909116815260200190565b6001600160a01b038581168252841660208201526040810183905260806060820181905260009061185090830184611740565b9695505050505050565b901515815260200190565b6000602082526105c86020830184611740565b60208082526022908201527f456e756d657261626c655365743a20696e646578206f7574206f6620626f756e604082015261647360f01b606082015260800190565b60208082526032908201527f4552433732313a207472616e7366657220746f206e6f6e20455243373231526560408201527131b2b4bb32b91034b6b83632b6b2b73a32b960711b606082015260800190565b60208082526026908201527f4f776e61626c653a206e6577206f776e657220697320746865207a65726f206160408201526564647265737360d01b606082015260800190565b60208082526024908201527f4552433732313a207472616e7366657220746f20746865207a65726f206164646040820152637265737360e01b606082015260800190565b60208082526019908201527f4552433732313a20617070726f766520746f2063616c6c657200000000000000604082015260600190565b6020808252602c908201527f4552433732313a206f70657261746f7220717565727920666f72206e6f6e657860408201526b34b9ba32b73a103a37b5b2b760a11b606082015260800190565b60208082526038908201527f4552433732313a20617070726f76652063616c6c6572206973206e6f74206f7760408201527f6e6572206e6f7220617070726f76656420666f7220616c6c0000000000000000606082015260800190565b6020808252602a908201527f4552433732313a2062616c616e636520717565727920666f7220746865207a65604082015269726f206164647265737360b01b606082015260800190565b60208082526022908201527f456e756d657261626c654d61703a20696e646578206f7574206f6620626f756e604082015261647360f01b606082015260800190565b6020808252602c908201527f4552433732313a20617070726f76656420717565727920666f72206e6f6e657860408201526b34b9ba32b73a103a37b5b2b760a11b606082015260800190565b6020808252818101527f4f776e61626c653a2063616c6c6572206973206e6f7420746865206f776e6572604082015260600190565b60208082526029908201527f4552433732313a207472616e73666572206f6620746f6b656e2074686174206960408201526839903737ba1037bbb760b91b606082015260800190565b6020808252602f908201527f4552433732314d657461646174613a2055524920717565727920666f72206e6f60408201526e3732bc34b9ba32b73a103a37b5b2b760891b606082015260800190565b60208082526021908201527f4552433732313a20617070726f76616c20746f2063757272656e74206f776e656040820152603960f91b606082015260800190565b60208082526031908201527f4552433732313a207472616e736665722063616c6c6572206973206e6f74206f6040820152701ddb995c881b9bdc88185c1c1c9bdd9959607a1b606082015260800190565b6020808252601d908201527f416464726573733a2063616c6c20746f206e6f6e2d636f6e7472616374000000604082015260600190565b815181526020918201516001600160e01b0319169181019190915260400190565b90815260200190565b60005b83811015611d29578181015183820152602001611d11565b8381111561095d5750506000910152565b6001600160a01b0381168114611d4f57600080fd5b50565b6001600160e01b031981168114611d4f57600080fdfe4552433732313a207472616e7366657220746f206e6f6e20455243373231526563656976657220696d706c656d656e7465724552433732313a206f776e657220717565727920666f72206e6f6e6578697374656e7420746f6b656ea2646970667358221220d819250a6152072db8f7c40fae87aec887008595b3d5959891ac18e0b09966e464736f6c63430006020033",
  "source": "pragma solidity ^0.6.0;\npragma experimental ABIEncoderV2;\n\nimport \"../node_modules/@openzeppelin/contracts/access/Ownable.sol\";\nimport \"../node_modules/@openzeppelin/contracts/math/SafeMath.sol\";\nimport \"../node_modules/@openzeppelin/contracts/token/ERC721/ERC721.sol\";\nimport \"./IPFSEngine.sol\";\n\ncontract Models is ERC721, Ownable, IPFSEngine {\n    using SafeMath for uint256;\n    constructor() public ERC721(\"Digital Media Copyright Token\", \"DMCT\") {}\n\n    //Events\n    event returnAID(uint256 AssetID);\n    event returnCID(uint256 CertificateID);\n    event returnLID(uint256 LicenseID);\n\n    //Global Variables\n    uint256[] public CertificateIDS;\n    uint256[] public LicenseIDS;\n    uint256[] public AssetIDS;\n\n    struct User {\n        address userAddress;\n        string userName;\n        uint256[] portfolio;\n    }\n    struct Asset {\n        uint256 index;\n        uint256 assetID;\n        bytes8 assetHash;\n        IpfsHash assetUrl;\n    }\n    struct License {\n        uint256 index;\n        uint256 licenseID;\n        address licenseOwner;\n        IpfsHash url;\n        bool status;\n    }\n    struct Certificate {\n        uint256 index;\n        uint256 certificateID; //CID\n        uint256 assetID; //AID\n        uint256[] licenses;\n        IpfsHash url;\n        string title;\n        address certificateCreator;\n        address certificateOwner;\n        address[] ownershipHistory;\n        bool status;\n    }\n\n    //Local Variables Declarations\n    uint256 internal _IDSIZE = 32;\n    uint256 internal _IDMODULUS = 10**_IDSIZE;\n    uint256 internal AI = 10**(_IDSIZE);\n    uint256 internal CI = 2 * (10**(_IDSIZE));\n    uint256 internal LI = 3 * (10**(_IDSIZE));\n\n    //Mappings\n    mapping(uint256 => Asset) AIDToAsset;\n    mapping(uint256 => Certificate) CIDToCertificate;\n    mapping(uint256 => License) LIDToLicense;\n    mapping(uint256 => uint256) public LIDToCID;\n    mapping(uint256 => uint256) AIDToCID;\n    mapping(uint256 => uint256) CIDToAIDIndex;\n    mapping(address => User) addressToUser;\n\n    //Security Access Modifiers\n    modifier onlyCreator(uint256 ID) {\n        if (ID < LI) {\n            require(\n                msg.sender == CIDToCertificate[ID].certificateCreator,\n                \"You are not the creator of this certificate\"\n            );\n        } else if (ID > LI) {\n            uint256 CID = LIDToCID[ID];\n            require(\n                msg.sender == CIDToCertificate[CID].certificateCreator,\n                \"You are not the creator of this license\"\n            );\n        }\n        _;\n    }\n\n    modifier onlyCertificateOwner(uint256 CID) {\n        require(CID < LI, \"CID is larger than the LI\");\n        require(\n            ownerOfToken(CID) == msg.sender,\n            \"Msg.sender is not the owner of the token\"\n        );\n        require(\n            msg.sender == CIDToCertificate[CID].certificateOwner,\n            \"You are not the owner of this certificate\"\n        );\n        _;\n    }\n\n    modifier onlyLicenseOwner(uint256 LID) {\n        require(LID > LI, \"LID is less than LI\");\n        require(\n            msg.sender == LIDToLicense[LID].licenseOwner,\n            \"Msg.sender is not the license owner\"\n        );\n        require(\n            ownerOfToken(LID) == msg.sender,\n            \"Msg.sender is not the owner of the token\"\n        );\n        _;\n    }\n\n    //SHA Encoding Functions\n    function generateAssetID(bytes8 assetHash, IpfsHash memory ipfsUrl)\n        internal\n        view\n        returns (uint256 assetID)\n    {\n        assetID = SafeMath.add(AI, (uint256(sha256(abi.encodePacked(assetHash, ipfsUrl.multiHash))) % _IDMODULUS));\n    }\n\n    function generateLicenseID(\n        uint256 certificateID,\n        address licenseCreator,\n        address licenseOwner\n    ) internal view returns (uint256 licenseID) {\n        licenseID = SafeMath.add(LI, (uint256(sha256(abi.encodePacked(certificateID,licenseCreator,licenseOwner))) % _IDMODULUS));\n    }\n\n    function generateCertificateID(uint256 assetID, address creator)\n        internal\n        view\n        returns (uint256 certificateID)\n    {\n        certificateID = SafeMath.add(CI, (uint256(sha256(abi.encodePacked(assetID, creator))) % _IDMODULUS));\n    }\n\n    //ERC721 Functions\n    function mint(address owner, uint256 ID) internal {\n        super._mint(owner, ID);\n    }\n\n    function burn(address owner, uint256 tokenID) internal {\n        require(isApprovedOrOwner(owner, tokenID) == true, 'You are not authorized to burn this token');\n        super._burn(tokenID);\n    }\n\n    function transferToken(\n        address from,\n        address to,\n        uint256 tokenID\n    ) internal {\n        super.safeTransferFrom(from, to, tokenID);\n    }\n\n    function isApprovedOrOwner(address _owner, uint256 _tokenID)\n        internal\n        view\n        returns (bool status)\n    {\n        status = super._isApprovedOrOwner(_owner, _tokenID);\n    }\n\n    function balance(address owner) internal view returns (uint256 _balance) {\n        _balance = super.balanceOf(owner);\n    }\n\n    function exists(uint256 _tokenID) internal view returns (bool status) {\n        status = super._exists(_tokenID);\n    }\n\n    function ownerOfToken(uint256 tokenID)\n        internal\n        view\n        returns (address owner)\n    {\n        owner = super.ownerOf(tokenID);\n    }\n\n    //Ownable Functions\n\n    //Safemath Functions\n}\n",
  "sourcePath": "C:\\MyData\\Projects\\Portfolio\\dmct\\contracts\\Models.sol",
  "compiler": {
    "name": "solc",
    "version": "0.6.2+commit.bacdbe57.Emscripten.clang"
  },
  "schemaVersion": "3.2.0",
  "updatedAt": "2021-01-11T03:18:07.069Z",
  "networkType": "ethereum",
  "devdoc": {
    "methods": {
      "approve(address,uint256)": {
        "details": "See {IERC721-approve}."
      },
      "balanceOf(address)": {
        "details": "See {IERC721-balanceOf}."
      },
      "baseURI()": {
        "details": "Returns the base URI set via {_setBaseURI}. This will be automatically added as a prefix in {tokenURI} to each token's URI, or to the token ID if no specific URI is set for that token ID."
      },
      "getApproved(uint256)": {
        "details": "See {IERC721-getApproved}."
      },
      "isApprovedForAll(address,address)": {
        "details": "See {IERC721-isApprovedForAll}."
      },
      "name()": {
        "details": "See {IERC721Metadata-name}."
      },
      "owner()": {
        "details": "Returns the address of the current owner."
      },
      "ownerOf(uint256)": {
        "details": "See {IERC721-ownerOf}."
      },
      "renounceOwnership()": {
        "details": "Leaves the contract without owner. It will not be possible to call `onlyOwner` functions anymore. Can only be called by the current owner.     * NOTE: Renouncing ownership will leave the contract without an owner, thereby removing any functionality that is only available to the owner."
      },
      "safeTransferFrom(address,address,uint256)": {
        "details": "See {IERC721-safeTransferFrom}."
      },
      "safeTransferFrom(address,address,uint256,bytes)": {
        "details": "See {IERC721-safeTransferFrom}."
      },
      "setApprovalForAll(address,bool)": {
        "details": "See {IERC721-setApprovalForAll}."
      },
      "supportsInterface(bytes4)": {
        "details": "See {IERC165-supportsInterface}.     * Time complexity O(1), guaranteed to always use less than 30 000 gas."
      },
      "symbol()": {
        "details": "See {IERC721Metadata-symbol}."
      },
      "tokenByIndex(uint256)": {
        "details": "See {IERC721Enumerable-tokenByIndex}."
      },
      "tokenOfOwnerByIndex(address,uint256)": {
        "details": "See {IERC721Enumerable-tokenOfOwnerByIndex}."
      },
      "tokenURI(uint256)": {
        "details": "See {IERC721Metadata-tokenURI}."
      },
      "totalSupply()": {
        "details": "See {IERC721Enumerable-totalSupply}."
      },
      "transferFrom(address,address,uint256)": {
        "details": "See {IERC721-transferFrom}."
      },
      "transferOwnership(address)": {
        "details": "Transfers ownership of the contract to a new account (`newOwner`). Can only be called by the current owner."
      }
    }
  },
  "userdoc": {
    "methods": {}
  }
}